:020000040000FA
:0400000040EF0CF0D1
:0800080067EF00F000000000AA
:100010000000000000000000056ED8CF06F0E0CF21
:1000200007F00001E9CF0DF0EACF08F0E1CF09F0C9
:10003000E2CF0AF0D9CF0BF0DACF0CF0F3CF14F007
:10004000F4CF15F0FACF16F0FBCF17F000C00FF089
:1000500001C010F002C011F003C012F004C013F090
:10006000F2AA36EF00F0F2B4F9EF08F09DA03CEFF1
:1000700000F09EB003EF09F0A0A842EF00F0A1B895
:1000800056EF08F00FC000F010C001F011C002F0F0
:1000900012C003F013C004F00E8E0DC0E9FF08C0BB
:1000A000EAFF09C0E1FF0AC0E2FF0BC0D9FF0CC0A4
:1000B000DAFF14C0F3FF15C0F4FF16C0FAFF17C033
:1000C000FBFF055007C0E0FF06C0D8FF100000018D
:1000D000E9CF1FF0EACF1AF0E1CF1BF0E2CF1CF01E
:1000E000D9CF1DF0DACF1EF0F3CF26F0F4CF27F0F2
:1000F000FACF28F0FBCF29F000C021F001C022F098
:1001000002C023F003C024F004C025F0F2A88CEF55
:1001100000F0F2B2BBEF08F09DAA92EF00F09EBA99
:10012000EDEF08F021C000F022C001F023C002F082
:1001300024C003F025C004F0208E1FC0E9FF1AC0C0
:10014000EAFF1BC0E1FF1CC0E2FF1DC0D9FF1EC0BB
:10015000DAFF26C0F3FF27C0F4FF28C0FAFF29C04A
:10016000FBFF1100F76A780FF66E010EF722000E02
:10017000F86E0900F55012000403010000000000B1
:100180000000000000000000F76A9C0FF66E010EF0
:10019000F722000EF86E0900F5501200040001006D
:1001A000000000000000000000000000F76AC00F1F
:1001B000F66E010EF722000EF86E0900F5501200DF
:1001C00040000800400000000000000000000000A7
:1001D000000000000000000000000000000000001F
:1001E0000DAE04D0F2CF0EF0F29CF29EF76A0C0F27
:1001F000F66E020EF722000EF86E0900F5500DAEF5
:1002000004D00EBCF28C0EBEF28E12004000000034
:10021000400000000000000000000000000000009E
:10022000000000000000000000000000F76A400F1E
:10023000F66E020EF722000EF86E0900F55012005D
:1002400009024300020100C0320904000001020259
:100250000100052400100104240202052406000107
:100260000524010001070581030800FA09040100C3
:10027000020A000000070502024000FA0705820298
:100280004000FA00F76A980FF66E020EF722000E91
:10029000F86E0900F55012000200F76AAE0FF66E14
:1002A000020EF722000EF86E0900F550120004034A
:1002B00009040C034700500043005400530020037E
:1002C000470050005300200045004D0055004C00F1
:1002D000410054004F005200200020002000F2CFC7
:1002E0000EF0F29CF29EF76A020FF66E030EF722F2
:1002F000000EF86E0900F5500EBCF28C0EBEF28EA8
:100300001200524547203078253032583D20307851
:10031000253032580D0A0000F2CF0EF0F29CF29E0A
:10032000F76A3C0FF66E030EF722000EF86E090016
:10033000F5500EBCF28C0EBEF28E1200456E746546
:1003400072205258206D6F64650D0A00F2CF0EF0D6
:10035000F29CF29EF76A700FF66E030EF722000E03
:10036000F86E0900F5500EBCF28C0EBEF28E120033
:10037000456E746572205458206D6F64650D0A00D7
:10038000F2CF0EF0F29CF29EF76AA40FF66E030E07
:10039000F722000EF86E0900F5500EBCF28C0EBE6E
:1003A000F28E12004750534C4452204465627567E8
:1003B00067657220312E310D0A00F2CF0EF0F29CEB
:1003C000F29EF76ADE0FF66E030EF722000EF86E4D
:1003D0000900F5500EBCF28C0EBEF28E1200564291
:1003E00041543D25750D0A00F2CF0EF0F29CF29EAD
:1003F000F76A0C0FF66E040EF722000EF86E090075
:10040000F5500EBCF28C0EBEF28E120053656E6477
:10041000696E672025732E2E2E00F2CF0EF0F29C0F
:10042000F29EF76A3E0FF66E040EF722000EF86E8B
:100430000900F5500EBCF28C0EBEF28E12004F4B2E
:100440000D0A0000F2CF0EF0F29CF29EF76A680FE0
:10045000F66E040EF722000EF86E0900F5500EBC81
:10046000F28C0EBEF28E12004661696C65640D0A54
:100470000000F2CF0EF0F29CF29EF76A960FF66E35
:10048000040EF722000EF86E0900F5500EBCF28C37
:100490000EBEF28E12000D0A2530337520526563B0
:1004A000763A000065920F015C956294000165EF59
:1004B00008F0636A629272EF08F0506A4F6A250E84
:1004C0004E6E800E4D6E516A526A080E536EA36BCB
:1004D0009E93556A546A9F6BA0919E81000CDD6BC0
:1004E000DD5101080AE3036ADD514B0FE96E000E8E
:1004F0000320EA6EEF6ADD2BF3D7DFDF2C6A010EF3
:100500002D6E2B6A000C010EE66FE6510F080EE30C
:100510004C0EE625016E0F0E036ED8B0032A01C003
:10052000E9FF03C0EAFFEF6AE62BEFD7306A2F6AD4
:10053000000C400E0401016F050E036F026B880E64
:10054000006F046B050E076F400E066F0001000C74
:10055000636A626A9F0E0F015D6F390E5C6F5E6B9E
:100560000001BDDFD0DF160E0F014C6F62A602D076
:100570006296FCD765980001DCDF030E316E7CEFDC
:1005800008F00F015C8562986582000186EF08F033
:10059000629C90EF08F00F014CA104D00001C9DF6C
:1005A0000F014C91629A00019AEF08F0E1C032F01D
:1005B000000CFF0E326E000CDF6B4A523BE0DF5145
:1005C0003F0838E32E5005E0020A10E0010A1BE064
:1005D00024D0036A4950F2CFE1F0F29CF29E26DE6D
:1005E000E1BDF28CE1BFF28EE06F17D0036A495093
:1005F000F2CFE1F0F29CF29E50DEE1BDF28CE1BF61
:10060000F28EE06F0AD0036A4950330FE96E000E94
:100610000320EA6EEFCFE0F000D0492A4A06DF510E
:10062000DF2B036A400FE96E050E0320EA6EE0C07F
:10063000EFFFC3D74A5204E1DF51400801E02B6AC3
:10064000DFC0E1F0B3DF000C496A2E6A05010351F7
:10065000010A000105E0030A08E0010A09E022D0CE
:10066000120E4A6E030E2E6E1FD0430E4A6E1CD021
:10067000020E2E6E036A05010251450FE96E000E4F
:100680000320EA6EEFCF49F0036A4950F2CFDEF063
:10069000F29CF29E000101DEDEBDF28CDEBFF28E26
:1006A0004A6E02D086DF0CD00501075305E14A509F
:1006B000065D02E206C54AF0010E2B6E00017CDFEA
:1006C0008CEF04F0DE5304E1040E316E1CDFD3D056
:1006D000050E316EE16F800EE06F010EDF6FDF51AE
:1006E0000F08D8A0C8D0E26B036ADF51F2CFE6F062
:1006F000F29CF29E49DDE6BDF28CE6BFF28E000A66
:1007000057E0040EE26FD890DF35036AF2CFE6F0CF
:10071000F29CF29E65DD0900F5CF03F0E6BDF28C98
:10072000E6BFF28EE36F03C0E4F0DF51080DF35033
:10073000010F016E040E036ED8B0032A01C0E9FF59
:1007400003C0EAFFE3C0EFFFDF51080DF350020FD3
:10075000016E040E036ED8B0032A01C0E9FF03C086
:10076000EAFFE1C0ECFFED52E0C0EFFFD890DF35CB
:10077000036AF2CFE6F0F29CF29E32DD0900F5CF7B
:1007800003F0E6BDF28CE6BFF28EE0270350E123D2
:10079000880EE56FE4B1E581E4B3E583DF51080D30
:1007A000F3CF01F0040E01C0E9FFEA6EE5C0EFFFF0
:1007B000036ADF51F2CFE6F0F29CF29ED3DCE6BD95
:1007C000F28CE6BFF28E000A34E0E283DF51080DBE
:1007D000F350060F016E040E036ED8B0032A01C059
:1007E000E9FF03C0EAFFE1C0ECFFED52E0C0EFFF1C
:1007F000D890DF35036AF2CFE6F0F29CF29ED6DCA9
:100800000900F5CF03F0E6BDF28CE6BFF28EE027DB
:100810000350E123DF51080DF350040F016E040E65
:10082000036ED8B0032A01C0E9FF03C0EAFF400EFF
:10083000EF6EE251060802E10E0EE26F036ADF512D
:10084000F2CFE6F0F29CF29E8DDCE6BDF28CE6BFC4
:10085000F28E020801E0E2894C0EDF25016E0F0ED8
:10086000036ED8B0032A01C0E9FF03C0EAFFE2C06B
:10087000EFFFDF2B34D786EF04F0050101510001B3
:100880000DE0010A14E0020A1EE0060A27E0030A4E
:100890002CE00E0A2BE0010A2FE03CD02DC040F5E1
:1008A0000501416B020E0001E16F80DE35D00501CC
:1008B000022D06D0010E2D160001E16B77DE02D06D
:1008C000000177DE29D00501022D05D02D8200011F
:1008D000E16B6CDE02D000016CDE1ED0020E2B6ECE
:1008E00002C548F0E16B62DE17D0AED62CC040F5F1
:1008F000010EE16F5BDE10D005010251010808E333
:1009000002C52CF002C5DEF00001DCD6E16B4EDE44
:10091000000102D04EDE00D00FEF06F02CC0DEF05A
:1009200005010151000105E00A0A0BE0010A2EE071
:100930003FD00501406B416B020E0001E16F36DED6
:1009400039D0DE5321E0010EDE5D036AF2CFE0F024
:10095000F29CF29E97DCE0BDF28CE0BFF28E016E5D
:100960000501045DD8A002D000010ED0036A045135
:100970004B0FE96E000E0320EA6EEFCF40F5010E3B
:100980000001E16F13DE01D014DE14D0DE530EE05F
:10099000036A050104514B0FE96E000E0320EA6E55
:1009A00002C5EFFF0001E16B01DE01D002DE02D0E3
:1009B00000DE00D00FEF06F0DF91DEBFDF81DE9FAB
:1009C000DFA114D0036ADE51F2CFE0F0F29CF29E78
:1009D000B2EC00F0E0BDF28CE0BFF28E000A02E162
:1009E000000E01D0010E016E14D013D0036ADE5147
:1009F000F2CFE0F0F29CF29EC4EC00F0E0BDF28C8D
:100A0000E0BFF28E000A02E1000E01D0010E016E7D
:100A100000D07BEF05F0DF91DEBFDF81DE9FDFA13D
:100A200010D0DE51080DF350040F016E040E036E5A
:100A3000D8B0032A01C0E9FF03C0EAFF880EEF6EB9
:100A400009D0DE51080DF3CF01F0040E01C0E9FF1B
:100A5000EA6EEF6A8AEF05F0DF91DEBFDF81DE9F8D
:100A6000DFA110D0DE51080DF350040F016E040E0B
:100A7000036ED8B0032A01C0E9FF03C0EAFF840E69
:100A8000EF6E0AD0DE51080DF3CF01F0040E01C065
:100A9000E9FFEA6E840EEF6E90EF05F0DF91DEBFA6
:100AA000DF81DE9FDFA110D0DE51080DF350040F6F
:100AB000016E040E036ED8B0032A01C0E9FF03C023
:100AC000EAFFEFCFE0F00AD0DE51080DF3CF01F0DE
:100AD000040E01C0E9FFEA6EEFCFE0F0E0AF02D014
:100AE000E0B502D0000E01D0010E016E9AEF05F0C4
:100AF00004C5DEF061D7015229E005010151010A68
:100B0000000105E0020A09E0030A0DE01DD004C55A
:100B1000DEF081D7E16B4ADD19D004C5DEF09CD749
:100B2000E16B44DD13D00501406B416B04C5DEF081
:100B30000001B4D7015204E0010E0501406F00012D
:100B4000020EE16F33DD02D034DD00D00FEF06F08E
:100B5000FE0E326E000C0501042D01D002D00453AC
:100B600048E1015100010BE0010A0DE0210A1CE0FF
:100B7000010A1FE0030A2EE0010A31E037D0010E1E
:100B8000A46FE6DF35D0050EEA6E400EE96EE26A2C
:100B9000560EE16E080E016EE6CFEEFF012EFCD779
:100BA00006C5E1F003DD24D0020EA46F9E83D0DFE2
:100BB0001FD0050EEA6E400EE96EE26A4D0EE16E40
:100BC000070E016EE6CFEEFF012EFCD7070EE16F98
:100BD000EDDC0ED002C5A3F0E16BE8DC09D002C564
:100BE00055F003C554F0E16BE1DC02D0E2DC00D04B
:100BF000050100010FEF06F02B6A050100517F0B84
:100C0000000107E0010A06E0030A05E0230A04E008
:100C100004D033D683D66CD79ED7CBDC00D0FBEF85
:100C200007F0DE51080DF3CF01F0040E01C0E9FF1B
:100C3000EA6EEFCFE0F0DF51020806E1E0AD02D04E
:100C4000DF6B02D0010EDF6FDF51030812E1840E6B
:100C5000E06FDE51080DF350040F016E040E036EB9
:100C6000D8B0032A01C0E9FF03C0EAFF840EEF6E8B
:100C700009D0DF2D03D0C80EE06F04D0DF5302E1AE
:100C8000880EE06F036A010E026EDE51006E05E011
:100C9000D89002360336002EFBD70250FF0A006EB2
:100CA000FF0E031A00502F1603503016D890DE3571
:100CB000036AF2CFE3F0F29CF29EF0EC00F0090040
:100CC000F5CF03F0E3BDF28CE3BFF28EE16F03C01A
:100CD000E2F0DE51080DF350010F016E040E036EB9
:100CE000D8B0032A01C0E9FF03C0EAFFE1C0EFFF6B
:100CF000E2B1E081E2B3E083DE51080DF3CF01F011
:100D0000040E01C0E9FFEA6EE0C0EFFF000C010134
:100D10000051080DF350040F016E040E036ED8B09D
:100D2000032A01C0E9FF03C0EAFFEFCF04F104BFCB
:100D30005BD00051080DF350050F016E040E036ED9
:100D4000D8B0032A01C0E9FF03C0EAFF01C1EFFFE9
:100D50000351020816E10051080DF350040F016E13
:100D6000040E036ED8B0032A01C0E9FF03C0EAFFF6
:100D7000EFCF04F104AD02D0036B02D0010E036F7C
:100D800013D00351040810E10051080DF3CF01F016
:100D9000040E01C0E9FFEA6EEFCF04F104AD03D009
:100DA000010E036F01D0036B032D03D0C80E046F37
:100DB00004D0035302E1880E046F02B1048102B330
:100DC00004830051080DF350040F016E040E036EEE
:100DD000D8B0032A01C0E9FF03C0EAFF04C1EFFF56
:100DE000010E016E03D000D0000E016E0001000C58
:100DF000A451010A03E0030A12E022D0EA6A560E67
:100E0000E96E050EE26EE16A080E016EE6CFEEFFB6
:100E1000012EFCD7E16BD6EC02F0A46B15D0EA6A88
:100E20004D0EE96E050EE26EE16A070E016EE6CF29
:100E3000EEFF012EFCD7A46BE16BD6EC02F004D0E0
:100E4000A46B99EC02F000D046EF07F0DF51080DDB
:100E5000F350010F016E040E036ED8B0032A01C0D7
:100E6000E9FF03C0EAFF036AEFCF01F003C002F01D
:100E70003FEF07F0A081A26B020EDF6FE7D701C042
:100E8000A1F04BEF07F0DE5302E1B2D714D0DE51F0
:100E9000020802E1EFD70FD0036A010E026EDE51A5
:100EA000006E05E0D89002360336002EFBD70250C4
:100EB0002F1203503012000CDFC05EFFDF5303E03F
:100EC000040E316E02D0020E316E6CEF07F02C6A08
:100ED0002B6A48C0DFF0F0D7E5EF07F0F551080DB9
:100EE000F350040F016E040E036ED8B0032A01C044
:100EF000E9FF03C0EAFFEFCFFDF0FDBF41D0F551A0
:100F0000080DF350060F016E040E036ED8B0032ACD
:100F100001C0E9FF03C0EAFFECCF03F0ED52EFCFD1
:100F2000FEF003C0FFF0FC6BFB6BFC51F95D1CE3B2
:100F300003E1F851FB5D18E2F6C0E9FFF7C0EAFFF4
:100F4000EFCF02F10101FFC0EAFFFEC0E9FF02C1DD
:100F5000EFFF0001FE2BD8B4FF2BF62BD8B4F72BF4
:100F6000FB2BD8B4FC2BE1D7F5C000F1F9C002F19E
:100F7000F8C001F1FAC003F1CADE015003D000D07D
:100F8000000E016E000C9F530DE09E91020EF56F56
:100F9000F76B5E0EF66FF96B9FC0F8F0020EFA6FFA
:100FA0009DDF9F6B000C9F5302E0EDDF01D09E811F
:100FB000EAEF07F0DE530AE12B2C03D0DCEC02F061
:100FC00004D02B50020801E182D704D0DE51020880
:100FD00001E1E9D7000C6430DD6FDD33DD331F0E36
:100FE000DD1764523FE1040100513C0B34081DE160
:100FF000046B000101D6323C05D0DE6B030EDF6FBF
:1010000010DE10D0DE6B020EDF6F0BDE3250FE08FA
:1010100009E00101006B026B32C001F1040E036FA5
:10102000000175DE65981BD0040100513C0B0408DB
:1010300017E10001DE6B27DFDE6B020EDF6FF1DDF3
:101040003250FE080CE0323C01D009D00101006BA7
:10105000026B32C001F1010E036F000158DE040182
:1010600022D000016450040814E1FF0E326EDE6BE2
:10107000A1DF323C01D00AD00101006B026B32C00B
:1010800001F1020E036F000142DE02D099EC02F082
:1010900009D064B404D0DDC0DEF0F5DE03D0DDC0DD
:1010A000DEF088DF04010001A3EF08F0315201E116
:1010B0004BD0625249E062A408D00F015CB502D067
:1010C000000103D0000152EF02F065A201D03CD034
:1010D00062A208D00F015CB302D0000103D000016E
:1010E00059EF02F062A008D00F015CB102D00001FC
:1010F00003D00001A8EF02F062A808D00F015CB98C
:1011000002D0000103D00001C1EF02F062AC08D0B0
:101110000F015CBD02D0000103D00001C8EF02F056
:1011200062AA08D00F015CBB02D0000103D000010D
:10113000CBEF02F062A608D00F015CB702D000012D
:1011400003D0000148D76296A19842EF00F0EA6A06
:10115000F10EE96EEF500EE00F0E016E006A002EE8
:10116000FED7012EFBD78F0E006E002EFED700009B
:10117000EF2EF2D7000CB45302E0000E01D0010EA6
:10118000B46FF19C0A0EF16FE2DFF29292EF00F081
:10119000F491F2BEF481F29E9F513F0802E23F0EAD
:1011A0009F6F9F519F2B036A5E0FE96E000E032015
:1011B000EA6EF3C0EFFFF29EF4B1F28E9EA101D071
:1011C000E2DE000C9F513F0804E29EA101D0DBDE6D
:1011D000F9D7F2C0F3F0DCDF000C9EAAFED7AFCF48
:1011E000F1F0F1C0F2F0EEDF0A0EB66F9E9A92EFC8
:1011F00000F0150ED76EB80ED66EB65301E0B607E6
:10120000F29442EF00F0800ECF6ECE6AB56B9E90E6
:1012100042EF00F0656A0F015C6B080E5F6F94503F
:1012200030090001946E316A196AF2BC198CF29C83
:10123000F2BE198EF29E6FEC02F019BCF28C19BE50
:10124000F28E306A2F6A52EF09F0196AF2BC198CDB
:10125000F29CF2BE198EF29E6FEC02F019BCF28C79
:1012600019BEF28E656A140E0F015F6F5C6B6586A6
:10127000010E316E000140EF09F065B601D0E5D7EF
:10128000312C0CD065BA0AD0626A0F015C6BA08861
:10129000C00EF212110E5C6F020E316E000153EFA0
:1012A00009F0B8D7EAD731500208FCE1C0EF0CF0E2
:1012B000CB6B94968B96CA6BCA51070823E3D890E0
:1012C000CB37070ED880CA55CC6FC9C000F0CC51BF
:1012D000016E04E0D8900032012EFCD700A003D0AC
:1012E000949A8B8A02D0949A8B9A000094968B865B
:1012F000000094968B969488000E82B8010ECB1352
:10130000CA2BDAD7CBC001F0000C94948B84030E67
:10131000006E002EFED700D094948B94030E006EC6
:10132000002EFED700D0C6C0C9F0C2DF01C0C8F091
:10133000C7C0C9F0BDDFC8C001F0000C94948B8415
:10134000030E006E002EFED700D094948B94030EF3
:10135000006E002EFED700D0C6C0C9F0A9DF000C79
:10136000240EC66F1F0EC76FD0DF210EC66F3F0E53
:10137000C76FCBDF230EC66F030EC76FC6DF260E07
:10138000C66F070EC76FC1DF310EC66F070EC76F7E
:10139000BCDF250EC66F020EC76FB7DF300EC66FFB
:1013A000CDDFE70EC96F84DFE70EC96F81DFE70E7F
:1013B000C96F7EDFE70EC96F7BDFE70EC96F78DF8D
:1013C0002A0EC66FBBDFE70EC96F72DFE70EC96F6B
:1013D0006FDFE70EC96F6CDFE70EC96F69DFE70EDD
:1013E000C96F66DF94948B84000C979A8E9A200EB6
:1013F000C66F380EC76F89DFB3DF000C94948B84FF
:10140000979A8E9A200EC66F390EC76F7EDFA8DFBF
:10141000200EC66F3B0EC76F78DF94948B84979A2B
:101420008E8A000CA0B101D0FDD7A251A22B036A75
:10143000880FE96E050E0320EA6EEFCFC2F0A151CE
:10144000A25D11E3A091196AF2BC198CF29CF2BE64
:10145000198EF29E020EDE6FDF6F11EC06F019BCE2
:10146000F28C19BEF28EC2C001F0DCEF0CF0C76B3B
:10147000C66BC65107081AE394968B9600009496A3
:101480008B860000948882A80FD0070ED880C6559E
:10149000C86F010E006EC851016E04E0D89000368E
:1014A000012EFCD70050C713C62BE3D794968B961A
:1014B000C7C001F0000C94948B84030E006E002EC4
:1014C000FED700D094948B94030E006E002EFED7AE
:1014D00000D0C4511F0BC66FC96FEADEC8DF01C060
:1014E000C5F094948B84C5C001F0000CC7BF1AD01E
:1014F0000F0E006EC63900160A0E005C03E2300EB5
:10150000002602D0C7510026196AF2BC198CF29C41
:10151000F2BE198EF29E00C0F2F054DE19BCF28CBD
:1015200019BEF28E0F0EC6170A0EC65D02E2300E0D
:1015300002D0C79FC751C627196AF2BC198CF29C0A
:10154000F2BE198EF29EC6C0F2F03CDE19BCF28CDF
:1015500019BEF28E000CC26BC251170869E3C36B4F
:10156000C2C0C4F0A8DF01C0C3F0C46BC4516FECAB
:1015700001F0C42B006E196AF2BC198CF29CF2BE09
:10158000198EF29EF26F1EDE19BCF28C19BEF28E1D
:10159000060EC45DEBE1C2C0C6F0370EC76FA6DF12
:1015A0000A0EC56FC5516FEC01F0C52B006E196AAC
:1015B000F2BC198CF29CF2BE198EF29EF26F02DE22
:1015C00019BCF28C19BEF28E0E0EC55DEBE1C3C0E4
:1015D000C6F0370EC76F8ADF196AF2BC198CF29C0D
:1015E000F2BE198EF29E0D0EF26FECDD19BCF28C7C
:1015F00019BEF28E196AF2BC198CF29CF2BE198ED9
:10160000F29E0A0EF26FDEDD19BCF28C19BEF28E6C
:10161000196AF2BC198CF29CF2BE198EF29E0A0E67
:10162000F16F95DD19BCF28C19BEF28EC22B94D7E6
:1016300001EF0DF0C751016AC65D03E2C6C000F0BC
:101640000CD0006A080EC86FC6370036C751005C60
:10165000D8B0006E0136C82FF7D7000C0150C3C0B8
:10166000C6F0640EC76FE6DF00C0C3F00150300E55
:1016700007E1C4A317D0C4B715D0C4B9200E03D056
:10168000C497C499C4810126196AF2BC198CF29CD2
:10169000F2BE198EF29E01C0F2F094DD19BCF28CFC
:1016A00019BEF28EC3C0C6F00A0EC76FC3DF00C0FA
:1016B000C3F00150300E06E1C4B713D0C4A111D05D
:1016C000C4B9200E0126196AF2BC198CF29CF2BE34
:1016D000198EF29E01C0F2F075DD19BCF28C19BEB4
:1016E000F28E300EC327196AF2BC198CF29CF2BE3E
:1016F000198EF29EC3C0F2F065DD19BCF28C19BEE2
:10170000F28E000CB8C0EAFFB7C0E9FFC6C0EFFF19
:10171000E92AD8B4EA2AEF6AB72BD8B4B82B000C60
:101720000150C4C0C6F0640EC76F84DF00C0C4F0AF
:101730000150300E07E1C5A30CD0C5B70AD0C5B91A
:10174000200E03D0C597C599C581012601C0C6F0FA
:10175000D9DFC4C0C6F00A0EC76F6CDF00C0C4F08A
:101760000150300E06E1C5B708D0C5A106D0C5B9F5
:10177000200E012601C0C6F0C5DF300EC427C4C04C
:10178000C6F0C0DFC9EF0DF094948B94270EC66F9E
:101790007E0EC76FBADD200EC66F3A0EC76FB5DD7D
:1017A000196AF2BC198CF29CF2BE198EF29E020EDE
:1017B000F16FCDDC19BCF28C19BEF28EE10EC66F52
:1017C000BDDDA00EC66FBADDC56BC451C55D0EE2AE
:1017D000036AC551C225E96EC3510320EA6EEFCFFB
:1017E000C6F0C6C0C9F064DDC52BEFD794948B84D6
:1017F000196AF2BC198CF29CF2BE198EF29E010E8F
:10180000F16FA5DC19BCF28C19BEF28E979A8E8A04
:10181000196AF2BC198CF29CF2BE198EF29E010E6E
:10182000F16F95DC19BCF28C19BEF28E979A8E9AE4
:1018300036EF0EF0610EC66F81DDC26BC251060835
:1018400013E315DE01C0C3F0196AF2BC198CF29CD7
:10185000F2BE198EF29E01C0F2F0B4DC19BCF28C1B
:1018600019BEF28EC22BEAD7E20EC66F67DD270ED5
:10187000C66F400EC76F49DD94948B84D1EF0EF094
:10188000F86AF1949F909F8AA298D08E0D8EEA6A92
:10189000E96A7E964D0EB06EA60EAD6E900EAC6EE1
:1018A000C088FF0EC16EC098C29CC29EC088C26E26
:1018B000C098D26AD16A316A120E336E010E346E4C
:1018C000356A020E366E376E386A396A400E3A6EE5
:1018D000D80E3B6E040E3C6E0A0E3D6E3E6A3F6AA9
:1018E000010E406E416E020E426E436A010E446E5E
:1018F000456A040E466E100E476E4A6A9F6BA46BD3
:10190000A56BA66BB36BB46BB56BB66BB76BB86BF3
:10191000BB6B010EBC6FBD6BBE6BBF6BC06BC16B95
:10192000B36B9B8CF19E96908D80196AF2BC198CDA
:10193000F29CF2BE198EF29EC80EF16F08DC19BC43
:10194000F28C19BEF28EC090800ED56E000E040986
:10195000CA6EFF0ECB6EB150480B9509B16E000EEA
:10196000766E000E776ED26AD16AC088776AC098A8
:101970008F0ECD6E9D80F19CF288C00EF21291D434
:10198000196AF2BC198CF29CF2BE198EF29E640E9A
:10199000F16FA7EC08F019BCF28C19BEF28EBC2DC9
:1019A00002D023DD01D02ADDBA6B928080B001D055
:1019B0000300A0A161D036D501C0B9F0B9517208B9
:1019C0001CE11CDDC26BC2518CEC01F0C22B006E1D
:1019D000196AF2BC198CF29CF2BE198EF29EF26F5B
:1019E000E2EC08F019BCF28C19BEF28E0F0EC25D4B
:1019F000EAE1BC6B010EBB6F3DD0B951630802E157
:101A0000AAD538D0B95174081BE1C26BC251A6ECFB
:101A100001F0C22B006E196AF2BC198CF29CF2BE66
:101A2000198EF29EF26FE2EC08F019BCF28C19BE2E
:101A3000F28E0F0EC25DEAE1D8DC010EBC6F1AD047
:101A4000B951760817E1C26BC251C0EC01F0C22B4C
:101A5000006E196AF2BC198CF29CF2BE198EF29ECD
:101A6000F26FE2EC08F019BCF28C19BEF28E150E82
:101A7000C25DEAE10A0EB66FBC2D4AD1B453D8B4A8
:101A800046D1B553D8A443D1010EB56F96908D9031
:101A9000BF51BF2B0A0867E298908F90C088FF0E55
:101AA000C16EC098C29CC29EC088FD0EC26EC09816
:101AB000C150C00B0709C16EC19EC280C28EC282D6
:101AC000C2B2FED7C29E040E016EC250C30B0110FB
:101AD000C26EC282C2B2FED7C4CFC0F0C05193085A
:101AE00003E3010EC16F01D0C16B9EA33AD0C26B5C
:101AF000C251DDEC01F0C22B006E196AF2BC198CE8
:101B0000F29CF2BE198EF29EF26FE2EC08F019BC64
:101B1000F28C19BEF28E050EC25DEAE1C0C0C3F0C0
:101B20001B0EC46F9BDD196AF2BC198CF29CF2BECD
:101B3000198EF29E0D0EF26FE2EC08F019BCF28CD9
:101B400019BEF28E196AF2BC198CF29CF2BE198E83
:101B5000F29E0A0EF26FE2EC08F019BCF28C19BE8C
:101B6000F28EC2909880C15302E096928D92BD5140
:101B7000BD2BC26FB86BAB0EB76F040EC36F300EC8
:101B8000C66FC0DDC32FFBD7C2C0C4F0030EC56F44
:101B9000C7D59EA365D0C26BC251F4EC01F0C22B35
:101BA000006E196AF2BC198CF29CF2BE198EF29E7C
:101BB000F26FE2EC08F019BCF28C19BEF28E080E3E
:101BC000C25DEAE1EA6AAB0EE96E000EEF101BE0BF
:101BD000EACFC4F0E9CFC3F0196AF2BC198CF29CC9
:101BE000F2BE198EF29EEFCFF2F0E2EC08F019BCD3
:101BF000F28C19BEF28EC4C0EAFFC3C0E9FFE92A25
:101C0000D8B4EA2AE2D7196AF2BC198CF29CF2BE67
:101C1000198EF29E2E0EF26FE2EC08F019BCF28CD7
:101C200019BEF28E196AF2BC198CF29CF2BE198EA2
:101C3000F29E2E0EF26FE2EC08F019BCF28C19BE87
:101C4000F28E196AF2BC198CF29CF2BE198EF29EC9
:101C50002E0EF26FE2EC08F019BCF28C19BEF28E77
:101C6000C36BAB0EC26F070EC46F8ED5170EC46F59
:101C700022DC01A81BD09EA317D0C26BC2510DEC71
:101C800002F0C22B006E196AF2BC198CF29CF2BEF3
:101C9000198EF29EF26FE2EC08F019BCF28C19BEBC
:101CA000F28E040EC25DEAE1BE6B1ED09EA317D079
:101CB000C26BC25122EC02F0C22B006E196AF2BC58
:101CC000198CF29CF2BE198EF29EF26FE2EC08F0D3
:101CD00019BCF28C19BEF28E080EC25DEAE1BE514B
:101CE000BE2B1E0801E2B46B196AF2BC198CF29C7F
:101CF000F2BE198EF29E320EF16FA7EC08F019BCFD
:101D0000F28C19BEF28E96908D8096928D8258D06C
:101D1000938281A202D0BB5353E0BB6B9EA33ED003
:101D2000BA51BA2BC26F196AF2BC198CF29CF2BE7E
:101D3000198EF29E0D0EF26FE2EC08F019BCF28CD7
:101D400019BEF28E196AF2BC198CF29CF2BE198E81
:101D5000F29E0A0EF26FE2EC08F019BCF28C19BE8A
:101D6000F28EC2C0C3F0030EC46F78DC060EC36FE0
:101D7000C35139EC02F0C32B006E196AF2BC198C06
:101D8000F29CF2BE198EF29EF26FE2EC08F019BCE2
:101D9000F28C19BEF28E0C0EC35DEAE1140EB66F22
:101DA00049D5196AF2BC198CF29CF2BE198EF29ECA
:101DB0000A0EF16FA7EC08F019BCF28C19BEF28E76
:041DC000F4D5030053
:020000040001F9
:06FFF800AEF745FFF8F72B
:00000001FF
;PIC18F67J50
