:020000040000FA
:0600000019EF7EF0120072
:0600080004EF68F0120095
:060018000CEF68F012007D
:06D0000019EF7EF01200A2
:06D0080043EF7CF0120072
:06D018004CEF7CF0120059
:06D02A0001005EFC0000A5
:08D030002D0F000003000000B9
:08D03800D9CFE6FFE1CFD9FFDB
:10D04000E652636A626A0F019F0E5D6FFB0E5C6FB2
:10D05000658C659C5E6B0F0EE66EE66AE66A4D0EA9
:10D06000E66E0F0EE66EBFEC7DF0146E050EE15E0F
:10D070001450DF6ADF50146E156A040E145C000E43
:10D08000155810E2DF50040DF3CFE9FFF4CFEAFFAB
:10D09000000EE926040EEA22EE6AEE6AEE6AEE6AF5
:10D0A000DF2AE8D70F01160E4C6F62A60CD0030ED4
:10D0B000E66E620EE66E0F0EE66E5EEC6FF0E55207
:10D0C000E552E552F2D7DF6A020EDF5C04E20F019F
:10D0D000146BDF2AF9D765980F01040E0B6F040E4D
:10D0E0000C6F016B006BE552E552E7CFD9FF1200E0
:10D0F000D9CFE6FFE1CFD9FFE6520F01005114E18D
:10D1000006D0656A0F015C6B0F01006B87D0656A02
:10D110000F015C6B65B602D06586FCD70F01010E6E
:10D12000006F0F01140E5F6F0F0100050AE165BA71
:10D1300008D0626A0F015C6B5C815C890F01020E92
:10D14000006F6250040B05E00F015C51040B01E01D
:10D150009ED865B263D06250010B12E00F015C51A2
:10D16000010B0EE069DF0F01040E006F0401100EC9
:10D17000026F040E036F080E016F006B8C0E00131C
:10D180006250100B05E00F015C51100B01E06FD8ED
:10D190006250400B11E00F015C51400B0DE08FEC31
:10D1A0007CF0060EE66E620EE66E0F0EE66E5EEC2C
:10D1B0006FF0E552E552E5526250200B05E00F0199
:10D1C0005C51200B01E02FD86250020B07E00F01E9
:10D1D0005C51020B03E090EC7CF0636A040E0F01DB
:10D1E000005D01E21BD00F015CA718D0DF6A040EBE
:10D1F000DF5C14E262A60FD064CF1AFF030EE66E66
:10D20000620EE66E0F0EE66E5EEC6FF0E552E552D2
:10D21000E55251D801D002D0DF2AE9D7E552E552D4
:10D22000E7CFD9FF12000F014CA115D003CFE9FFC2
:10D2300004CFEAFFEF5080080DE10BCFE9FF0CCFE0
:10D24000EAFFEF50840806E103CFE9FF04CFEAFFCD
:10D250008C0EEF6E4C91060EE66E620EE66E0F0EB1
:10D26000E66E5EEC6FF0E552E552E55212000F01FA
:10D270005C85040EE66E620EE66E0F0EE66E5EECE8
:10D280006FF0E552E552E55265828DEF7CF06592D4
:10D290008EEC7CF00F015C9562A40CD0020EE66E61
:10D2A000620EE66E0F0EE66E5EEC6FF0E552E55232
:10D2B000E552F2D71200FD0E0F011A151FE17E0E86
:10D2C0001A15E8407F0B040DF3CF03FFF4CF04FFE2
:10D2D000000E0327040E042303CF05FF04CF06FF2F
:10D2E00003CFE9FF04CFEAFFEF503C0BE842E842EE
:10D2F0000D0802E109D801D01ED805D0FD0E1A157F
:10D30000040801E135D812000BCFE9FF0CCFEAFF8A
:10D31000EF50800B05E00BCFE9FF0CCFEAFFEF6A7F
:10D320000F010F6B106B156B166B146BFFD891EC24
:10D330007CF070EF6CF0020E0F01105D17E1A4ECB1
:10D340006DF003CFE9FF04CFEAFFEF50400B07E198
:10D3500005CFE9FF06CFEAFFC80EEF6E06D005CF76
:10D36000E9FF06CFEAFF880EEF6E01D050D8120019
:10D37000D9CFE6FFE1CFD9FFE6520BCFE9FF0CCFC3
:10D38000EAFFEF50400B01E0010EDF6E080E0F01C7
:10D39000005D0DE112C45EFF0F015E51000804E262
:10D3A0000F01100E006F03D00F01040E006F100567
:10D3B00028E10BCFE9FF0CCFEAFF020EE926000EB1
:10D3C000EA22180EEE6E040EED6E30DB020E0F0137
:10D3D0000F5D07E10BCFE9FF0CCFEAFF840EEF6E84
:10D3E0000FD0DF5007E10BCFE9FF0CCFEAFFC80EEB
:10D3F000EF6E06D00BCFE9FF0CCFEAFF880EEF6E81
:10D4000001D005D8E552E552E7CFD9FF1200D9CFB8
:10D41000E6FFE1CFD9FF030EE126020E0F01105DFA
:10D420004AE16550100B47E003CFE9FF04CFEAFF64
:10D43000EE52EF50146E156A080E141801E11550E3
:10D440003AE103CFE9FF04CFEAFFEF503C0BE8429B
:10D45000E8420D0830E105CFE9FF06CFEAFFEF50C3
:10D46000800B29E105CFE9FF06CFEAFF020EE9268E
:10D47000000EEA22100EEE6E040EED6EDF6ADF5033
:10D48000146E156A080E145C000E155813E2DF5076
:10D49000EA6A180FE96E040EEA22EF50E66EDF50DA
:10D4A000EA6A100FE96E040EEA22E552E750EF6EC9
:10D4B000DF2AE5D731D0106B05CFE9FF06CFEAFFB1
:10D4C000EE52080EEF6E05CFE9FF06CFEAFF020E1F
:10D4D000E926000EEA22100EEE6E040EED6E05CF68
:10D4E000E9FF06CFEAFF8C0EEF6E0BCFE9FF0CCF02
:10D4F000EAFFEF6A000E0B19146E0CCF15F0010E47
:10D5000014C0DBFF020E15C0DBFF010EDBCFE9FF0D
:10D51000020EDBCFEAFFEF6A030EE15C02E2E16A92
:10D52000E552E16EE552E7CFD9FF12000401105138
:10D53000600BE842E842E842E842E842000901E0C4
:10D540004CD011510C0A48E00B0A43E00C0A35E0BC
:10D55000010A26E00B0A22E0020A20E0030A1CE08E
:10D56000080A10E0010A0CE00F0A08E0030A01E0D3
:10D5700033D00F01148F080E006F2FD0B5D82DD0E7
:10D580002CDB2BD00F01010E116F0F0E126F1481C7
:10D59000010E156F148F21D048D91FD01FD81DD070
:10D5A00014510F01116F126B020E11270F0E12236F
:10D5B0001481010E156F148F10D00F01148F040108
:10D5C0001451EA6A020FE96E0F0EEA2212C4EFFF4D
:10D5D00004D093EC7CF001D000D01200D9CFE6FF4C
:10D5E000E1CFD9FF050EE1260401120510E110512B
:10D5F0001F0B00090CE10F01148F030E0401115DD4
:10D6000004E10F01010E196F02D00F01196B040123
:10D61000125160E110511F0B02085CE114510F0B15
:10D62000000958E00F01148F040EDB6A020EF36E3E
:10D63000040EDBCFF4FFF350F45C4CE2000EDE6E20
:10D64000040EDD6E04011451800B01E0010E166E14
:10D6500014510F0BE8241624040DF3CF14F0F4CF6B
:10D6600015F0D9CFE9FFDACFEAFF1450EE261550B6
:10D67000ED22030E115D07E1DECFE9FFDDCFEAFF0A
:10D68000840EEF6E24D014510F0B156A4C0F146EDC
:10D690000F0E1522020E14C0DBFF030E15C0DBFFB8
:10D6A000020EDBCFE9FF030EDBCFEAFFEE90ED5277
:10D6B00014AF07D0DECFE9FFDDCFEAFF400EEF6EFB
:10D6C00006D0DECFE9FFDDCFEAFFC80EEF6E040E15
:10D6D000DB2AACD7050EE15C02E2E16AE552E16EBD
:10D6E000E552E7CFD9FF1200800E0401105D01E082
:10D6F0009BD00F01C00E146F04011351030A56E0B2
:10D70000010A10E0030A03E00F01146B8DD00F0132
:10D71000580E116FF90E126F000E136F120E156F67
:10D72000166B82D0FC0E146EF90E156E000E166E7E
:10D7300012C417F0186A196A030E0C6E0D6A0E6A8D
:10D7400017C007F018C008F019C009F053EC7DF0BD
:10D7500004C017F005C018F006C019F014501724C3
:10D76000F36E15501820F46E16501920F86EF4CF91
:10D77000F7FFF3CFF6FF0900F5CF11FF0900F5CF52
:10D7800012FF0800F5CF13FF11CFF6FF12CFF7FFFE
:10D7900013CFF8FF020EF626000EF722F82209003A
:10D7A000F5CF15FF0A00F5CF16FF3ED0FF0E146E21
:10D7B000F90E156E000E166E12C417F0186A196A6B
:10D7C000030E0C6E0D6A0E6A17C007F018C008F041
:10D7D00019C009F053EC7DF004C017F005C018F033
:10D7E00006C019F014501724F36E15501820F46E6B
:10D7F00016501920F86EF4CFF7FFF3CFF6FF0900AB
:10D80000F5CF11FF0900F5CF12FF0800F5CF13FF88
:10D8100011CFF6FF12CFF7FF13CFF8FF0800F55036
:10D820000F01156F166B00D01200D9CFE6FFE1CFC4
:10D83000D9FF020EE1260401186B196B10511F0B62
:10D84000020A13E0030A0EE0010A01E035D00F01DD
:10D85000148F02D0040118810F01190502E104019F
:10D8600018832AD00F01148F27D00F01148F000EB8
:10D87000DE6E040EDD6E04011451800B01E0010E1A
:10D88000166E14510F0BE8241624040DF3CF14F078
:10D89000F4CF15F0D9CFE9FFDACFEAFF1450EE2626
:10D8A0001550ED22DECFE9FFDDCFEAFFEF50040B8C
:10D8B00002E0010E186F00D00F0114AF07D0180E50
:10D8C000116F040E126F1481020E156F020EE15CCF
:10D8D00002E2E16AE552E16EE552E7CFD9FF1200BC
:10D8E00065980F0114BF20D005CFE9FF06CFEAFFEE
:10D8F000EE52080EEF6E05CFE9FF06CFEAFF020EEB
:10D90000E926000EEA22100EEE6E040EED6E05CF33
:10D91000E9FF06CFEAFF8C0EEF6E0BCFE9FF0CCFCD
:10D92000EAFF840EEF6E81D0040110AF56D00F01D4
:10D9300015510401165D0F0116510401175904E237
:10D9400016C415FF17C416FF71D80F01010E106F12
:10D9500005CFE9FF06CFEAFFEE52080EEF6E05CFC6
:10D96000E9FF06CFEAFF020EE926000EEA22100EBA
:10D97000EE6E040EED6E05CFE9FF06CFEAFF800ED6
:10D98000EF6E03CFE9FF04CFEAFFEE52080EEF6E11
:10D9900003CFE9FF04CFEAFF020EE926000EEA22D8
:10D9A000100EEE6E040EED6E03CFE9FF04CFEAFF1A
:10D9B000800EEF6E0BCFE9FF0CCFEAFF020EE926D7
:10D9C000000EEA22180EEE6E040EED6E0BCFE9FF8C
:10D9D0000CCFEAFFC80EEF6E28D00F01020E106FB9
:10D9E0000BCFE9FF0CCFEAFFEE52EF6A0BCFE9FF56
:10D9F0000CCFEAFFC80EEF6E05CFE9FF06CFEAFFB6
:10DA0000EE52080EEF6E05CFE9FF06CFEAFF020ED9
:10DA1000E926000EEA22180EEE6E040EED6E05CF1A
:10DA2000E9FF06CFEAFFC80EEF6E1200D9CFE6FF7E
:10DA3000E1CFD9FF020EE1260F01080E155D000EA1
:10DA400016590EE215CFDEFF16CFDDFF0F5103E1B1
:10DA5000010E0F6F04D00F0502E1020E0F6F03D00D
:10DA6000080EDE6EDD6A0BCFE9FF0CCFEAFFEF9206
:10DA70000BCFE9FF0CCFEAFFEF900BCFE9FF0CCF04
:10DA8000EAFF010EDB50EF120BCFE9FF0CCFEAFFEC
:10DA9000EE52DFCFEFFF000EDB50155F010EDB50C3
:10DAA000165B180E176F040E186F14B124D0D9CF5F
:10DAB000E9FFDACFEAFFEE50ED101CE011CFF6FFE0
:10DAC000112B12CFF7FF000E122313CFF8FF1323F1
:10DAD0000800F550E66E17CFE9FF18CFEAFF172BC5
:10DAE000000E1823E552E750EF6EDF06010E01E24B
:10DAF000DB06DDD71FD0D9CFE9FFDACFEAFFEE5042
:10DB0000ED1018E011CFE9FF12CFEAFF112B000E44
:10DB10001223EF50E66E17CFE9FF18CFEAFF172B5D
:10DB2000000E1823E552E750EF6EDF06010E01E20A
:10DB3000DB06E1D7020EE15C02E2E16AE552E16E4A
:10DB4000E552E7CFD9FF1200D9CFE6FFE1CFD9FFE9
:10DB5000020EE12605CFE9FF06CFEAFFEF50030BE7
:10DB6000E76E010EE7CFDBFF05CFE9FF06CFEAFF47
:10DB7000EE52EFCFDFFFDE500F011527DD501623E9
:10DB8000180E116F040E126FD9CFE9FFDACFEAFF3A
:10DB9000EE50ED1018E011CFE9FF12CFEAFF112B84
:10DBA000000E1223EF50E66E17CFE9FF18CFEAFF01
:10DBB000172B000E1823E552E750EF6EDF06010E1B
:10DBC00001E2DB06E1D7020EE15C02E2E16AE55226
:10DBD000E16EE552E7CFD9FF12000F01148F0F0E4F
:10DBE000E66EE66AE66A4D0EE66E0F0EE66EBFEC76
:10DBF0007DF0146E050EE15E1450010EE66EE66ACD
:10DC0000E66A020EE66E0F0EE66EBFEC7DF0146E55
:10DC1000050EE15E145012C401FF0401125104E12B
:10DC20000F01100E006F05D00F01200E006F94EC55
:10DC30007CF01200D9CFE6FFE1CFD9FF020EE1263A
:10DC4000000EDE6E040EDD6EFD0EDB50040DF3CF14
:10DC500016F0FE0EDB50080DF3501624146E156AF4
:10DC6000020E0F0B05E0D89015321432E806FBE1E6
:10DC7000D89014361536D89014361536D9CFE9FF1A
:10DC8000DACFEAFF1450EE261550ED22DECFE9FF81
:10DC9000DDCFEAFFEF9EFD0EDB500FE1FE0EEA6ADC
:10DCA000DB34FE0BEA36E96E070EE9260F0EEA2298
:10DCB000DECFEEFFDDCFEDFF0ED0FE0EEA6ADB34E5
:10DCC000FE0BEA36E96E0B0EE9260F0EEA22DECFD6
:10DCD000EEFFDDCFEDFFDECFE9FFDDCFEAFFEF8C1A
:10DCE000020EE15C02E2E16AE552E16EE552E7CF45
:10DCF000D9FF1200D9CFE6FFE1CFD9FF020EE1260E
:10DD0000FE0EDB50156A4C0F146E0F0E152214C058
:10DD1000DEFF15C0DDFFFD0EDB50E66EDECFE9FF56
:10DD2000DDCFEAFFE552E750EE6EED6AFD0EDBA4B3
:10DD300007D0E66AFE0EDBCFE6FF7CDFE552E55258
:10DD4000FD0EDBA208D0010EE66EFE0EDBCFE6FF75
:10DD500071DFE552E552020EE15C02E2E16AE55252
:10DD6000E16EE552E7CFD9FF1200D9CFE6FFE1CF50
:10DD7000D9FF020EE126FD0EDBCFE6FFFE0EDB50E3
:10DD8000E824E552E724040DF3CF14F0F4CF15F0A6
:10DD9000000E1426040E152214C0DEFF15C0DDFF90
:10DDA000840E146EDECFE9FFDDCFEAFF1450EF12D0
:10DDB000020EE15C02E2E16AE552E16EE552E7CF74
:10DDC000D9FF1200D9CFE6FFE1CFD9FF020EE1263D
:10DDD000FD0EDB500FE0FE0EEA6ADB34FE0BEA3686
:10DDE000E96E0B0EE9260F0EEA22EECFDEFFEDCF35
:10DDF000DDFF0ED0FE0EEA6ADB34FE0BEA36E96E7A
:10DE0000070EE9260F0EEA22EECFDEFFEDCFDDFF93
:10DE1000DECFE9FFDDCFEAFFEF7CDECFE9FFDDCF2C
:10DE2000EAFF020EE926000EEA22FB0EDBCFEEFF30
:10DE3000FC0EDBCFEDFFDECFE9FFDDCFEAFFEE52D8
:10DE4000FA0EDBCFEFFF400E146EDECFE9FFDDCF21
:10DE5000EAFF1450EF16880E146EDECFE9FFDDCF17
:10DE6000EAFF1450EF12FD0EDB500BE0FE0EEA6AE3
:10DE7000DB34FE0BEA36E96E0B0EE9260F0EEA22C2
:10DE80000AD0FE0EEA6ADB34FE0BEA36E96E070EB4
:10DE9000E9260F0EEA22DECF14F0DDCF15F014C014
:10DEA000F3FF15C0F4FF020EE15C03E200D0E16A6B
:10DEB000E552E16EE552E7CFD9FF1200D9CFE6FF78
:10DEC000E1CFD9FF010EF36EFC0EDB5004E0D890D9
:10DED000F336E806FCE1F350E81C146EFD0EDBCFD0
:10DEE000E9FFFE0EDBCFEAFF1450EF16E552E7CF55
:04DEF000D9FF120044
:0CDEF4008650080B080A01E0010E00D067
:10DF00001200F36A020EF46E00D0120029CF06F060
:10DF10002ACF07F02BCF08F02CCF09F000D0120049
:10DF200098868284949492841200D9CFE6FFE1CF40
:10DF3000D9FF050EE126010EF36E020EF3CFDBFFD3
:10DF40008284800EE66EE66A020EE66E7AEC76F069
:10DF5000E552E552E552640EE66E2CEC75F0E552A2
:10DF6000DE6ADD6ADECF14F0DDCF15F00A0E145C38
:10DF7000000E155809E2E668AAEC76F0E552DF2AB1
:10DF8000010E01E3DB2AEED78294010EE66E2CEC43
:10DF900075F0E552E66AE66AE66AE66AE66AA7D8D6
:10DFA000146E050EE15E1450030EF3CFDBFF040E7A
:10DFB000F4CFDBFF030EDB50FF0805E0030EDB5060
:10DFC000F70B010805E0020EDB6A8284DB507FD08C
:10DFD000DE680F0EDD6EE66AE66AE66AE66A010E44
:10DFE000E66E85D8146E050EE15E1450030EF3CF75
:10DFF000DBFF040EF4CFDBFFDF06010E01E2DB06E0
:10E00000030EDB5007E0D9CFE9FFDACFEAFFEE508D
:10E01000ED10E1E1D9CFE9FFDACFEAFFEE50ED10E4
:10E0200004E1020EDB6A82844FD0800EE66EE66A5F
:10E03000E66A7AEC76F0E552E552E552E66AE66A7F
:10E04000E66AE66A160EE66E52D8146E050EE15EBA
:10E050001450030EF3CFDBFF040EF4CFDBFFE66AB0
:10E06000020EE66EE66AE66A060EE66E40D8146EAA
:10E07000050EE15E1450DE68DD6AD9CFE9FFDACF24
:10E08000EAFF000ED880EE54000EED5413E2000EAD
:10E09000E66EE66AE66AE66AE66AE66ADBD9146E66
:10E0A000060EE15E1450010805E0DF06010E01E2F4
:10E0B000DB06E3D7D9CFE9FFDACFEAFFEE50ED1068
:10E0C00003E1020EDB6A8284020EDB5000D0146E84
:10E0D000050EE15C02E2E16AE552E16E1450E552A0
:10E0E000E7CFD9FF1200BEEC76F082841200D9CFC0
:10E0F000E6FFE1CFD9FF0B0EE126080EDE6EDD6AEA
:10E100008294B20E146EFB0E156E000E166EFE0E8D
:10E11000DBCF17F0186A196A020ED8901736183636
:10E120001936E806FAE114501724F36E155018203A
:10E13000F46E16501920F86EF4CFF7FFF3CFF6FF08
:10E1400008000A0EF5CFDBFFD950FA0FE96EFF0E7B
:10E15000DA20EA6E060EEECFDBFF070EEECFDBFF16
:10E16000080EEECFDBFF090EEECFDBFFB20E146E12
:10E17000FB0E156E000E166EFE0EDBCF17F0186A42
:10E18000196A020ED890173618361936E806FAE1E1
:10E1900014501724F36E15501820F46E16501920E1
:10E1A000F86EF4CFF7FFF3CFF6FFF62A000EF72252
:10E1B000F8220800050EF5CFDBFF0A0EDB8CDBCF63
:10E1C000E6FFAAEC76F0E552090EDBCFE6FFAAECFB
:10E1D00076F0E552080EDBCFE6FFAAEC76F0E552CA
:10E1E000070EDBCFE6FFAAEC76F0E552060EDBCF9A
:10E1F000E6FFAAEC76F0E552050EDBCFE6FFAAECCF
:10E2000076F0E552B20E146EFB0E156E000E166E11
:10E21000FE0EDBCF17F0186A196A020ED890173677
:10E2200018361936E806FAE114501724F36E155023
:10E230001820F46E16501920F86EF4CFF7FFF3CFC4
:10E24000F6FF020EF626000EF722F8220800F5501F
:10E2500028E0B20E1A6EFB0E1B6E000E1C6EFE0E38
:10E26000DBCF1DF01E6A1F6A020ED8901D361E36C7
:10E270001F36E806FAE11A501D24F36E1B501E20CB
:10E28000F46E1C501F20F86EF4CFF7FFF3CFF6FFAB
:10E29000020EF626000EF722F8220800F5500108BB
:10E2A00016E16CEC75F0E76E030EE7CFDBFFDF06DF
:10E2B000010E01E2DB06030EDB50FF0807E1D9CFB8
:10E2C000E9FFDACFEAFFEE50ED10EBE133D0B20E0A
:10E2D000146EFB0E156E000E166EFE0EDBCF17F0E1
:10E2E000186A196A020ED890173618361936E806D9
:10E2F000FAE114501724F36E15501820F46E1650DE
:10E300001920F86EF4CFF7FFF3CFF6FF020EF626D2
:10E31000000EF722F8220800F55002080BE1DCDBC2
:10E32000DBDBE76E040EE7CFDBFFD6DBE76E030E29
:10E33000E7CFDBFFB20E146EFB0E156E000E166EED
:10E34000FE0EDBCF17F0186A196A020ED890173646
:10E3500018361936E806FAE114501724F36E1550F2
:10E360001820F46E16501920F86EF4CFF7FFF3CF93
:10E37000F6FF020EF626000EF722F8220800F550EE
:10E38000010827E1030EDB6A020EDB6AFF0EF36E63
:10E39000020EDBCFF4FFF350F45C1BE2030EDB5004
:10E3A00018E1DE68DD6898DBE76E030EE7CFDBFF80
:10E3B000DF06010E01E2DB06030EDB5007E1D9CFD9
:10E3C000E9FFDACFEAFFEE50ED10EDE1020EDB2AB5
:10E3D000DDD7E668AAEC76F0E552B20E146EFB0EBD
:10E3E000156E000E166EFE0EDBCF17F0186A196A56
:10E3F000020ED890173618361936E806FAE114508E
:10E400001724F36E15501820F46E16501920F86E6C
:10E41000F4CFF7FFF3CFF6FF030EF626000EF72238
:10E42000F8220800F55001E18284030EDBCF14F0DE
:10E43000040EDBCF15F014C0F3FF15C0F4FF0B0E74
:10E44000E15C03E200D0E16AE552E16EE552E7CF1C
:10E45000D9FF1200D9CFE6FFE1CFD9FF140EE12694
:10E46000010EF36E070EF3CFDBFFFB0EDBCF14F0D4
:10E47000FC0EDBCF15F0FD0EDBCF16F0FE0EDBCF72
:10E4800017F0090E1F0B07E0D89014361536163614
:10E490001736E806F9E1080E14C0DBFF090E15C0B7
:10E4A000DBFF0A0E16C0DBFF0B0E17C0DBFFD950D7
:10E4B000080FE96EDACFEAFFEECFE6FFEECFE6FF18
:10E4C000EECFE6FFEFCFE6FF070EE66E10DE146E2E
:10E4D000050EE15E1450040EF3CFDBFF050EF4CF02
:10E4E000DBFF040EDB501FE0D950080FE96EDACFD6
:10E4F000EAFFEECFE6FFEECFE6FFEECFE6FFEFCF8F
:10E50000E6FF070EE66EF3DD146E050EE15E1450B5
:10E51000040EF3CFDBFF050EF4CFDBFF040EDB5060
:10E5200002E0000ECFD1DE68020EDD6E400EF36E0B
:10E53000020EF3CFDBFF030EDB6AD950020FE96E48
:10E54000DACFEAFFEE50ED1006E0020EDB06030E16
:10E5500001E2DB06F2D7C0DAE76E060EE7CFDBFF9B
:10E56000DF06010E01E2DB06400EF36E020EF3CF72
:10E57000DBFF030EDB6AD950020FE96EDACFEAFF48
:10E58000EE50ED1006E0020EDB06030E01E2DB06A4
:10E59000F2D7060EDB50FF0807E1D9CFE9FFDACF4B
:10E5A000EAFFEE50ED10D7E1D9CFE9FFDACFEAFF6D
:10E5B000EE50ED1004E0060EDB50FE0803E0070EFF
:10E5C000DB6A79D1FB0EDBCF14F0FC0EDBCF15F04C
:10E5D000FD0EDBCF16F0FE0EDBCF17F0145015103A
:10E5E000161017100EE1D950F90FE96EFF0EDA2060
:10E5F000EA6EEE50ED1005E10F01296B2A6B2B6BD3
:10E600002C6BDE6ADD6ADECF14F0DDCF15F0000E74
:10E61000145C020E155801E348D1D950F90FE96E88
:10E62000FF0EDA20EA6EEE50ED1012E0C968C7A0C6
:10E63000FED7F90EDBCF14F0FA0EDBCF15F0DE506B
:10E640001424E96EDD501520EA6EC9CFEFFF28D102
:10E65000FB0EDBCF14F0FC0EDBCF15F0FD0EDBCF95
:10E6600016F0FE0EDBCF17F0145015101610171011
:10E6700001E015D1D9CFE9FFDACFEAFFC60EEE18D7
:10E6800002E1010EED1801E008D126DA146E0C0E3D
:10E6900014C0DBFF0D0EDB6A0E0EDB6A0F0EDB6AA9
:10E6A0001BDA146E156A166A176A080E1F0B07E04C
:10E6B000D8901436153616361736E806F9E1D950D3
:10E6C0000C0FE96EDACFEAFF1450EE121550EE127D
:10E6D0001650EE121750EE12FFD9146E156A166A14
:10E6E000176A100E1F0B07E0D89014361536163631
:10E6F0001736E806F9E1D9500C0FE96EDACFEAFFD8
:10E700001450EE121550EE121650EE121750EE1273
:10E71000E3D9146E156A166A176A180E1F0B07E004
:10E72000D8901436153616361736E806F9E1D95062
:10E730000C0FE96EDACFEAFF1450EE121550EE120C
:10E740001650EE121750EE12C7D9146E100E14C0E8
:10E75000DBFF110EDB6A120EDB6A130EDB6ABCD91B
:10E76000146E156A166A176A080E1F0B07E0D89018
:10E770001436153616361736E806F9E1D950100F5B
:10E78000E96EDACFEAFF1450EE121550EE12165071
:10E79000EE121750EE12A0D9146E156A166A176A97
:10E7A000100E1F0B07E0D8901436153616361736A4
:10E7B000E806F9E1D950100FE96EDACFEAFF1450FC
:10E7C000EE121550EE121650EE121750EE1284D9BA
:10E7D000146E156A166A176A180E1F0B07E0D89098
:10E7E0001436153616361736E806F9E1D950100FEB
:10E7F000E96EDACFEAFF1450EE121550EE12165001
:10E80000EE121750EE12080EDE26000EDD22100E5C
:10E81000DBCF14F0110EDBCF15F0120EDBCF16F0AC
:10E82000130EDBCF17F0D9500C0FE96EDACFEAFFE9
:10E83000EE501426EE501522EE501622EE501722FE
:10E8400014500F01295D15502A5916502B59175095
:10E850002C5922E20C0EDBCF14F00D0EDBCF15F09D
:10E860000E0EDBCF16F00F0EDBCF17F0D950100FC6
:10E87000E96EDACFEAFF1450EE24296F1550EE202E
:10E880002A6F1650EE202B6F1750EE202C6F2907A1
:10E89000000E2A5B2B5B2C5B01D01ED901D01CD94A
:10E8A000DF2A010E01E3DB2AAED6E66853DAE55231
:10E8B000E66850DAE552E6684DDAE5528284070EE2
:10E8C000DB5000D0146E140EE15C02E2E16AE55206
:10E8D000E16E1450E552E7CFD9FF1200D9CFE6FF21
:10E8E000E1CFD9FF060EE126010EF36E050EF3CF40
:10E8F000DBFFFB0EDBCF14F0FC0EDBCF15F0FD0EC3
:10E90000DBCF16F0FE0EDBCF17F0145015101610EB
:10E91000171006E1F80EDB5003E1050EDB6A8AD022
:10E92000FB0EDBCF14F0FC0EDBCF15F0FD0EDBCFC2
:10E9300016F0FE0EDBCF17F0090E1F0B07E0D89084
:10E940001436153616361736E806F9E114C0E6FF18
:10E9500015C0E6FF16C0E6FF17C0E6FF090EE66E1B
:10E9600077EC70F0186E050EE15E1850030EF3CFD1
:10E97000DBFF040EF4CFDBFF030EDB5003E0050EDC
:10E98000DB6A57D0FE0EE66EE5D9E552DE6ADD6A37
:10E99000DECF14F0DDCF15F0000E145C020E15581A
:10E9A00015E2F90EDBCF14F0FA0EDBCF15F0DE50D6
:10E9B0001424E96EDD501520EA6EEF50E66ECAD9D8
:10E9C000E552DF2A010E01E3DB2AE2D7E668C2D96D
:10E9D000E552E668BFD9E5527FD8E76E020EE7CF71
:10E9E000DBFFDB500F0B050803E0050EDB6A1ED0D2
:10E9F000DE6ADD6A71D8E76E020EE7CFDBFFDF2A41
:10EA0000010E01E3DB2A020EDB5007E1D9CFE9FF5B
:10EA1000DACFEAFFEE50ED10EDE1D9CFE9FFDACF22
:10EA2000EAFFEE50ED1002E1050EDB6AE66892D9CE
:10EA3000E5528284050EDB50146E060EE15C03E2A3
:10EA400000D0E16AE552E16E1450E552E7CFD9FFFC
:10EA50001200000E00D01200D9CFE6FFE1CFD9FF9F
:10EA6000050EE126FE0EDB50DF6EDF50DF060009EB
:10EA700027E06C0EF36E010EF3CFDBFF020EF36E98
:10EA8000020EF3CFDBFF030EDB6A040EDB6AD95004
:10EA9000010FE96EDACFEAFFEFCF14F0EE06000EB9
:10EAA000EFCF15F0EE5AEFCF16F0EE5AEFCF17F08A
:10EAB000EF5A145015101610171001E0E8D7D5D7EB
:10EAC000000000D0050EE15C02E2E16AE552E16E71
:10EAD000E552E7CFD9FF1200C968C7A0FED7C950D9
:10EAE00000D01200D9CFE6FFE1CFD9FFFB0EDBCF7C
:10EAF00014F0FC0EDBCF15F0FD0EDB501424E96E94
:10EB0000FE0EDB501520EA6EEF5000D0E552E7CF45
:10EB1000D9FF1200D9CFE6FFE1CFD9FF040EE126DD
:10EB2000FB0EDBCF14F0FC0EDBCF15F0FD0EDB503F
:10EB30001424E96EFE0EDB501520EA6EEFCFDFFFE6
:10EB4000010EE76EFB0EDBCF14F0FC0EDBCF15F0F1
:10EB5000E7501426000E1522FD0EDB501424E96E3A
:10EB6000FE0EDB501520EA6E010EEFCFDBFFDB500F
:10EB7000E66ED950020FE96EDACFEAFFE552E750B0
:10EB8000EE6EED6AD950020FE96EDACFEAFFEE5071
:10EB9000ED6EEF6ADF50146E156AD950020FE96E00
:10EBA000DACFEAFF1450EE121550ED12020EDBCF51
:10EBB00014F0030EDBCF15F014C0F3FF15C0F4FF03
:10EBC000040EE15C03E200D0E16AE552E16EE55239
:10EBD000E7CFD9FF1200D9CFE6FFE1CFD9FF080E6A
:10EBE000E126FB0EDBCFE6FFFC0EDBCFE6FFFD0EE2
:10EBF000DBCFE6FFFE0EDBCFE6FF8CDFE552E55212
:10EC0000E552E552F3CFDEFFF4CFDDFF020EE76EF3
:10EC1000FB0EDBCF14F0FC0EDBCF15F0E750142613
:10EC2000000E152214C0E6FF15C0E6FFFD0EDBCF77
:10EC3000E6FFFE0EDBCFE6FF6DDFE552E552E55263
:10EC4000E552020EF3CFDBFF030EF4CFDBFF020E23
:10EC5000DBCF14F0030EDBCF15F0040E14C0DBFF86
:10EC6000050E15C0DBFF060EDB6A070EDB6AD95006
:10EC7000040FE96EDACFEAFF100EE76ED890EF3698
:10EC8000010EEB36020EEB36030EEB36E706F6E12D
:10EC9000DECF14F0DDCF15F0166A176AD950040FD5
:10ECA000E96EDACFEAFF1450EE121550EE1216504C
:10ECB000EE121750EE12040EDBCF14F0050EDBCF70
:10ECC00015F0060EDBCF16F0070EDBCF17F014C0E1
:10ECD00006F015C007F016C008F017C009F0080EBE
:10ECE000E15C03E200D0E16AE552E16EE552E7CF74
:10ECF000D9FF1200D9CFE6FFE1CFD9FF3F0EC716EB
:10ED0000C66AFE0EDB50C612FC0EDB50C712FD0EAB
:10ED1000DB50030A0AE0010A05E0020A01E007D01D
:10ED2000C78C05D0C78CC68802D0C68800D0FE0E1E
:10ED3000DB50050A05E0010A02E0949604D09484B1
:10ED40009486C79E00D0949A9488C68AE552E7CFED
:10ED5000D9FF1200D9CFE6FFE1CFD9FFFE0EDB507D
:10ED6000C96EC6AE03D0FF0E05D002D0C7A0FED735
:10ED7000000E00D0E552E7CFD9FF1200C69A12006C
:10ED80000001976B986B400EE66E200EE66E040E47
:10ED9000E66EE66A010EE66EE2EC6EF0146E050EAB
:10EDA000E15E1450F3CF95F0F4CF96F00001606B64
:10EDB000A36BA46BA56BA66BA76BA86BA96BAA6BC7
:10EDC0009B6B9C6B6E6B010E6E5D1FE27AEC6FF0BD
:10EDD000000916E095EC6FF0000912E0010E6EC01C
:10EDE000E7FFE75204E0E846FE0BE706FCE1146E9D
:10EDF000156A14BE1568145000019B1315509C131E
:10EE000021EC7CF000016E2BDED7120004011151C1
:10EE1000FE0A04E0010A01E00ED00DD00401186BD7
:10EE20000F01180E116F040E126F010E156F166B85
:10EE3000C10E146F00D01200D9CFE6FFE1CFD9FF89
:10EE4000E65200016051030A01E1ADD0010A01E17F
:10EE500097D0030A01E18BD0010A01E0EDD0955172
:10EE6000961102E1000E08D095C0E9FF96C0EAFFB6
:10EE7000EF50800B01E0010E000901E077D020C4C3
:10EE800061F021C462F022C463F023C464F024C49E
:10EE900065F025C466F026C467F027C468F028C46E
:10EEA00069F029C46AF02AC46BF02BC46CF02CC43E
:10EEB0006DF02DC46EF02EC46FF0DF6A04012E5188
:10EEC000DF5C13E2DF50EA6A2F0FE96E040EEA22DC
:10EED000EF50E66EDF50EA6A700FE96E000EEA222C
:10EEE000E552E750EF6EDF2AE9D795C0E9FF96C0FB
:10EEF000EAFFEE52EFCF80F01F0E0001805D36E199
:10EF0000550E611908E1530E621905E1420E6319AD
:10EF100002E1430E64192AE16E510F0827E36F5195
:10EF2000100824E3010E6F5D21E36D5103E0800EB4
:10EF30006D5D1CE165C043F466C044F467C045F4F0
:10EF400068C046F40401550E3F6F530E406F420EE9
:10EF5000416F530E426F800E00016D5D03E1010EA3
:10EF6000606F04D06D5102E1020E606F65D08D803C
:10EF700063DAFF0803E10001030E606F8D905CD03F
:10EF80008D805ADAFF080DE104014B5107E147512A
:10EF9000481149114A1102E0020E4B6F0001030EA5
:10EFA000606F8D9049D09751981102E1000E08D002
:10EFB00097C0E9FF98C0EAFFEF50800B01E0010E17
:10EFC000000901E039D00D0EE66E3F0EE66E040E2C
:10EFD000E66E010EE66EE66EE2EC6EF0146E050E65
:10EFE000E15E1450F3CF97F0F4CF98F00001955103
:10EFF000961102E1000E08D095C0E9FF96C0EAFF25
:10F00000EF50800B01E0010E000913E11F0EE66EC8
:10F01000200EE66E040EE66EE66A010EE66EE2EC87
:10F020006EF0146E050EE15E1450F3CF95F0F4CF40
:10F0300096F00001606B00D00001605100D0E552F5
:10F04000E552E7CFD9FF1200D9CFE6FFE1CFD9FFD4
:10F05000090EE1260F012D51FE0A01E128D1030A14
:10F0600001E1FAD0D20A01E1EED0340A01E1EBD09D
:10F070001B0A01E1D4D01E0A01E1B8D0040A01E163
:10F08000A4D0190A01E17AD0290A72E0020A6AE0E2
:10F090000D0A26E0370A06E0ED0A01E008D170C04B
:10F0A0002DFF19D1240EE66EE66A0E0EE66EFC0EFA
:10F0B000E66E000EE66E000EE66E060EE66E9CEC48
:10F0C0007DF0146E070EE15E14500401240E476FAC
:10F0D000486B496B4A6B4B6B0F01FD0E2D6FFBD0DC
:10F0E00004014B6B86EC6FF0050E06C0DBFF060ECD
:10F0F00007C0DBFF070E08C0DBFF080E09C0DBFFFF
:10F1000081EC6FF0F3CF14F0F4CF15F0010E14C0C2
:10F11000DBFF020E15C0DBFF030EDB6A040EDB6AA9
:10F12000080EDBCF00F6070EDBCF01F6060EDBCFB5
:10F1300002F6050EDBCF03F6040EDBCF04F6030E5A
:10F14000DBCF05F6020EDBCF06F6010EDBCF07F6AE
:10F150000401080E476F486B496B4A6B0F01FD0EA7
:10F160002D6FB9D0C2D9000902E10F012D69B3D0CA
:10F1700088DA000902E10F012D69ADD0DF6ADF50A6
:10F18000146E156A120E145C000E155813E2DF504F
:10F19000EA6A810FE96E000EEA22EF50E66EDF5058
:10F1A000EA6A000FE96E060EEA22E552E750EF6EBA
:10F1B000DF2AE5D70401120E476F486B496B4A6B93
:10F1C0004B6B0F01FD0E2D6F86D00601020E006FF6
:10F1D000016B026B036B04014B6B040E476F486BB2
:10F1E000496B4A6B0F01FD0E2D6F75D07AEC6FF0F5
:10F1F000000907E004014B6B476B486B496B4A6B96
:10F200000BD0000183918383839583973A0E8D6F92
:10F210008E6B0401010E4B6F0F012D695CD0000154
:10F2200083510F0B060806E104014B0503E10F01B2
:10F230002D6908D006DB0401476B486B496B4A6BAC
:10F240000F012D6948D004014B6B476B486B496B2C
:10F250004A6B0F012D693FD000019751981102E1CF
:10F26000000E08D097C0E9FF98C0EAFFEF50800B6E
:10F2700001E0010E00091AE147C4E6FF000EE66E48
:10F28000060EE66E010EE66EE66EE2EC6EF0146EB1
:10F29000050EE15E1450F3CF97F0F4CF98F00F0114
:10F2A0002D690401476B486B496B4A6B14D0C9DA6E
:10F2B00000018381839383858397200E8D6F8E6BEE
:10F2C0000401010E4B6F476B486B496B4A6B0F0192
:10F2D000FD0E2D6F00D0090EE15C02E2E16AE552FD
:10F2E000E16EE552E7CFD9FF1200D9CFE6FFE1CFBB
:10F2F000D9FFE6520F012D51FD0A6EE0020A69E0C6
:10F30000ED0A49E00C0A41E01E0A3FE0030A0DE065
:10F31000010EE66EE66EB5EC6EF0E552E5520401C4
:10F32000010E4B6F0F012D6982D08BDA00018391A2
:10F330008383839583973A0E8D6F8E6BDF6ADF50E0
:10F34000146E156A120E145C000E155813E2DF508D
:10F35000EA6A810FE96E000EEA22EF50E66EDF5096
:10F36000EA6A000FE96E060EEA22E552E750EF6EF8
:10F37000DF2AE5D70401120E476F486B496B4A6BD1
:10F380004B6B0F01FD0E2D6F52D00401010E4B6F20
:10F390000F012D694CD0240EE66EE66A0E0EE66E65
:10F3A000FC0EE66E000EE66E000EE66E060EE66ED3
:10F3B0009CEC7DF0146E070EE15E14500401240EE7
:10F3C000476F486B496B4A6B4B6B0F01FD0E2D6FFE
:10F3D0002ED070C02DFF2BD000019751981102E163
:10F3E000000E08D097C0E9FF98C0EAFFEF50800BED
:10F3F00001E0010E00091AE147C4E6FF000EE66EC7
:10F40000060EE66E010EE66EE66EE2EC6EF0146E2F
:10F41000050EE15E1450F3CF97F0F4CF98F00F0192
:10F420002D690401476B486B496B4A6B00D0E5526C
:10F43000E552E7CFD9FF12007AEC6FF0000915E131
:10F44000010E6EC0E7FFE75204E0E846FE0BE70658
:10F45000FCE1E81C146E156A14BE15681450000116
:10F460009B1715509C1741DF3CD0010E6EC0E7FF83
:10F47000E75204E0E846FE0BE706FCE1166E176A69
:10F4800016BE176800019B511614146E9C51171478
:10F49000156E1450151024E195EC6FF000091EE074
:10F4A000010E6EC0E7FFE75204E0E846FE0BE706F8
:10F4B000FCE1146E156A14BE1568145000019B130C
:10F4C00015509C138391838383858397280E8D6FBA
:10F4D0008E6B0401010E4B6FB7DD01D006DF01D04A
:10F4E000B3DD0F012D5100D012000F012E51040A7F
:10F4F00001E17CD0070A6DE0010A27E0030A18E069
:10F50000010A01E0BAD072C0A2F073C0A1F074C0C9
:10F51000A0F075C09FF077C09EF078C09DF0040108
:10F520004B6B476B486B496B4A6B0F01010E2E6F9B
:10F5300000019D519E1103E10F012E6B9ED09D078E
:10F54000000E9E5B0F01020E2E6F00019751981165
:10F5500002E1000E08D097C0E9FF98C0EAFFEF5023
:10F56000800B01E0010E000901E087D0000EE66E7D
:10F57000060EE66E9FC0E6FFA0C0E6FFA1C0E6FF54
:10F58000A2C0E6FF2AEC72F0146E060EE15E145083
:10F5900001080AE00401010E4B6F476B486B496B91
:10F5A0004A6B0001606F69D000019F2B000EA02301
:10F5B000A123A22304014B6B476B020E486F496BDA
:10F5C0004A6B0001000E936F060E946F0F01030E3D
:10F5D0002E6F04014751481149114A1104E10F01EE
:10F5E000010E2E6F4AD00F01040E2E6F04014B51F5
:10F5F00043E1400E475D000E4859000E4959000E88
:10F600004A593AE300019751981102E1000E08D0DF
:10F6100097C0E9FF98C0EAFFEF50800B01E0010EB0
:10F62000000901E02AD0400EE66E93C0E6FF94C0C8
:10F63000E6FF010EE66EE66EE2EC6EF0146E050E6D
:10F64000E15E1450F3CF97F0F4CF98F00F01030E62
:10F650002E6F400E0001695F000E6A5B6B5B6C5B96
:10F66000400E0401475F000E485B495B4A5B400E59
:10F6700000019327000E942300D00F012E5100D0DB
:10F6800012000F012F51020A01E1B5D0060A74E001
:10F69000070A2BE0020A14E0010A01E0CED072C092
:10F6A000A2F073C0A1F074C0A0F075C09FF077C045
:10F6B0009EF078C09DF004014B6B0001010E606F5D
:10F6C00000019D519E1103E10F012F6BB6D00F0178
:10F6D000030E2F6F0001000E936F060E946F04014E
:10F6E000476B020E486F496B4A6BD880000E0401CD
:10F6F0004755000E4855000E4955000E4A5528E260
:10F7000000019551961102E1000E08D095C0E9FF65
:10F7100096C0EAFFEF50800B01E0010E000901E006
:10F720008CD0400EE66E93C0E6FF94C0E6FFE66A1A
:10F73000010EE66EE2EC6EF0146E050EE15E145002
:10F74000F3CF95F0F4CF96F00F01040E2F6F14D085
:10F7500029EC75F000090CE0000183918383839507
:10F760008397270E8D6F8E6B0401010E4B6F03D0B4
:10F770000F01020E2F6F61D000019551961102E129
:10F78000000E08D095C0E9FF96C0EAFFEF50800B4D
:10F7900001E0010E000901E050D095C0E9FF96C0DC
:10F7A000EAFFEE52EFCF14F0156A166A176A14508A
:10F7B000695F15506A5B16506B5B17506C5B95C0A8
:10F7C000E9FF96C0EAFFEE52EFCF14F0156A166A11
:10F7D000176A14500401475F1550485B1650495B87
:10F7E00017504A5B400E00019327000E94230F012F
:10F7F000030E2F6F22D0E66A000EE66E060EE66E4E
:10F800009FC0E6FFA0C0E6FFA1C0E6FFA2C0E6FFE2
:10F810006EEC74F0146E070EE15E1450010801E006
:10F820000CD000019F2B000EA023A123A2239D0733
:10F830009E5B0F01010E2F6F00D00F012F5100D0E2
:10F840001200000181918193819581978189818B3B
:10F85000818D819F826B8391839383958397839B13
:10F86000839D839F846B856B866B876B0A0E886F85
:10F87000896B8A6B8B6B8C6B8D6B8E6B8F6B906BCC
:06F88000916B926B120077
:0AF88600DACFE4FFE2CFDAFFE6522A
:10F89000E552E5CFDAFF1100120005D878EC68F0E8
:10F8A00031D8FCD71200D9CFE6FFE1CFD9FF020E45
:10F8B000E126580EDE6E020EDD6E9B8CDFCF14F05B
:10F8C000DF06010EDBCF15F001E2DB061450151048
:10F8D00001E0F4D7C088C168C268C0981CEC68F029
:10F8E0008D909690F30E8C1695168D9090EC6FF08F
:10F8F000020EE15C02E2E16AE552E16EE552E7CF19
:10F90000D9FF1200200E0F01005D03E36550020BCA
:10F9100001E002D01CEC77F012001200120012007D
:10F92000120006EF77F012001E0EE66E010EE66E74
:10F930007AEC6EF0E552E552C0EF76F065840F0187
:10F94000080E306F070E316F3007000E315B3051FB
:08F950003111FAE16594120087
:08F9580012011001000000087B
:10F96000D804090001000102000109022000010180
:10F9700000C0320904000002080650000705810299
:10F98000400000070501024000000403090434039D
:10F990004D006900630072006F0063006800690039
:10F9A0007000200054006500630068006E006F0066
:10F9B0006C006F0067007900200049006E00630052
:10F9C0002E003A034D006900630072006F0063006F
:10F9D00068006900700020004D0061007300730032
:10F9E0002000530074006F00720061006700650022
:10F9F0002000440072006900760065006AF9008A00
:08FA0000F9008EF900C2F900C3
:08FA08002A0EF66ED00EF76E17
:10FA1000000EF86E0F010900F550246F0900F55033
:10FA2000256F03E1246701D03DD00900F5501F6F19
:10FA30000900F550206F0900F550216F09000900F9
:10FA4000F550E96E0900F550EA6E09000900090059
:10FA5000F550226F0900F550236F09000900F6CF19
:10FA600026FFF7CF27FFF8CF28FF1FCFF6FF20CFC5
:10FA7000F7FF21CFF8FF0F01225302E1235307E0E4
:10FA80000900F550EE6E2207F8E22307F9D726CFDA
:10FA9000F6FF27CFF7FF28CFF8FF0F012407000E4E
:06FAA000255BBFD7120038
:0AFAA60009C013F008C012F007C0F9
:10FAB00011F007500C02F4CF05F0F3CF04F008501A
:10FAC0000D02F4CF07F0F3CF06F00C02F350052639
:10FAD000F4500622E86A072211500D02F350052661
:10FAE000F4500622E86A072209500C02F350062659
:10FAF000F450072209500D02086AE86A0822F35000
:10FB00000726F450082211500E02F3500626F45036
:10FB10000722096AE86A0822092212500E02F350ED
:10FB20000726F4500822E86A092213500E02F35007
:08FB30000826F4500922000C24
:08FB3800FB0EE3CFF6FFFC0E0B
:10FB4000E3CFF7FFFD0EE3CFF8FFFE0EE3CFE9FFB3
:10FB5000FF0EE3CFEAFFE9CFF3FFEACFF4FFF90EA0
:10FB6000E35003E1FA0EE35009E0F90EE30602E286
:10FB7000FA0EE3060900F5CFEEFFF1D71200FE0EF4
:10FB8000E3CFE9FFFF0EE3CFEAFFE9CFF3FFEACFD0
:10FB9000F4FFFB0EE35003E1FC0EE35009E0FB0E23
:10FBA000E30602E2FC0EE306FD0EE350EE6EF1D733
:02FBB000120041
:0EFBB2000095000001F9000009AF00010A1BD8
:10FBC00000010CC300000DAF020010FF000011FF88
:10FBD000000112FF000118FF000119FF000120FFC2
:10FBE000000021FF000022FF000023FF000024FF8F
:10FBF000000025FF000026DF01003189010029E512
:0EFC00000000377300003A2503003B2500008A
:02FC0E00008074
:10FC100004022000000047505343545320204D61FC
:10FC200073732053746F7261676520202020303019
:02FC3000303171
:0EFC32001EEE00F02EEE00F0F86A019C04ECCD
:0EFC40007DF02EEC7EF04DEC7CF0FBD7120038
:02FC4E0000EEC6
:0CFC500000F00F0EEE6AEA62FDD7120011
:02FC5C00120094
:02FC5E00FF00A5
:01FC600000A3
:020000040001F9
:01FFF800AE5A
:01FFF900F710
:01FFFA000501
:01FFFB00FF06
:01FFFD00F70C
:00000001FF
