:020000040000FA
:04000000A1EF2BF051
:0800080061EF00F000000000B0
:100010000000000000000000056ED8CF06F0E0CF21
:1000200007F00001E9CF0DF0EACF08F0E1CF09F0C9
:10003000E2CF0AF0D9CF0BF0DACF0CF0F3CF14F007
:10004000F4CF15F0FACF16F0FBCF17F000C00FF089
:1000500001C010F002C011F003C012F004C013F090
:10006000F2AA36EF00F0F2B484EF02F0A3AA3CEF5C
:1000700000F0A4BA23EF02F00FC000F010C001F0AE
:1000800011C002F012C003F013C004F00E8E0DC0B8
:10009000E9FF08C0EAFF09C0E1FF0AC0E2FF0BC0A8
:1000A000D9FF0CC0DAFF14C0F3FF15C0F4FF16C06F
:1000B000FAFF17C0FBFF055007C0E0FF06C0D8FFDE
:1000C00010000001E9CF1EF0EACF19F0E1CF1AF0DD
:1000D000E2CF1BF0D9CF1CF0DACF1DF0F3CF25F023
:1000E000F4CF26F0FACF27F0FBCF28F000C020F0A5
:1000F00001C021F002C022F003C023F004C024F0AC
:100100009DAA86EF00F09EBA6AEF01F020C000F0D1
:1001100021C001F022C002F023C003F024C004F08B
:100120001F8E1EC0E9FF19C0EAFF1AC0E1FF1BC005
:10013000E2FF1CC0D9FF1DC0DAFF25C0F3FF26C0B7
:10014000F4FF27C0FAFF28C0FBFF1100F76A600F19
:10015000F66E010EF722000EF86E0900F55012003F
:10016000524D4300F76A780FF66E010EF722000E2B
:10017000F86E0900F550120043545300F2CF0EF010
:10018000F29CF29EF76AA00FF66E010EF722000EA7
:10019000F86E0900F5500EBCF28C0EBEF28E120005
:1001A000393939390000F2CF0EF0F29CF29EF76A2D
:1001B000CA0FF66E010EF722000EF86E0900F55018
:1001C0000EBCF28C0EBEF28E1200244750435453E4
:1001D0002C25732C452A30300D0A0000F2CF0EF08A
:1001E000F29CF29EF76A000FF66E020EF722000EE6
:1001F000F86E0900F5500EBCF28C0EBEF28E1200A5
:10020000257325303264253032642E4C4F47000070
:10021000F2CF0EF0F29CF29EF76A340FF66E020EE9
:10022000F722000EF86E0900F5500EBCF28C0EBEDF
:10023000F28E12002447504354532C25732C2573FF
:100240002C452A30300D0A00090168533FE064C98B
:10025000E9FF65C9EAFFEFCF69F967C903F066C92D
:10026000E9FF67C9EAFFEF50695D17E065C903F070
:1002700064C9E9FF65C9EAFFEFCF69F967C903F00F
:1002800066C9E9FF67C9EAFFEF50695D02E2FF0E48
:1002900001D0010E016E1CD00BD065C903F064C9FA
:1002A000E9FF65C9EAFFEF5203E1000E016E10D0CD
:1002B00065C903F06451642BD8B4652B67C903F09A
:1002C0006651662BD8B4672B6807BFD7000E016E46
:1002D0000001000C9EAAFED7AFCF5FF9090107010C
:1002E000145306E009015F51A4A8FED7A96E0701C7
:1002F000E987E9A101D0A3D009015F51240803E1F6
:100300000701E86BE9870701E851E82B036A670FEB
:10031000E96E070E0320EA6E5FC9EFFF09015F5126
:100320000A0806E00701E8517F08D8B088D0090123
:10033000036A0701E851670FE96E070E0320EA6EB2
:10034000EF6AE851090803E26751240803E0E86B0B
:10035000676B75D0090EEA6E600EE96EF2CF64F934
:10036000F29CF29E000E0001F1DE0A000900F55039
:10037000EE6E0009FBE1090164BDF28C64BFF28EF0
:10038000070E656F6A0E646F090E676F600E666F09
:10039000030E686F000158DF01521BE1070EEA6E81
:1003A000EA0EE96E070EE26E670EE16EE752E6CFE7
:1003B000EEFFFCE1E8C76BF8036A08016B51EA0F36
:1003C000E96E070E0320EA6EEF6A0701E98137D074
:1003D0000001090EEA6E600EE96EF2CF64F9F29C3C
:1003E000F29E000EBFDE0A000900F550EE6E000915
:1003F000FBE1090164BDF28C64BFF28E070E656FEC
:100400006A0E646F090E676F600E666F030E686F89
:1004100000011ADF015211E1080EEA6E6C0EE96E5E
:10042000070EE26E670EE16EE752E6CFEEFFFCE1EB
:10043000E8C79EF80701E98502D00701E86B9E9A9C
:10044000000186EF00F0A4AAFED7AACF5AF909014D
:1004500007011D2BD8B41E2B0A0E1A6F09015A5121
:100460000D0814E05A510A0811E007015F515F2B93
:10047000036A1F0FE96E070E0320EA6E5AC9EFFFE9
:100480005F511A0801E25F6B3BD0090107015F5120
:10049000060835E21F51440832E1205152082FE18D
:1004A000215156082CE1010E666F93968A86090148
:1004B0005A6B5A5103081AE3036A5A51600F016ECE
:1004C000070E032203C05CF9030E5A25036A1F0FAF
:1004D000E96E070E0320EA6EEFCF5EF95CC9EAFF12
:1004E00001C0E9FF5EC9EFFF5A2BE3D7036A5A51F7
:1004F000600FE96E070E0320EA6EEF6A07015F6B7B
:10050000A49A00013CEF00F0150ED76EB80ED66E1F
:100510000701155301E01507162BD8B4172B1853F4
:1005200001E01807195301E019071B5301E01B07ED
:100530001C5301E01C07F29400013CEF00F008019D
:10054000F36703D0F46702D007D0F42BF2C8EEFFB4
:10055000F32FFCD7F42FFAD70001000CDFC801F00D
:10056000DEC800F00066012A0900F5CFEEFF002E7C
:10057000FBD7012EF9D7F86ACDEF02F0110E080172
:10058000DD6FF86AFC0EF76EF66AEA6A380EE96EFD
:10059000DF6BDDC8DEF80001E1D707EF2DF0F25088
:1005A000036EF29EA6840F01550EA76EAA0EA76ECB
:1005B000A68200000350F2120001000CD08CF6500D
:1005C0003F0B006EC00EF6160A00DEC801F0F650B2
:1005D00000660AD0010F08E1F750010F030B04E198
:1005E000A6880900DCDF0A00006607D0EECFF5FF21
:1005F000015204E00F00010603D000060B000C00BE
:100600003F0EF6143F0AE3E1CADF0166E0D7F86A5D
:1006100018EF03F0110E0801DD6FF86AFC0EF76E9B
:10062000F66AEA6A380EE96EDDC8DEF80001C6D760
:1006300030EF2DF0090EEA6E410EE96EEF500EE03C
:100640000F0E016E006A002EFED7012EFBD78F0E13
:10065000006E002EFED70000EF2EF2D7000C8E0E9B
:10066000006EF6C801F0F5C802F0036A015209E114
:1006700002C001F0026A080E005E015202E1006A47
:1006800008D0D89001BE04D0023601360006F9D752
:10069000019E000C0801F451D8B471D0006EF851DD
:1006A000D8B46DD0002604E3810E002668E204D0A1
:1006B0007F0E005E64E363E0F5C8FCF8F951FC1BB3
:1006C000F58FF98FF751FB03F4CFFEF8F651FA03DB
:1006D000F4CF03F0F3CFFDF8FB03F350FE27F45003
:1006E000FD23000E0322F751FA03F350FE27F450C6
:1006F000FD23000E026A03220222F551FB03F35090
:10070000FD27F4500322000E0222F551FA03F350A4
:100710000326F4500222000E016A0122F751F90368
:10072000F350FD27F4500322000E02220122F6515D
:10073000F903F3500326F4500222000E0122F55172
:10074000F903F3500226F4500122002A01BE05D01D
:10075000FD370336023601360006000EFDAF0AD023
:10076000032A02220122015005E1025003E1035055
:1007700001E1002AFCBF018EFCAF019E04D0006A9B
:10078000016A026A036A0001000C0801F451D8B43E
:10079000CAD00901006F0801F851D8B4C4D00901CA
:1007A000005F07E37F0E0027D8A002D00801BBD06E
:1007B0000AD0810E005FD8B002D00801B4D0D8A40E
:1007C00002D00801B0D000C900F0016A026A036AD1
:1007D0000801FF6BF5C8FEF8FE8FF6C8FDF8F7C8F4
:1007E000FCF8190E0901006F0801FB51FC5F0DE2D6
:1007F000010EFD5F0AE2FE5F08E2FF5F06E2FF2BEB
:10080000FE2BFD2BFB51FC2728D0FA51FD5F12E295
:10081000010EFE5F0FE2FF5F0DE2FF2BFE2BFA5190
:10082000FD27FB51FC2719E3FD2B17E1FE2B15E1FA
:10083000FF2B13D0F9518009FE5F0EE2010EFF5F1E
:100840000BE2FF2BF9518009FE27FA51FD27E9E35E
:10085000FE2BE7E1FF2BE5D703800901002F01D034
:100860000DD0D8900801FC37FD37FE37FF37D89000
:1008700003360236013609010137B6D701A106D089
:10088000D890013202320332013304D0002E02D05C
:10089000080149D001BF23D0D8900801FC37FD37AB
:1008A000FE37FF37FB51FC5F07E2010EFD5F04E2FC
:1008B000FE5F02E2FF5F2BE3FA51FD5F05E2010EEE
:1008C000FE5F02E2FF5F23E3F9518009FE5FD8A0DB
:1008D00002D0090104D0010EFF5F19E30901032AC8
:1008E000D8B402D0080113D0022AD8B402D008012B
:1008F0000ED0012AD8B402D0080109D0002AD8A409
:1009000002D0080110D00132023203320801F5C8CA
:1009100000F9F9510901001B00AF02D0018E08D087
:10092000019E06D00801006A016A026A036A090191
:100930000001000C000E016EC250C30B0110C26E0C
:100940000801DE6BDD6B270E006E002EFED700D097
:10095000C282C2B2FED7C3CFDDF8C4CFDEF8DEC894
:10096000F6F8DDC8F5F800017ADE03C0CAF802C067
:10097000C9F801C0C8F800C0C7F8CAC8F7F8C9C8A4
:10098000F6F8C8C8F5F8C7C8F4F813C7FBF812C7DB
:10099000FAF811C7F9F810C7F8F87CDE00C0DFF8E4
:1009A00001C0E0F802C0E1F803C0E2F803C0F7F8C4
:1009B00002C0F6F801C0F5F800C0F4F80801FB6BBE
:1009C000FA6BF96B800EF86F000164DE00C0E3F88B
:1009D00001C0E4F802C0E5F803C0E6F803C0F7F888
:1009E00002C0F6F801C0F5F800C0F4F80801FB6B8E
:1009F000FF0EFA6F7F0EF96F8E0EF86F0001C5DEE5
:100A000003C0CAF802C0C9F801C0C8F800C0C7F8DE
:100A10000BEF05F08FD7AFEF2DF00801E651E71986
:100A2000800BE96FE6AF02D0E61FE62BE7AF02D0FE
:100A3000E71FE72BE751016AE65D03E2E6C800F035
:100A40000CD0006A080EE86FE6370036E751005C0C
:100A5000D8B0006E0136E82FF7D7E9AF02D0011EFB
:100A6000012A000163EF07F0800ED8A202D008012E
:100A7000F91B0801FE6BFF6BF5C8FDF8F951FD1B72
:100A8000F451D8B425D1FC6F006EF851D8B42AD1F6
:100A9000FC5FD8B4A0D04DE3F9C802F90901028F78
:100AA000FAC801F9FBC800F90801FF6BD8900901E9
:100AB0000233013300330801FF33FC2FF6D7FDAFBB
:100AC00003D0FE8127D1FE91FC91FE89080EEA6ECB
:100AD000F70EE96E3CD1FE99FDBF0CD0FCA11AD0F7
:100AE00009010233013300330801FF33002AD8B46F
:100AF0000AD110D0090102BF10D0D8900801FF37E9
:100B00000901003701370237002E02D00801FBD05F
:100B1000F2D70801FE8D86D0FE9DF5C8FDF80801CC
:100B2000F5AF03D00901028FE6D00901029FE3D09F
:100B30000801F8C8FCF8F8C800F0F451FC5FF5C8EB
:100B400002F90901028FF6C801F9F7C800F9080196
:100B5000FF6BD89009010233013300330801FF33E2
:100B6000FC2FF6D7FDAF03D0FE83D4D0FE93FC91CB
:100B7000FE8B080EEA6EFB0EE96EE9D0FE9BFDBF10
:100B80000CD0FCA11AD00901023301330033080153
:100B9000FF33002AD8B4B7D010D0090102BF10D05B
:100BA000D8900801FF370901003701370237002EBE
:100BB00002D00801A8D0F2D70801FE8F33D0FE9FE3
:100BC000F9C8FDF80801F9AF03D00901028F93D0ED
:100BD0000901029F90D0F9C802F90901028FFAC8F1
:100BE00001F9FBC800F90801FDAF06D00901029F19
:100BF0000801FE858FD0FE95FF6BFC91080EEA6E12
:100C0000F70EE96EA4D0FDBF2DD0F5C8FDF8FCA10C
:100C100009D009010233013300330801FF33002AF0
:100C2000D8B471D0FFAF19D00901002BD8B402D0CD
:100C3000080113D0012BD8B402D008010ED0022B2A
:100C4000D8B402D0080109D0023301330033002A9E
:100C5000D8A402D0080157D00801FEBD5DD7FEBF61
:100C6000AED72ED0800E0901021B02AF06D00801BC
:100C700051D0F9C8FDF814D00901F5C8FDF80253A8
:100C8000D8B402D008010CD00153D8B402D0080166
:100C900007D00053D8B402D0080102D0006A2BD08C
:100CA000090102AF02D008010BD0D8900801FF372C
:100CB0000901003701370237002EF3D7080123D08E
:100CC000FDAF03D00901028F16D00901029F13D096
:100CD000F8C800F0F9C802F9FAC801F9FBC800F930
:100CE000090109D0F4C800F0F5C802F9F6C801F905
:100CF000F7C800F9090102C901F001C902F000C9F1
:100D000003F04CD00801006A016A026A036A090113
:100D100045D00801FF6B0901001F011F021F0801D8
:100D2000FF1FFF2B0DE10901002BD8B402D00801F1
:100D300007D0012BD8B402D0080102D0022B080141
:100D4000FEB1C1D6FEB312D7FEB555D792D7EF503C
:100D50000901002708E3012B06E1022BD8A403D0E8
:100D60000801FC810901ED52EF50012706E3022B37
:100D7000D8A403D00801FC810901ED52EF50EFBE69
:100D800001D0800A0227D8A002D00801FC81080106
:100D9000FEB9A1D6FEBBF2D636D709010001000C80
:100DA0008E0E006E0801E451005EE5C802F0E6C850
:100DB00001F0028E005209E0D890025202E1015285
:100DC00004E002320132002EF7D7E5AF05D0011E54
:100DD000021E012AD8B4022A0001000C0901345174
:100DE0003603F3CF01F0F4CF00F03703F3500026C1
:100DF00035513603F3500020026E0001000C08014B
:100E0000DF51130804E3000E016E76EF0DF0070EBC
:100E1000E06FE051E02B036ADD25E96EDE5103202F
:100E2000EA6E300EEF5CA46FA4510A0DF3CFA4F864
:100E3000E051E02B036ADD25E96EDE510320EA6E06
:100E4000300EEF5CA427E051E02B036ADD25E96E4C
:100E5000DE510320EA6E300EEF5CA56FA5510A0D3E
:100E6000F3CFA5F8E051E02B036ADD25E96EDE51F2
:100E70000320EA6E300EEF5CA527E051E02B036AF9
:100E8000DD25E96EDE510320EA6E300EEF5CA66FC1
:100E9000A6510A0DF3CFA6F8E051E02B036ADD2539
:100EA000E96EDE510320EA6E300EEF5CA627A4C87F
:100EB000E3F8080EE327180EE325E56FE66F180E3A
:100EC000E76F0001AAD500C0A4F80801DF51E05D7A
:100ED0000CE2036AE051DD25E96EDE510320EA6E83
:100EE000EF502C0802E0E02BF1D7E02BDF51E05D62
:100EF00004E3000E016E76EF0DF0036AE051DD258C
:100F0000E96EDE510320EA6EEF50410814E0A76B52
:100F1000AB6BAA6BA96BA86BB06BAF6BAE6BAD6B19
:100F2000B76BB66BB56BB46BB36BB26B000E016E87
:100F300076EF0DF002D0010EA76FE02BE02BE05111
:100F4000DD25E16F000EDE21E26FE2C8E5F8E1C8C1
:100F5000E4F8F26BE96BE86BE76BE66BE06BE5C816
:100F600003F0E4C8E9FFE5C8EAFFEF502D0807E108
:100F7000010EF26FE02BE42BD8B4E52B0DD0E5C8C1
:100F800003F0E4C8E9FFE5C8EAFFEF502B0804E1ED
:100F9000E02BE42BD8B4E52BE5C803F0E4C8E9FF67
:100FA000E5C8EAFFEF502F0858E2E5C803F0E4C8AF
:100FB000E9FFE5C8EAFFEF5039084FE3E9C8F7F861
:100FC000E8C8F6F8E7C8F5F8E6C8F4F8FB6BFA6B82
:100FD000200EF96F820EF86F00014AEC03F003C097
:100FE000E9F802C0E8F801C0E7F800C0E6F8E5C893
:100FF00003F00801E4C8E9FFE5C8EAFF300EEF5C42
:10100000F66BF56F00012FEC03F003C0EDF802C0A2
:10101000ECF801C0EBF800C0EAF8D892E9C8F7F89C
:10102000E8C8F6F8E7C8F5F8E6C8F4F8EDC8FBF844
:10103000ECC8FAF8EBC8F9F8EAC8F8F815DD03C00F
:10104000E9F802C0E8F801C0E7F800C0E6F80801D6
:10105000E42BD8B4E52BE02B9FD7E5C803F0E4C818
:10106000E9FFE5C8EAFFEF502E08D8A47DD0E02BB9
:10107000E42BD8B4E52BF16BF06B200EEF6F820EF2
:10108000EE6FE5C803F0E4C8E9FFE5C8EAFFEF50FA
:101090002F086AE2E5C803F0E4C8E9FFE5C8EAFF03
:1010A000EF50390861E3E5C803F0E4C8E9FFE5C89B
:1010B000EAFF300EEF5CF66BF56F00012FEC03F0EA
:1010C00003C0EDF802C0ECF801C0EBF800C0EAF88C
:1010D000EDC8F7F8ECC8F6F8EBC8F5F8EAC8F4F88C
:1010E000F1C8FBF8F0C8FAF8EFC8F9F8EEC8F8F85C
:1010F000C5EC03F0D892E9C8F7F8E8C8F6F8E7C8F5
:10110000F5F8E6C8F4F803C0FBF802C0FAF801C02D
:10111000F9F800C0F8F8A8DC03C0E9F802C0E8F864
:1011200001C0E7F800C0E6F8F1C8F7F8F0C8F6F833
:10113000EFC8F5F8EEC8F4F80801FB6BFA6B200E67
:10114000F96F820EF86F00014AEC03F003C0F1F86A
:1011500002C0F0F801C0EFF800C0EEF80801E42B7F
:10116000D8B4E52BE02B8DD7F2531AE0E9C8F7F895
:10117000E8C8F6F8E7C8F5F8E6C8F4F8FB6BFA6BD0
:10118000800EF96F7F0EF86F00014AEC03F003C088
:10119000E9F802C0E8F801C0E7F800C0E6F8080185
:1011A000E6C800F0E7C801F0E8C802F0E9C803F0BB
:1011B00003C0ABF802C0AAF801C0A9F800C0A8F8A3
:1011C000010EE025E127000EE223E2C803F0E1C8AA
:1011D000E9FFE2C8EAFFEF520DE0E1C8E9FFE2C82B
:1011E000EAFFEFCFACF8E12BD8B4E22BE12BD8B477
:1011F000E22B04D0000E016E76EF0DF0E2C8E5F8A8
:10120000E1C8E4F8F26BE96BE86BE76BE66BE06B67
:10121000E5C803F0E4C8E9FFE5C8EAFFEF502D0890
:1012200007E1010EF26FE02BE42BD8B4E52B0DD0D3
:10123000E5C803F0E4C8E9FFE5C8EAFFEF502B0872
:1012400004E1E02BE42BD8B4E52BE5C803F0E4C8B7
:10125000E9FFE5C8EAFFEF502F0859E2E5C803F0BF
:10126000E4C8E9FFE5C8EAFFEF50390850E3E9C8F0
:10127000F7F8E8C8F6F8E7C8F5F8E6C8F4F8FB6B45
:10128000FA6B200EF96F820EF86F00014AEC03F042
:1012900003C0E9F802C0E8F801C0E7F800C0E6F8CA
:1012A000E5C803F00801E4C8E9FFE5C8EAFF300E2D
:1012B000EF5CF66BF56F00012FEC03F003C0EDF867
:1012C00002C0ECF801C0EBF800C0EAF8D892E9C817
:1012D000F7F8E8C8F6F8E7C8F5F8E6C8F4F8EDC896
:1012E000FBF8ECC8FAF8EBC8F9F8EAC8F8F834ECFF
:1012F00005F003C0E9F802C0E8F801C0E7F800C053
:10130000E6F80801E42BD8B4E52BE02B9ED7E5C81E
:1013100003F0E4C8E9FFE5C8EAFFEF502E08D8A4BF
:101320007ED0E02BE42BD8B4E52BF16BF06B200ED4
:10133000EF6F820EEE6FE5C803F0E4C8E9FFE5C881
:10134000EAFFEF502F086BE2E5C803F0E4C8E9FFBD
:10135000E5C8EAFFEF50390862E3E5C803F0E4C8E6
:10136000E9FFE5C8EAFF300EEF5CF66BF56F0001B0
:101370002FEC03F003C0EDF802C0ECF801C0EBF86D
:1013800000C0EAF8EDC8F7F8ECC8F6F8EBC8F5F8D5
:10139000EAC8F4F8F1C8FBF8F0C8FAF8EFC8F9F8B1
:1013A000EEC8F8F8C5EC03F0D892E9C8F7F8E8C839
:1013B000F6F8E7C8F5F8E6C8F4F803C0FBF802C091
:1013C000FAF801C0F9F800C0F8F834EC05F003C0F1
:1013D000E9F802C0E8F801C0E7F800C0E6F8F1C893
:1013E000F7F8F0C8F6F8EFC8F5F8EEC8F4F8080119
:1013F000FB6BFA6B200EF96F820EF86F00014AEC5E
:1014000003F003C0F1F802C0F0F801C0EFF800C02B
:10141000EEF80801E42BD8B4E52BE02B8CD7F2537F
:101420001AE0E9C8F7F8E8C8F6F8E7C8F5F8E6C83A
:10143000F4F8FB6BFA6B800EF96F7F0EF86F00010A
:101440004AEC03F003C0E9F802C0E8F801C0E7F88D
:1014500000C0E6F80801E6C800F0E7C801F0E8C8F7
:1014600002F0E9C803F003C0B0F802C0AFF801C051
:10147000AEF800C0ADF8010EE025E127000EE22332
:10148000E1C8E9FFE2C8EAFFEFCFB1F8E12BD8B439
:10149000E22BE12BD8B4E22BE2C8E5F8E1C8E4F88E
:1014A000F26BE96BE86BE76BE66BE06BE5C803F0AA
:1014B000E4C8E9FFE5C8EAFFEF502D0807E1010E97
:1014C000F26FE02BE42BD8B4E52B0DD0E5C803F088
:1014D000E4C8E9FFE5C8EAFFEF502B0804E1E02B80
:1014E000E42BD8B4E52BE5C803F0E4C8E9FFE5C870
:1014F000EAFFEF502F0859E2E5C803F0E4C8E9FF1E
:10150000E5C8EAFFEF50390850E3E9C8F7F8E8C842
:10151000F6F8E7C8F5F8E6C8F4F8FB6BFA6B200EAE
:10152000F96F820EF86F00014AEC03F003C0E9F88E
:1015300002C0E8F801C0E7F800C0E6F8E5C803F02B
:101540000801E4C8E9FFE5C8EAFF300EEF5CF66B7E
:10155000F56F00012FEC03F003C0EDF802C0ECF8CA
:1015600001C0EBF800C0EAF8D892E9C8F7F8E8C87B
:10157000F6F8E7C8F5F8E6C8F4F8EDC8FBF8ECC8EB
:10158000FAF8EBC8F9F8EAC8F8F834EC05F003C04B
:10159000E9F802C0E8F801C0E7F800C0E6F8080181
:1015A000E42BD8B4E52BE02B9ED7E5C803F0E4C8C4
:1015B000E9FFE5C8EAFFEF502E08D8A47ED0E02B63
:1015C000E42BD8B4E52BF16BF06B200EEF6F820E9D
:1015D000EE6FE5C803F0E4C8E9FFE5C8EAFFEF50A5
:1015E0002F086BE2E5C803F0E4C8E9FFE5C8EAFFAD
:1015F000EF50390862E3E5C803F0E4C8E9FFE5C845
:10160000EAFF300EEF5CF66BF56F00012FEC03F094
:1016100003C0EDF802C0ECF801C0EBF800C0EAF836
:10162000EDC8F7F8ECC8F6F8EBC8F5F8EAC8F4F836
:10163000F1C8FBF8F0C8FAF8EFC8F9F8EEC8F8F806
:10164000C5EC03F0D892E9C8F7F8E8C8F6F8E7C89F
:10165000F5F8E6C8F4F803C0FBF802C0FAF801C0D8
:10166000F9F800C0F8F834EC05F003C0E9F802C05E
:10167000E8F801C0E7F800C0E6F8F1C8F7F8F0C8EC
:10168000F6F8EFC8F5F8EEC8F4F80801FB6BFA6B52
:10169000200EF96F820EF86F00014AEC03F003C0D0
:1016A000F1F802C0F0F801C0EFF800C0EEF8080150
:1016B000E42BD8B4E52BE02B8CD7F2531AE0E9C821
:1016C000F7F8E8C8F6F8E7C8F5F8E6C8F4F8FB6BF1
:1016D000FA6B800EF96F7F0EF86F00014AEC03F091
:1016E00003C0E9F802C0E8F801C0E7F800C0E6F876
:1016F0000801E6C800F0E7C801F0E8C802F0E9C850
:1017000003F003C0B7F802C0B6F801C0B5F800C0D6
:10171000B4F8010EE025E127000EE223E2C8E5F867
:10172000E1C8E4F8F26BE96BE86BE76BE66BE06B42
:10173000E5C803F0E4C8E9FFE5C8EAFFEF502D086B
:1017400007E1010EF26FE02BE42BD8B4E52B0DD0AE
:10175000E5C803F0E4C8E9FFE5C8EAFFEF502B084D
:1017600004E1E02BE42BD8B4E52BE5C803F0E4C892
:10177000E9FFE5C8EAFFEF502F0859E2E5C803F09A
:10178000E4C8E9FFE5C8EAFFEF50390850E3E9C8CB
:10179000F7F8E8C8F6F8E7C8F5F8E6C8F4F8FB6B20
:1017A000FA6B200EF96F820EF86F00014AEC03F01D
:1017B00003C0E9F802C0E8F801C0E7F800C0E6F8A5
:1017C000E5C803F00801E4C8E9FFE5C8EAFF300E08
:1017D000EF5CF66BF56F00012FEC03F003C0EDF842
:1017E00002C0ECF801C0EBF800C0EAF8D892E9C8F2
:1017F000F7F8E8C8F6F8E7C8F5F8E6C8F4F8EDC871
:10180000FBF8ECC8FAF8EBC8F9F8EAC8F8F834ECD9
:1018100005F003C0E9F802C0E8F801C0E7F800C02D
:10182000E6F80801E42BD8B4E52BE02B9ED7E5C8F9
:1018300003F0E4C8E9FFE5C8EAFFEF502E08D8A49A
:101840007ED0E02BE42BD8B4E52BF16BF06B200EAF
:10185000EF6F820EEE6FE5C803F0E4C8E9FFE5C85C
:10186000EAFFEF502F086BE2E5C803F0E4C8E9FF98
:10187000E5C8EAFFEF50390862E3E5C803F0E4C8C1
:10188000E9FFE5C8EAFF300EEF5CF66BF56F00018B
:101890002FEC03F003C0EDF802C0ECF801C0EBF848
:1018A00000C0EAF8EDC8F7F8ECC8F6F8EBC8F5F8B0
:1018B000EAC8F4F8F1C8FBF8F0C8FAF8EFC8F9F88C
:1018C000EEC8F8F8C5EC03F0D892E9C8F7F8E8C814
:1018D000F6F8E7C8F5F8E6C8F4F803C0FBF802C06C
:1018E000FAF801C0F9F800C0F8F834EC05F003C0CC
:1018F000E9F802C0E8F801C0E7F800C0E6F8F1C86E
:10190000F7F8F0C8F6F8EFC8F5F8EEC8F4F80801F3
:10191000FB6BFA6B200EF96F820EF86F00014AEC38
:1019200003F003C0F1F802C0F0F801C0EFF800C006
:10193000EEF80801E42BD8B4E52BE02B8CD7F2535A
:101940001AE0E9C8F7F8E8C8F6F8E7C8F5F8E6C815
:10195000F4F8FB6BFA6B800EF96F7F0EF86F0001E5
:101960004AEC03F003C0E9F802C0E8F801C0E7F868
:1019700000C0E6F80801E6C800F0E7C801F0E8C8D2
:1019800002F0E9C803F003C0E7F802C0E6F801C0BE
:10199000E5F800C0E4F80001D0EC06F002C0B9F8A8
:1019A00001C0B8F8010E0801E025E127000EE2238E
:1019B000E06BE051E02B036AE125E96EE251032080
:1019C000EA6E300EEF5CA26FA2510A0DF3CFA2F8BF
:1019D000E051E02B036AE125E96EE2510320EA6E53
:1019E000300EEF5CA227E051E02B036AE125E96E9F
:1019F000E2510320EA6E300EEF5CA16FA1510A0D97
:101A0000F3CFA1F8E051E02B036AE125E96EE25142
:101A10000320EA6E300EEF5CA127E051E02B036A51
:101A2000E125E96EE2510320EA6E300EEF5C9F6F14
:101A3000A06BA0C835F99FC834F90901376B0A0EAD
:101A4000366F0001EEEC06F002C0A0F801C09FF86E
:101A50000801E051E02B036AE125E96EE251032021
:101A6000EA6E300EEF5C9F27000EA023D00E9F275A
:101A7000070EA023A0C831F09FC830F0A1C832F0F3
:101A8000A2C833F0A2C834F0A4C835F0A5C836F017
:101A9000A6C837F0B7C8F7F8B6C8F6F8B5C8F5F86D
:101AA000B4C8F4F8560EFB6F0E0EFA6F6D0EF96F98
:101AB0007F0EF86F00014AEC03F003C0B7F802C0D4
:101AC000B6F801C0B5F800C0B4F8B7C8E7F8B6C8B2
:101AD000E6F8B5C8E5F8B4C8E4F8D0EC06F002C002
:101AE000B3F801C0B2F8010E016E0801000140EF29
:101AF0002EF00801CB51000118E0010A1FE0030A93
:101B000026E0010A39E0070A42E0010A49E0030A37
:101B100052E0010A59E00F0AD8B46AD0010AD8B4D9
:101B200071D0030AD8B477D084D00801DE5303E122
:101B3000DD513C0802E2010ECB6F7ED0320E070170
:101B4000196F98908F80020E0801CB6F75D0939813
:101B50008A980801DE5305E1DD513B0802E3CB6BB7
:101B60000AD0DE5303E1DD51500803E2030ECB6FD0
:101B700002D0020ECB6F60D0640E0701196FC80E41
:101B80001C6F98908F80040E0801CB6F55D0070111
:101B9000195304E1050E0801CB6F070108014CD071
:101BA000640E0701196FC80E1C6F98908F80060E87
:101BB0000801CB6F41D00701195304E1070E08015A
:101BC000CB6F0701080138D0C80E07011C6F080150
:101BD000DE5306E1DD514F0803E3020ECB6F07D061
:101BE000DE5303E1DD51780802E2080ECB6F24D00A
:101BF000320E0701196F1C6F98908F80090E080133
:101C0000CB6F1AD00701195304E10A0E0801CB6FFC
:101C10000701080111D00801DE5308E1DD51770802
:101C200005E398908F90070ECB6F02D0080ECB6F14
:101C300003D00801CB6B00D0000149EF2EF0090161
:101C4000316B326B010E336FDA6AD96A090E366F67
:101C5000290E356F090EEA6E2D0EE96E36C9E2FFC8
:101C600035C9E1FF33C934F9D890E550EE02F3509D
:101C70003123F4503223342FF7D731C9DEFF32C974
:101C800031F9326BD8B0322B352BD8B4362B332BFD
:101C900033510508DFE10001000C09014E6B4E5184
:101CA0000F0807E3C950FF0EC96EC7A0FED74E2B21
:101CB000F6D7C95046C9C9FFC7A0FED74AC950F9CF
:101CC000C9504AC9C9FFC7A0FED749C950F9C95070
:101CD00049C9C9FFC7A0FED748C950F9C95048C96A
:101CE000C9FFC7A0FED747C950F9C95047C9C9FFA6
:101CF000C7A0FED7C950950EC96EC7A0FED74E6BC0
:101D00004B514E5D11E2C950FF0EC96EC7A0FED700
:101D1000C9CF4FF94C514F5D01E106D04D514F5D98
:101D200001E102D04E2BECD74FC901F00001000CAD
:101D30000901385309E1395307E13A5305E13B53AF
:101D400003E1210E016E72D08B94010E416F0001F0
:101D50001AEC03F0D8900901426B3835436F3935DE
:101D6000446F3A35456F580E466F45C94AF944C924
:101D700049F943C948F942C947F9100E4B6F4C6BFA
:101D8000400E4D6F000189DF01C03EF909013E514F
:101D9000400805E18B84220E016E48D006D03E53E8
:101DA00004E08B84200E016E41D0C950FE0EC96E36
:101DB000C7A0FED73DC9EAFF3CC9E9FF406B3F6BB6
:101DC0004051010808E3EECFC9FFC7A0FED73F2B63
:101DD000D8B4402BF5D7C950FF0EC96EC7A0FED7A7
:101DE000C950FF0EC96EC7A0FED7C950FF0EC96EFD
:101DF000C7A0FED7C9CF3EF9406B3F6B40510F08DB
:101E000012E303E13F51FE080EE3C950FF0EC96E15
:101E1000C7A0FED7C9CF3EF93E5301E004D03F2B07
:101E2000D8B4402BEBD78B84000E016E0001000C60
:101E30000201805155250901386F02018151562157
:101E40000901396F000E0201572109013A6F000E96
:101E50000201582109013B6F020151510901382546
:101E6000346F0201525109013921356F020153517A
:101E700009013A21366F0201545109013B21376FA4
:101E800037C93BF936C93AF935C939F934C938F98E
:101E90003D6B490E3C6F00014BDF01C0D5F60201DE
:101EA0006D510901342702016E51090135230201E8
:101EB0006F5109013623020170510901372337C9D7
:101EC0003BF936C93AF935C939F934C938F93D6BA6
:101ED000490E3C6F00012CDF01C0D5F60201716B89
:101EE0000001000CBC0E305C0901016F070E315877
:101EF000026FD89001C902F9016B0237046B3234CA
:101F0000026E0435036E023603360236033602369D
:101F1000033602360336E00E021602500113035058
:101F20000213036A345001130350021301C901F074
:101F300002C902F00001000C0901026B35C001F971
:101F400001C902F9016B023702370237F80E021796
:101F5000046B3634026E0435036E023603360236E5
:101F600003360236033602360336E00E02160250FE
:101F7000011303500213046BD8900431036E373001
:101F800001130350021301C901F002C902F000015C
:101F9000000C0801EE5301E0D5D10901356BEEC804
:101FA00034F9040E376F330E366F0001EEEC06F095
:101FB00002C0F6F801C0F5F8200E08010124016EF8
:101FC000040E0220036E0150A20FE96E020E0320E0
:101FD000EA6EEFCFF7F8ECCFF8F8ECCFF9F8ECCFEA
:101FE000FAF8EACFFCF8E9CFFBF8FAC82CF9F9C8FF
:101FF0002BF9F8C82AF9F7C829F90901306B2F6BBA
:102000002E6B7FC22DF900011ADEFCC8EAFFFBC867
:10201000E9FF0201595108010024EF6F02015A51F2
:1020200008010120F06F02015B5108010220F16FED
:1020300002015C5108010320F26F0901356BEEC803
:1020400034F9040E376F330E366F0001EEEC06F0F4
:1020500001C0F5F8240E08010124016E040E0220CF
:10206000036E0150A20FE96E020E0320EA6EEF50DC
:10207000EF27000EF023F123F2230901356BEEC8A0
:1020800034F9040E376F330E366F0001EEEC06F0B4
:1020900002C0F6F801C0F5F8A20E08010124016E95
:1020A000020E0220036E01C0F7F8F86FF2C83BF988
:1020B000F1C83AF9F0C839F9EFC838F9E8CF3DF975
:1020C00001C03CF9000134DE0201715302E000015D
:1020D000AFDE0901356BEEC834F9040E376F330EED
:1020E000366F0001EEEC06F002C0F6F801C0F5F81C
:1020F000080101C0F7F8020E0224F86F0901356BE0
:10210000EEC834F9040E376F330E366F0001EEEC73
:1021100006F002C0FAF801C0F9F82F0E08010124F8
:10212000016E040E0220036E0150A20FE96E020E32
:102130000320EA6EECCF03F0ED52EFCF02F0023451
:10214000FB6F0334FC6FFB37FC37FB37FC37FB3787
:10215000FC37FB37FC37E00EFB17FB51F725016E10
:10216000FC51F821036E0150A20F016E020E0322F2
:1021700001C0F3F803C0F4F80901356BEEC834F977
:10218000040E376F330E366F0001EEEC06F002C01E
:10219000F6F801C0F5F8080101C0F7F8040E0224B2
:1021A000F86F0B0E0124016E000EF821036E015032
:1021B000A20FE96E020E0320EA6EEFA810D01C0EEB
:1021C000F325E96E000EF421EA6EEE52EE52EC6A4F
:1021D000ED52EF6AED52EF6AED52EF6A39D01C0E04
:1021E000F325016E000EF421036E01C0F5F8F66FC1
:1021F0000901356BEEC834F9040E376F330E366FB4
:102200000001EEEC06F002C0F8F801C0F7F8270E66
:1022100008010124016E040E0220036E0150A20F7A
:10222000E96E020E0320EA6EEFCF00F0ECCF01F072
:10223000ECCF02F0ECCF03F0F6C8EAFFF5C8E9FFF7
:1022400000C0EFFF01C0ECFF02C0ECFF03C0ECFFD9
:10225000180EF325016E000EF421036E01C0F5F88F
:10226000F66F00013FDEF6C8EAFFF5C8E9FF02C0DD
:10227000ECFFED5201C0EFFF160E0801F325016ED1
:10228000000EF421036E01C0F5F8F66F000154DE74
:10229000F6C8EAFFF5C8E9FF02C0ECFFED5201C045
:1022A000EFFF0901356BEEC834F9040E376F330EBA
:1022B000366F0001EEEC06F002C0F6F801C0F5F84A
:1022C0002B0E08010124016E040E0220036E015042
:1022D000A20FE96E020E0320EA6EEFCFF7F8ECCF03
:1022E000F8F8ECCFF9F8ECCFFAF80901356BEEC845
:1022F00034F9040E376F330E366F0001EEEC06F042
:1023000002C0FCF801C0FBF8080101C001F0020E98
:102310000224036E0150A20F016E020E032201C0BF
:10232000FDF803C0FEF8FAC83BF9F9C83AF9F8C855
:1023300039F9F7C838F903C03DF901C03CF900018B
:10234000F7DC08010001000C0801DD5301E05ED05C
:102350000901356BDDC834F9040E376F330E366F63
:102360000001EEEC06F002C0DFF801C0DEF8310E2D
:1023700008010124016E040E0220036E0150A20F19
:10238000E96E020E0320EA6EEF5061081FE00901BA
:10239000356BDDC834F9040E376F330E366F00012C
:1023A000EEEC06F002C0E2F801C0E1F8310E0801DF
:1023B0000124016E040E0220036E0150A20FE96E8B
:1023C000020E0320EA6EEF50770804E1DDC8EEF854
:1023D0000001DFDD0901356BDDC834F9040E376F0C
:1023E000330E366F0001EEEC06F001C0DEF8320E5F
:1023F00008010124016E040E0220036E0150A20F99
:10240000E96E020E0320EA6E010EEF6E0001000C71
:102410000801DF6B8B94640E0901416F00011AEC17
:1024200003F00801DF6BDD51DF5D31E28B84140EB8
:102430000901416F00011AEC03F00801DE6BDE5167
:10244000130807E3C950FF0EC96EC7A0FED7DE2BE5
:10245000F6D78B94140E0901416F00011AEC03F0BA
:10246000400E0901466F4A6B496B486B476B800E03
:102470004B6F010E4C6F990E4D6F00010EDC01C0C9
:10248000E0F80801E02D01D002D0DF2BCCD7DD51E0
:10249000DF5D04E38B84300E016E24D0DF6BDD51F1
:1024A000DF5D17E2410E0901466F4A6B496B486BCD
:1024B000476B800E4B6F4C6B990E4D6F00014DECCE
:1024C0000EF001C0E0F80801E05301E102D0DF2B7B
:1024D000E6D78B84DD51DF5D03E3310E016E02D060
:1024E000000E016E000193EF2EF08B94010E090196
:1024F000416F00011AEC03F0D8900901406B3435AC
:10250000416F3535426F3635436F510E466F43C9C3
:102510004AF942C949F941C948F940C947F9100E79
:102520004B6F4C6B400E4D6F00014DEC0EF001C037
:102530003AF909013A51400805E18B84110E016E08
:1025400042D006D03A5304E08B84100E016E3BD08B
:102550003E6B3D6B3E5103080FE3C950FF0EC96E41
:10256000C7A0FED7C9CF3AF93A51FE0801E104D01D
:102570003D2BD8B43E2BEED73A51FE0804E08B84B5
:10258000120E016E20D039C9EAFF38C9E9FF3C6B51
:102590003B6B3C5101080AE3FF0EC96EC7A0FED792
:1025A000C9CFEEFF3B2BD8B43C2BF3D7C950FF0E5D
:1025B000C96EC7A0FED7C950FF0EC96EC7A0FED70F
:1025C0008B84000E016E0001000C016A026A006A31
:1025D000036A0801F55102E1F45118E0100EF66F9C
:1025E000D890F237F33700360336F551035C02E139
:1025F000F451005C07E3F451005ED8A00306F551E6
:10260000035ED88001360236F62FEAD70001C3EF09
:1026100013F0006A016A026A036A0901096B0A6B16
:102620000B6B0C6B08510711061105112CE0200EE5
:102630000D6FD890013702370337043709370A374F
:102640000B370C3708510C5D08E107510B5D05E1B4
:1026500006510A5D02E10551095D0FE30551095F6D
:102660000651D8A0063D0A5F0751D8A0073D0B5F71
:102670000851D8A0083D0C5FD880003601360236DC
:1026800003360D2FD6D7090EEA6EE96E0001000C55
:1026900002014C6B4B6B4A6B496B586B576B566B1B
:1026A000556B716B0601EE6B58C237F957C236F99C
:1026B00056C235F955C234F9020E0901396FA20E1E
:1026C000386F000112DF01C0D5F60601D55303E0D3
:1026D000D5C601F0AED10201A251EB081EE068C4DC
:1026E00055F269C456F26AC457F258C237F957C254
:1026F00036F956C235F955C234F9020E0901396F5F
:10270000A20E386F0001F1DE01C0D5F60601D553E7
:1027100003E0D5C601F08DD10201020EEA6E720E01
:10272000E96E020EE26EA20EE16E300E016EE6CF91
:10273000EEFF012EFCD783350801EE6F02018435D0
:102740000801EF6FEE37EF37EE37EF37EE37EF3741
:10275000EE37EF37E00EEE17010E02017D5D006EE1
:10276000000E7E59036E00500801EE25F06F0350F5
:10277000EF21F16FF36FF0C8F2F87EC2F5F87DC279
:10278000F4F8000122D702016C6B6B6B02C06AF295
:1027900001C069F2706B6F6B89C26EF288C26DF214
:1027A0006D530EE16E530CE16F530AE1705308E173
:1027B00099C270F298C26FF297C26EF296C26DF231
:1027C0000801E46BE36B86C2E2F885C2E1F8E153ED
:1027D0000EE1E2530CE1E3530AE1E45308E195C250
:1027E000E4F894C2E3F893C2E2F892C2E1F8090176
:1027F0002C6B2B6B2A6B82C229F970C230F96FC225
:102800002FF96EC22EF96DC22DF900011FEC0EF0EA
:1028100002018051002681510122000E0222032272
:1028200000500801E15DEE6F0150E259EF6F025078
:10283000E359F06F0350E459F16F02016951080147
:10284000EE25E56F02016A510801EF21E66F0201F2
:102850006B510801F021E76F02016C510801F12171
:10286000E86FE8C804F9E7C803F9E6C802F9E5C863
:1028700001F90901086B076B066B7FC205F90001BE
:10288000C8DE03C0ECF802C0EBF801C0EAF800C0F3
:10289000E9F80801EC530EE1EB530CE1EA510F08A3
:1028A00009E303E1E951F40805E3010E0601EE6FC7
:1028B00013D00801EC530DE1EB530BE1EA51FF0893
:1028C00008E303E1E951F40804E3020E0601EE6FA8
:1028D00003D0030E0601EE6F020180515525080159
:1028E000DD6F0201815156210801DE6F000E0201E9
:1028F00057210801DF6F000E020158210801E06F27
:10290000E0C837F9DFC836F9DEC835F9DDC834F973
:102910000901396B490E386F0001E7DD01C0D5F6BA
:102920000201546B536B526B516B09012C6B2B6B77
:102930002A6B82C229F970C230F96FC22FF96EC2B8
:102940002EF96DC22DF900011FEC0EF000500201AE
:1029500055250801EE6F0150020156210801EF6F65
:102960000250020157210801F06F03500201582163
:102970000801F16F020169510801EE25F26F0201B1
:102980006A510801EF21F36F02016B510801F02138
:10299000F46F02016C510801F121F56F02018051C1
:1029A0000801F225F66F020181510801F321F76F4A
:1029B000000EF421F86F000EF521F96FD890020196
:1029C0007F350801F65D0201596F000E0801F759C5
:1029D00002015A6F000E0801F85902015B6F000EE8
:1029E0000801F95902015C6F0801ED6BED531EE11E
:1029F0000901356BEDC834F9040E376F330E366FAD
:102A00000001EEEC06F001C0EEF8320E08010124E0
:102A1000016E040E0220036E0150A20FE96E020E39
:102A20000320EA6E010EEF6EED2BE0D70601D5C64E
:102A300001F00001ADEF2EF00801E06BDF6BDEC8A6
:102A400003F0DDC8E9FFDEC8EAFFEF5230E0DF51F6
:102A500001082DE3DEC803F0DDC8E9FFDEC8EAFFA8
:102A6000EF502C0801E1DF2BDD2BD8B4DE2BDF2D5E
:102A70001DD0E05103081AE3E051E02B036A200F58
:102A8000016E000E032201509F0F016E080E0322FB
:102A900003C0E3F8DDC8E9FFDEC8EAFFEFCFE4F8E2
:102AA000E3C8EAFF01C0E9FFE4C8EFFFC8D7036A43
:102AB000E051200F016E000E032201509F0FE96EBE
:102AC000080E0320EA6EEF6ADF5303E1000E016E89
:102AD00002D0010E016E0001CAEF2EF0CDC8EAFF50
:102AE000CCC8E9FF0801E5C8EFFFE92AD8B4EA2A13
:102AF000EF6ACC2BD8B4CD2B0001000C0801E651B5
:102B0000016AE55D03E2E5C800F00CD0006A080E3A
:102B1000E76FE5370036E651005CD8B0006E01364D
:102B2000E72FF7D70001000C200E0801E0A9300EB6
:102B3000E16FDFC800F0DFAF07D0001E002A00C041
:102B4000DFF82D0EE16FE08F0150DFC8E5F8640E6D
:102B5000E66F0001D3DF00C0DFF8300E012408016A
:102B6000E26FDFC8E5F80A0EE66F0001C7DF300E3E
:102B700000240801E46F300E0124E36FE1C800F087
:102B8000E0A702D0E0AFE095E0B90BD0E0AF22D0F3
:102B9000E0B520D000C0E2F8E0B31CD000C0E3F8FC
:102BA00019D0300EE25D16E100C0E2F8200EE16FB0
:102BB000E0A704D0E095E083E0AFE093300EE35D62
:102BC00009E100C0E3F8200EE26FE0A7F7D7E09339
:102BD000E0AFE091E0A505D0E1C8E5F800017EDFB7
:102BE0000801E0A305D0E2C8E5F8000177DF08019D
:102BF000E0A104D0E3C8E5F8000170DFE4C8E5F81F
:102C000000016CDF000C0801F95301E017D1090144
:102C10002C6B2B6B2A6B82C229F970C230F96FC200
:102C20002FF96EC22EF96DC22DF900011FEC0EF0C6
:102C30000050020155250901006F01500201562183
:102C40000901016F0250020157210901026F03506F
:102C5000020158210901036F020180510901002579
:102C60000801FA6F02018151090101210801FB6F7E
:102C7000000E090102210801FC6F000E0901032169
:102C80000801FD6F0901356BF9C834F9040E376F7F
:102C9000330E366F0001EEEC06F002C001F901C000
:102CA00000F9090101C001F0020E0224036E015077
:102CB000A20F016E020E032201C002F903C003F944
:102CC000FDC837F9FCC836F9FBC835F9FAC834F93C
:102CD00003C039F901C038F9000107DCFDC862F210
:102CE000FCC861F2FBC860F2FAC85FF20901356BFB
:102CF000F9C834F9040E376F330E366F0001EEEC6D
:102D000006F001C000F92B0E09010124016E040E2A
:102D10000220036E0150A20FE96E020E0320EA6E3C
:102D2000FAC8EFFFFBC8ECFFFCC8ECFFFDC8ECFFE6
:102D3000356BF9C834F9040E376F330E366F000166
:102D4000EEEC06F001C000F92F0E09010124016E1E
:102D5000040E0220036E0150A20FE96E020E032042
:102D6000EA6EEC6AED52EF6A356BF9C834F9040E7D
:102D7000376F330E366F0001EEEC06F002C001F93A
:102D800001C000F9090101C001F0040E0224036E24
:102D90000150A20F016E020E032201C002F903C00E
:102DA00003F9356BF9C834F9040E376F330E366FFB
:102DB0000001EEEC06F002C005F901C004F90901BA
:102DC00001C001F0020E0224036E0150A20F016E39
:102DD000020E032201C006F903C007F903C9EAFF86
:102DE00002C9E9FF03C0E2FF01C0E1FF200E016E4E
:102DF000E6CFEEFF012EFCD7356BF9C834F9040E8F
:102E0000376F330E366F0001EEEC06F001C000F9AB
:102E1000200E09010124016E040E0220036E0150F0
:102E2000A20FE96E020E0320EA6E9EC2EFFF9FC260
:102E3000ECFFA0C2ECFFA1C2ECFF0801000151EFC2
:102E40001EF00AC90CF909C90BF90CC903F00901F4
:102E50000BC9E9FF0CC9EAFFEF5206E00B2BD8B40F
:102E60000C2B0001F2D7090109510B5D006E0A51CC
:102E70000C59036E00C001F0026E0001000C090144
:102E800000C9E9FF01C9EAFFEF502E080DE1010E6C
:102E90000025E96E000E0121EA6EEF502E0804E1D4
:102EA000FF0E016E04D003D0000E016E00D00001B1
:102EB0002AEF1DF00901266B23C9E9FF24C9EAFFA7
:102EC000EF6A256B2551070819E3036A255121256F
:102ED000E96E22510320EA6EEFCF27F9275120082F
:102EE00001E10CD02651262B036A2325E96E2451DB
:102EF0000320EA6E27C9EFFF252BE4D7256B255168
:102F000002082CE3036A2551080F016E000E03220C
:102F100001502125E96E22510320EA6EEFCF27F9F7
:102F20002751200802E0275301E118D025530AE178
:102F30002651262B036A2325E96E24510320EA6ECD
:102F40002E0EEF6E2651262B036A2325E96E24519F
:102F50000320EA6E27C9EFFF252BD1D72651262B58
:102F6000036A2325E96E24510320EA6EEF6A00010B
:102F7000EEEF19F0090121C9E9FF22C9EAFFEFCFFD
:102F800025F924C903F023C9E9FF24C9EAFFEF505A
:102F9000255D15E122C903F021C9E9FF03C0EAFF5D
:102FA000EF5203E1000E016E1FD022C903F0215140
:102FB000212BD8B4222B232BD8B4242BDCD722C925
:102FC00003F021C9E9FF22C9EAFFEFCF25F924C99F
:102FD00003F023C9E9FF24C9EAFFEF50255D02E2AF
:102FE000FF0E01D0010E016E0001000C0601EE5132
:102FF0000308D8A493D009012A31326F2931316FE7
:103000002831306F27312F6F3233313330332F3344
:103010003233313330332F333233313330332F3394
:103020003233313330332F333233313330332F3384
:103030003233313330332F33010E321727517F0BA8
:10304000336F0201515109012F5D0FE1020152510D
:103050000901305D0AE1020153510901315D05E1C9
:10306000020154510901325D3DE00201715304E057
:10307000000118EC0FF00201805155250901346F51
:103080000201815156210901356F000E02015721BD
:103090000901366F000E020158210901376F2F51C7
:1030A00034252B6F305135212C6F315136212D6F46
:1030B000325137212E6F2EC937F92DC936F92CC957
:1030C00035F92BC934F9396B490E386F000175ECAD
:1030D00012F032C954F231C953F230C952F22FC939
:1030E00051F20901356B33C934F9376B040E366F71
:1030F0000001EEEC06F002C003F00150490FE96E4A
:10310000000E0220EA6EEFCF00F0ECCF01F0ECCF22
:1031100002F0ECCF03F0A4D0A3D0060128C92FF908
:1031200029C930F92AC931F90901326B27C933F9A4
:103130000201515109012F5D0FE1020152510901B4
:10314000305D0AE1020153510901315D05E10201DF
:1031500054510901325D3DE00201715304E0000168
:1031600018EC0FF00201805155250901346F02015E
:10317000815156210901356F000E020157210901C5
:10318000366F000E020158210901376F2F51342587
:103190002B6F305135212C6F315136212D6F32512B
:1031A00037212E6F2EC937F92DC936F92CC935F9BB
:1031B0002BC934F9396B490E386F000175EC12F0E8
:1031C00032C954F231C953F230C952F22FC951F207
:1031D0000901D8903335026E036A03360250490F55
:1031E000E96E000E0320EA6EECCF35F9ED52EFCF19
:1031F00034F93551FE0821E2FF0A03E13451F408A5
:103200001CE2D8903335026E036A03360250490F30
:10321000E96E000E0320EA6EECCF35F9ED52EFCFE8
:1032200034F934C900F035C901F0FF0E026E0F0EFB
:10323000036E000115D014D00901D8903335026E09
:10324000036A03360250490FE96E000E0320EA6E4E
:10325000EFCF00F0ECCF01F0026A036A000100D06A
:10326000000C0901025303E0000E016E7DD3206BB8
:103270001F6BFF0E0201646F636F0F0E686FFF0E0E
:10328000676F666F656F0901356B02C934F9040E0B
:10329000376F330E366F0001EEEC06F002C022F9F4
:1032A00001C021F9200E09010124016E040E022043
:1032B000036E0150A20FE96E020E0320EA6EEFCFFB
:1032C00000F0ECCF01F0ECCF02F0ECCF03F003C044
:1032D0001AF902C019F901C018F900C017F9356BC5
:1032E00002C934F9040E376F330E366F0001EEEC6D
:1032F00006F001C021F9090101C001F0020E02240B
:10330000036E0150A20F016E020E032201C003F9E9
:1033100003C004F9066B056B0653D8A4C6D005514B
:103320000F08D8A0C2D003C9E9FF04C9EAFFEF50D3
:10333000E50806E003C9E9FF04C9EAFFEF523BE1F3
:103340000201633D01D002D0090135D0643D01D0B6
:1033500002D0090130D006C964F205C963F209013F
:10336000356B02C934F9040E376F330E366F000126
:10337000EEEC06F002C022F901C021F9200E09018D
:103380000124016E040E0220036E0150A20FE96EAB
:10339000020E0320EA6EEFCF00F0ECCF01F0ECCF8D
:1033A00002F0ECCF03F003C068F202C067F201C084
:1033B00066F200C065F203C9E9FF04C9EAFFEF52F3
:1033C00003E1000E016ED0D204C922F903C921F92C
:1033D000090E246F070E236F00016CD5090E090139
:1033E000226F070E216F01C924F900C923F90001DA
:1033F000C1DD015251E10901356B02C934F9040EF6
:10340000376F330E366F0001EEEC06F002C022F982
:1034100001C021F9090101C001F0040E0224036E6C
:103420000150A20F016E020E032201C023F903C056
:1034300024F903C0EAFF01C0E9FF04C9E2FF03C9A0
:10344000E1FF200E016EE6CFEEFF012EFCD7356BBB
:1034500002C934F9040E376F330E366F0001EEECFB
:1034600006F001C021F92F0E09010124016E040E9E
:103470000220036E0150A20FE96E020E0320EA6ED5
:1034800006C9ECFFED5205C9EFFF06C95EF205C99A
:103490005DF2010E016E68D2200E09010327D8B03B
:1034A000042B052BD8B4062B37D70601EE510308A1
:1034B000D8A4ACD109011F2B02017F5109011F5D66
:1034C000D8B0B2D0356B02C934F9040E376F330E61
:1034D000366F0001EEEC06F002C022F901C021F9BE
:1034E000200E09010124016E040E0220036E01501A
:1034F000A20FE96E020E0320EA6EEFCF23F9ECCFA4
:1035000024F9ECCF25F9ECCF26F9EACF28F9E9CF59
:1035100027F926C92CF925C92BF924C92AF923C969
:1035200029F9306B2F6B2E6B7FC22DF900011FEC38
:103530000EF028C9EAFF27C9E9FF02015951090124
:103540000024296F02015A51090101202A6F02014A
:103550005B51090102202B6F02015C51090103201C
:103560002C6F1F5129251B6F000E2A211C6F000E86
:103570002B211D6F000E2C211E6F356B02C934F9F3
:10358000040E376F330E366F0001EEEC06F002C00A
:1035900022F901C021F9090101C001F0020E022443
:1035A000036E0150A20F016E020E032201C023F927
:1035B00003C024F91EC937F91DC936F91CC935F9EC
:1035C0001BC934F903C039F901C038F9000175ECA1
:1035D00012F01EC962F21DC961F21CC960F21BC95A
:1035E0005FF20901356B02C934F9040E376F330EEF
:1035F000366F0001EEEC06F001C021F92B0E090137
:103600000124016E040E0220036E0150A20FE96E28
:10361000020E0320EA6E1BC9EFFF1CC9ECFF1DC997
:10362000ECFF1EC9ECFFF0D01F6B356B02C934F9FB
:10363000040E376F330E366F0001EEEC06F002C059
:1036400022F901C021F9200E09010124016E040EA6
:103650000220036E0150A20FE96E020E0320EA6EF3
:10366000EFCF23F9ECCF24F9ECCF25F9ECCF26F9F5
:1036700026C92AF925C929F924C928F923C927F90E
:103680000001B4DC03C01AF902C019F901C018F92D
:1036900000C017F91AC968F219C967F218C966F2A9
:1036A00017C965F20901173D08D0183D06D0193D2C
:1036B00004D01A510F08D8B4A5D0175307E11853F6
:1036C00005E1195303E11A53D8B49CD01AC92CF957
:1036D00019C92BF918C92AF917C929F9306B2F6BA9
:1036E0002E6B7FC22DF900011FEC0EF00201595123
:1036F000090100241B6F02015A51090101201C6FAE
:1037000002015B51090102201D6F02015C51090198
:1037100003201E6F356B02C934F9040E376F330E68
:10372000366F0001EEEC06F002C022F901C021F96B
:10373000090101C001F0020E0224036E0150A20F24
:10374000016E020E032201C023F903C024F91EC931
:1037500037F91DC936F91CC935F91BC934F903C03D
:1037600039F901C038F9000175EC12F01EC962F296
:103770001DC961F21CC960F21BC95FF20901356BFA
:1037800002C934F9040E376F330E366F0001EEECC8
:1037900006F001C021F92B0E09010124016E040E6F
:1037A0000220036E0150A20FE96E020E0320EA6EA2
:1037B0001BC9EFFF1CC9ECFF1DC9ECFF1EC9ECFFC4
:1037C000356B02C934F9040E376F330E366F0001C2
:1037D000EEEC06F001C021F9200E09010124016E72
:1037E000040E0220036E0150A20FE96E020E0320A8
:1037F000EA6E17C9EFFF18C9ECFF19C9ECFF1AC927
:10380000ECFF02D0010E206FAAD0060109011F2B88
:1038100002016C530AE16B5308E16A5306E16951F6
:1038200009011F5DD8B099D0020109012C6B2B6BE7
:103830002A6B82C229F970C230F96FC22FF96EC2A9
:103840002EF96DC22DF900011FEC0EF0005002019F
:1038500055250901216F0150020156210901226FEE
:103860000250020157210901236F03500201582120
:103870000901246F0201805109012125256F0201F0
:10388000815109012221266F000E2321276F000E8E
:103890002421286F1F5125251B6F000E26211C6F28
:1038A000000E27211D6F000E28211E6F356B02C9E7
:1038B00034F9040E376F330E366F0001EEEC06F06C
:1038C00002C022F901C021F9090101C001F0020E74
:1038D0000224036E0150A20F016E020E032201C0EA
:1038E00023F903C024F91EC937F91DC936F91CC9CB
:1038F00035F91BC934F903C039F901C038F90001A1
:1039000075EC12F01EC962F21DC961F21CC960F2A9
:103910001BC95FF20901356B02C934F9040E376F18
:10392000330E366F0001EEEC06F001C021F92B0ECC
:1039300009010124016E040E0220036E0150A20F42
:10394000E96E020E0320EA6E1BC9EFFF1CC9ECFFF3
:103950001DC9ECFF1EC9ECFF02D0010E206F2053E1
:10396000D8B4BDD4000E016E0001000C0901356B06
:1039700004C934F9040E376F330E366F0001EEECD4
:1039800006F002C00AF901C009F9090101C00BF9EA
:10399000040E02240C6F140E0124016E000E0C2183
:1039A000036E0150A20FE96E020E0320EA6EECCF07
:1039B00003F0ED52EFCF00F003C001F0026A036A9A
:1039C00003C008F902C007F901C006F900C005F9F3
:1039D00006C908F905C907F9056B066B356B04C9FB
:1039E00034F9040E376F330E366F0001EEEC06F03B
:1039F00001C009F9090101C00BF9040E02240C6F82
:103A00001A0E0124016E000E0C21036E0150A20F4C
:103A1000E96E020E0320EA6EECCF03F0ED52EF5098
:103A200005130350061305C900F006C901F007C9C4
:103A300002F008C903F00001000C0801FB5303E089
:103A4000000E016EE1D0FAC801F9F9C800F90001D1
:103A50003FEF17F0015205E0010E016E0801D4D0CE
:103A60000001FAC801F9F9C800F9FBC802F931EC04
:103A700019F0015205E1000E016E0801C5D00001E8
:103A8000FBC804F973DF03C003F902C002F901C0E7
:103A900001F900C000F9EACF05F9E9CF04F903C044
:103AA0002CF902C02BF901C02AF900C029F909013B
:103AB000306B2F6B2E6B7FC22DF900011FEC0EF0C7
:103AC00005C9EAFF04C9E9FF03C0FFF802C0FEF818
:103AD00001C0FDF800C0FCF8020159510801FC27A3
:103AE00002015A510801FD2302015B510801FE2326
:103AF00002015C510801FF230901356BFBC834F951
:103B0000040E376F330E366F0001EEEC06F002C084
:103B100001F901C000F9090101C001F0020E0224FF
:103B2000036E0150A20F016E020E032201C002F9C2
:103B300003C003F9FFC837F9FEC836F9FDC835F9E7
:103B4000FCC834F903C039F901C038F9000175EC3B
:103B500012F0FFC862F2FEC861F2FDC860F2FCC854
:103B60005FF20901356BFBC834F9040E376F330E71
:103B7000366F0001EEEC06F001C000F92B0E0901D2
:103B80000124016E040E0220036E0150A20FE96EA3
:103B9000020E0320EA6EFCC8EFFFFDC8ECFFFEC872
:103BA000ECFFFFC8ECFF356BFBC834F9040E376F30
:103BB000330E366F0001EEEC06F002C001F901C0D1
:103BC00000F9200E09010124016E040E0220036E8B
:103BD0000150A20F016E020E032201C002F903C0C0
:103BE00003F9FBC804F90001C1DE03C9EAFF02C9F9
:103BF000E9FF00C0EFFF01C0ECFF02C0ECFF03C013
:103C0000ECFF010E016E0801000184EF1EF00801B7
:103C1000F2C8E9FFF3C8EAFFFF0EEF6EF46BF4534E
:103C200027E10901356BF4C834F9040E376F330E00
:103C3000366F0001EEEC06F002C0F9F801C0F8F8AA
:103C4000320E08010124016E040E0220036E0150A1
:103C5000A20FE96E020E0320EA6EEF5207E0F2C8EF
:103C6000E9FFF3C8EAFFF4C8EFFF02D0F42BD7D77F
:103C7000F3C803F0F2C8E9FFF3C8EAFFEF3C04D051
:103C8000000E016E026E7BD0F3C803F0F2C8E9FFAC
:103C9000F3C8EAFFEFCFF8F8F8C8F9F8000103EF2E
:103CA00016F0F1C8F7F8F0C8F6F8F1C80AF9F0C84C
:103CB00009F921EC17F001C0F5F80801F46BF55192
:103CC000F45D59E2036AF451F025E96EF1510320E5
:103CD000EA6EEF502F084DE1036AF451F025E96ECA
:103CE000F1510320EA6EEF6AF3C803F0F2C8E9FF6E
:103CF000F3C8EAFFEFCFF8F8F7C8FAF8F6C8F9F812
:103D0000F8C8FBF8000199D6015226E1F3C803F088
:103D1000F2C8E9FFF3C8EAFF0901356BEFCF34F9C8
:103D2000040E376F330E366F0001EEEC06F001C063
:103D3000F9F8320E08010124016E040E0220036E10
:103D40000150A20FE96E020E0320EA6E010EEF6E23
:103D5000000E016E026E13D00801F451F025F86FC9
:103D6000000EF121F96F010EF825F66F000EF92112
:103D7000F76FF42BA4D7F6C801F0F7C802F00001E2
:103D800067EF25F04CC206F94BC205F94AC204F9A7
:103D900049C203F90601EE510308D8A4F9D006C9B7
:103DA00002F905C901F904C900F903C9FFF80901BD
:103DB00002510201995DD8A0E9D016E10901015133
:103DC0000201985DD8A0E2D00FE109010051020183
:103DD000975DD8A0DBD008E196510801FF5DD8A01F
:103DE00002D00201D3D0020151510801FF5D16E15A
:103DF000020152510901005DD8B402D008010ED071
:103E0000020153510901015DD8B402D0080106D066
:103E1000020154510901025D49E00801020180518B
:103E200055250901116F0201815156210901126FB7
:103E3000000E020157210901136F000E02015821E3
:103E40000901146F0801FF5109011125076F005185
:103E50001221086F01511321096F025114210A6FB9
:103E60000201715303E0000118EC0FF00AC937F9A1
:103E700009C936F908C935F907C934F90901396B97
:103E8000490E386F000175EC12F002C94CF201C9FD
:103E90004BF200C94AF2FFC849F24CC254F24BC27D
:103EA00053F24AC252F249C251F20901106B0F6B30
:103EB000105358E10F517F0855E30F35026E10354E
:103EC000036E02360336FC0E02160250490FE96EED
:103ED000000E0320EA6EEFCF11F9ECCF12F9ECCF10
:103EE00013F9ECCF14F9115339E1125337E113539D
:103EF00035E1145333E102C90EF901C90DF900C9C6
:103F00000CF9FFC80BF90B370C370D370E370B3791
:103F10000C370D370E370B370C370D370E370B3785
:103F20000C370D370E370B370C370D370E370B3775
:103F30000C370D370E370B370C370D370E37800E19
:103F40000B170F510B1310510C130BC900F00CC9B8
:103F500001F00DC902F00EC903F008D10F2BD8B43F
:103F6000102BA6D7010E0801FF27D8A003D0090106
:103F7000002B0801D8A403D00901012B0801D8A403
:103F800002D00901022B060112D70201E8D0060176
:103F900006C902F905C901F904C900F903C9FFF806
:103FA00009010253D8A4DAD00153D8A4D7D00051C4
:103FB0000201895DD8B002D00901D0D008E1885152
:103FC0000801FF5DD8A002D00901C8D002015151FB
:103FD0000801FF5D16E1020152510901005DD8B4EC
:103FE00002D008010ED0020153510901015DD8B47D
:103FF00002D0080106D0020154510901025D49E0D6
:1040000008010201805155250901116F02018151FA
:1040100056210901126F000E020157210901136F89
:10402000000E020158210901146F0801FF51090116
:104030001125076F00511221086F01511321096FDB
:10404000025114210A6F0201715303E0000118ECC0
:104050000FF00AC937F909C936F908C935F907C98E
:1040600034F90901396B490E386F000175EC12F013
:1040700002C94CF201C94BF200C94AF2FFC849F229
:104080004CC254F24BC253F24AC252F249C251F2EC
:104090000901106B0F6B105100084CE3D8900F35DD
:1040A000026E1035036E0250490FE96E000E0320B8
:1040B000EA6EECCF12F9ED52EFCF11F9115336E160
:1040C000125334E102C90EF901C90DF900C90CF906
:1040D000FFC80BF90DC90EF90CC90DF90BC90CF984
:1040E0000B6B0F510B1310510C130E530AE10D53B0
:1040F00008E10C51FE0811E2FF0A03E10B51F4083C
:104100000CE20BC900F00CC901F00D51FF09026E61
:104110000E510F09036E2AD009D00BC900F00CC94B
:1041200001F00DC902F00EC903F020D00F2BD8B456
:10413000102BB1D7010E0801FF27D8A003D0090129
:10414000002B0801D8A403D00901012B0801D8A431
:1041500002D00901022B060123D709010201FF0E3B
:10416000006E016E026E0F0E036E09010001000C5D
:104170000601EE510308D8A494D009010831146F48
:104180000731136F0631126F0531116F143313337A
:1041900012331133143313331233113314331333F3
:1041A00012331133143313331233113314331333E3
:1041B000123311331433133312331133010E141726
:1041C00005517F0B156F0201805155250901166FAE
:1041D0000201815156210901176F000E020157217A
:1041E0000901186F000E020158210901196F1151C0
:1041F00016250D6F125117210E6F135118210F6FD5
:1042000014511921106F020151510901115D0FE183
:10421000020152510901125D0AE1020153510901E3
:10422000135D05E1020154510901145D1EE0020114
:10423000715303E0000118EC0FF010C937F90FC9F2
:1042400036F90EC935F90DC934F90901396B490E32
:10425000386F000175EC12F014C954F213C953F20F
:1042600012C952F211C951F20901356B15C934F95D
:10427000376B040E366F0001EEEC06F00150490F6B
:10428000E96E000E0220EA6E09C9EFFF0AC9ECFFD1
:104290000BC9ECFF0CC9ECFF010E0201716F6FD06E
:1042A000060106C911F907C912F908C913F909016C
:1042B000146B05C915F90201805155250901166FC6
:1042C0000201815156210901176F000E0201572189
:1042D0000901186F000E020158210901196F1151CF
:1042E00016250D6F125117210E6F135118210F6FE4
:1042F00014511921106F020151510901115D0FE193
:10430000020152510901125D0AE1020153510901F2
:10431000135D05E1020154510901145D1EE0020123
:10432000715303E0000118EC0FF010C937F90FC901
:1043300036F90EC935F90DC934F90901396B490E41
:10434000386F000175EC12F014C954F213C953F21E
:1043500012C952F211C951F20901D8901535026EF5
:10436000036A03360250490FE96E000E0320EA6E1D
:1043700009C9EFFF0AC9ECFF010E0201716F0001CC
:10438000000C0901076B046B02C90AF901C909F99C
:10439000000121EC17F001C005F90901036B03517D
:1043A00007080DE3036A03510801FF25E96E0901BF
:1043B00000510320EA6E200EEF6E032BF0D7036B43
:1043C0000351020812E3036A0351080F016E000E45
:1043D000032201500801FF25E96E09010051032065
:1043E000EA6E200EEF6E032BEBD7036B0551035DD6
:1043F0003BE2036A03510125E96E02510320EA6E94
:10440000EFCF06F90651600806E206517A0803E389
:104410000651DF0B01D00651066F06512E0803E14D
:10442000010E076F1FD0075312E00451042B036ADB
:10443000080F016E000E032201500801FF25E96EEE
:10444000090100510320EA6E06C9EFFF0BD0036A91
:1044500003510801FF25E96E090100510320EA6EAE
:1044600006C9EFFF032BC2D7000158EF24F0080163
:10447000F05303E0000E016E14D30601EE51030861
:10448000D8A43BD10201653D09D1663D07D1673D06
:1044900005D168510F08D8A401D1000173DC03C015
:1044A00068F202C067F201C066F200C065F2020164
:1044B000646B636B0901356BF0C834F9040E376F18
:1044C000330E366F0001EEEC06F002C000F901C0B9
:1044D000FFF8200E08010124016E040E09010220DC
:1044E000036E0150A20FE96E020E0320EA6EEFCFB9
:1044F00001F9ECCF02F9ECCF03F9ECCF04F904C9D0
:1045000008F903C907F902C906F901C905F968C222
:104510000CF967C20BF966C20AF965C209F9000114
:1045200027DE68C208F967C207F966C206F965C2E4
:1045300005F90F0E09010C6FFF0E0B6F0A6F096F63
:10454000000116DE68C22CF967C22BF966C22AF98F
:1045500065C229F90901306B2F6B2E6B7FC22DF9D3
:1045600000011FEC0EF00201595108010024F56F03
:1045700002015A51090101200801F66F02015B5145
:10458000090102200801F76F02015C5109010320B3
:104590000801F86FFE6BFD6BFE51010829E309016C
:1045A000356BF0C834F9040E376F330E366F0001E7
:1045B000EEEC06F001C0FFF801C001F90901020E9E
:1045C0000224026F0801FD5109010124016E080156
:1045D000FE5109010221036E0150A20FE96E020E85
:1045E0000320EA6EEF6A0801FD2BD8B4FE2BD4D766
:1045F000FE6BFD6BFE5349E102017F510801FD5D39
:1046000044E2FD51F525FF6FFE51F6210901006FCF
:10461000000E0801F7210901016F000E0801F821C1
:104620000901026F356BF0C834F9040E376F330E91
:10463000366F0001EEEC06F002C004F901C003F988
:10464000090101C001F0020E0224036E0150A20F05
:10465000016E020E032201C005F903C006F902C96A
:104660003BF901C93AF900C939F9FFC838F903C063
:104670003DF901C03CF9000198EC0EF001C0D5F6FF
:104680000801FD2BD8B4FE2BB5D70601D55305E0A4
:10469000000E016E080105D206012ED00901356B0E
:1046A000F0C834F9040E376F330E366F0001EEECAC
:1046B00006F002C000F901C0FFF82B0E080101242A
:1046C000016E040E09010220036E0150A20FE96E73
:1046D000020E0320EA6EEFCF00F0ECCF01F0ECCF3A
:1046E00002F0ECCF03F003C0F8F802C0F7F801C005
:1046F000F6F800C0F5F806012DD00901356BF0C8B9
:1047000034F9040E376F330E366F0001EEEC06F00D
:1047100002C000F901C0FFF82B0E08010124016E50
:10472000040E09010220036E0150A20FE96E020E71
:104730000320EA6EEFCF00F0ECCF01F0ECCF02F0F7
:10474000ECCF03F003C0F8F802C0F7F801C0F6F8A8
:1047500000C0F5F80901356BF0C834F9040E376F65
:10476000330E366F0001EEEC06F002C000F901C016
:10477000FFF801C001F0020E09010224036E01508E
:10478000A20F016E020E032201C001F903C002F95B
:10479000F8C837F9F7C836F9F6C835F9F5C834F965
:1047A00003C039F901C038F9000175EC12F00901B4
:1047B000356BF0C834F9040E376F330E366F0001D5
:1047C000EEEC06F001C0FFF801C001F90901020E8C
:1047D0000224026F020163350901036F020164358F
:1047E0000901046F033704370337043703370437ED
:1047F00003370437E00E031703510124016E0451FF
:104800000221036E0150A20F016E020E032201C0AD
:10481000F3F8080103C0F4F80901356BF0C834F966
:10482000040E376F330E366F0001EEEC06F001C058
:10483000FFF82B0E08010124016E040E090102206D
:10484000036E0150A20FE96E020E0320EA6EF5C856
:10485000EFFFF6C8ECFFF7C8ECFFF8C8ECFF356BCC
:10486000F0C834F9040E376F330E366F0001EEECEA
:1048700006F001C0FFF82F0E08010124016E040E9E
:1048800009010220036E0150A20FE96E020E0320FF
:10489000EA6E64C2ECFFED5263C2EFFFF4C800F9A8
:1048A000F3C8FFF8F2C802F9F1C801F9000169D5AF
:1048B0000B0E0801F325E96E000EF421EA6EEF6A93
:1048C0000001C2EC1EF003C0FCF802C0FBF801C0FE
:1048D000FAF800C0F9F81A0E0801F325E96E000E87
:1048E000F421EA6EF9C8EFFFFAC8ECFF140EF325C5
:1048F000E96E000EF421EA6EFBC8EFFFFCC8ECFF86
:10490000FCC808F9FBC807F9FAC806F9F9C805F99F
:104910000F0E09010C6FFF0E0B6F0A6F096F00017C
:1049200027DC1C0E0801F325E96E000EF421EA6E67
:10493000EE52EE52EC6AED52EF6AED52EF6AED5232
:10494000EF6A0901356BF0C834F9040E376F330E86
:10495000366F0001EEEC06F001C0FFF8270E0801EB
:104960000124016E040E09010220036E0150A20F02
:10497000E96E020E0320EA6EEE52EE52EC6AED5240
:10498000EF6AED52EF6AED52EF6A180E0801F32557
:10499000016E000EF421036E01C0FFF8E8CF00F9AC
:1049A000000172EC0FF000C9EAFFFFC8E9FF02C086
:1049B000ECFFED5201C0EFFF160E0801F325016E6A
:1049C000000EF421036E01C0FFF8E8CF00F90001EA
:1049D0009CEC0FF000C9EAFFFFC8E9FF02C0ECFF42
:1049E000ED5201C0EFFF0901356BF0C834F9040E38
:1049F000376F330E366F0001EEEC06F002C000F99F
:104A000001C0FFF801C001F0020E09010224036E8B
:104A10000150A20F016E020E032201C001F903C072
:104A200002F9F8C83BF9F7C83AF9F6C839F9F5C8F8
:104A300038F903C03DF901C03CF9000198EC0EF0D3
:104A400001C0D5F60901356BF0C834F9040E376F93
:104A5000330E366F0001EEEC06F002C000F901C023
:104A6000FFF801C001F0040E09010224036E015099
:104A7000A20F016E020E032201C001F903C002F968
:104A800003C0EAFF01C0E9FFF4C8E2FFF3C8E1FF99
:104A9000200E016EE6CFEEFF012EFCD7010E016E57
:104AA00008010001B2EF25F0978C85AC04D0FF0E11
:104AB000016E57EF29F0DEC8F1F8DDC8F0F8080EF6
:104AC0000801F36FE10EF26F000107EF1EF002C064
:104AD000EFF801C0EEF80801EE5308E1EF5306E1EC
:104AE000FF0E016E000157EF29F00801E06BEFC8DF
:104AF00001F9EEC800F9E1C802F9000131EC19F042
:104B000001C0E0F80801E05335E1DF51720822E10D
:104B10000901356BE1C834F9040E376F330E366F77
:104B20000001EEEC06F001C0F0F8320E080101249D
:104B3000016E040E0220036E0150A20FE96E020EF8
:104B40000320EA6E010EEF6EFF0E016E0001AFD37F
:104B500012D00801E1C8F0F8EFC8F2F8EEC8F1F899
:104B6000000185D4015203E1FF0E016EA0D3010EB6
:104B70000801E06F00010801E053D8B496D30901A1
:104B8000356BE1C834F9040E376F330E366F000110
:104B9000EEEC06F001C0F0F8320E08010124016EBF
:104BA000040E0220036E0150A20FE96E020E0320D4
:104BB000EA6EEF6A0901356BE1C834F9040E376F0C
:104BC000330E366F0001EEEC06F001C0F0F8310E46
:104BD00008010124016E040E0220036E0150A20F91
:104BE000E96E020E0320EA6EDFC8EFFFDF516108B5
:104BF000D8A46AD20901356BE1C834F9040E376FC5
:104C0000330E366F0001EEEC06F002C0F1F801C081
:104C1000F0F8270E08010124016E040E0220036E35
:104C20000150A20F016E020E032201C0F2F803C070
:104C3000F3F80901356BE1C834F9040E376F330E10
:104C4000366F0001EEEC06F002C0F5F801C0F4F892
:104C5000080101C0F6F8040E0224F76F1C0E0124AF
:104C6000016E000EF721036E0150A20FE96E020ED5
:104C70000320EA6EEFCF00F0ECCF01F0ECCF02F0B2
:104C8000ECCF03F0F3C8EAFFF2C8E9FF00C0EFFF82
:104C900001C0ECFF02C0ECFF03C0ECFFE1C804F967
:104CA0000001B6EC1CF003C0E9F802C0E8F801C04E
:104CB000E7F800C0E6F8E9C8EDF8E8C8ECF8E7C89E
:104CC000EBF8E6C8EAF80801E63D07D0E73D05D075
:104CD000E83D03D0E9510F0837E0EA5306E1EB5312
:104CE00004E1EC5302E1ED532FE0E9C82AF9E8C8EA
:104CF00029F9E7C828F9E6C827F90001F6EC17F00A
:104D000003C0EDF802C0ECF801C0EBF800C0EAF80F
:104D10000801EA3D07D0EB3D05D0EC3D03D0ED5155
:104D20000F0808E0EA5307E1EB5305E1EC5303E118
:104D3000ED5301E109D0EDC8E9F8ECC8E8F8EBC89B
:104D4000E7F8EAC8E6F8C0D7E9C82CF9E8C82BF9B3
:104D5000E7C82AF9E6C829F90901306B2F6B2E6BD9
:104D60007FC22DF900011FEC0EF00201595108011C
:104D70000024E26F02015A5108010120E36F020191
:104D80005B5108010220E46F02015C51080103201D
:104D9000E56F0901356BE1C834F9040E376F330E46
:104DA000366F0001EEEC06F002C0F1F801C0F0F839
:104DB000240E08010124016E040E0220036E01502E
:104DC000A20F016E020E032201C0F2F803C0F3F835
:104DD0000901356BE1C834F9040E376F330E366FB5
:104DE0000001EEEC06F002C0F5F801C0F4F8270E61
:104DF00008010124016E040E0220036E0150A20F6F
:104E0000E96E020E0320EA6EEFCFF6F8ECCFF7F86A
:104E1000ECCFF8F8ECCFF9F8ED52ED52ED52D89016
:104E2000FE6BF931FD6FF831FC6FF731FB6FEACFA4
:104E300000F9E9CFFFF8FEC804F9FDC803F9FCC882
:104E400002F9E8CF01F90901086B076B066B7FC215
:104E500005F9000109EC13F0EFCF00F0ECCF01F001
:104E6000ECCF02F0ECCF03F000C9EAFFFFC8E9FF86
:104E7000F3C8EAFFF2C8E9FF00C0EFFF0901356B94
:104E8000E1C834F9040E376F330E366F0001EEECD3
:104E900006F001C0F0F8240E08010124016E040E92
:104EA0000220036E0150A20FE96E020E0320EA6E8B
:104EB000EF50E227000EE323E423E5230901356BDD
:104EC000E1C834F9040E376F330E366F0001EEEC93
:104ED00006F002C0F1F801C0F0F8A20E08010124AA
:104EE000016E020E0220036E01C0F2F8F36FE5C8F6
:104EF00037F9E4C836F9E3C835F9E2C834F9E8CF40
:104F000039F901C038F9000175EC12F00901356B6F
:104F1000E1C834F9040E376F330E366F0001EEEC42
:104F200006F001C0F0F8200E08010124016E040E05
:104F30000220036E0150A20FE96E020E0320EA6EFA
:104F4000E6C8EFFFE7C8ECFFE8C8ECFFE9C8ECFFF4
:104F50000901356BE1C834F9040E376F330E366F33
:104F60000001EEEC06F002C0F1F801C0F0F8250EE9
:104F700008010124016E040E0220036E0150A20FED
:104F8000016E020E032201C0F2F803C0F3F809011A
:104F9000356BE1C834F9040E376F330E366F0001FC
:104FA000EEEC06F002C0F5F801C0F4F8270E080197
:104FB0000124016E040E0220036E0150A20FE96E5F
:104FC000020E0320EA6EEFCFF6F8ECCFF7F8ECCF45
:104FD000F8F8ECCFF9F8F751010BF3C8EAFFF2C883
:104FE000E9FFF6C8EFFFEC6E0901356BE1C834F953
:104FF000040E376F330E366F0001EEEC06F002C080
:10500000F1F801C0F0F8250E08010124016E040E2C
:105010000220036E0150A20FE96E020E0320EA6E19
:10502000ECCFF3F8ED52EFCFF2F8F2534CE1F3533B
:105030004AE10901356BE1C834F9040E376F330ECC
:10504000366F0001EEEC06F002C0F5F801C0F4F88E
:10505000270E08010124016E040E0220036E015088
:10506000A20FE96E020E0320EA6EEFCFF6F8ECCF46
:10507000F7F8ECCFF8F8ECCFF9F8F65306E1F75370
:1050800004E1F85302E1F9531EE00901356BE1C870
:1050900034F9040E376F330E366F0001EEEC06F074
:1050A00001C0F0F8250E08010124016E040E022053
:1050B000036E0150A20FE96E020E0320EA6E020E8B
:1050C000EC6EED52EF6AF1D00901356BE1C834F9AD
:1050D000040E376F330E366F0001EEEC06F001C0A0
:1050E000F0F8270E08010124016E040E0220036E61
:1050F0000150A20FE96E020E0320EA6EEE52EE524C
:10510000EC6AED52EF6AED52EF6AED52EF6AE1C8D8
:1051100004F90001B6EC1CF003C0F3F802C0F2F889
:1051200001C0F1F800C0F0F8EACFF5F8E9CFF4F8E3
:1051300003C02CF902C02BF901C02AF900C029F9DB
:105140000901306B2F6B2E6B7FC22DF900011FEC14
:105150000EF0F5C8EAFFF4C8E9FF03C0E5F802C0A5
:10516000E4F801C0E3F800C0E2F802015951080177
:10517000E22702015A510801E32302015B510801B1
:10518000E42302015C510801E5230901356BE1C804
:1051900034F9040E376F330E366F0001EEEC06F073
:1051A00002C0F1F801C0F0F8A20E08010124016E5E
:1051B000020E0220036E01C0F2F8F36FE5C837F962
:1051C000E4C836F9E3C835F9E2C834F9E8CF39F96B
:1051D00001C038F9000175EC12F00901356BE1C826
:1051E00034F9040E376F330E366F0001EEEC06F023
:1051F00002C0F1F801C0F0F8200E08010124016E90
:10520000040E0220036E0150A20F016E020E032253
:1052100001C0F2F803C0F3F8E1C804F90001B6ECEC
:105220001CF0F3C8EAFFF2C8E9FF00C0EFFF01C0BD
:10523000ECFF02C0ECFF03C0ECFF0901356BE1C8D5
:1052400034F9040E376F330E366F0001EEEC06F0C2
:1052500001C0F0F8250E08010124016E040E0220A1
:10526000036E0150A20FE96E020E0320EA6EEC6A93
:10527000ED52EF6A0901356BE1C834F9040E376F5E
:10528000330E366F0001EEEC06F001C0F0F8240E8C
:1052900008010124016E040E0220036E0150A20FCA
:1052A000E96E020E0320EA6EEF6AE1C801F0000128
:1052B0002DEF2FF00801E55301E018D20901356BFD
:1052C000E5C834F9040E376F330E366F0001EEEC8B
:1052D00006F002C0EFF801C0EEF8250E0801012427
:1052E000016E040E0220036E0150A20FE96E020E41
:1052F0000320EA6EECCFF1F8ED52EFCFF0F8F15168
:105300000108D8B073D1E5C8EEF80001C9EC0FF080
:105310000901356BE5C834F9040E376F330E366F6B
:105320000001EEEC06F001C0EEF8240E08010124A5
:10533000016E040E0220036E0150A20FE96E020EF0
:105340000320EA6EEF2A0901356BE5C834F9040E33
:10535000376F330E366F0001EEEC06F002C0EFF847
:1053600001C0EEF8240E08010124016E040E022093
:10537000036E0150A20FE96E020E0320EA6E0201D5
:105380007F51EF5CD8A015D10001C2EC1EF003C024
:10539000E9F802C0E8F801C0E7F800C0E6F8080143
:1053A000E63D08D0E73D06D0E83D04D0E9510F08BE
:1053B000D8B4E4D0E65307E1E75305E1E85303E14D
:1053C000E953D8B4DBD00901356BE5C834F9040ED4
:1053D000376F330E366F0001EEEC06F002C0EFF8C7
:1053E00001C0EEF8200E08010124016E040E022017
:1053F000036E0150A20FE96E020E0320EA6EEFCF9A
:10540000F0F8ECCFF1F8ECCFF2F8ECCFF3F8F3C80A
:1054100008F9F2C807F9F1C806F9F0C805F9E9C8B2
:105420000CF9E8C80BF9E7C80AF9E6C809F9000160
:10543000B8EC20F0E9C808F9E8C807F9E7C806F9A8
:10544000E6C805F90F0E09010C6FFF0E0B6F0A6F0E
:10545000096F0001B8EC20F0E9C82CF9E8C82BF975
:10546000E7C82AF9E6C829F90901306B2F6B2E6BC2
:105470007FC22DF900011FEC0EF002015951080105
:105480000024EA6F02015A5108010120EB6F02016A
:105490005B5108010220EC6F02015C5108010320FE
:1054A000ED6F0901356BE5C834F9040E376F330E23
:1054B000366F0001EEEC06F002C0EFF801C0EEF826
:1054C000A20E08010124016E020E0220036E01C02B
:1054D000F0F8F16FEDC837F9ECC836F9EBC835F9DB
:1054E000EAC834F9E8CF39F901C038F9000175ECA0
:1054F00012F00901356BE5C834F9040E376F330E2D
:10550000366F0001EEEC06F002C0EFF801C0EEF8D5
:10551000A20E08010124016E020E0220036E01C0DA
:10552000F0F8F16FEA6E01C0E9FFF26B020EF46F62
:10553000F36B00019FEC02F00901356BE5C834F90B
:10554000040E376F330E366F0001EEEC06F001C02B
:10555000EEF8200E08010124016E040E0220036EF5
:105560000150A20FE96E020E0320EA6EE6C8EFFFBB
:10557000E7C8ECFFE8C8ECFFE9C8ECFF0901356BB0
:10558000E5C834F9040E376F330E366F0001EEECC8
:1055900006F001C0EEF8240E08010124016E040E8D
:1055A0000220036E0150A20FE96E020E0320EA6E84
:1055B000EF6A0901356BE5C834F9040E376F330E15
:1055C000366F0001EEEC06F001C0EEF8250E080182
:1055D0000124016E040E0220036E0150A20FE96E39
:1055E000020E0320EA6EEC6AED52EF6A0901356B98
:1055F000E5C834F9040E376F330E366F0001EEEC58
:1056000006F002C0EFF801C0EEF80901356BE5C8FD
:1056100034F9040E376F330E366F0001EEEC06F0EE
:1056200001C0F0F8250E08010124016E040E0220CD
:10563000036E0150A20FE96E020E0320EA6EECCF5A
:10564000F3F8ED52EFCFF2F8F251EE25016EF3517F
:10565000EF21036E0150A20FE96E020E0320EA6EE5
:10566000E4C8EFFF0901356BE5C834F9040E376F64
:10567000330E366F0001EEEC06F002C0EFF801C009
:10568000EEF8250E08010124016E040E0220036EBF
:105690000150A20FE96E020E0320EA6E010EEE2603
:1056A00001E3EF2A0901356BE5C834F9040E376FC1
:1056B000330E366F0001EEEC06F002C0EFF801C0C9
:1056C000EEF8270E08010124016E040E0220036E7D
:1056D0000150A20FE96E020E0320EA6E010EEE26C3
:1056E00005E1EE2A03E1EE2A01E1ED2A0001000CBA
:1056F000E3C8E4F80801E56B0001DCDD000C0801FB
:10570000DF5301E01BD0DEC803F0DDC8E9FFDEC8CF
:10571000EAFFEF5213E0DEC803F0DD51DD2BD8B411
:10572000DE2BE96E03C0EAFFEFCFE0F8E0C8E4F853
:10573000DFC8E5F80001BEDD0801E5D70001D3EFC1
:105740002FF0F86AF1949F8AA59AD08E0D8EEA6A9E
:10575000E96A7E964D0EB06EA60EAD6E900EAC6EE2
:105760007C964D0EAB6EA60EA86E900E9C6EC088F9
:10577000FF0EC16EC098C29CC29EC088C26EC09807
:10578000D26AD16A2A6A2B6A460E0601D66F410E8A
:10579000D76F540ED86F3F0ED96FDA6BDB6B460EA6
:1057A000DC6F410EDD6F540EDE6F310EDF6F320E97
:1057B000E06FE16B460EE26F410EE36F540EE46F53
:1057C000310EE56F360EE66FE76B460EE86F410E61
:1057D000E96F540EEA6F330EEB6F320EEC6FED6B28
:1057E000FF0EEF6F800E0701106F3E0E116FEE0E71
:1057F000126F630E136F010E146F640E156F166B2C
:10580000176B186B196B1A6B1B6B1C6B1D6B1E6B6C
:105810001F6B206B216B226B236B246B256B266B1C
:10582000276B286B296B2A6B2B6B2C6B2D6B2E6BCC
:105830002F6B306B316B326B336B346B356B366B7C
:10584000376B386B396B3A6B3B6B3C6B3D6B3E6B2C
:105850003F6B406B416B426B436B446B456B466BDC
:10586000476B486B496B4A6B4B6B4C6B4D6B4E6B8C
:105870004F6B506B516B526B536B546B556B566B3C
:10588000576B586B596B5A6B5B6B5C6B5D6B5E6BEC
:105890005F6B300E606F616F626F636F646B656B1F
:1058A000666BE86BE96BEA6BEB6BEC6BED6BEE6BCD
:1058B000EF6BF06BF16BF26BF36BF46BF56BF66BFC
:1058C000F76BF86BF96BFA6BFB6BFC6BFD6BFE6BAC
:1058D000FF6B0801006B016B026B036B046B056BC4
:1058E000066B076B086B096B0A6B0B6B0C6B0D6B14
:1058F0000E6B0F6B106B116B126B136B146B156BC4
:10590000166B176B186B196B1A6B1B6B1C6B1D6B73
:105910001E6B1F6B206B216B226B236B246B256B23
:10592000266B276B286B296B2A6B2B6B2C6B2D6BD3
:105930002E6B2F6B306B316B326B336B346B356B83
:10594000366B376B386B396B3A6B3B6B3C6B3D6B33
:105950003E6B3F6B406B416B426B436B446B456BE3
:10596000466B476B486B496B4A6B4B6B4C6B4D6B93
:105970004E6B4F6B506B516B526B536B546B556B43
:10598000566B576B586B596B5A6B5B6B5C6B5D6BF3
:105990005E6B5F6B606B616B626B636B646B656BA3
:1059A000666B676B686B696B6A6B6B6B9E6BCB6BC3
:1059B000CC6BCD6BCE6BCF6BD06BD16BD26B010E42
:1059C000D46FD56BD66BD76BD86BD96BDA6BDB6BBF
:1059D000DC6B9B8C959E8C9E93988A98939A8A9A5E
:1059E00093968A96080EEA6E9F0EE96EF26BF46B40
:1059F000260EF36F00019FEC02F04E0E0801AC6F13
:105A0000450EB16F3A6A396A0001BEEF02F0EA6AE8
:105A10003C0EE96EF2CFDDF8F29CF29E000EBEEC79
:105A200000F00A000900F550EE6E0009FBE10801E4
:105A3000DDBDF28CDDBFF28E3850550812E0550EF8
:105A4000386E3A6A396A080E3B6E426A416A446AA5
:105A5000436A466A456A486A476A00010AEF03F0EA
:105A6000080198908F8093988A88C80E0901416F29
:105A700000011AEC03F0C80E0901416F00011AEC95
:105A800003F098908F9093988A98939A8A8AC80E78
:105A90000901416F00011AEC03F0C80E0901416FC2
:105AA00000011AEC03F098908F80939A8A9A93964B
:105AB0008A86C80E0901416F00011AEC03F0C80E76
:105AC0000901416F00011AEC03F098908F909396B2
:105AD0008A96C088FF0EC16EC098C29CC29EC088C4
