:020000040000FA
:040000006DEF31F07F
:0800080061EF00F000000000B0
:100010000000000000000000056ED8CF06F0E0CF21
:1000200007F00001E9CF0DF0EACF08F0E1CF09F0C9
:10003000E2CF0AF0D9CF0BF0DACF0CF0F3CF14F007
:10004000F4CF15F0FACF16F0FBCF17F000C00FF089
:1000500001C010F002C011F003C012F004C013F090
:10006000F2AA36EF00F0F2B456EF04F0A3AA3CEF88
:1000700000F0A4BAF5EF03F00FC000F010C001F0DB
:1000800011C002F012C003F013C004F00E8E0DC0B8
:10009000E9FF08C0EAFF09C0E1FF0AC0E2FF0BC0A8
:1000A000D9FF0CC0DAFF14C0F3FF15C0F4FF16C06F
:1000B000FAFF17C0FBFF055007C0E0FF06C0D8FFDE
:1000C00010000001E9CF1EF0EACF19F0E1CF1AF0DD
:1000D000E2CF1BF0D9CF1CF0DACF1DF0F3CF25F023
:1000E000F4CF26F0FACF27F0FBCF28F000C020F0A5
:1000F00001C021F002C022F003C023F004C024F0AC
:100100009DAA86EF00F09EBA3CEF03F020C000F0FD
:1001100021C001F022C002F023C003F024C004F08B
:100120001F8E1EC0E9FF19C0EAFF1AC0E1FF1BC005
:10013000E2FF1CC0D9FF1DC0DAFF25C0F3FF26C0B7
:10014000F4FF27C0FAFF28C0FBFF1100F2CF0EF02A
:10015000F29CF29EF76A700FF66E010EF722000E07
:10016000F86E0900F5500EBCF28C0EBEF28E120035
:100170000D0A5265616420736563746F72232025D4
:100180006C752E00F2CF0EF0F29CF29EF76AA80F6B
:10019000F66E010EF722000EF86E0900F5500EBC47
:1001A000F28C0EBEF28E12000D0A577269746553FE
:1001B0006563746F7228256C75292E00F2CF0EF0DE
:1001C000F29CF29EF76AE00FF66E010EF722000E27
:1001D000F86E0900F5500EBCF28C0EBEF28E1200C5
:1001E0000D0A52656164526F6F744469726563747D
:1001F0006F7279282900F2CF0EF0F29CF29EF76A16
:100200001A0FF66E020EF722000EF86E0900F55076
:100210000EBCF28C0EBEF28E12000D0A46696E64A0
:10022000446972456E7472792825732C25642900FF
:10023000F2CF0EF0F29CF29EF76A540FF66E020EA9
:10024000F722000EF86E0900F5500EBCF28C0EBEBF
:10025000F28E12000D0A54727946696C6528257376
:100260002900F2CF0EF0F29CF29EF76A860FF66E2E
:10027000020EF722000EF86E0900F5500EBCF28C4B
:100280000EBEF28E12000D0A436C757374657220F7
:1002900073746172747320617420256C75283078D2
:1002A00025303458292E0000F2CF0EF0F29CF29E39
:1002B000F76ACC0FF66E020EF722000EF86E0900F8
:1002C000F5500EBCF28C0EBEF28E12000D0A466F77
:1002D000756E6420656E6420636C7573746572203E
:1002E000256C7528307825303458292E0000F76A9F
:1002F000020FF66E030EF722000EF86E0900F5509D
:100300001200524D4300F76A1A0FF66E030EF722E1
:10031000000EF86E0900F550120043545300F2CF5E
:100320000EF0F29CF29EF76A420FF66E030EF72271
:10033000000EF86E0900F5500EBCF28C0EBEF28E67
:100340001200524547203078253032583D20307811
:10035000253032580D0A0000F2CF0EF0F29CF29ECA
:10036000F76A7C0FF66E030EF722000EF86E090096
:10037000F5500EBCF28C0EBEF28E120039393939AE
:100380000000F2CF0EF0F29CF29EF76AA60FF66E16
:10039000030EF722000EF86E0900F5500EBCF28C29
:1003A0000EBEF28E120047505343415220737461C7
:1003B000727465642E0D0A00F2CF0EF0F29CF29E6C
:1003C000F76ADC0FF66E030EF722000EF86E0900D6
:1003D000F5500EBCF28C0EBEF28E12000D0A2530C6
:1003E000337520526563763A20257300F2CF0EF004
:1003F000F29CF29EF76A100FF66E040EF722000EC2
:10040000F86E0900F5500EBCF28C0EBEF28E120092
:100410000D0A4C6561646572277320676F6E652EE7
:100420000000F2CF0EF0F29CF29EF76A460FF66ED5
:10043000040EF722000EF86E0900F5500EBCF28C87
:100440000EBEF28E12002447504354532C25732CB9
:10045000452A30300D0A0000F2CF0EF0F29CF29ED9
:10046000F76A7C0FF66E040EF722000EF86E090094
:10047000F5500EBCF28C0EBEF28E12000D0A5344E3
:10048000206361726420496E7365727465642E0026
:10049000F2CF0EF0F29CF29EF76AB40FF66E040EE5
:1004A000F722000EF86E0900F5500EBCF28C0EBE5D
:1004B000F28E12000D0A496E6974205344202825DB
:1004C0006C64292E2E2E0000F2CF0EF0F29CF29ECC
:1004D000F76AEC0FF66E040EF722000EF86E0900B4
:1004E000F5500EBCF28C0EBEF28E12000D0A534473
:1004F00020496E6974204F6B0000F2CF0EF0F29C21
:10050000F29EF76A1E0FF66E050EF722000EF86EC9
:100510000900F5500EBCF28C0EBEF28E12000D0AD0
:10052000534420496E6974204661696C65642E00ED
:10053000F2CF0EF0F29CF29EF76A540FF66E050EA3
:10054000F722000EF86E0900F5500EBCF28C0EBEBC
:10055000F28E12000D0A204661696C656420746F8A
:1005600020696E69744661742C206572726F722006
:10057000636F6465203D203078253032582E0000AE
:10058000F2CF0EF0F29CF29EF76AA40FF66E050E03
:10059000F722000EF86E0900F5500EBCF28C0EBE6C
:1005A000F28E1200257325303264253032642E4CD1
:1005B0004F470000F2CF0EF0F29CF29EF76AD80F80
:1005C000F66E050EF722000EF86E0900F5500EBC0F
:1005D000F28C0EBEF28E12002447504354532C2549
:1005E000732C25732C452A30300D0A0009016953FC
:1005F0003FE065C9E9FF66C9EAFFEFCF6AF968C95C
:1006000003F067C9E9FF68C9EAFFEF506A5D17E0C8
:1006100066C903F065C9E9FF66C9EAFFEFCF6AF969
:1006200068C903F067C9E9FF68C9EAFFEF506A5D6E
:1006300002E2FF0E01D0010E016E1CD00BD066C984
:1006400003F065C9E9FF66C9EAFFEF5203E1000E56
:10065000016E10D066C903F06551652BD8B4662BC6
:1006600068C903F06751672BD8B4682B6907BFD7F7
:10067000000E016E0001000C9EAAFED7AFCF60F9FC
:1006800009010601FC5305E009016051A4A8FED749
:10069000A96E0701D587D5A101D0A3D0090160516A
:1006A000240803E10701D46BD5870701D451D42B6B
:1006B000036A530FE96E070E0320EA6E60C9EFFF6D
:1006C000090160510A0806E00701D4517F08D8B03B
:1006D00088D00901036A0701D451530FE96E070E50
:1006E0000320EA6EEF6AD451090803E2535124084B
:1006F00003E0D46B536B75D0090EEA6E610EE96EA0
:10070000F2CF65F9F29CF29E000E0001F0DD0A00C6
:100710000900F550EE6E0009FBE1090165BDF28CA0
:1007200065BFF28E070E666F560E656F090E686F15
:10073000610E676F030E696F000158DF01521BE104
:10074000070EEA6ED60EE96E070EE26E530EE16EEC
:10075000E752E6CFEEFFFCE1D4C757F8036A080181
:100760005751D60FE96E070E0320EA6EEF6A0701B4
:10077000D58137D00001090EEA6E610EE96EF2CF25
:1007800065F9F29CF29E000EBEDD0A000900F550EC
:10079000EE6E0009FBE1090165BDF28C65BFF28ECA
:1007A000070E666F560E656F090E686F610E676FF4
:1007B000030E696F00011ADF015211E1080EEA6EA3
:1007C000580EE96E070EE26E530EE16EE752E6CF69
:1007D000EEFFFCE1D4C78AF80701D58502D00701F6
:1007E000D46B9E9A000186EF00F0A4AAFED7AACF90
:1007F0005BF909010701092BD8B40A2B0A0E056F12
:1008000009015B510D0814E05B510A0811E0070172
:100810004B514B2B036A0B0FE96E070E0320EA6E58
:100820005BC9EFFF4B511A0801E24B6B3BD009014A
:1008300007014B51060835E20B51440832E10C51D7
:1008400052082FE10D5156082CE1010E526F93967C
:100850008A8609015B6B5B5103081AE3036A5B51EB
:100860004C0F016E070E032203C05DF9030E5B25DA
:10087000036A0B0FE96E070E0320EA6EEFCF5FF9F4
:100880005DC9EAFF01C0E9FF5FC9EFFF5B2BE3D75A
:10089000036A5B514C0FE96E070E0320EA6EEF6AA4
:1008A00007014B6BA49A00013CEF00F0150ED76EC8
:1008B000B80ED66E0601FD5301E0FD07FE2BD8B43D
:1008C000FF2B07010051011104E00051D8B40107CA
:1008D0000007045301E00407065301E0060707532D
:1008E00001E007070251031104E00251D8B40307E5
:1008F0000207F29400013CEF00F00801F06703D01A
:10090000F16702D007D0F12BEFC8EEFFF02FFCD734
:10091000F12FFAD70001000CDCC801F0DBC800F0B1
:100920000066012A0900F5CFEEFF002EFBD7012E4D
:10093000F9D7F86AABEF04F0110E0801DA6FF86A24
:10094000FC0EF76EF66AEA6A380EE96EDC6BDAC8FE
:10095000DBF80001E1D7ACEF32F0F250036EF29E0B
:10096000A6840F01550EA76EAA0EA76EA6820000E0
:100970000350F2120001000CD08CF6503F0B006EB9
:10098000C00EF6160A00DBC801F0F65000660AD069
:10099000010F08E1F750010F030B04E1A6880900DD
:1009A000DCDF0A00006607D0EECFF5FF015204E05D
:1009B0000F00010603D000060B000C003F0EF614DA
:1009C0003F0AE3E1CADF0166E0D7F86AF6EF04F018
:1009D000110E0801DA6FF86AFC0EF76EF66AEA6A21
:1009E000380EE96EDAC8DBF80001C6D7D5EF32F071
:1009F000090EEA6E410EE96EEF500EE00F0E016E29
:100A0000006A002EFED7012EFBD78F0E006E002E3F
:100A1000FED70000EF2EF2D7000C8E0E006EF3C84A
:100A200001F0F2C802F0036A015209E102C001F0CC
:100A3000026A080E005E015202E1006A08D0D890F6
:100A400001BE04D0023601360006F9D7019E000C23
:100A50000801F151D8B471D0006EF551D8B46DD001
:100A6000002604E3810E002668E204D07F0E005EBB
:100A700064E363E0F2C8F9F8F651F91BF28FF68FE0
:100A8000F451F803F4CFFBF8F351F703F4CF03F07C
:100A9000F3CFFAF8F803F350FB27F450FA23000ED3
:100AA0000322F451F703F350FB27F450FA23000E0E
:100AB000026A03220222F251F803F350FA27F4509B
:100AC0000322000E0222F251F703F3500326F450E2
:100AD0000222000E016A0122F451F603F350FA27B4
:100AE000F4500322000E02220122F351F603F350C8
:100AF0000326F4500222000E0122F251F603F350B5
:100B00000226F4500122002A01BE05D0FA3703362E
:100B1000023601360006000EFAAF0AD0032A02227E
:100B20000122015005E1025003E1035001E1002AD6
:100B3000F9BF018EF9AF019E04D0006A016A026A12
:100B4000036A0001000C0801F151D8B4A5D0FD6F73
:100B5000F551D8B4A1D0FD5F05E37F0EFD27D8B0D5
:100B60009BD006D0810EFD5FD8A096D0D8B494D08B
:100B7000FDC800F0016A026A036AFC6BF2C8FBF868
:100B8000FB8FF3C8FAF8F4C8F9F8190EFD6FF851A5
:100B9000F95F0DE2010EFA5F0AE2FB5F08E2FC5F1B
:100BA00006E2FC2BFB2BFA2BF851F92728D0F75142
:100BB000FA5F12E2010EFB5F0FE2FC5F0DE2FC2B1D
:100BC000FB2BF751FA27F851F92719E3FA2B17E114
:100BD000FB2B15E1FC2B13D0F6518009FB5F0EE2D5
:100BE000010EFC5F0BE2FC2BF6518009FB27F7514D
:100BF000FA27E9E3FB2BE7E1FC2BE5D70380FD2F88
:100C000001D00BD0D890F937FA37FB37FC37D890A2
:100C1000033602360136FE37BAD7FEA106D0D89089
:100C2000013202320332FE3302D0000635E0FEBF4D
:100C30001ED0D890F937FA37FB37FC37F851F95FF7
:100C400007E2010EFA5F04E2FB5F02E2FC5F1AE3D7
:100C5000F751FA5F05E2010EFB5F02E2FC5F12E36F
:100C6000F6518009FB5F03E2010EFC5F0BE3032AF0
:100C700009E1022A07E1012A05E1002A0DE001321B
:100C800002320332F2C8FDF8F651FD1BFDAF02D06F
:100C9000018E06D0019E04D0006A016A026A036ACE
:100CA0000001000C000E016EC250C30B0110C26E99
:100CB0000801DB6BDA6B270E006E002EFED700D02A
:100CC000C282C2B2FED7C3CFDAF8C4CFDBF8DBC82A
:100CD000F3F8DAC8F2F80001A0DE03C0B6F802C0EB
:100CE000B5F801C0B4F800C0B3F8B6C8F4F8B5C898
:100CF000F3F8B4C8F2F8B3C8F1F8FBC6F8F8FAC6CE
:100D0000F7F8F9C6F6F8F8C6F5F8A2DE00C0DCF888
:100D100001C0DDF802C0DEF803C0DFF803C0F4F85C
:100D200002C0F3F801C0F2F800C0F1F80801F86B56
:100D3000F76BF66B800EF56F00018ADE00C0E0F8FD
:100D400001C0E1F802C0E2F803C0E3F803C0F4F820
:100D500002C0F3F801C0F2F800C0F1F80801F86B26
:100D6000FF0EF76F7F0EF66F8E0EF56F0001EBDE54
:100D700003C0B6F802C0B5F801C0B4F800C0B3F8BB
:100D8000C3EF06F08FD756EF33F00801E16B8B907D
:100D9000E06BE05107081FE3D890E137070ED880D9
:100DA000E055E26FDFC800F0E251016E04E0D89038
:100DB0000032012EFCD700A002D08B8201D08B9292
:100DC00000008B8000008B909288000E80B8010E8E
:100DD000E113E02BDED7E1C801F00001000C979A87
:100DE0008E8A030E006E002EFED700D0979A8E9A40
:100DF000030E006E002EFED700D0DBC8DFF8C5DF83
:100E000001C0DDF8DCC8DFF8C0DF0801DDC801F093
:100E10000001000C979A8E8A030E006E002EFED7FA
:100E200000D0979A8E9A030E006E002EFED700D047
:100E3000DBC8DFF8AADF000C240E0801DB6F1F0EF1
:100E4000DC6F0001CCDF210E0801DB6F3F0EDC6F91
:100E50000001C5DF230E0801DB6F030EDC6F00010C
:100E6000BEDF260E0801DB6F070EDC6F0001B7DF67
:100E7000310E0801DB6F070EDC6F0001B0DF250EBD
:100E80000801DB6F020EDC6F0001A9DF300E0801E4
:100E9000DB6F0001BFDFE70E0801DF6F000175DFC8
:100EA000E70E0801DF6F000170DFE70E0801DF6F5A
:100EB00000016BDFE70E0801DF6F000166DFE70E60
:100EC0000801DF6F000161DF2A0E0801DB6F0001FE
:100ED000A1DFE70E0801DF6F000157DFE70E080111
:100EE000DF6F000152DFE70E0801DF6F00014DDF09
:100EF000E70E0801DF6F000148DFE70E0801DF6F32
:100F0000000143DF979A8E8A92EF07F0979A8E8AB4
:100F100097948E94200E0801DB6F390EDC6F000170
:100F20005EDF8AD7200E0801DB6F3B0EDC6F00010D
:100F300056DF979A8E8A97948E8471EF33F008016A
:100F4000DF6BDE6BDE51070818E38B9000008B80AF
:100F50000000928880A80FD0070ED880DE55E06F81
:100F6000010E006EE051016E04E0D8900036012EB3
:100F7000FCD70050DF13DE2BE5D78B90DFC801F0E4
:100F80000001000C979A8E8A030E006E002EFED789
:100F900000D0979A8E9A030E006E002EFED700D0D6
:100FA0000801DC511F0BDE6FDF6F0001EEDEC7DFD3
:100FB00001C0DDF8979A8E8A0801DDC801F00001B2
:100FC0000FEF08F00801F0BF10D00F0E006EEF39E0
:100FD00000160A0E005C03E2300E002602D0F0512B
:100FE000002600509EA8FED7AE6E0F0EEF170A0E19
:100FF000EF5D02E2300E02D0F09FF051EF27EF518B
:101000009EA8FED7AE6E0001000C0801DA6BDA5123
:1010100017083FE3DB6BDAC8DCF80001B3D701C087
:10102000DBF80801DC6BDC5100018FEC01F00801FA
:10103000DC2B006E00509EA8FED7AE6E060EDC5D67
:10104000F2E1DAC8EFF8370EF06F0001BBDF0A0EED
:101050000801DD6FDD5100018FEC01F00801DD2B8F
:10106000006E00509EA8FED7AE6E0E0EDD5DF2E162
:10107000DBC8EFF8370EF06F0001A4DF0D0E9EA85D
:10108000FED7AE6E0A0E9EA8FED7AE6E0801DA2B12
:10109000BED7000173EF33F0ACA202D0AC98AC889D
:1010A000ACA402D0AFCFDAF89CA202D09C989C8866
:1010B0009CA402D0AACFDAF875EF33F0610E0801D4
:1010C000DB6F0001A7DE0801DA6BDA51060815E3D1
:1010D000036ADA51B80F016E080E032201C0DBF873
:1010E00003C0DCF800012BDFDCC8EAFFDBC8E9FF46
:1010F00001C0EFFF0801DA2BE8D7BF6BE20EDB6F10
:10110000000188DE270E0801DB6F400EDC6F000156
:1011100066DE979A8E8A94EF33F009012B51016AAB
:101120002A5D03E22AC900F00CD0006A080E2C6F79
:101130002A3700362B51005CD8B0006E01362C2FB8
:10114000F7D70001000C0150DEC82AF9640E09012E
:101150002B6F0001E2DF00C0DEF80150300E08E125
:101160000801DFA30ED0DFB70CD0DFB9200E04D00A
:101170000801DF97DF99DF81012601509EA8FED785
:10118000AE6EDEC82AF90A0E09012B6F0001C5DF19
:1011900000C0DEF80150300E08E10801DFB70BD0C7
:1011A000DFA109D0DFB9200E0001012601509EA861
:1011B000FED7AE6E0801300EDE27DE519EA8FED7A8
:1011C000AE6E0001BCEF33F00801E351E419800B6F
:1011D000E66FE3AF02D0E31FE32BE4AF02D0E41FDE
:1011E000E42BE451016AE35D03E2E3C800F00CD0B4
:1011F000006A080EE56FE3370036E451005CD8B0B2
:10120000006E0136E52FF7D7E6AF02D0011E012AA6
:101210000001DAEF0AF0800ED8A202D00801F61B16
:101220000801FB6BFC6BF2C8FAF8F651FA1BF1519E
:10123000D8B4DFD0F96F006EF551D8B4E3D0F95FC0
:10124000D8B483D03EE3F6C8FFF8FF8FF7C8FEF8A6
:10125000F8C8FDF8FC6BD890FF33FE33FD33FC3348
:10126000F92FF8D7FAAF03D0FB81E0D0FB91F991C9
:10127000FB89080EEA6EF40EE96EEBD0FB99FABF1B
:101280000AD0F9A113D0FF33FE33FD33FC33002A1B
:10129000D8B4C7D00BD0FFBF0CD0D890FC37FD37E7
:1012A000FE37FF370006D8B4BCD0F5D7FB8D6DD024
:1012B000FB9DF2C8FAF8F2AF02D0FF8FABD0FF9FD0
:1012C000A9D0F5C8F9F8F5C800F0F151F95FF2C8F6
:1012D000FFF8FF8FF3C8FEF8F4C8FDF8FC6BD89058
:1012E000FF33FE33FD33FC33F92FF8D7FAAF03D0C9
:1012F000FB839CD0FB93F991FB8B080EEA6EF80EF2
:10130000E96EA7D0FB9BFABF0AD0F9A113D0FF3337
:10131000FE33FD33FC33002AD8B483D00BD0FFBF9B
:101320000CD0D890FC37FD37FE37FF370006D8B415
:1013300078D0F5D7FB8F29D0FB9FF6C8FAF8F6AF27
:1013400002D0FF8F67D0FF9F65D0F6C8FFF8FF8FF0
:10135000F7C8FEF8F8C8FDF8FAAF04D0FF9FFB8588
:1013600065D0FB95FC6BF991080EEA6EF40EE96E00
:1013700070D0FABF1CD0F2C8FAF8F9A106D0FF333A
:10138000FE33FD33FC33002A4CE0FCAF0BD0FD2BC9
:1013900009E1FE2B07E1FF2B05E1FF33FE33FD33AF
:1013A000002A3FE0FBBD84D7FBBFC6D71CD0800E10
:1013B000FF1BFFAF04D03AD0F6C8FAF80AD0F2C843
:1013C000FAF8FF5306E1FE5304E1FD5302E1006A1F
:1013D00021D0FFBF08D0D890FC37FD37FE37FF374C
:1013E000002EF7D71ED0FAAF02D0FF8F13D0FF9F89
:1013F00011D0F5C800F0F6C8FFF8F7C8FEF8F8C835
:10140000FDF808D0F1C800F0F2C8FFF8F3C8FEF804
:10141000F4C8FDF8FFC801F0FEC802F0FDC803F0F3
:1014200034D0006A016A026A036A2FD0FC6BFD1F88
:10143000FE1FFF1FFC1FFC2B05E1FD2B03E1FE2B14
:1014400001E1FF2BFBB112D7FBB354D7FBB589D712
:10145000B3D7EF50FD2705E3FE2B03E1FF2BD8B4F4
:10146000F981ED52EF50FE2703E3FF2BD8B4F98149
:10147000ED52EF50EFBE01D0800AFF27D8B0F981BE
:10148000FBB9FCD6FBBB3ED774D70001000C8E0E17
:10149000006E0801E151005EE2C802F0E3C801F00D
:1014A000028E005209E0D890025202E1015204E09B
:1014B00002320132002EF7D7E2AF05D0011E021E24
:1014C000012AD8B4022A0001000C09013451360364
:1014D000F3CF01F0F4CF00F03703F350002635517D
:1014E0003603F3500020026E0001000C0801DC51AD
:1014F000130804E3000E016EECEF10F0070EDD6F31
:10150000DD51DD2B036ADA25E96EDB510320EA6E3B
:10151000300EEF5C906F90510A0DF3CF90F8DD51D3
:10152000DD2B036ADA25E96EDB510320EA6E300E0B
:10153000EF5C9027DD51DD2B036ADA25E96EDB5184
:101540000320EA6E300EEF5C916F91510A0DF3CFDC
:1015500091F8DD51DD2B036ADA25E96EDB510320BA
:10156000EA6E300EEF5C9127DD51DD2B036ADA2540
:10157000E96EDB510320EA6E300EEF5C926F925100
:101580000A0DF3CF92F8DD51DD2B036ADA25E96EFF
:10159000DB510320EA6E300EEF5C922790C8E0F832
:1015A000080EE027180EE025E26FE36F180EE46FD7
:1015B00000010AD600C090F80801DC51DD5D0CE2A4
:1015C000036ADD51DA25E96EDB510320EA6EEF5044
:1015D0002C0802E0DD2BF1D7DD2BDC51DD5D04E3CF
:1015E000000E016EECEF10F0036ADD51DA25E96EB2
:1015F000DB510320EA6EEF50410814E0936B976BC8
:10160000966B956B946B9C6B9B6B9A6B996BA36BB6
:10161000A26BA16BA06B9F6B9E6B000E016EECEF3B
:1016200010F002D0010E936FDD2BDD2BDD51DA259A
:10163000DE6F000EDB21DF6FDFC8E2F8DEC8E1F805
:10164000EF6BE66BE56BE46BE36BDD6BE2C803F01D
:10165000E1C8E9FFE2C8EAFFEF502D0807E1010EFB
:10166000EF6FDD2BE12BD8B4E22B0DD0E2C803F0F5
:10167000E1C8E9FFE2C8EAFFEF502B0804E1DD2BE7
:10168000E12BD8B4E22BE2C803F0E1C8E9FFE2C8DD
:10169000EAFFEF502F0858E2E2C803F0E1C8E9FF83
:1016A000E2C8EAFFEF5039084FE3E6C8F4F8E5C8AE
:1016B000F3F8E4C8F2F8E3C8F1F8F86BF76B200E22
:1016C000F66F820EF56F000128EC05F003C0E6F816
:1016D00002C0E5F801C0E4F800C0E3F8E2C803F096
:1016E0000801E1C8E9FFE2C8EAFF300EEF5CF36BE6
:1016F000F26F00010DEC05F003C0EAF802C0E9F852
:1017000001C0E8F800C0E7F8D892E6C8F4F8E5C8E8
:10171000F3F8E4C8F2F8E3C8F1F8EAC8F8F8E9C861
:10172000F7F8E8C8F6F8E7C8F5F875DD03C0E6F89D
:1017300002C0E5F801C0E4F800C0E3F80801E12BBD
:10174000D8B4E22BDD2B9FD7E2C803F0E1C8E9FF54
:10175000E2C8EAFFEF502E08D8A47DD0DD2BE12BA4
:10176000D8B4E22BEE6BED6B200EEC6F820EEB6FBC
:10177000E2C803F0E1C8E9FFE2C8EAFFEF502F0832
:101780006AE2E2C803F0E1C8E9FFE2C8EAFFEF500D
:10179000390861E3E2C803F0E1C8E9FFE2C8EAFF03
:1017A000300EEF5CF36BF26F00010DEC05F003C03F
:1017B000EAF802C0E9F801C0E8F800C0E7F8EAC8B2
:1017C000F4F8E9C8F3F8E8C8F2F8E7C8F1F8EEC8A9
:1017D000F8F8EDC8F7F8ECC8F6F8EBC8F5F8A3ECA4
:1017E00005F0D892E6C8F4F8E5C8F3F8E4C8F2F8D2
:1017F000E3C8F1F803C0F8F802C0F7F801C0F6F842
:1018000000C0F5F808DD03C0E6F802C0E5F801C045
:10181000E4F800C0E3F8EEC8F4F8EDC8F3F8ECC85B
:10182000F2F8EBC8F1F80801F86BF76B200EF66FD1
:10183000820EF56F000128EC05F003C0EEF802C03F
:10184000EDF801C0ECF800C0EBF80801E12BD8B4CA
:10185000E22BDD2B8DD7EF531AE0E6C8F4F8E5C88C
:10186000F3F8E4C8F2F8E3C8F1F8F86BF76B800E10
:10187000F66F7F0EF56F000128EC05F003C0E6F867
:1018800002C0E5F801C0E4F800C0E3F80801E3C8CD
:1018900000F0E4C801F0E5C802F0E6C803F003C0B8
:1018A00097F802C096F801C095F800C094F8010EB0
:1018B000DD25DE27000EDF23DFC803F0DEC8E9FFE9
:1018C000DFC8EAFFEF520DE0DEC8E9FFDFC8EAFF3C
:1018D000EFCF98F8DE2BD8B4DF2BDE2BD8B4DF2B7C
:1018E00004D0000E016EECEF10F0DFC8E2F8DEC8A5
:1018F000E1F8EF6BE66BE56BE46BE36BDD6BE2C885
:1019000003F0E1C8E9FFE2C8EAFFEF502D0807E164
:10191000010EEF6FDD2BE12BD8B4E22B0DD0E2C826
:1019200003F0E1C8E9FFE2C8EAFFEF502B0804E149
:10193000DD2BE12BD8B4E22BE2C803F0E1C8E9FFCC
:10194000E2C8EAFFEF502F0858E2E2C803F0E1C80E
:10195000E9FFE2C8EAFFEF5039084FE3E6C8F4F8C0
:10196000E5C8F3F8E4C8F2F8E3C8F1F8F86BF76BF0
:10197000200EF66F820EF56F000128EC05F003C013
:10198000E6F802C0E5F801C0E4F800C0E3F8E2C8F8
:1019900003F00801E1C8E9FFE2C8EAFF300EEF5C9E
:1019A000F36BF26F00010DEC05F003C0EAF802C022
:1019B000E9F801C0E8F800C0E7F8D892E6C8F4F802
:1019C000E5C8F3F8E4C8F2F8E3C8F1F8EAC8F8F8B3
:1019D000E9C8F7F8E8C8F6F8E7C8F5F81CDC03C072
:1019E000E6F802C0E5F801C0E4F800C0E3F8080139
:1019F000E12BD8B4E22BDD2B9FD7E2C803F0E1C87E
:101A0000E9FFE2C8EAFFEF502E08D8A47ED0DD2B14
:101A1000E12BD8B4E22BEE6BED6B200EEC6F820E57
:101A2000EB6FE2C803F0E1C8E9FFE2C8EAFFEF505C
:101A30002F086BE2E2C803F0E1C8E9FFE2C8EAFF61
:101A4000EF50390862E3E2C803F0E1C8E9FFE2C8F9
:101A5000EAFF300EEF5CF36BF26F00010DEC05F066
:101A600003C0EAF802C0E9F801C0E8F800C0E7F8EE
:101A7000EAC8F4F8E9C8F3F8E8C8F2F8E7C8F1F8FA
:101A8000EEC8F8F8EDC8F7F8ECC8F6F8EBC8F5F8CA
:101A9000A3EC05F0D892E6C8F4F8E5C8F3F8E4C87A
:101AA000F2F8E3C8F1F803C0F8F802C0F7F801C093
:101AB000F6F800C0F5F80BEC09F003C0E6F802C038
:101AC000E5F801C0E4F800C0E3F8EEC8F4F8EDC8AA
:101AD000F3F8ECC8F2F8EBC8F1F80801F86BF76B13
:101AE000200EF66F820EF56F000128EC05F003C0A2
:101AF000EEF802C0EDF801C0ECF800C0EBF8080108
:101B0000E12BD8B4E22BDD2B8CD7EF531AE0E6C8DB
:101B1000F4F8E5C8F3F8E4C8F2F8E3C8F1F8F86BB4
:101B2000F76B800EF66F7F0EF56F000128EC05F065
:101B300003C0E6F802C0E5F801C0E4F800C0E3F82D
:101B40000801E3C800F0E4C801F0E5C802F0E6C807
:101B500003F003C09CF802C09BF801C09AF800C0D3
:101B600099F8010EDD25DE27000EDF23DEC8E9FF30
:101B7000DFC8EAFFEFCF9DF8DE2BD8B4DF2BDE2BDA
:101B8000D8B4DF2BDFC8E2F8DEC8E1F8EF6BE66B14
:101B9000E56BE46BE36BDD6BE2C803F0E1C8E9FFE2
:101BA000E2C8EAFFEF502D0807E1010EEF6FDD2BD1
:101BB000E12BD8B4E22B0DD0E2C803F0E1C8E9FF75
:101BC000E2C8EAFFEF502B0804E1DD2BE12BD8B48B
:101BD000E22BE2C803F0E1C8E9FFE2C8EAFFEF50F8
:101BE0002F0859E2E2C803F0E1C8E9FFE2C8EAFFC2
:101BF000EF50390850E3E6C8F4F8E5C8F3F8E4C854
:101C0000F2F8E3C8F1F8F86BF76B200EF66F820E6E
:101C1000F56F000128EC05F003C0E6F802C0E5F816
:101C200001C0E4F800C0E3F8E2C803F00801E1C82D
:101C3000E9FFE2C8EAFF300EEF5CF36BF26F0001E0
:101C40000DEC05F003C0EAF802C0E9F801C0E8F8BD
:101C500000C0E7F8D892E6C8F4F8E5C8F3F8E4C89D
:101C6000F2F8E3C8F1F8EAC8F8F8E9C8F7F8E8C804
:101C7000F6F8E7C8F5F80BEC09F003C0E6F802C087
:101C8000E5F801C0E4F800C0E3F80801E12BD8B49E
:101C9000E22BDD2B9ED7E2C803F0E1C8E9FFE2C8E2
:101CA000EAFFEF502E08D8A47ED0DD2BE12BD8B46C
:101CB000E22BEE6BED6B200EEC6F820EEB6FE2C849
:101CC00003F0E1C8E9FFE2C8EAFFEF502F086BE23A
:101CD000E2C803F0E1C8E9FFE2C8EAFFEF503908C3
:101CE00062E3E2C803F0E1C8E9FFE2C8EAFF300EB0
:101CF000EF5CF36BF26F00010DEC05F003C0EAF846
:101D000002C0E9F801C0E8F800C0E7F8EAC8F4F852
:101D1000E9C8F3F8E8C8F2F8E7C8F1F8EEC8F8F84F
:101D2000EDC8F7F8ECC8F6F8EBC8F5F8A3EC05F049
:101D3000D892E6C8F4F8E5C8F3F8E4C8F2F8E3C8C6
:101D4000F1F803C0F8F802C0F7F801C0F6F800C0D7
:101D5000F5F80BEC09F003C0E6F802C0E5F801C0A5
:101D6000E4F800C0E3F8EEC8F4F8EDC8F3F8ECC806
:101D7000F2F8EBC8F1F80801F86BF76B200EF66F7C
:101D8000820EF56F000128EC05F003C0EEF802C0EA
:101D9000EDF801C0ECF800C0EBF80801E12BD8B475
:101DA000E22BDD2B8CD7EF531AE0E6C8F4F8E5C838
:101DB000F3F8E4C8F2F8E3C8F1F8F86BF76B800EBB
:101DC000F66F7F0EF56F000128EC05F003C0E6F812
:101DD00002C0E5F801C0E4F800C0E3F80801E3C878
:101DE00000F0E4C801F0E5C802F0E6C803F003C063
:101DF000A3F802C0A2F801C0A1F800C0A0F8010E2B
:101E0000DD25DE27000EDF23DFC8E2F8DEC8E1F8BB
:101E1000EF6BE66BE56BE46BE36BDD6BE2C803F045
:101E2000E1C8E9FFE2C8EAFFEF502D0807E1010E23
:101E3000EF6FDD2BE12BD8B4E22B0DD0E2C803F01D
:101E4000E1C8E9FFE2C8EAFFEF502B0804E1DD2B0F
:101E5000E12BD8B4E22BE2C803F0E1C8E9FFE2C805
:101E6000EAFFEF502F0859E2E2C803F0E1C8E9FFAA
:101E7000E2C8EAFFEF50390850E3E6C8F4F8E5C8D5
:101E8000F3F8E4C8F2F8E3C8F1F8F86BF76B200E4A
:101E9000F66F820EF56F000128EC05F003C0E6F83E
:101EA00002C0E5F801C0E4F800C0E3F8E2C803F0BE
:101EB0000801E1C8E9FFE2C8EAFF300EEF5CF36B0E
:101EC000F26F00010DEC05F003C0EAF802C0E9F87A
:101ED00001C0E8F800C0E7F8D892E6C8F4F8E5C811
:101EE000F3F8E4C8F2F8E3C8F1F8EAC8F8F8E9C88A
:101EF000F7F8E8C8F6F8E7C8F5F80BEC09F003C006
:101F0000E6F802C0E5F801C0E4F800C0E3F8080113
:101F1000E12BD8B4E22BDD2B9ED7E2C803F0E1C859
:101F2000E9FFE2C8EAFFEF502E08D8A47ED0DD2BEF
:101F3000E12BD8B4E22BEE6BED6B200EEC6F820E32
:101F4000EB6FE2C803F0E1C8E9FFE2C8EAFFEF5037
:101F50002F086BE2E2C803F0E1C8E9FFE2C8EAFF3C
:101F6000EF50390862E3E2C803F0E1C8E9FFE2C8D4
:101F7000EAFF300EEF5CF36BF26F00010DEC05F041
:101F800003C0EAF802C0E9F801C0E8F800C0E7F8C9
:101F9000EAC8F4F8E9C8F3F8E8C8F2F8E7C8F1F8D5
:101FA000EEC8F8F8EDC8F7F8ECC8F6F8EBC8F5F8A5
:101FB000A3EC05F0D892E6C8F4F8E5C8F3F8E4C855
:101FC000F2F8E3C8F1F803C0F8F802C0F7F801C06E
:101FD000F6F800C0F5F80BEC09F003C0E6F802C013
:101FE000E5F801C0E4F800C0E3F8EEC8F4F8EDC885
:101FF000F3F8ECC8F2F8EBC8F1F80801F86BF76BEE
:10200000200EF66F820EF56F000128EC05F003C07C
:10201000EEF802C0EDF801C0ECF800C0EBF80801E2
:10202000E12BD8B4E22BDD2B8CD7EF531AE0E6C8B6
:10203000F4F8E5C8F3F8E4C8F2F8E3C8F1F8F86B8F
:10204000F76B800EF66F7F0EF56F000128EC05F040
:1020500003C0E6F802C0E5F801C0E4F800C0E3F808
:102060000801E3C800F0E4C801F0E5C802F0E6C8E2
:1020700003F003C0E4F802C0E3F801C0E2F800C0D6
:10208000E1F8000147EC0AF002C0A5F801C0A4F88D
:10209000010E0801DD25DE27000EDF23DD6BDD519B
:1020A000DD2B036ADE25E96EDF510320EA6E300E78
:1020B000EF5C8E6F8E510A0DF3CF8EF8DD51DD2B64
:1020C000036ADE25E96EDF510320EA6E300EEF5C15
:1020D0008E27DD51DD2B036ADE25E96EDF510320FB
:1020E000EA6E300EEF5C8D6F8D510A0DF3CF8DF8D7
:1020F000DD51DD2B036ADE25E96EDF510320EA6E38
:10210000300EEF5C8D27DD51DD2B036ADE25E96E95
:10211000DF510320EA6E300EEF5C8B6F8C6B8CC846
:1021200035F98BC834F90901376B0A0E366F000197
:1021300065EC0AF002C08CF801C08BF80801DD5193
:10214000DD2B036ADE25E96EDF510320EA6E300ED7
:10215000EF5C8B27000E8C23D00E8B27070E8C2371
:102160008CC831F08BC830F08DC832F08EC833F097
:102170008EC834F090C835F091C836F092C837F068
:10218000A3C8F4F8A2C8F3F8A1C8F2F8A0C8F1F8FF
:10219000560EF86F0E0EF76F6D0EF66F7F0EF56F21
:1021A000000128EC05F003C0A3F802C0A2F801C0AA
:1021B000A1F800C0A0F8A3C8E4F8A2C8E3F8A1C839
:1021C000E2F8A0C8E1F847EC0AF002C09FF801C0AD
:1021D0009EF8010E016E0801000179EF34F008014C
:1021E000B751000118E0010A1FE0030A26E0010AC6
:1021F00039E0070A42E0010A49E0030A52E0010A15
:1022000059E00F0AD8B46AD0010AD8B471D0030AD1
:10221000D8B477D084D00801DB5303E1DA51370812
:1022200002E2010EB76F7ED0320E0701046F989064
:102230008F80020E0801B76F75D093988A980801B5
:10224000DB5305E1DA51360802E3B76B0AD0DB5302
:1022500003E1DA514B0803E2030EB76F02D0020E1E
:10226000B76F60D0640E0701046FC80E076F9890B7
:102270008F80040E0801B76F55D00701045304E1A5
:10228000050E0801B76F070108014CD0640E070165
:10229000046FC80E076F98908F80060E0801B76F05
:1022A00041D00701045304E1070E0801B76F07018D
:1022B000080138D0C80E0701076F0801DB5306E19B
:1022C000DA514A0803E3020EB76F07D0DB5303E18C
:1022D000DA51730802E2080EB76F24D0320E0701FC
:1022E000046F076F98908F80090E0801B76F1AD09E
:1022F0000701045304E10A0E0801B76F0701080142
:1023000011D00801DB5308E1DA51720805E3989017
:102310008F90070EB76F02D0080EB76F03D0080179
:10232000B76B00D0000182EF34F00901316B326BE2
:10233000010E336FDA6AD96A090E366F290E356FCE
:10234000090EEA6E2D0EE96E36C9E2FF35C9E1FFCE
:1023500033C934F9D890E550EE02F3503123F450EC
:102360003223342FF7D731C9DEFF32C931F9326B4E
:10237000D8B0322B352BD8B4362B332B335105083C
:10238000DFE10001000C006A016A026A036A0901C8
:10239000566B576B586B596B555154115311521161
:1023A0002CE0200E5A6FD8904E374F3750375137A8
:1023B00056375737583759375551595D08E15451F9
:1023C000585D05E15351575D02E15251565D0FE3EF
:1023D0005251565F5351D8A0533D575F5451D8A026
:1023E000543D585F5551D8A0553D595FD8800036AF
:1023F0000136023603365A2FD6D7090EEA6E560E2C
:10240000E96E0001000CE9500901466F3B0E4D6F6B
:102410009A0E4C6FCA0E4B6F4A6B0A0E486F45C935
:1024200051F944C950F943C94FF942C94EF94DC950
:1024300055F94CC954F94BC953F94AC952F900012D
:10244000A2DF0150EFCF42F9ECCF43F9ECCF44F9D2
:10245000ECCF45F9005213E109014851010AD8A413
:1024600002D000010CD046510CE00F0B485D01E09A
:102470000EE246BF0CD046BD04D0200E03D00901A9
:10248000466B300E002600509EA8FED7AE6E4DC99A
:1024900051F94CC950F94BC94FF94AC94EF9556B1E
:1024A000546B536B0A0E526F00016DDF03C04DF980
:1024B00002C04CF901C04BF900C04AF90901482F8C
:1024C000AED70001000C09014E6B4E510F0807E317
:1024D000C950FF0EC96EC7A0FED74E2BF6D7C95004
:1024E00046C9C9FFC7A0FED74AC950F9C9504AC951
:1024F000C9FFC7A0FED749C950F9C95049C9C9FF8A
:10250000C7A0FED748C950F9C95048C9C9FFC7A0DC
:10251000FED747C950F9C95047C9C9FFC7A0FED760
:10252000C950950EC96EC7A0FED74E6B4B514E5D7C
:1025300011E2C950FF0EC96EC7A0FED7C9CF4FF92F
:102540004C514F5D01E106D04D514F5D01E102D08C
:102550004E2BECD74FC901F00001000C0901416B73
:1025600041510001C2EC00F00901412B006E005006
:102570009EA8FED7AE6E0E0E415DF2E1410EE96EF1
:102580003BC945F93AC944F939C943F938C942F94F
:10259000000139DF290E9EA8FED7AE6E2E0E9EA832
:1025A000FED7AE6E0901385309E1395307E13A53BA
:1025B00005E13B5303E1210E016E72D08B94010EB5
:1025C000416F0001F8EC04F0D8900901426B3835F6
:1025D000436F3935446F3A35456F580E466F45C9DC
:1025E0004AF944C949F943C948F942C947F9100EA3
:1025F0004B6F4C6B400E4D6F000165DF01C03EF923
:1026000009013E51400805E18B84220E016E48D03D
:1026100006D03E5304E08B84200E016E41D0C95099
:10262000FE0EC96EC7A0FED73DC9EAFF3CC9E9FF4F
:10263000406B3F6B4051010808E3EECFC9FFC7A0D4
:10264000FED73F2BD8B4402BF5D7C950FF0EC96E2B
:10265000C7A0FED7C950FF0EC96EC7A0FED7C9508C
:10266000FF0EC96EC7A0FED7C9CF3EF9406B3F6BC6
:1026700040510F0812E303E13F51FE080EE3C95039
:10268000FF0EC96EC7A0FED7C9CF3EF93E5301E089
:1026900004D03F2BD8B4402BEBD78B84000E016EB7
:1026A0000001000C0201805155250901386F02011B
:1026B000815156210901396F000E0201572109018C
:1026C0003A6F000E0201582109013B6F020151517E
:1026D00009013825346F0201525109013921356F42
:1026E0000201535109013A21366F02015451090187
:1026F0003B21376F37C93BF936C93AF935C939F942
:1027000034C938F93D6B490E3C6F000127DF01C029
:10271000D5F602016D510901342702016E510901FC
:10272000352302016F51090136230201705109015D
:10273000372337C93BF936C93AF935C939F934C9AC
:1027400038F93D6B490E3C6F000108DF01C0D5F63A
:102750000201716B0001000CBC0E305C0801FE6FC1
:10276000070E3158FF6FD890FEC8FFF8FE6BFF3799
:102770000901016B3234026E0135036E02360336F5
:10278000023603360236033602360336E00E0216F0
:1027900002500801FE130350FF13036A3450FE1366
:1027A0000350FF13FEC801F0FFC802F00001000C47
:1027B0000801FF6B35C0FEF8FEC8FFF8FE6BFF375F
:1027C000FF37FF37F80EFF170901016B3634026E31
:1027D0000135036E023603360236033602360336FF
:1027E00002360336E00E021602500801FE130350B3
:1027F000FF130901016BD8900131036E37300801D6
:10280000FE130350FF13FEC801F0FFC802F00001E1
:10281000000C0801EB5301E0D5D10901356BEBC881
:1028200034F9040E376F330E366F000165EC0AF091
:1028300002C0F3F801C0F2F8200E08010124016E75
:10284000040E0220036E0150A20FE96E020E032057
:10285000EA6EEFCFF4F8ECCFF5F8ECCFF6F8ECCF6A
:10286000F7F8EACFF9F8E9CFF8F8F7C82CF9F6C885
:102870002BF9F5C82AF9F4C829F90901306B2F6B37
:102880002E6B7FC22DF9000150DDF9C8EAFFF8C8B0
:10289000E9FF0201595108010024EC6F02015A516D
:1028A00008010120ED6F02015B5108010220EE6F6B
:1028B00002015C5108010320EF6F0901356BEBC881
:1028C00034F9040E376F330E366F000165EC0AF0F1
:1028D00001C0F2F8240E08010124016E040E02204A
:1028E000036E0150A20FE96E020E0320EA6EEF5054
:1028F000EC27000EED23EE23EF230901356BEBC827
:1029000034F9040E376F330E366F000165EC0AF0B0
:1029100002C0F3F801C0F2F8A20E08010124016E12
:10292000020E0220036E01C0F4F8F56FEFC83BF908
:10293000EEC83AF9EDC839F9ECC838F9E8CF3DF9F5
:1029400001C03CF900010ADE0201715302E00001FE
:10295000A9DE0901356BEBC834F9040E376F330E6D
:10296000366F000165EC0AF002C0F3F801C0F2F81E
:10297000080101C0F4F8020E0224F56F0901356B5D
:10298000EBC834F9040E376F330E366F000165EC77
:102990000AF002C0F7F801C0F6F82F0E0801012472
:1029A000016E040E0220036E0150A20FE96E020EAA
:1029B0000320EA6EECCF03F0ED52EFCF02F00234C9
:1029C000F86F0334F96FF837F937F837F937F83714
:1029D000F937F837F937E00EF817F851F425016E9A
:1029E000F951F521036E0150A20F016E020E032270
:1029F00001C0F0F803C0F1F80901356BEBC834F9F8
:102A0000040E376F330E366F000165EC0AF002C01A
:102A1000F3F801C0F2F8080101C0F4F8040E022432
:102A2000F56F0B0E0124016E000EF521036E0150AF
:102A3000A20FE96E020E0320EA6EEFA810D01C0E62
:102A4000F025E96E000EF121EA6EEE52EE52EC6ACC
:102A5000ED52EF6AED52EF6AED52EF6A39D01C0E7B
:102A6000F025016E000EF121036E01C0F2F8F36F44
:102A70000901356BEBC834F9040E376F330E366F2E
:102A8000000165EC0AF002C0F5F801C0F4F8270E69
:102A900008010124016E040E0220036E0150A20FF2
:102AA000E96E020E0320EA6EEFCF00F0ECCF01F0EA
:102AB000ECCF02F0ECCF03F0F3C8EAFFF2C8E9FF75
:102AC00000C0EFFF01C0ECFF02C0ECFF03C0ECFF51
:102AD000180EF025016E000EF121036E01C0F2F810
:102AE000F36F000139DEF3C8EAFFF2C8E9FF02C064
:102AF000ECFFED5201C0EFFF160E0801F025016E4C
:102B0000000EF121036E01C0F2F8F36F000150DEF8
:102B1000F3C8EAFFF2C8E9FF02C0ECFFED5201C0C2
:102B2000EFFF0901356BEBC834F9040E376F330E34
:102B3000366F000165EC0AF002C0F3F801C0F2F84C
:102B40002B0E08010124016E040E0220036E0150B9
:102B5000A20FE96E020E0320EA6EEFCFF4F8ECCF7D
:102B6000F5F8ECCFF6F8ECCFF7F80901356BEBC8C8
:102B700034F9040E376F330E366F000165EC0AF03E
:102B800002C0F9F801C0F8F8080101C001F0020E16
:102B90000224036E0150A20F016E020E032201C037
:102BA000FAF803C0FBF8F7C83BF9F6C83AF9F5C8DC
:102BB00039F9F4C838F903C03DF901C03CF9000106
:102BC000CDDC08010001000C0801DA5301E05ED001
:102BD0000901356BDAC834F9040E376F330E366FDE
:102BE000000165EC0AF002C0DCF801C0DBF8310E30
:102BF00008010124016E040E0220036E0150A20F91
:102C0000E96E020E0320EA6EEF5061081FE0090131
:102C1000356BDAC834F9040E376F330E366F0001A6
:102C200065EC0AF002C0DFF801C0DEF8310E0801E1
:102C30000124016E040E0220036E0150A20FE96E02
:102C4000020E0320EA6EEF50770804E1DAC8EBF8D1
:102C50000001DFDD0901356BDAC834F9040E376F86
:102C6000330E366F000165EC0AF001C0DBF8320E5E
:102C700008010124016E040E0220036E0150A20F10
:102C8000E96E020E0320EA6E010EEF6E0001000CE9
:102C9000E9500801DF6FDEAF0DD0DF07DF8BDB1FF0
:102CA000DC1FDD1FDE1FDB2BD8B4DC2BD8B4DD2B03
:102CB000D8B4DE2B3B0EE66F9A0EE56FCA0EE46FBA
:102CC000E36B0A0EE16FDEC851F9DDC850F9DCC8CC
:102CD0004FF9DBC84EF9E6C855F9E5C854F9E4C820
:102CE00053F9E3C852F90001C3EC11F00150EFCFE2
:102CF000DBF8ECCFDCF8ECCFDDF8ECCFDEF80052FF
:102D000013E10801E151010AD8A402D000010CD05E
:102D1000DF510DE00F0BE15D01E028E2DFBF26D0BF
:102D2000DFBD05D0200E1DD0200E0801DF17DFAB60
:102D30000AD0DF9B00C0DFF82D0E9EA8FED7AE6E36
:102D4000DFC800F0DF6B300EDFAB0BD0DF9B00C0C5
:102D5000DFF82D0E9EA8FED7AE6EDFC800F0DF6B49
:102D6000300E002600509EA8FED7AE6EE6C851F980
:102D7000E5C850F9E4C84FF9E3C84EF90901556BAD
:102D8000546B536B0A0E526F0001C3EC11F003C079
:102D9000E6F802C0E5F801C0E4F800C0E3F8080175
:102DA000E12F91D7000128EF35F00801DC6B8B94FF
:102DB000640E0901416F0001F8EC04F00801DC6BBE
:102DC000DA51DC5D32E28B84140E0901416F00019F
:102DD000F8EC04F00801DB6BDB51130807E3C95082
:102DE000FF0EC96EC7A0FED7DB2BF6D78B94140E4F
:102DF0000901416F0001F8EC04F0400E0901466F33
:102E00004A6B496B486B476B800E4B6F010E4C6FE2
:102E1000990E4D6F000163EC12F001C0DDF808015E
:102E2000DD2D01D002D0DC2BCBD7DA51DC5D04E301
:102E30008B84300E016E24D0DC6BDA51DC5D17E23E
:102E4000410E0901466F4A6B496B486B476B800E18
:102E50004B6F4C6B990E4D6F000163EC12F001C08B
:102E6000DDF80801DD5301E102D0DC2BE6D78B84CD
:102E7000DA51DC5D03E3310E016E02D0000E016E0B
:102E8000000140EF35F08B94010E0901416F000104
:102E9000F8EC04F009013F6B3F510001A6EC00F093
:102EA00009013F2B006E00509EA8FED7AE6E0F0E9C
:102EB0003F5DF2E1410EE96E37C945F936C944F983
:102EC00035C943F934C942F9000103EC12F02E0E62
:102ED0009EA8FED7AE6ED8900901406B3435416F85
:102EE0003535426F3635436F510E466F43C94AF947
:102EF00042C949F941C948F940C947F9100E4B6F19
:102F00004C6B400E4D6F000163EC12F001C03AF9BA
:102F100009013A51400805E18B84110E016E42D03F
:102F200006D03A5304E08B84100E016E3BD03E6B0A
:102F30003D6B3E5103080FE3C950FF0EC96EC7A099
:102F4000FED7C9CF3AF93A51FE0801E104D03D2B32
:102F5000D8B43E2BEED73A51FE0804E08B84120E13
:102F6000016E20D039C9EAFF38C9E9FF3C6B3B6BE1
:102F70003C5101080AE3FF0EC96EC7A0FED7C9CFB6
:102F8000EEFF3B2BD8B43C2BF3D7C950FF0EC96ED4
:102F9000C7A0FED7C950FF0EC96EC7A0FED78B844D
:102FA000000E016E0001000C016A026A006A036AE9
:102FB0000801F25102E1F15118E0100EF36FD890C0
:102FC000EF37F03700360336F251035C02E1F1517E
:102FD000005C07E3F151005ED8A00306F251035EE6
:102FE000D88001360236F32FEAD7000173EF18F0CC
:102FF00002014C6B4B6B4A6B496B586B576B566BB2
:10300000556B716B0601D66B58C237F957C236F94A
:1030100056C235F955C234F9020E0901396FA20EB4
:10302000386F000130DF01C0D5F60601D55303E04B
:10303000D5C601F0AFD10201A251EB081EE068C471
:1030400055F269C456F26AC457F258C237F957C2EA
:1030500036F956C235F955C234F9020E0901396FF5
:10306000A20E386F00010FDF01C0D5F60601D5535F
:1030700003E0D5C601F08ED10201020EEA6E720E97
:10308000E96E020EE26EA20EE16E300E016EE6CF28
:10309000EEFF012EFCD783350801EB6F020184356A
:1030A0000801EC6FEB37EC37EB37EC37EB37EC37ED
:1030B000EB37EC37E00EEB17010E02017D5D006E81
:1030C000000E7E59036E00500801EB25ED6F035092
:1030D000EC21EE6FF06FEDC8EFF87EC2F2F87DC222
:1030E000F1F8000161D702016C6B6B6B02C06AF2F0
:1030F00001C069F2706B6F6B89C26EF288C26DF2AB
:103100006D530EE16E530CE16F530AE1705308E109
:1031100099C270F298C26FF297C26EF296C26DF2C7
:103120000801E16BE06B86C2DFF885C2DEF8DE5392
:103130000EE1DF530CE1E0530AE1E15308E195C2EF
:10314000E1F894C2E0F893C2DFF892C2DEF8090118
:103150002C6B2B6B2A6B82C229F970C230F96FC2BB
:103160002FF96EC22EF96DC22DF9000195EC11F008
:1031700002018051002681510122000E0222032209
:1031800000500801DE5DEB6F0150DF59EC6F02501B
:10319000E059ED6F0350E159EE6F020169510801EA
:1031A000EB25E26F02016A510801EC21E36F020195
:1031B0006B510801ED21E46F02016C510801EE2111
:1031C000E56FE5C851F9E4C850F9E3C84FF9E2C822
:1031D0004EF90901556B546B536B7FC252F90001D4
:1031E000C3EC11F003C0E9F802C0E8F801C0E7F849
:1031F00000C0E6F80801E9530EE1E8530CE1E7519D
:103200000F0809E303E1E651F40805E3010E0601A6
:10321000D66F13D00801E9530DE1E8530BE1E751F4
:10322000FF0808E303E1E651F40804E3020E060197
:10323000D66F03D0030E0601D66F020180515525CB
:103240000801DA6F0201815156210801DB6F000E7F
:10325000020157210801DC6F000E0201582108010C
:10326000DD6FDDC837F9DCC836F9DBC835F9DAC8F7
:1032700034F90901396B490E386F000104DE01C0D1
:10328000D5F60201546B536B526B516B09012C6BD9
:103290002B6B2A6B82C229F970C230F96FC22FF9E9
:1032A0006EC22EF96DC22DF9000195EC11F000509F
:1032B000020155250801EB6F01500201562108015A
:1032C000EC6F0250020157210801ED6F035002011B
:1032D00058210801EE6F020169510801EB25EF6FDB
:1032E00002016A510801EC21F06F02016B510801E3
:1032F000ED21F16F02016C510801EE21F26F020124
:1033000080510801EF25F36F020181510801F0217E
:10331000F46F000EF121F56F000EF221F66FD890D8
:1033200002017F350801F35D0201596F000E0801AB
:10333000F45902015A6F000E0801F55902015B6F42
:10334000000E0801F65902015C6F0801EA6BEA53AE
:103350001EE10901356BEAC834F9040E376F330EEC
:10336000366F000165EC0AF001C0EBF8320E08017F
:103370000124016E040E0220036E0150A20FE96EBB
:10338000020E0320EA6E010EEF6EEA2BE0D7060173
:10339000D5C601F0000178EF35F00801DD6BDC6B7C
:1033A000DBC803F0DAC8E9FFDBC8EAFFEF5230E020
:1033B000DC5101082DE3DBC803F0DAC8E9FFDBC804
:1033C000EAFFEF502C0801E1DC2BDA2BD8B4DB2B21
:1033D000DC2D1DD0DD5103081AE3DD51DD2B036A1E
:1033E000200F016E000E032201508B0F016E080E9C
:1033F000032203C0E0F8DAC8E9FFDBC8EAFFEFCF39
:10340000E1F8E0C8EAFF01C0E9FFE1C8EFFFC8D773
:10341000036ADD51200F016E000E032201508B0F55
:10342000E96E080E0320EA6EEF6ADC5303E1000E3A
:10343000016E02D0010E016E0001B0EF35F0C1C87F
:10344000EAFFC0C8E9FF0801E2C8EFFFE92AD8B4E3
:10345000EA2AEF6AC02BD8B4C12B0001000C200E61
:103460000801DDA9300EDE6FDCC800F0DCAF07D04C
:10347000001E002A00C0DCF82D0EDE6FDD8F01502B
:10348000DCC82AF9640E09012B6F00018DEC08F0ED
:1034900000C0DCF8300E01240801DF6FDCC82AF917
:1034A0000A0E09012B6F00018DEC08F0300E00248C
:1034B0000801E16F300E0124E06FDEC800F0DDA7E7
:1034C00002D0DDAFDD95DDB90BD0DDAF22D0DDB5AB
:1034D00020D000C0DFF8DDB31CD000C0E0F819D068
:1034E000300EDF5D16E100C0DFF8200EDE6FDDA7D5
:1034F00004D0DD95DD83DDAFDD93300EE05D09E1C5
:1035000000C0E0F8200EDF6FDDA7F7D7DD93DDAF59
:10351000DD91DDA505D0DEC8E2F8000190DF0801ED
:10352000DDA305D0DFC8E2F8000189DF0801DDA1D5
:1035300004D0E0C8E2F8000182DFE1C8E2F800014F
:103540007EDF000C0801FB6BFB510001DEEC00F09C
:103550000801FB2B006E00509EA8FED7AE6E150E24
:10356000FB5DF2E1F65301E013D109012C6B2B6BEB
:103570002A6B82C229F970C230F96FC22FF96EC26C
:103580002EF96DC22DF9000195EC11F000500201E9
:1035900055250801FB6F0150020156210801FC6FFF
:1035A0000250020157210801FD6F0350020158210A
:1035B0000801FE6F020180510801FB25F76F02012F
:1035C00081510801FC21F86F000EFD21F96F000EFA
:1035D000FE21FA6F0901356BF6C834F9040E376F16
:1035E000330E366F000165EC0AF002C0FCF801C032
:1035F000FBF8080101C001F0020E0224036E015025
:10360000A20F016E020E032201C0FDF803C0FEF8F6
:10361000FAC837F9F9C836F9F8C835F9F7C834F9EE
:1036200003C039F901C038F900012DDCFAC862F293
:10363000F9C861F2F8C860F2F7C85FF20901356BAA
:10364000F6C834F9040E376F330E366F000165EC9F
:103650000AF001C0FBF82B0E08010124016E040ED4
:103660000220036E0150A20FE96E020E0320EA6EE3
:10367000F7C8EFFFF8C8ECFFF9C8ECFFFAC8ECFF99
:103680000901356BF6C834F9040E376F330E366F07
:10369000000165EC0AF001C0FBF82F0E08010124BF
:1036A000016E040E0220036E0150A20FE96E020E9D
:1036B0000320EA6EEC6AED52EF6A0901356BF6C839
:1036C00034F9040E376F330E366F000165EC0AF0E3
:1036D00002C0FCF801C0FBF8080101C001F0040EB3
:1036E0000224036E0150A20F016E020E032201C0DC
:1036F000FDF803C0FEF80901356BF6C834F9040E75
:10370000376F330E366F000165EC0AF002C000F926
:1037100001C0FFF801C001F0020E09010224036E8E
:103720000150A20F016E020E032201C001F903C075
:1037300002F9FEC8EAFFFDC8E9FF03C0E2FF01C0CD
:10374000E1FF200E016EE6CFEEFF012EFCD7356BB8
:10375000F6C834F9040E376F330E366F000165EC8E
:103760000AF001C0FBF8200E08010124016E040ECE
:103770000220036E0150A20FE96E020E0320EA6ED2
:103780009EC2EFFF9FC2ECFFA0C2ECFFA1C2ECFF04
:103790000001C1EF23F006C908F905C907F908C9F6
:1037A00003F0090107C9E9FF08C9EAFFEF5206E083
:1037B000072BD8B4082B0001F2D709010551075D8A
:1037C000006E06510859036E00C001F0026E000140
:1037D000000C0801FDC8E9FFFEC8EAFFEF502E0803
:1037E0000DE1010EFD25E96E000EFE21EA6EEF509F
:1037F0002E0804E1FF0E016E04D003D0000E016E0E
:1038000000D0000177EF22F0200E090125A9300E2B
:10381000266F24C900F024AF07D0001E002A00C084
:1038200024F92D0E266F258F015024C92AF9640E24
:103830002B6F00018DEC08F000C024F9300E01243C
:103840000901276F24C92AF90A0E2B6F00018DEC9C
:1038500008F0300E00240901296F300E0124286F72
:1038600026C900F025A702D025AF259525B90BD094
:1038700025AF22D025B520D000C027F925B31CD014
:1038800000C028F919D0300E275D16E100C027F9D5
:10389000200E266F25A704D02595258325AF2593D7
:1038A000300E285D09E100C028F9200E276F25A7FA
:1038B000F7D7259325AF259125A504D026519EA89D
:1038C000FED7AE6E25A304D027519EA8FED7AE6EBC
:1038D00025A104D028519EA8FED7AE6E29519EA8DE
:1038E000FED7AE6E000175EF1EF00901266B23C9ED
:1038F000E9FF24C9EAFFEF6A256B2551070819E3A0
:10390000036A25512125E96E22510320EA6EEFCF8B
:1039100027F92751200801E10CD02651262B036AF4
:103920002325E96E24510320EA6E27C9EFFF252BDA
:10393000E4D7256B255102082CE3036A2551080FB3
:10394000016E000E032201502125E96E2251032051
:10395000EA6EEFCF27F92751200802E0275301E153
:1039600018D025530AE12651262B036A2325E96E38
:1039700024510320EA6E2E0EEF6E2651262B036A89
:103980002325E96E24510320EA6E27C9EFFF252B7A
:10399000D1D72651262B036A2325E96E2451032013
:1039A000EA6EEF6A000139EF1FF0090121C9E9FF52
:1039B00022C9EAFFEFCF25F924C903F023C9E9FFA3
:1039C00024C9EAFFEF50255D15E122C903F021C9A2
:1039D000E9FF03C0EAFFEF5203E1000E016E1FD0C2
:1039E00022C903F02151212BD8B4222B232BD8B488
:1039F000242BDCD722C903F021C9E9FF22C9EAFF41
:103A0000EFCF25F924C903F023C9E9FF24C9EAFF50
:103A1000EF50255D02E2FF0E01D0010E016E0001A4
:103A2000000C0601D6510308D8A493D009012A310D
:103A3000326F2931316F2831306F27312F6F323398
:103A4000313330332F333233313330332F3332335A
:103A5000313330332F333233313330332F3332334A
:103A6000313330332F333233313330332F33010E90
:103A7000321727517F0B336F0201515109012F5D1E
:103A80000FE1020152510901305D0AE10201535177
:103A90000901315D05E1020154510901325D3DE04A
:103AA0000201715304E0000152EC13F00201805155
:103AB00055250901346F0201815156210901356FE5
:103AC000000E020157210901366F000E0201582134
:103AD0000901376F2F5134252B6F305135212C6F51
:103AE000315136212D6F325137212E6F2EC937F9C2
:103AF0002DC936F92CC935F92BC934F9396B490E62
:103B0000386F000143EC17F032C954F231C953F257
:103B100030C952F22FC951F20901356B33C934F95A
:103B2000376B040E366F000165EC0AF002C003F03B
:103B30000150490FE96E000E0220EA6EEFCF00F04F
:103B4000ECCF01F0ECCF02F0ECCF03F0A4D0A3D087
:103B5000060128C92FF929C930F92AC931F9090103
:103B6000326B27C933F90201515109012F5D0FE171
:103B7000020152510901305D0AE10201535109016C
:103B8000315D05E1020154510901325D3DE0020160
:103B9000715304E0000152EC13F0020180515525ED
:103BA0000901346F0201815156210901356F000E60
:103BB000020157210901366F000E02015821090147
:103BC000376F2F5134252B6F305135212C6F3151E8
:103BD00036212D6F325137212E6F2EC937F92DC95D
:103BE00036F92CC935F92BC934F9396B490E386FC0
:103BF000000143EC17F032C954F231C953F230C915
:103C000052F22FC951F20901D8903335026E036A7E
:103C100003360250490FE96E000E0320EA6EECCF26
:103C200035F9ED52EFCF34F93551FE0821E2FF0AA4
:103C300003E13451F4081CE2D8903335026E036A74
:103C400003360250490FE96E000E0320EA6EECCFF6
:103C500035F9ED52EFCF34F934C900F035C901F030
:103C6000FF0E026E0F0E036E000115D014D0090175
:103C7000D8903335026E036A03360250490FE96E5D
:103C8000000E0320EA6EEFCF00F0ECCF01F0026AE5
:103C9000036A000100D0000C09011E6B1E510001D7
:103CA000FBEC00F009011E2B006E00509EA8FED711
:103CB000AE6E0F0E1E5DF2E1FEC8EAFFFDC8E9FF21
:103CC000000EEF1008E0EF509EA8FED7AE6EE92A76
:103CD000D8B4EA2AF5D72C0E9EA8FED7AE6EFFC840
:103CE00024F91F0E256F00018FD5290E9EA8FED73F
:103CF000AE6E0801FF5303E0000E016E82D309018E
:103D00001D6B1C6BFF0E0201646F636F0F0E686FFB
:103D1000FF0E676F666F656F0901356BFFC834F979
:103D2000040E376F330E366F000165EC0AF002C0E7
:103D30001FF901C01EF9200E09010124016E040EB5
:103D40000220036E0150A20FE96E020E0320EA6EFC
:103D5000EFCF00F0ECCF01F0ECCF02F0ECCF03F0AE
:103D600003C017F902C016F901C015F900C014F913
:103D7000356BFFC834F9040E376F330E366F000110
:103D800065EC0AF001C01EF9090101C001F0020E44
:103D90000224036E0150A20F016E020E032201C025
:103DA00000F903C001F9036B026B0353D8A4C9D017
:103DB00002510F08D8A0C5D000C9E9FF01C9EAFF28
:103DC000EF50E50806E000C9E9FF01C9EAFFEF523C
:103DD0003BE10201633D01D002D0090135D0643DD1
:103DE00001D002D0090130D003C964F202C963F2E4
:103DF0000901356BFFC834F9040E376F330E366F87
:103E0000000165EC0AF002C01FF901C01EF9200E86
:103E100009010124016E040E0220036E0150A20F5D
:103E2000E96E020E0320EA6EEFCF00F0ECCF01F056
:103E3000ECCF02F0ECCF03F003C068F202C067F2EF
:103E400001C066F200C065F200C9E9FF01C9EAFFDE
:103E5000EF5205E1000E016E0801D3D2090101C93C
:103E600022F900C921F9090E246F040E236F000105
:103E70003CD5090E0901226F040E216FFEC824F9FA
:103E8000FDC823F9000191DD015252E10901356BB2
:103E9000FFC834F9040E376F330E366F000165EC3E
:103EA0000AF002C01FF901C01EF9090101C001F0AA
:103EB000040E0224036E0150A20F016E020E0322B3
:103EC00001C020F903C021F903C0EAFF01C0E9FFE6
:103ED00001C9E2FF00C9E1FF200E016EE6CFEEFF4F
:103EE000012EFCD7356BFFC834F9040E376F330E43
:103EF000366F000165EC0AF001C01EF92F0E0901B2
:103F00000124016E040E0220036E0150A20FE96E1F
:103F1000020E0320EA6E03C9ECFFED5202C9EFFF67
:103F200003C95EF202C95DF2010E016E080169D299
:103F3000200E09010027D8B0012B022BD8B4032B87
:103F400034D70601D6510308D8A4ACD109011C2BE3
:103F500002017F5109011C5DD8B0B2D0356BFFC89A
:103F600034F9040E376F330E366F000165EC0AF03A
:103F700002C01FF901C01EF9200E09010124016EC3
:103F8000040E0220036E0150A20FE96E020E032000
:103F9000EA6EEFCF20F9ECCF21F9ECCF22F9ECCF8C
:103FA00023F9EACF25F9E9CF24F923C92CF922C94D
:103FB0002BF921C92AF920C929F9306B2F6B2E6BF7
:103FC0007FC22DF9000195EC11F025C9EAFF24C943
:103FD000E9FF0201595109010024266F02015A51DB
:103FE00009010120276F02015B5109010220286F9E
:103FF00002015C5109010320296F1C512625186F0D
:10400000000E2721196F000E28211A6F000E29219A
:104010001B6F356BFFC834F9040E376F330E366FE4
:10402000000165EC0AF002C01FF901C01EF9090188
:1040300001C001F0020E0224036E0150A20F016EB6
:10404000020E032201C020F903C021F91BC937F970
:104050001AC936F919C935F918C934F903C039F93B
:1040600001C038F9000143EC17F01BC962F21AC90C
:1040700061F219C960F218C95FF20901356BFFC816
:1040800034F9040E376F330E366F000165EC0AF019
:1040900001C01EF92B0E09010124016E040E02203D
:1040A000036E0150A20FE96E020E0320EA6E18C9DA
:1040B000EFFF19C9ECFF1AC9ECFF1BC9ECFFF0D0E8
:1040C0001C6B356BFFC834F9040E376F330E366F37
:1040D000000165EC0AF002C01FF901C01EF9200EB4
:1040E00009010124016E040E0220036E0150A20F8B
:1040F000E96E020E0320EA6EEFCF20F9ECCF21F932
:10410000ECCF22F9ECCF23F923C92AF922C929F9E6
:1041100021C928F920C927F9000183DC03C017F958
:1041200002C016F901C015F900C014F917C968F2E8
:1041300016C967F215C966F214C965F20901143D82
:1041400008D0153D06D0163D04D017510F08D8B43D
:10415000A5D0145307E1155305E1165303E1175396
:10416000D8B49CD017C92CF916C92BF915C92AF94E
:1041700014C929F9306B2F6B2E6B7FC22DF900010A
:1041800095EC11F00201595109010024186F020148
:104190005A5109010120196F02015B5109010220E6
:1041A0001A6F02015C51090103201B6F356BFFC8B8
:1041B00034F9040E376F330E366F000165EC0AF0E8
:1041C00002C01FF901C01EF9090101C001F0020E71
:1041D0000224036E0150A20F016E020E032201C0E1
:1041E00020F903C021F91BC937F91AC936F919C9D1
:1041F00035F918C934F903C039F901C038F900019B
:1042000043EC17F01BC962F21AC961F219C960F2D6
:1042100018C95FF20901356BFFC834F9040E376F16
:10422000330E366F000165EC0AF001C01EF92B0E4B
:1042300009010124016E040E0220036E0150A20F39
:10424000E96E020E0320EA6E18C9EFFF19C9ECFFF0
:104250001AC9ECFF1BC9ECFF356BFFC834F9040E1B
:10426000376F330E366F000165EC0AF001C01EF99E
:10427000200E09010124016E040E0220036E01507C
:10428000A20FE96E020E0320EA6E14C9EFFF15C9F2
:10429000ECFF16C9ECFF17C9ECFF02D0010E1D6F31
:1042A000AAD0060109011C2B02016C530AE16B53D1
:1042B00008E16A5306E1695109011C5DD8B099D043
:1042C000020109012C6B2B6B2A6B82C229F970C287
:1042D00030F96FC22FF96EC22EF96DC22DF90001AF
:1042E00095EC11F000500201552509011E6F015097
:1042F0000201562109011F6F0250020157210901D5
:10430000206F0350020158210901216F02018051E1
:1043100009011E25226F0201815109011F21236F0E
:10432000000E2021246F000E2121256F1C51222513
:10433000186F000E2321196F000E24211A6F000E32
:1043400025211B6F356BFFC834F9040E376F330E10
:10435000366F000165EC0AF002C01FF901C01EF9BA
:10436000090101C001F0020E0224036E0150A20FE8
:10437000016E020E032201C020F903C021F91BC9FE
:1043800037F91AC936F919C935F918C934F903C00A
:1043900039F901C038F9000143EC17F01BC962F28A
:1043A0001AC961F219C960F218C95FF20901356BC7
:1043B000FFC834F9040E376F330E366F000165EC19
:1043C0000AF001C01EF92B0E09010124016E040E32
:1043D0000220036E0150A20FE96E020E0320EA6E66
:1043E00018C9EFFF19C9ECFF1AC9ECFF1BC9ECFF94
:1043F00002D0010E1D6F1D53D8B4BAD4000E016E49
:1044000008010001000C0901356B01C934F9040EE3
:10441000376F330E366F000165EC0AF002C007F902
:1044200001C006F9090101C008F9040E0224096F50
:10443000140E0124016E000E0921036E0150A20F1B
:10444000E96E020E0320EA6EECCF03F0ED52EFCFDF
:1044500000F003C001F0026A036A03C005F902C05C
:1044600004F901C003F900C002F903C905F902C942
:1044700004F9026B036B356B01C934F9040E376F15
:10448000330E366F000165EC0AF001C006F9090130
:1044900001C008F9040E0224096F1A0E0124016EEE
:1044A000000E0921036E0150A20FE96E020E0320D7
:1044B000EA6EECCF03F0ED52EF50021303500313FA
:1044C00002C900F003C901F004C902F005C903F0F4
:1044D0000001000C0801F85303E0000E016EE2D069
:1044E000F7C8FEF8F6C8FDF80001E9EF1BF001522D
:1044F00005E0010E016E0801D5D00001F7C8FEF8F5
:10450000F6C8FDF8F8C8FFF84CEC1EF0015205E1C2
:10451000000E016E0801C6D00001F8C801F973DF72
:1045200003C000F902C0FFF801C0FEF800C0FDF8AA
:10453000EACF02F9E9CF01F903C02CF902C02BF947
:1045400001C02AF900C029F90901306B2F6B2E6BCD
:104550007FC22DF9000195EC11F002C9EAFF01C9F3
:10456000E9FF03C0FCF802C0FBF801C0FAF800C084
:10457000F9F8020159510801F92702015A510801BD
:10458000FA2302015B510801FB2302015C5108017F
:10459000FC230901356BF8C834F9040E376F330E6C
:1045A000366F000165EC0AF002C0FEF801C0FDF8AC
:1045B000080101C001F0020E0224036E0150A20F97
:1045C000016E020E032201C0FFF803C000F9FCC80F
:1045D00037F9FBC836F9FAC835F9F9C834F903C018
:1045E00039F901C038F9000143EC17F0FCC862F258
:1045F000FBC861F2FAC860F2F9C85FF20901356BD5
:10460000F8C834F9040E376F330E366F000165ECCD
:104610000AF001C0FDF82B0E08010124016E040E02
:104620000220036E0150A20FE96E020E0320EA6E13
:10463000F9C8EFFFFAC8ECFFFBC8ECFFFCC8ECFFC1
:104640000901356BF8C834F9040E376F330E366F35
:10465000000165EC0AF002C0FEF801C0FDF8200E72
:1046600008010124016E040E0220036E0150A20F06
:10467000016E020E032201C0FFF803C000F9F8C862
:1046800001F90001C0DE00C9EAFFFFC8E9FF00C070
:10469000EFFF01C0ECFF02C0ECFF03C0ECFF010E16
:1046A000016E08010001F4EF23F00801F56BF551EC
:1046B000000118EC01F00801F52B006E00509EA8D7
:1046C000FED7AE6E0A0EF55DF2E1EEC8EAFFEDC868
:1046D000E9FF000EEF1008E0EF509EA8FED7AE6E87
:1046E000E92AD8B4EA2AF5D7290E9EA8FED7AE6EDD
:1046F000EFC8E9FFF0C8EAFFFF0EEF6EF16BF15370
:1047000027E10901356BF1C834F9040E376F330E18
:10471000366F000165EC0AF002C0F6F801C0F5F84A
:10472000320E08010124016E040E0220036E0150B6
:10473000A20FE96E020E0320EA6EEF5207E0EFC807
:10474000E9FFF0C8EAFFF1C8EFFF02D0F12BD7D79D
:10475000F0C803F0EFC8E9FFF0C8EAFFEF3C04D06F
:10476000000E016E026E7BD0F0C803F0EFC8E9FFC7
:10477000F0C8EAFFEFCFF5F8F5C8F6F80001A2EFB0
:104780001AF0EEC8F4F8EDC8F3F8EEC806F9EDC873
:1047900005F9CBEC1BF001C0F2F80801F16BF25106
:1047A000F15D59E2036AF151ED25E96EEE51032006
:1047B000EA6EEF502F084DE1036AF151ED25E96EE5
:1047C000EE510320EA6EEF6AF0C803F0EFC8E9FF8C
:1047D000F0C8EAFFEFCFF5F8F4C8F7F8F3C8F6F839
:1047E000F5C8F8F8000176D6015226E1F0C803F0CA
:1047F000EFC8E9FFF0C8EAFF0901356BEFCF34F9E4
:10480000040E376F330E366F000165EC0AF001C0FD
:10481000F6F8320E08010124016E040E0220036E28
:104820000150A20FE96E020E0320EA6E010EEF6E38
:10483000000E016E026E13D00801F151ED25F56FE7
:10484000000EEE21F66F010EF525F36F000EF62136
:10485000F46FF12BA4D7F3C801F0F4C802F0000103
:10486000AFEF2AF04CC203F94BC202F94AC201F978
:1048700049C200F90601D6510308D8A4EFD003C9F4
:10488000FFF802C9FEF801C9FDF800C9FCF80801EB
:10489000FF510201995DD8A0DFD016E10801FE5159
:1048A0000201985DD8A0D8D00FE10801FD510201A6
:1048B000975DD8A0D1D008E196510801FC5DD8A041
:1048C00002D00201C9D0020151510801FC5D0FE183
:1048D000020152510801FD5D0AE102015351080134
:1048E000FE5D05E1020154510801FF5D4DE002014A
:1048F0008051552509010E6F020181515621090190
:104900000F6F000E020157210901106F000E020106
:1049100058210901116F0801FC5109010E25046F8E
:104920000801FD5109010F21056F0801FE51090120
:104930001021066F0801FF5109011121076F0201C3
:10494000715303E0000152EC13F007C937F906C9AF
:1049500036F905C935F904C934F90901396B490E2D
:10496000386F000143EC17F0FFC84CF2FEC84BF261
:10497000FDC84AF2FCC849F24CC254F24BC253F291
:104980004AC252F249C251F209010D6B0C6B0D5330
:1049900058E10C517F0855E30C35026E0D35036E5E
:1049A00002360336FC0E02160250490FE96E000E65
:1049B0000320EA6EEFCF0EF9ECCF0FF9ECCF10F930
:1049C000ECCF11F90E5339E10F5337E1105335E1B4
:1049D000115333E1FFC80BF9FEC80AF9FDC809F904
:1049E000FCC808F9083709370A370B370837093781
:1049F0000A370B37083709370A370B3708370937B3
:104A00000A370B37083709370A370B3708370937A2
:104A10000A370B37083709370A370B37800E081764
:104A20000C5108130D51091308C900F009C901F010
:104A30000AC902F00BC903F0F2D00C2BD8B40D2B2D
:104A4000A6D7010E0801FC27D8B0FD2BD8B4FE2B49
:104A5000D8B4FF2B1DD70201DBD0060103C9FFF834
:104A600002C9FEF801C9FDF800C9FCF80801FF53AE
:104A7000D8A4CDD0FE53D8A4CAD0FD510201895D7F
:104A8000D8B002D00801C3D006E188510801FC5D0E
:104A9000D8B0BDD0020151510801FC5D0FE1020107
:104AA00052510801FD5D0AE1020153510801FE5D0A
:104AB00005E1020154510801FF5D4DE00201805102
:104AC000552509010E6F02018151562109010F6F11
:104AD000000E020157210901106F000E020158213A
:104AE0000901116F0801FC5109010E25046F08012D
:104AF000FD5109010F21056F0801FE510901102127
:104B0000066F0801FF5109011121076F020171535E
:104B100003E0000152EC13F007C937F906C936F972
:104B200005C935F904C934F90901396B490E386FE3
:104B3000000143EC17F0FFC84CF2FEC84BF2FDC871
:104B40004AF2FCC849F24CC254F24BC253F24AC278
:104B500052F249C251F209010D6B0C6B0D51000864
:104B60004CE3D8900C35026E0D35036E0250490FA0
:104B7000E96E000E0320EA6EECCF0FF9ED52EFCF95
:104B80000EF90E5336E10F5334E1FFC80BF9FEC89E
:104B90000AF9FDC809F9FCC808F90AC90BF909C9DD
:104BA0000AF908C909F9086B0C5108130D510913CA
:104BB0000B530AE10A5308E10951FE0811E2FF0A0A
:104BC00003E10851F4080CE208C900F009C901F03A
:104BD0000A51FF09026E0B510F09036E20D009D054
:104BE00008C900F009C901F00AC902F00BC903F0B5
:104BF00016D00C2BD8B40D2BB1D7010E0801FC2711
:104C0000D8B0FD2BD8B4FE2BD8B4FF2B30D702017F
:104C1000FF0E006E016E026E0F0E036E09010001A1
:104C2000000C0601D6510308D8A494D0090105311F
:104C3000116F0431106F03310F6F02310E6F11339A
:104C400010330F330E33113310330F330E33113350
:104C500010330F330E33113310330F330E33113340
:104C600010330F330E33113310330F330E33010E65
:104C7000111702517F0B126F020180515525090156
:104C8000136F0201815156210901146F000E0201B8
:104C900057210901156F000E020158210901166FF5
:104CA0000E5113250A6F0F5114210B6F105115214E
:104CB0000C6F115116210D6F0201515109010E5D4A
:104CC0000FE10201525109010F5D0AE10201535146
:104CD0000901105D05E1020154510901115D1EE059
:104CE0000201715303E0000152EC13F00DC937F9D2
:104CF0000CC936F90BC935F90AC934F90901396B00
:104D0000490E386F000143EC17F011C954F210C975
:104D100053F20FC952F20EC951F20901356B12C993
:104D200034F9376B040E366F000165EC0AF0015060
:104D3000490FE96E000E0220EA6E06C9EFFF07C9AF
:104D4000ECFF08C9ECFF09C9ECFF010E0201716F0D
:104D50006FD0060103C90EF904C90FF905C910F98E
:104D60000901116B02C912F902018051552509018F
:104D7000136F0201815156210901146F000E0201C7
:104D800057210901156F000E020158210901166F04
:104D90000E5113250A6F0F5114210B6F105115215D
:104DA0000C6F115116210D6F0201515109010E5D59
:104DB0000FE10201525109010F5D0AE10201535155
:104DC0000901105D05E1020154510901115D1EE068
:104DD0000201715303E0000152EC13F00DC937F9E1
:104DE0000CC936F90BC935F90AC934F90901396B0F
:104DF000490E386F000143EC17F011C954F210C985
:104E000053F20FC952F20EC951F20901D89012356E
:104E1000026E036A03360250490FE96E000E03204A
:104E2000EA6E06C9EFFF07C9ECFF010E0201716FC0
:104E30000001000C0901046B016BFFC806F9FEC8F4
:104E400005F90001CBEC1BF001C002F90901006B70
:104E5000005107080DE3036A00510801FC25E96EC3
:104E6000FD510320EA6E200EEF6E0901002BF0D7F2
:104E7000006B0051020812E3036A0051080F016E33
:104E8000000E032201500801FC25E96EFD510320AC
:104E9000EA6E200EEF6E0901002BEBD7006B02517A
:104EA000005D3DE2036A00510801FE25E96EFF51F5
:104EB0000320EA6EEFCF03F909010351600806E20F
:104EC00003517A0803E30351DF0B01D00351036F51
:104ED00003512E0803E1010E046F1FD0045312E0AA
:104EE0000151012B036A080F016E000E03220150CD
:104EF0000801FC25E96EFD510320EA6E03C9EFFFAE
:104F00000BD00901036A00510801FC25E96EFD512F
:104F10000320EA6E03C9EFFF0901002BC0D700018F
:104F2000A5EF29F00801ED5303E0000E016E01D357
:104F30000601D6510308D8A42DD10201653DFCD04D
:104F4000663DFAD0673DF8D068510F08D8A4F4D078
:104F5000000188DC03C068F202C067F201C066F29B
:104F600000C065F20201646B636B0901356BEDC82B
:104F700034F9040E376F330E366F000165EC0AF01A
:104F800002C0FDF801C0FCF8200E08010124016EEA
:104F9000040E0220036E0150A20FE96E020E0320E0
:104FA000EA6EEFCFFEF8ECCFFFF8ECCF00F9ECCFD4
:104FB00001F901C905F900C904F9FFC803F9FEC8E0
:104FC00002F968C209F967C208F966C207F965C241
:104FD00006F9000126DE68C205F967C204F966C257
:104FE00003F965C202F90F0E0901096FFF0E086F80
:104FF000076F066F000115DE68C22CF967C22BF936
:1050000066C22AF965C229F90901306B2F6B2E6B34
:105010007FC22DF9000195EC11F0020159510801F0
:105020000024F26F02015A5108010120F36F0201BE
:105030005B5108010220F46F02015C51080103205A
:10504000F56FFB6BFA6BFB51010824E30901356B2B
:10505000EDC834F9040E376F330E366F000165EC7E
:105060000AF001C0FCF8080101C0FEF8020E02249B
:10507000FF6FFA510124016EFB51FF21036E0150B5
:10508000A20FE96E020E0320EA6EEF6AFA2BD8B483
:10509000FB2BD9D7FB6BFA6BFB5345E102017F5128
:1050A0000801FA5D40E2FA51F225FC6FFB51F32151
:1050B000FD6F000EF421FE6F000EF521FF6F090158
:1050C000356BEDC834F9040E376F330E366F0001BF
:1050D00065EC0AF002C001F901C000F9090101C044
:1050E00001F0020E0224036E0150A20F016E020EA7
:1050F000032201C002F903C003F9FFC83BF9FEC84F
:105100003AF9FDC839F9FCC838F903C03DF901C0C6
:105110003CF90001AEEC12F001C0D5F60801FA2B03
:10512000D8B4FB2BB9D70601D55305E0000E016EAC
:105130000801FFD106012DD00901356BEDC834F906
:10514000040E376F330E366F000165EC0AF002C0B3
:10515000FDF801C0FCF82B0E08010124016E040EBD
:105160000220036E0150A20FE96E020E0320EA6EC8
:10517000EFCF00F0ECCF01F0ECCF02F0ECCF03F07A
:1051800003C0F5F802C0F4F801C0F3F800C0F2F86B
:1051900006012CD00901356BEDC834F9040E376FC8
:1051A000330E366F000165EC0AF002C0FDF801C055
:1051B000FCF82B0E08010124016E040E0220036E80
:1051C0000150A20FE96E020E0320EA6EEFCF00F04D
:1051D000ECCF01F0ECCF02F0ECCF03F003C0F5F818
:1051E00002C0F4F801C0F3F800C0F2F80901356B11
:1051F000EDC834F9040E376F330E366F000165ECDD
:105200000AF002C0FDF801C0FCF8080101C001F07D
:10521000020E0224036E0150A20F016E020E032241
:1052200001C0FEF803C0FFF8F5C837F9F4C836F935
:10523000F3C835F9F2C834F903C039F901C038F9B7
:10524000000143EC17F00901356BEDC834F9040E89
:10525000376F330E366F000165EC0AF001C0FCF8C1
:10526000080101C0FEF8020E0224FF6F020163353F
:105270000901006F020164350901016F0037013730
:10528000003701370037013700370137E00E0017CC
:10529000005108010124016E090101510801FF219B
:1052A000036E0150A20F016E020E032201C0F0F83E
:1052B00003C0F1F80901356BEDC834F9040E376FFE
:1052C000330E366F000165EC0AF001C0FCF82B0EBE
:1052D00008010124016E040E0220036E0150A20F8A
:1052E000E96E020E0320EA6EF2C8EFFFF3C8ECFF8E
:1052F000F4C8ECFFF5C8ECFF0901356BEDC834F9D3
:10530000040E376F330E366F000165EC0AF001C0F2
:10531000FCF82F0E08010124016E040E0220036E1A
:105320000150A20FE96E020E0320EA6E64C2ECFF88
:10533000ED5263C2EFFFF1C8FDF8F0C8FCF8EFC80A
:10534000FFF8EEC8FEF8000175D50B0E0801F02538
:10535000E96E000EF121EA6EEF6A000132EC24F0F2
:1053600003C0F9F802C0F8F801C0F7F800C0F6F879
:105370001A0E0801F025E96E000EF121EA6EF6C85A
:10538000EFFFF7C8ECFF140EF025E96E000EF121D7
:10539000EA6EF8C8EFFFF9C8ECFFF9C805F9F8C8DC
:1053A00004F9F7C803F9F6C802F90F0E0901096FED
:1053B000FF0E086F076F066F000133DC1C0E08013B
:1053C000F025E96E000EF121EA6EEE52EE52EC6A23
:1053D000ED52EF6AED52EF6AED52EF6A0901356B5B
:1053E000EDC834F9040E376F330E366F000165ECEB
:1053F0000AF001C0FCF8270E08010124016E040E1A
:105400000220036E0150A20FE96E020E0320EA6E25
:10541000EE52EE52EC6AED52EF6AED52EF6AED5247
:10542000EF6A180EF025016E000EF121036E01C027
:10543000FCF8FD6F0001ACEC13F0FDC8EAFFFCC8FE
:10544000E9FF02C0ECFFED5201C0EFFF160E0801AC
:10545000F025016E000EF121036E01C0FCF8FD6F16
:105460000001D8EC13F0FDC8EAFFFCC8E9FF02C058
:10547000ECFFED5201C0EFFF0901356BEDC834F9C7
:10548000040E376F330E366F000165EC0AF002C070
:10549000FDF801C0FCF8080101C001F0020E022471
:1054A000036E0150A20F016E020E032201C0FEF82E
:1054B00003C0FFF8F5C83BF9F4C83AF9F3C839F965
:1054C000F2C838F903C03DF901C03CF90001AEEC67
:1054D00012F001C0D5F60901356BEDC834F9040EA0
:1054E000376F330E366F000165EC0AF002C0FDF82D
:1054F00001C0FCF8080101C001F0040E0224036E93
:105500000150A20F016E020E032201C0FEF803C07B
:10551000FFF803C0EAFF01C0E9FFF1C8E2FFF0C8ED
:10552000E1FF200E016EE6CFEEFF012EFCD7010E4B
:10553000016E0001FBEF2AF0978C85AC04D0FF0EC2
:10554000016E23EF2FF0DBC8EEF8DAC8EDF8080E95
:105550000801F06FDE0EEF6F000155EF23F002C07F
:10556000ECF801C0EBF80801EB5308E1EC5306E15D
:10557000FF0E016E000123EF2FF00801DD6BECC878
:10558000FEF8EBC8FDF8DEC8FFF800014CEC1EF099
:1055900001C0DDF80801DD5337E1DC51720823E179
:1055A0000901356BDEC834F9040E376F330E366FE0
:1055B000000165EC0AF001C0EDF8320E080101248B
:1055C000016E040E0220036E0150A20FE96E020E5E
:1055D0000320EA6E010EEF6EFF0E016E000123EF55
:1055E0002FF013D00801DEC8EDF8ECC8EFF8EBC8D7
:1055F000EEF8000197D4015204E1FF0E016E23EF93
:105600002FF0010E0801DD6F00010801DD53D8B451
:1056100021EF2FF00901356BDEC834F9040E376F26
:10562000330E366F000165EC0AF001C0EDF8320E62
:1056300008010124016E040E0220036E0150A20F26
:10564000E96E020E0320EA6EEF6A0901356BDEC8CF
:1056500034F9040E376F330E366F000165EC0AF033
:1056600001C0EDF8310E08010124016E040E022084
:10567000036E0150A20FE96E020E0320EA6EDCC831
:10568000EFFFDC516108D8A4EBD20901356BDEC80D
:1056900034F9040E376F330E366F000165EC0AF0F3
:1056A00002C0EEF801C0EDF8270E08010124016EDA
:1056B000040E0220036E0150A20F016E020E03229F
:1056C00001C0EFF803C0F0F80901356BDEC834F90A
:1056D000040E376F330E366F000165EC0AF002C01E
:1056E000F2F801C0F1F8080101C0F3F8040E022439
:1056F000F46F1C0E0124016E000EF421036E0150A4
:10570000A20FE96E020E0320EA6EEFCF00F0ECCF9D
:1057100001F0ECCF02F0ECCF03F0F0C8EAFFEFC8E5
:10572000E9FF00C0EFFF01C0ECFF02C0ECFF03C0C7
:10573000ECFFDEC801F9000103EC22F003C0E6F83B
:1057400002C0E5F801C0E4F800C0E3F8E6C8EAF8F2
:10575000E5C8E9F8E4C8E8F8E3C8E7F80801ED6B44
:10576000ED51000131EC01F00801ED2B006E00500D
:105770009EA8FED7AE6E140EED5DF2E1410EE96E0D
:10578000E6C845F9E5C844F9E4C843F9E3C842F975
:10579000000103EC12F0280E9EA8FED7AE6E300E6C
:1057A0009EA8FED7AE6E780E9EA8FED7AE6E020EF5
:1057B0000801EE6F300E9EA8FED7AE6EEE2FFAD720
:1057C000E3C8EFF8370EF06F0001E2EC07F0290EA6
:1057D0009EA8FED7AE6E2E0E9EA8FED7AE6E080116
:1057E000E33D07D0E43D05D0E53D03D0E6510F0889
:1057F00037E0E75306E1E85304E1E95302E1EA53F5
:105800002FE0E6C82AF9E5C829F9E4C828F9E3C871
:1058100027F9000111EC1DF003C0EAF802C0E9F815
:1058200001C0E8F800C0E7F80801E73D07D0E83D0F
:1058300005D0E93D03D0EA510F0808E0E75307E13E
:10584000E85305E1E95303E1EA5301E109D0EAC86D
:10585000E6F8E9C8E5F8E8C8E4F8E7C8E3F8C0D72F
:10586000ED6BED51000154EC01F00801ED2B006EE1
:1058700000509EA8FED7AE6E140EED5DF2E1410E13
:10588000E96EE6C845F9E5C844F9E4C843F9E3C858
:1058900042F9000103EC12F0280E9EA8FED7AE6E6E
:1058A000300E9EA8FED7AE6E780E9EA8FED7AE6EC6
:1058B000020E0801EE6F300E9EA8FED7AE6EEE2FE0
:1058C000FAD7E3C8EFF8370EF06F0001E2EC07F00B
:1058D000290E9EA8FED7AE6E2E0E9EA8FED7AE6EE7
:1058E000E6C82CF9E5C82BF9E4C82AF9E3C829F978
:1058F0000901306B2F6B2E6B7FC22DF9000195ECE7
:1059000011F00201595108010024DF6F02015A51C0
:1059100008010120E06F02015B5108010220E16FE4
:1059200002015C5108010320E26F0901356BDEC8FA
:1059300034F9040E376F330E366F000165EC0AF050
:1059400002C0EEF801C0EDF8240E08010124016E3A
:10595000040E0220036E0150A20F016E020E0322FC
:1059600001C0EFF803C0F0F80901356BDEC834F967
:10597000040E376F330E366F000165EC0AF002C07B
:10598000F2F801C0F1F8270E08010124016E040E9F
:105990000220036E0150A20FE96E020E0320EA6E90
:1059A000EFCFF3F8ECCFF4F8ECCFF5F8ECCFF6F856
:1059B000ED52ED52ED52D890FB6BF631FA6FF531A6
:1059C000F96FF431F86FEACFFDF8E9CFFCF8FBC8C6
:1059D00051F9FAC850F9F9C84FF9E8CF4EF9090161
:1059E000556B546B536B7FC252F90001C3EC11F03D
:1059F000EFCF00F0ECCF01F0ECCF02F0ECCF03F0F2
:105A0000FDC8EAFFFCC8E9FFF0C8EAFFEFC8E9FFFC
:105A100000C0EFFF0901356BDEC834F9040E376FA3
:105A2000330E366F000165EC0AF001C0EDF8240E6C
:105A300008010124016E040E0220036E0150A20F22
:105A4000E96E020E0320EA6EEF50DF27000EE0231E
:105A5000E123E2230901356BDEC834F9040E376F08
:105A6000330E366F000165EC0AF002C0EEF801C09B
:105A7000EDF8A20E08010124016E020E0220036E51
:105A800001C0EFF8F06FE2C837F9E1C836F9E0C8B5
:105A900035F9DFC834F9E8CF39F901C038F9000128
:105AA00043EC17F00901356BDEC834F9040E376F8B
:105AB000330E366F000165EC0AF001C0EDF8200EE0
:105AC00008010124016E040E0220036E0150A20F92
:105AD000E96E020E0320EA6EE3C8EFFFE4C8ECFFB4
