:020000040000FA
:0400000021EF21F0DB
:080008000A6613EF00F004EF9B
:1000100028F00000000000000A661BEF00F00CEF63
:1000200028F0000CF76A380FF66E000EF722000E6B
:10003000F86E0900F550120047505344525653577A
:100040002E42494E00000A01D76703D0D86702D07C
:1000500007D0D82BD6CAEEFFD72FFCD7D82FFAD788
:100060000001000C0B0EEA6E330EE96EEF500EE04D
:100070000F0E016E006A002EFED7012EFBD78F0EE9
:10008000006E002EFED70000EF2EF2D7000C0B0101
:10009000406B40510F0807E3C950FF0EC96EC7A05F
:1000A000FED7402BF6D7C95038CBC9FFC7A0FED723
:1000B0003CCB42FBC9503CCBC9FFC7A0FED73BCBD2
:1000C00042FBC9503BCBC9FFC7A0FED73ACB42FB8E
:1000D000C9503ACBC9FFC7A0FED739CB42FBC950A4
:1000E00039CBC9FFC7A0FED7C950950EC96EC7A0AE
:1000F000FED7406B3D51405D11E2C950FF0EC96E05
:10010000C7A0FED7C9CF41FB3E51415D01E106D0FA
:100110003F51415D01E102D0402BECD741CB01F0D2
:100120000001000C0A01D16B8B94640E0B01336F3C
:10013000000198DF0A01D16BCF51D15D2FE28B8492
:10014000140E0B01336F00018DDF0A01D06BD0510B
:10015000130807E3C950FF0EC96EC7A0FED7D02B06
:10016000F6D78B94140E0B01336F00017BDF400E2A
:100170000B01386F3C6B3B6B3A6B396B800E3D6FFC
:10018000010E3E6F990E3F6F000181DF01C0D2FA70
:100190000A01D22D01D002D0D12BCED7CF51D15DC3
:1001A00004E38B84300E016E23D0D16BCF51D15D2F
:1001B00016E2410E0B01386F3C6B3B6B3A6B396BAF
:1001C000800E3D6F3E6B990E3F6F000160DF01C0F6
:1001D000D2FA0A01D25301E102D0D12BE7D78B84A6
:1001E000CF51D15D03E3310E016E02D0000E016EDE
:1001F000000175EF21F08B94010E0B01336F0001AC
:1002000031DFD8900B01326B2635336F2735346FD1
:100210002835356F510E386F35CB3CFB34CB3BFB6B
:1002200033CB3AFB32CB39FB100E3D6F3E6B400EA9
:100230003F6F00012CDF01C02CFB0B012C5140084B
:1002400005E18B84110E016E42D006D02C5304E0E0
:100250008B84100E016E3BD0306B2F6B3051030836
:100260000FE3C950FF0EC96EC7A0FED7C9CF2CFB44
:100270002C51FE0801E104D02F2BD8B4302BEED73F
:100280002C51FE0804E08B84120E016E20D02BCB83
:10029000EAFF2ACBE9FF2E6B2D6B2E5101080AE3F2
:1002A000FF0EC96EC7A0FED7C9CFEEFF2D2BD8B465
:1002B0002E2BF3D7C950FF0EC96EC7A0FED7C95069
:1002C000FF0EC96EC7A0FED78B84000E016E000121
:1002D000000C016A026A006A036A0A01E75102E13E
:1002E000E65118E0100EE86FD890E437E537003695
:1002F0000336E751035C02E1E651005C07E3E65197
:10030000005ED8A00306E751035ED88001360236AE
:10031000E82FEAD7000184EF02F00B01236B246B76
:10032000010E256FDA6AD96A0B0E286F1B0E276F34
:100330000B0EEA6E1F0EE96E28CBE2FF27CBE1FF22
:1003400025CB26FBD890E550EE02F3502323F45042
:100350002423262FF7D723CBDEFF24CB23FB246BCC
:10036000D8B0242B272BD8B4282B252B25510508B2
:10037000DFE10001000C006A016A026A036A0A01F7
:10038000FB6BFC6BFD6BFE6BFA51F911F811F71169
:100390002CE0200EFF6FD890F337F437F537F6379F
:1003A000FB37FC37FD37FE37FA51FE5D08E1F951A6
:1003B000FD5D05E1F851FC5D02E1F751FB5D0FE3E6
:1003C000F751FB5FF851D8A0F83DFC5FF951D8A078
:1003D000F93DFD5FFA51D8A0FA3DFE5FD8800036A6
:1003E000013602360336FF2FD6D70A0EEA6EFB0E11
:1003F000E96E0001000C0B0126512803F3CF01F038
:10040000F4CF00F02903F350002627512803F350BE
:100410000020026E0001000C02011A6B196B186BB0
:10042000176B266B256B246B236B3F6B086A26C208
:1004300029FB25C228FB24C227FB23C226FB020E70
:100440000B012B6F700E2A6F0001D5DE01C007F083
:10045000075203E007C001F0A4D102017051EB087C
:100460001DE036C423F237C424F238C425F226C274
:1004700029FB25C228FB24C227FB23C226FB020E30
:100480000B012B6F700E2A6F0001B5DE01C007F063
:10049000075203E007C001F084D10201020EEA6EA8
:1004A000400EE96E020EE26E700EE16E300E016ECD
:1004B000E6CFEEFF012EFCD751350A01E06F0201B5
:1004C00052350A01E16FE037E137E037E137E037D5
:1004D000E137E037E137E00EE017010E02014B5D36
:1004E000006E000E4C59036E00500A01E025E26FC9
:1004F0000350E121E36FE56FE2CAE4FA4CC2E7FA88
:100500004BC2E6FA0001E5D602013A6B396B02C034
:1005100038F201C037F23E6B3D6B57C23CF256C217
:100520003BF23B530EE13C530CE13D530AE13E5399
:1005300008E167C23EF266C23DF265C23CF264C2A7
:100540003BF20A01D66BD56B54C2D4FA53C2D3FA2C
:10055000D3530EE1D4530CE1D5530AE1D65308E14D
:1005600063C2D6FA62C2D5FA61C2D4FA60C2D3FAC3
:100570000B011E6B1D6B1C6B50C21BFB3EC222FB92
:100580003DC221FB3CC220FB3BC21FFB0001C5DE7C
:1005900002014E5100264F510122000E0222032279
:1005A00000500A01D35DE06F0150D459E16F025051
:1005B000D559E26F0350D659E36F020137510A0152
:1005C000E025D76F020138510A01E121D86F0201FD
:1005D00039510A01E221D96F02013A510A01E3219E
:1005E000DA6FDACAF6FAD9CAF5FAD8CAF4FAD7CA6B
:1005F000F3FAFA6BF96BF86B4DC2F7FA0001BBDE48
:1006000003C0DEFA02C0DDFA01C0DCFA00C0DBFA8A
:100610000A01DE530CE1DD530AE1DC510F0807E368
:1006200003E1DB51F40803E3010E086E10D0DE5342
:100630000CE1DD530AE1DC51FF0807E303E1DB5184
:10064000F40803E3020E086E02D0030E086E0201E6
:100650004E5123250A01CF6F02014F5124210A0177
:10066000D06F000E020125210A01D16F000E020198
:1006700026210A01D26FD2CA29FBD1CA28FBD0CACF
:1006800027FBCFCA26FB0B012B6B170E2A6F00012D
:10069000B2DD01C007F00201226B216B206B1F6BE2
:1006A0000B011E6B1D6B1C6B50C21BFB3EC222FB61
:1006B0003DC221FB3CC220FB3BC21FFB00012DDEE3
:1006C0000050020123250A01E06F0150020124219C
:1006D0000A01E16F0250020125210A01E26F035075
:1006E000020126210A01E36F020137510A01E025C8
:1006F000E46F020138510A01E121E56F020139512D
:100700000A01E221E66F02013A510A01E321E76F93
:1007100002014E510A01E425E86F02014F510A011E
:10072000E521E96F000EE621EA6F000EE721EB6F8D
:10073000D89002014D350A01E85D0201276F000ED5
:100740000A01E9590201286F000E0A01EA59020163
:10075000296F000E0A01EB5902012A6F0A01DF6BB3
:10076000DF531DE10B01276BDFCA26FB040E296F47
:10077000330E286F00013FDE01C0E0FA320E0A019D
:100780000124016E040E0220036E0150700FE96E09
:10079000020E0320EA6E010EEF6EDF2BE1D707C0D9
:1007A00001F0000185EF21F0CACAEAFFC9CAE9FFDA
:1007B0000A01D0CAEFFFE92AD8B4EA2AEF6AC92BA6
:1007C000D8B4CA2B0001A3EF21F00A01EB5301E0DA
:1007D0000DD10B011E6B1D6B1C6B50C21BFB3EC26F
:1007E00022FB3DC221FB3CC220FB3BC21FFB0001A0
:1007F00094DD0050020123250A01F06F015002012F
:1008000024210A01F16F0250020125210A01F26F31
:100810000350020126210A01F36F02014E510A0121
:10082000F025EC6F02014F510A01F121ED6F000E2E
:10083000F221EE6F000EF321EF6F0B01276BEBCA75
:1008400026FB040E296F330E286F0001D4DD02C091
:10085000F1FA01C0F0FA0A0101C001F0020E02240F
:10086000036E0150700F016E020E032201C0F2FAF6
:1008700003C0F3FAEFCA29FBEECA28FBEDCA27FB37
:10088000ECCA26FB03C02BFB01C02AFB0001B3DC32
:10089000EFCA30F2EECA2FF2EDCA2EF2ECCA2DF2F8
:1008A0000B01276BEBCA26FB040E296F330E286F52
:1008B0000001A1DD01C0F0FA2B0E0A010124016E36
:1008C000040E0220036E0150700FE96E020E032029
:1008D000EA6EECCAEFFFEDCAECFFEECAECFFEFCA1E
:1008E000ECFF0B01276BEBCA26FB040E296F330EBE
:1008F000286F000180DD01C0F0FA2F0E0A010124EB
:10090000016E040E0220036E0150700FE96E020E9C
:100910000320EA6EEC6AED52EF6A0B01276BEBCA1B
:1009200026FB040E296F330E286F000164DD02C020
:10093000F1FA01C0F0FA0A0101C001F0040E02242C
:10094000036E0150700F016E020E032201C0F2FA15
:1009500003C0F3FA0B01276BEBCA26FB040E296FC9
:10096000330E286F000147DD02C0F5FA01C0F4FA2A
:100970000A0101C001F0020E0224036E0150700F43
:10098000016E020E032201C0F6FA03C0F7FAF3CAA1
:10099000EAFFF2CAE9FF03C0E2FF01C0E1FF200E57
:1009A000016EE6CFEEFF012EFCD70B01276BEBCAE1
:1009B00026FB040E296F330E286F00011CDD01C0D9
:1009C000F0FA200E0A010124016E040E0220036ECB
:1009D0000150700FE96E020E0320EA6E6CC2EFFF49
:1009E0006DC2ECFF6EC2ECFF6FC2ECFF000108EFBE
:1009F0000DF0FBCAFDFAFACAFCFAFDCA03F00A01BF
:100A0000FCCAE9FFFDCAEAFFEF5206E0FC2BD8B4AE
:100A1000FD2B0001F2D70A01FA51FC5D006EFB517B
:100A2000FD59036E00C001F0026E0001000C0A01C6
:100A3000F2CAE9FFF3CAEAFFEF502E080DE1010EFA
:100A4000F225E96E000EF321EA6EEF502E0804E164
:100A5000FF0E016E04D003D0000E016E00D0000125
:100A6000E0EF0BF00B01186B15CBE9FF16CBEAFF9B
:100A7000EF6A176B1751070819E3036A175113251B
:100A8000E96E14510320EA6EEFCF19FB19512008CB
:100A900001E10CD01851182B036A1525E96E165187
:100AA0000320EA6E19CBEFFF172BE4D7176B175112
:100AB00002082CE3036A1751080F016E000E03228F
:100AC00001501325E96E14510320EA6EEFCF19FB94
:100AD0001951200802E0195301E118D017530AE117
:100AE0001851182B036A1525E96E16510320EA6E7A
:100AF0002E0EEF6E1851182B036A1525E96E16514C
:100B00000320EA6E19CBEFFF172BD1D71851182B02
:100B1000036A1525E96E16510320EA6EEF6A00019B
:100B2000A2EF08F00B0113CBE9FF14CBEAFFEFCFE4
:100B300017FB16CB03F015CBE9FF16CBEAFFEF50FE
:100B4000175D15E114CB03F013CBE9FF03C0EAFFF7
:100B5000EF5203E1000E016E1FD014CB03F01351CE
:100B6000132BD8B4142B152BD8B4162BDCD714CBDD
:100B700003F013CBE9FF14CBEAFFEFCF17FB16CB43
:100B800003F015CBE9FF16CBEAFFEF50175D02E249
:100B9000FF0E01D0010E016E0001ADEF08F00B0158
:100BA0002A5309E12B5307E12C5305E12D5303E1AF
:100BB000210E016E73D08B94010E336F000132EC65
:100BC00000F0D8900B01346B2A35356F2B35366F1A
:100BD0002C35376F580E386F37CB3CFB36CB3BFB91
:100BE00035CB3AFB34CB39FB100E3D6F3E6B400EDC
:100BF0003F6F000147EC00F001C030FB0B013051AA
:100C0000400805E18B84220E016E48D006D0305397
:100C100004E08B84200E016E41D0C950FE0EC96ED7
:100C2000C7A0FED72FCBEAFF2ECBE9FF326B316B8B
:100C30003251010808E3EECFC9FFC7A0FED7312B20
:100C4000D8B4322BF5D7C950FF0EC96EC7A0FED756
:100C5000C950FF0EC96EC7A0FED7C950FF0EC96E9E
:100C6000C7A0FED7C9CF30FB326B316B32510F08B2
:100C700012E303E13151FE080EE3C950FF0EC96EC5
:100C8000C7A0FED7C9CF30FB305301E004D0312BD1
:100C9000D8B4322BEBD78B84000E016E0001000C10
:100CA00002014E5123250B012A6F02014F512421CD
:100CB0000B012B6F000E020125210B012C6F000E82
:100CC000020126210B012D6F02011F510B012A2564
:100CD000266F020120510B012B21276F02012151A8
:100CE0000B012C21286F020122510B012D21296FAC
:100CF00029CB2DFB28CB2CFB27CB2BFB26CB2AFB90
:100D00002F6B170E2E6F00014ADF01C007F00201A2
:100D10003B510B01262702013C510B012723020105
:100D20003D510B01282302013E510B01292329CB00
:100D30002DFB28CB2CFB27CB2BFB26CB2AFB2F6BA9
:100D4000170E2E6F00012BDF01C007F002013F6B71
:100D50000001000C08500308D8A491D00B011C31ED
:100D6000246F1B31236F1A31226F1931216F243305
:100D700023332233213324332333223321332433C7
:100D800023332233213324332333223321332433B7
:100D90002333223321332433233322332133010EEF
:100DA000241719517F0B256F02011F510B01215D83
:100DB0000FE1020120510B01225D0AE102012151E4
:100DC0000B01235D05E1020122510B01245D3CE092
:100DD00002013F5303E0000163DF02014E5123256E
:100DE0000B01266F02014F5124210B01276F000ECA
:100DF000020125210B01286F000E020126210B01A3
:100E0000296F215126251D6F225127211E6F235145
:100E100028211F6F24512921206F20CB29FB1FCBB4
:100E200028FB1ECB27FB1DCB26FB2B6B170E2A6F37
:100E30000001FBEC00F024CB22F223CB21F222CBE9
:100E400020F221CB1FF20B01276B25CB26FB296B50
:100E5000040E286F0001FBEC01F002C003F001500A
:100E6000170FE96E000E0220EA6EEFCF00F0ECCF14
:100E700001F0ECCF02F0ECCF03F0A2D0A1D01ACB5E
:100E800021FB1BCB22FB1CCB23FB0B01246B19CBBF
:100E900025FB02011F510B01215D0FE102012051D1
:100EA0000B01225D0AE1020121510B01235D05E1E5
:100EB000020122510B01245D3CE002013F5303E09B
:100EC0000001EEDE02014E5123250B01266F0201C7
:100ED0004F5124210B01276F000E020125210B0128
:100EE000286F000E020126210B01296F21512625B2
:100EF0001D6F225127211E6F235128211F6F24515E
:100F00002921206F20CB29FB1FCB28FB1ECB27FBE1
:100F10001DCB26FB2B6B170E2A6F0001FBEC00F09C
:100F200024CB22F223CB21F222CB20F221CB1FF2C1
:100F30000B01D8902535026E036A03360250170F55
:100F4000E96E000E0320EA6EECCF27FBED52EFCFE7
:100F500026FB2751FE0821E2FF0A03E12651F4088F
:100F60001CE2D8902535026E036A03360250170F33
:100F7000E96E000E0320EA6EECCF27FBED52EFCFB7
:100F800026FB26CB00F027CB01F0FF0E026E0F0EE2
:100F9000036E000115D014D00B01D8902535026ED8
:100FA000036A03360250170FE96E000E0320EA6E43
:100FB000EFCF00F0ECCF01F0026A036A000100D02D
:100FC000000C0A01F45303E0000E016E82D30B0102
:100FD000126B116BFF0E0201326F316F0F0E366F05
:100FE000FF0E356F346F336F0B01276BF4CA26FB8E
:100FF000040E296F330E286F0001FBEC01F002C0D4
:1010000014FB01C013FB200E0B010124016E040E22
:101010000220036E0150700FE96E020E0320EA6E8B
:10102000EFCF00F0ECCF01F0ECCF02F0ECCF03F00B
:1010300003C00CFB02C00BFB01C00AFB00C009FB94
:10104000276BF4CA26FB040E296F330E286F0001AC
:10105000FBEC01F001C013FB0B0101C001F0020E1B
:101060000224036E0150700F016E020E032201C0B4
:10107000F5FA0A0103C0F6FAF86BF76BF853D8A437
:10108000C9D0F7510F08D8A0C5D0F5CAE9FFF6CAF4
:10109000EAFFEF50E50806E0F5CAE9FFF6CAEAFF05
:1010A000EF523CE10201313D01D002D00A0136D0BD
:1010B000323D01D002D00A0131D0F8CA32F2F7CA6B
:1010C00031F20B01276BF4CA26FB040E296F330E95
:1010D000286F0001FBEC01F002C014FB01C013FB00
:1010E000200E0B010124016E040E0220036E01503C
:1010F000700FE96E020E0320EA6EEFCF00F0ECCF26
:1011000001F0ECCF02F0ECCF03F003C036F202C0E6
:1011100035F201C034F200C033F20A01F5CAE9FF2A
:10112000F6CAEAFFEF5203E1000E016ED2D2F6CA10
:1011300014FBF5CA13FB0A0E0B01166FF90E156F9F
:10114000000190D40A0E0B01146FF90E136FF3CA4D
:1011500016FBF2CA15FB0001E5D4015252E10B0166
:10116000276BF4CA26FB040E296F330E286F00018B
:10117000FBEC01F002C014FB01C013FB0B0101C02A
:1011800001F0040E0224036E0150700F016E020E76
:10119000032201C015FB03C016FB03C0EAFF01C018
:1011A000E9FFF6CAE2FFF5CAE1FF200E016EE6CFC5
:1011B000EEFF012EFCD7276BF4CA26FB040E296F25
:1011C000330E286F0001FBEC01F001C013FB2F0E62
:1011D0000B010124016E040E0220036E0150700FFA
:1011E000E96E020E0320EA6EF8CAECFFED52F7CA70
:1011F000EFFFF8CA2CF2F7CA2BF2010E016E0A01BA
:1012000068D2200E0A01F527D8B0F62BF72BD8B4F8
:10121000F82B34D708500308D8A4ACD10B01112BFC
:1012200002014D510B01115DD8B0B2D0276BF4CA49
:1012300026FB040E296F330E286F0001FBEC01F032
:1012400002C014FB01C013FB200E0B010124016E30
:10125000040E0220036E0150700FE96E020E03208F
:10126000EA6EEFCF15FBECCF16FBECCF17FBECCF04
:1012700018FBEACF1AFBE9CF19FB18CB1EFB17CBE3
:101280001DFB16CB1CFB15CB1BFB226B216B206BB4
:101290004DC21FFB00018DEC01F01ACBEAFF19CB08
:1012A000E9FF020127510B0100241B6F02012851A5
:1012B0000B0101201C6F020129510B0102201D6F3F
:1012C00002012A510B0103201E6F11511B250D6FC6
:1012D000000E1C210E6F000E1D210F6F000E1E212F
:1012E000106F276BF4CA26FB040E296F330E286F8C
:1012F0000001FBEC01F002C014FB01C013FB0B0169
:1013000001C001F0020E0224036E0150700F016E45
:10131000020E032201C015FB03C016FB10CB29FBF4
:101320000FCB28FB0ECB27FB0DCB26FB03C02BFBE3
:1013300001C02AFB0001FBEC00F010CB30F20FCB18
:101340002FF20ECB2EF20DCB2DF20B01276BF4CA30
:1013500026FB040E296F330E286F0001FBEC01F011
:1013600001C013FB2B0E0B010124016E040E0220A1
:10137000036E0150700FE96E020E0320EA6E0DCB72
:10138000EFFF0ECBECFF0FCBECFF10CBECFFF0D060
:10139000116B276BF4CA26FB040E296F330E286FDE
:1013A0000001FBEC01F002C014FB01C013FB200E96
:1013B0000B010124016E040E0220036E0150700F18
:1013C000E96E020E0320EA6EEFCF15FBECCF16FBA1
:1013D000ECCF17FBECCF18FB18CB1CFB17CB1BFB80
:1013E00016CB1AFB15CB19FB0001B4DC03C00CFBB8
:1013F00002C00BFB01C00AFB00C009FB0CCB36F29C
:101400000BCB35F20ACB34F209CB33F20B01093D99
:1014100008D00A3D06D00B3D04D00C510F08D8B4BB
:10142000A5D0095307E10A5305E10B5303E10C531F
:10143000D8B49CD00CCB1EFB0BCB1DFB0ACB1CFBEA
:1014400009CB1BFB226B216B206B4DC21FFB0001E4
:101450008DEC01F0020127510B0100240D6F0201F8
:1014600028510B0101200E6F020129510B010220AE
:101470000F6F02012A510B010320106F276BF4CA72
:1014800026FB040E296F330E286F0001FBEC01F0E0
:1014900002C014FB01C013FB0B0101C001F0020EDE
:1014A0000224036E0150700F016E020E032201C070
:1014B00015FB03C016FB10CB29FB0FCB28FB0ECB73
:1014C00027FB0DCB26FB03C02BFB01C02AFB000131
:1014D000FBEC00F010CB30F20FCB2FF20ECB2EF244
:1014E0000DCB2DF20B01276BF4CA26FB040E296FDE
:1014F000330E286F0001FBEC01F001C013FB2B0E33
:101500000B010124016E040E0220036E0150700FC6
:10151000E96E020E0320EA6E0DCBEFFF0ECBECFF5F
:101520000FCBECFF10CBECFF276BF4CA26FB040EAD
:10153000296F330E286F0001FBEC01F001C013FB93
:10154000200E0B010124016E040E0220036E0150D7
:10155000700FE96E020E0320EA6E09CBEFFF0ACB93
:10156000ECFF0BCBECFF0CCBECFF02D0010E126FAB
:10157000AAD00A010B01112B02013A530AE1395397
:1015800008E1385306E137510B01115DD8B099D00D
:1015900002010B011E6B1D6B1C6B50C21BFB3EC27C
:1015A00022FB3DC221FB3CC220FB3BC21FFB0001D2
:1015B0008DEC01F00050020123250B01136F015047
:1015C000020124210B01146F0250020125210B019D
:1015D000156F0350020126210B01166F02014E51B7
:1015E0000B011325176F02014F510B011421186FC6
:1015F000000E1521196F000E16211A6F11511725B3
:101600000D6F000E18210E6F000E19210F6F000EC6
:101610001A21106F276BF4CA26FB040E296F330EB4
:10162000286F0001FBEC01F002C014FB01C013FBAA
:101630000B0101C001F0020E0224036E0150700F75
:10164000016E020E032201C015FB03C016FB10CB76
:1016500029FB0FCB28FB0ECB27FB0DCB26FB03C0B2
:101660002BFB01C02AFB0001FBEC00F010CB30F299
:101670000FCB2FF20ECB2EF20DCB2DF20B01276BE1
:10168000F4CA26FB040E296F330E286F0001FBEC11
:1016900001F001C013FB2B0E0B010124016E040E9F
:1016A0000220036E0150700FE96E020E0320EA6EF5
:1016B0000DCBEFFF0ECBECFF0FCBECFF10CBECFF15
:1016C00002D0010E126F1253D8B4BAD4000E016EBC
:1016D0000A010001000C0B01276BF6CA26FB040E61
:1016E000296F330E286F0001FBEC01F002C0FCFAF9
:1016F00001C0FBFA0A0101C0FDFA040E0224FE6FCC
:10170000140E0124016E000EFE21036E0150700FB5
:10171000E96E020E0320EA6EECCF03F0ED52EFCF3C
:1017200000F003C001F0026A036A03C0FAFA02C0C3
:10173000F9FA01C0F8FA00C0F7FAF8CAFAFAF7CADB
:10174000F9FAF76BF86B0B01276BF6CA26FB040E50
:10175000296F330E286F0001FBEC01F001C0FBFA8A
:101760000A0101C0FDFA040E0224FE6F1A0E0124C4
:10177000016E000EFE21036E0150700FE96E020E25
:101780000320EA6EECCF03F0ED52EF50F713035055
:10179000F813F7CA00F0F8CA01F0F9CA02F0FACA61
:1017A00003F00001000C0A01ED5303E0000E016E8E
:1017B000E2D0ECCAF3FAEBCAF2FA000117EF05F037
:1017C000015205E0010E016E0A01D5D00001ECCAFC
:1017D000F3FAEBCAF2FAEDCAF4FAE1EC07F00152BF
:1017E00005E1000E016E0A01C6D00001EDCAF6FA4D
:1017F00072DF03C0F5FA02C0F4FA01C0F3FA00C0C8
:10180000F2FAEACFF7FAE9CFF6FA03C01EFB02C0FC
:101810001DFB01C01CFB00C01BFB0B01226B216BDD
:10182000206B4DC21FFB00018DEC01F0F7CAEAFFEF
:10183000F6CAE9FF03C0F1FA02C0F0FA01C0EFFAFC
:1018400000C0EEFA020127510A01EE2702012851D9
:101850000A01EF23020129510A01F02302012A5152
:101860000A01F1230B01276BEDCA26FB040E296F39
:10187000330E286F0001FBEC01F002C0F3FA01C047
:10188000F2FA0A0101C001F0020E0224036E0150B7
:10189000700F016E020E032201C0F4FA03C0F5FAC4
:1018A000F1CA29FBF0CA28FBEFCA27FBEECA26FBC8
:1018B00003C02BFB01C02AFB0001FBEC00F0F1CAC6
:1018C00030F2F0CA2FF2EFCA2EF2EECA2DF20B015F
:1018D000276BEDCA26FB040E296F330E286F00011B
:1018E000FBEC01F001C0F2FA2B0E0A010124016E9B
:1018F000040E0220036E0150700FE96E020E0320E9
:10190000EA6EEECAEFFFEFCAECFFF0CAECFFF1CAD5
:10191000ECFF0B01276BEDCA26FB040E296F330E7B
:10192000286F0001FBEC01F002C0F3FA01C0F2FAEB
:10193000200E0A010124016E040E0220036E0150E4
:10194000700F016E020E032201C0F4FA03C0F5FA13
:10195000EDCAF6FA0001BFDEF5CAEAFFF4CAE9FFF4
:1019600000C0EFFF01C0ECFF02C0ECFF03C0ECFFC2
:10197000010E016E0A0100013BEF0DF00A01E4CAFD
:10198000E9FFE5CAEAFFFF0EEF6EE66BE65327E1DB
:101990000B01276BE6CA26FB040E296F330E286F56
:1019A0000001FBEC01F002C0EBFA01C0EAFA320ED2
:1019B0000A010124016E040E0220036E0150700F13
:1019C000E96E020E0320EA6EEF5207E0E4CAE9FF77
:1019D000E5CAEAFFE6CAEFFF02D0E62BD7D7E5CA91
:1019E00003F0E4CAE9FFE5CAEAFFEF3C04D0000EC9
:1019F000016E026E7BD0E5CA03F0E4CAE9FFE5CAD6
:101A0000EAFFEFCFEAFAEACAEBFA0001E5EF03F0EA
:101A1000E3CAE9FAE2CAE8FAE3CAFBFAE2CAFAFA66
:101A2000F9EC04F001C0E7FA0A01E66BE751E65D64
:101A300059E2036AE651E225E96EE3510320EA6EBA
:101A4000EF502F084DE1036AE651E225E96EE351BC
:101A50000320EA6EEF6AE5CA03F0E4CAE9FFE5CACB
:101A6000EAFFEFCFEAFAE9CAECFAE8CAEBFAEACA07
:101A7000EDFA000198D6015226E1E5CA03F0E4CA66
:101A8000E9FFE5CAEAFF0B01276BEFCF26FB040E47
:101A9000296F330E286F0001FBEC01F001C0EBFA57
:101AA000320E0A010124016E040E0220036E015061
:101AB000700FE96E020E0320EA6E010EEF6E000E4B
:101AC000016E026E13D00A01E651E225EA6F000EA4
:101AD000E321EB6F010EEA25E86F000EEB21E96FC1
:101AE000E62BA4D7E8CA01F0E9CA02F00001000C15
:101AF0001AC2F8FA19C2F7FA18C2F6FA17C2F5FABA
:101B000008500308D8A404D1F8CAF4FAF7CAF3FAC3
:101B1000F6CAF2FAF5CAF1FA0A01F4510201675D58
:101B2000D8A0F4D016E10A01F3510201665DD8A0F5
:101B3000EDD00FE10A01F2510201655DD8A0E6D0B7
:101B400008E164510A01F15DD8A002D00201DED0A3
:101B500002011F510A01F15D0FE1020120510A014A
:101B6000F25D0AE1020121510A01F35D05E1020182
:101B700022510A01F45D4EE002014E5123250B0172
:101B8000036F02014F5124210B01046F000E02016B
:101B900025210B01056F000E020126210B01066FA6
:101BA0000A01F1510B0103250A01F96FF2510B01F2
:101BB00004210A01FA6FF3510B0105210A01FB6FA1
:101BC000F4510B0106210A01FC6F02013F5303E0AF
:101BD000000150EC06F0FCCA29FBFBCA28FBFACA3C
:101BE00027FBF9CA26FB0B012B6B170E2A6F00018E
:101BF000FBEC00F0F4CA1AF2F3CA19F2F2CA18F2B6
:101C0000F1CA17F21AC222F219C221F218C220F246
:101C100017C21FF20B01026B016B02536CE1015101
:101C20007F0869E30135026E0235036E0236033622
:101C3000FC0E02160250170FE96E000E0320EA6E2A
:101C4000EFCF03FBECCF04FBECCF05FBECCF06FBA7
:101C500003534DE104534BE1055349E1065347E17A
:101C6000F4CA00FBF3CAFFFAF2CAFEFAF1CAFDFA9F
:101C70000A01FD37FE37FF370B0100370A01FD3738
:101C8000FE37FF370B0100370A01FD37FE37FF37FC
:101C90000B0100370A01FD37FE37FF370B01003714
:101CA0000A01FD37FE37FF370B0100370A01FD3708
:101CB000FE37FF370B0100370A01FD37FE37FF37CC
:101CC0000B010037800E0A01FD170B0101510A01BB
:101CD000FD130B0102510A01FE13FDCA00F0FECAFA
:101CE00001F0FFCA02F000CB03F005D10B01012B7C
:101CF000D8B4022B92D7010E0A01F127D8B0F22BEB
:101D0000D8B4F32BD8B4F42B08D70201EDD00001DE
:101D1000F8CAF4FAF7CAF3FAF6CAF2FAF5CAF1FA0F
:101D20000A01F453D8A4DFD0F353D8A4DCD0F25185
:101D30000201575DD8B002D00A01D5D006E1565154
:101D40000A01F15DD8B0CFD002011F510A01F15D47
:101D50000FE1020120510A01F25D0AE10201215165
:101D60000A01F35D05E1020122510A01F45D4EE032
:101D700002014E5123250B01036F02014F51242113
:101D80000B01046F000E020125210B01056F000EEF
:101D9000020126210B01066F0A01F1510B010325F7
:101DA0000A01F96FF2510B0104210A01FA6FF35194
:101DB0000B0105210A01FB6FF4510B0106210A01F9
:101DC000FC6F02013F5303E0000150EC06F0FCCA37
:101DD00029FBFBCA28FBFACA27FBF9CA26FB0B0121
:101DE0002B6B170E2A6F0001FBEC00F0F4CA1AF2FD
:101DF000F3CA19F2F2CA18F2F1CA17F21AC222F2A1
:101E000019C221F218C220F217C21FF20B01026B95
:101E1000016B025100085DE3D8900135026E023576
:101E2000036E0250170FE96E000E0320EA6EECCF2E
:101E300004FBED52EFCF03FB035347E1045345E1AD
:101E4000F4CA00FBF3CAFFFAF2CAFEFAF1CAFDFABD
:101E5000FFCA00FBFECAFFFAFDCAFEFA0A01FD6BCB
:101E60000B0101510A01FD130B0102510A01FE137E
:101E70000B01005311E10A01FF53D8B402D00B014A
:101E80000BD0FE51FE0817E2FF0AD8B402D00B01B6
:101E900003D0FD51F4080FE20A01FDCA00F0FECAAA
:101EA00001F0FF51FF09026E0B0100510F09036E93
:101EB0000A0121D009D0FDCA00F0FECA01F0FFCA14
:101EC00002F000CB03F017D00B01012BD8B4022B8A
:101ED000A0D7010E0A01F127D8B0F22BD8B4F32B0A
:101EE000D8B4F42B1ED70201FF0E006E016E026EF5
:101EF0000F0E036E0A010001000C08500308D8A45D
:101F00009FD00A01FA310B01066F0A01F9310B016A
:101F1000056F0A01F8310B01046F0A01F7310B015B
:101F2000036F0633053304330333063305330433B9
:101F300003330633053304330333063305330433E5
:101F400003330633053304330333063305330433D5
:101F50000333010E06170A01F7517F0B0B01076FC0
:101F600002014E5123250B01086F02014F5124211C
:101F70000B01096F000E020125210B010A6F000EF3
:101F8000020126210B010B6F035108250A01FF6F87
:101F90000B0104510921006F05510A21016F0651FF
:101FA0000B21026F02011F510B01035D0FE10201C2
:101FB00020510B01045D0AE1020121510B01055D75
:101FC00005E1020122510B01065D1EE002013F53B3
:101FD00003E0000150EC06F002CB29FB01CB28FB0B
:101FE00000CB27FBFFCA26FB0B012B6B170E2A6FBA
:101FF0000001FBEC00F006CB22F205CB21F204CB72
:1020000020F203CB1FF20B01276B07CB26FB296BBA
:10201000040E286F0001FBEC01F00150170FE96E70
:10202000000E0220EA6EFBCAEFFFFCCAECFFFDCAFD
:10203000ECFFFECAECFF010E02013F6F72D00001FF
:10204000F8CA03FBF9CA04FBFACA05FB0B01066BCD
:10205000F7CA07FB0B0102014E5123250B01086F44
:1020600002014F5124210B01096F000E02012521AD
:102070000B010A6F000E020126210B010B6F0351A9
:1020800008250A01FF6F0B0104510921006F05515A
:102090000A21016F06510B21026F02011F510B0132
:1020A000035D0FE1020120510B01045D0AE1020111
:1020B00021510B01055D05E1020122510B01065D75
:1020C0001EE002013F5303E0000150EC06F002CB9A
:1020D00029FB01CB28FB00CB27FBFFCA26FB0B010A
:1020E0002B6B170E2A6F0001FBEC00F006CB22F2DF
:1020F00005CB21F204CB20F203CB1FF20B01D890C9
:102100000735026E036A03360250170FE96E000EA0
:102110000320EA6EFBCAEFFFFCCAECFF010E0201CE
:102120003F6F0001000C0A01F96BF66BF4CAFBFA71
:10213000F3CAFAFA0001F9EC04F001C0F7FA0A0157
:10214000F56BF55107080BE3036AF551F125E96ECC
:10215000F2510320EA6E200EEF6EF52BF2D7F56BED
:10216000F551020810E3036AF551080F016E000EE5
:1021700003220150F125E96EF2510320EA6E200E90
:10218000EF6EF52BEDD7F56BF751F55D37E2036A8E
:10219000F551F325E96EF4510320EA6EEFCFF8FA1A
:1021A000F851600806E2F8517A0803E3F851DF0BB2
:1021B00001D0F851F86FF8512E0803E1010EF96FC4
:1021C0001BD0F95310E0F651F62B036A080F016E8D
:1021D000000E03220150F125E96EF2510320EA6E50
:1021E000F8CAEFFF09D0036AF551F125E96EF25103
:1021F0000320EA6EF8CAEFFFF52BC6D7000163EFA4
:1022000013F0BC0E0F5C0A01F36F070E1058F46F49
:10221000D890F3CAF4FAF36BF437F66B1134026E0C
:10222000F635036E023603360236033602360336BF
:1022300002360336E00E02160250F3130350F41375
:10224000036A1350F3130350F413F3CA01F0F4CAF2
:1022500002F00001000C0A01F46B14C0F3FAF3CA97
:10226000F4FAF36BF437F437F437F80EF417F66B2F
:102270001534026EF635036E023603360236033627
:102280000236033602360336E00E02160250F3130E
:102290000350F413F66BD890F631036E1630F31337
:1022A0000350F413F3CA01F0F4CA02F00001000C69
:1022B0000A01E25303E0000E016EF7D20850030852
:1022C000D8A429D10201333DF9D0343DF7D0353DB2
:1022D000F5D036510F08D8A4F1D0000109DC03C0B5
:1022E00036F202C035F201C034F200C033F202010E
:1022F000326B316B0B01276BE2CA26FB040E296F90
:10230000330E286F0001FBEC01F002C0F2FA01C0AD
:10231000F1FA200E0A010124016E040E0220036E60
:102320000150700FE96E020E0320EA6EEFCFF3FA50
:10233000ECCFF4FAECCFF5FAECCFF6FAF6CAFAFAEB
:10234000F5CAF9FAF4CAF8FAF3CAF7FA36C2FEFA8D
:1023500035C2FDFA34C2FCFA33C2FBFA0001CDDD0E
:1023600036C2FAFA35C2F9FA34C2F8FA33C2F7FAC9
:102370000F0E0A01FE6FFF0EFD6FFC6FFB6F000179
:10238000BCDD36C21EFB35C21DFB34C21CFB33C292
:102390001BFB0B01226B216B206B4DC21FFB00014D
:1023A0008DEC01F0020127510A010024E76F0201C0
:1023B00028510A010120E86F020129510A01022077
:1023C000E96F02012A510A010320EA6FF06BEF6BFB
:1023D000F051010824E30B01276BE2CA26FB040E2F
:1023E000296F330E286F0001FBEC01F001C0F1FAF8
:1023F0000A0101C0F3FA020E0224F46FEF51012426
:10240000016EF051F421036E0150700FE96E020E5F
:102410000320EA6EEF6AEF2BD8B4F02BD9D7F06B1C
:10242000EF6BF05345E102014D510A01EF5D40E2CF
:10243000EF51E725F16FF051E821F26F000EE9212D
:10244000F36F000EEA21F46F0B01276BE2CA26FB43
:10245000040E296F330E286F0001FBEC01F002C05F
:10246000F6FA01C0F5FA0A0101C001F0020E0224D9
:10247000036E0150700F016E020E032201C0F7FAC5
:1024800003C0F8FAF4CA2DFBF3CA2CFBF2CA2BFBEB
:10249000F1CA2AFB03C02FFB01C02EFB0001CFECC9
:1024A00005F001C007F00A01EF2BD8B4F02BB9D723
:1024B000075203E0000E016EF8D12CD00B01276B00
:1024C000E2CA26FB040E296F330E286F0001FBECD5
:1024D00001F002C0F2FA01C0F1FA2B0E0A01012448
:1024E000016E040E0220036E0150700FE96E020EA1
:1024F0000320EA6EEFCF00F0ECCF01F0ECCF02F05A
:10250000ECCF03F003C0EAFA02C0E9FA01C0E8FA2E
:1025100000C0E7FA2CD00B01276BE2CA26FB040EA1
:10252000296F330E286F0001FBEC01F002C0F2FAB4
:1025300001C0F1FA2B0E0A010124016E040E0220E3
:10254000036E0150700FE96E020E0320EA6EEFCFAA
:1025500000F0ECCF01F0ECCF02F0ECCF03F003C0C1
:10256000EAFA02C0E9FA01C0E8FA00C0E7FA0B0192
:10257000276BE2CA26FB040E296F330E286F000179
:10258000FBEC01F002C0F2FA01C0F1FA0A0101C04D
:1025900001F0020E0224036E0150700F016E020E54
:1025A000032201C0F3FA03C0F4FAEACA29FBE9CA1C
:1025B00028FBE8CA27FBE7CA26FB03C02BFB01C0A8
:1025C0002AFB0001FBEC00F00B01276BE2CA26FBA3
:1025D000040E296F330E286F0001FBEC01F001C0DF
:1025E000F1FA0A0101C0F3FA020E0224F46F0201AB
:1025F00031350A01F56F020132350A01F66FF53700
:10260000F637F537F637F537F637F537F637E00EA4
:10261000F517F5510124016EF651F421036E0150B6
:10262000700F016E020E032201C0E5FA03C0E6FA44
:102630000B01276BE2CA26FB040E296F330E286FAD
:102640000001FBEC01F001C0F1FA2B0E0A0101249C
:10265000016E040E0220036E0150700FE96E020E2F
:102660000320EA6EE7CAEFFFE8CAECFFE9CAECFF15
:10267000EACAECFF0B01276BE2CA26FB040E296FA6
:10268000330E286F0001FBEC01F001C0F1FA2F0EB0
:102690000A010124016E040E0220036E0150700F26
:1026A000E96E020E0320EA6E32C2ECFFED5231C237
:1026B000EFFFE6CAF2FAE5CAF1FAE4CAF4FAE3CAAD
:1026C000F3FA000130D50B0E0A01E525E96E000E84
:1026D000E621EA6EEF6A000178EC0DF003C0EEFA35
:1026E00002C0EDFA01C0ECFA00C0EBFA1A0E0A01C2
:1026F000E525E96E000EE621EA6EEBCAEFFFECCAB3
:10270000ECFF140EE525E96E000EE621EA6EEDCA37
:10271000EFFFEECAECFFEECAFAFAEDCAF9FAECCA1C
:10272000F8FAEBCAF7FA0F0EFE6FFF0EFD6FFC6FA3
:10273000FB6F00017DEC0FF01C0E0A01E525E96E30
:10274000000EE621EA6EEE52EE52EC6AED52EF6AAE
:10275000ED52EF6AED52EF6A0B01276BE2CA26FBDE
:10276000040E296F330E286F0001FBEC01F001C04D
:10277000F1FA270E0A010124016E040E0220036EF5
:102780000150700FE96E020E0320EA6EEE52EE5217
:10279000EC6AED52EF6AED52EF6AED52EF6A180EF5
:1027A000E525016E000EE621036E01C0F1FAF26F1D
:1027B000000127DDF2CAEAFFF1CAE9FF02C0ECFF1F
:1027C000ED5201C0EFFF160E0A01E525016E000E65
:1027D000E621036E01C0F1FAF26F00013CDDF2CA9E
:1027E000EAFFF1CAE9FF02C0ECFFED5201C0EFFFC2
:1027F0000B01276BE2CA26FB040E296F330E286FEC
:102800000001FBEC01F002C0F2FA01C0F1FA0A018A
:1028100001C001F0020E0224036E0150700F016E20
:10282000020E032201C0F3FA03C0F4FAEACA2DFB38
:10283000E9CA2CFBE8CA2BFBE7CA2AFB03C02FFB23
:1028400001C02EFB0001CFEC05F001C007F00B0129
:10285000276BE2CA26FB040E296F330E286F000196
:10286000FBEC01F002C0F2FA01C0F1FA0A0101C06A
:1028700001F0040E0224036E0150700F016E020E6F
:10288000032201C0F3FA03C0F4FA03C0EAFF01C057
:10289000E9FFE6CAE2FFE5CAE1FF200E016EE6CFDE
:1028A000EEFF012EFCD7010E016E0001B6EF14F011
:1028B000988686A604D0FF0E016E59EF18F0D0CA94
:1028C000E3FACFCAE2FA0A0E0A01E56FD30EE46F0B
:1028D0000001BEEC0CF002C0E1FA01C0E0FA0A010E
:1028E000E05308E1E15306E1FF0E016E000159EFEC
:1028F00018F00A01D26BE1CAF3FAE0CAF2FAD3CABD
:10290000F4FA0001E1EC07F001C0D2FA0A01D25357
:1029100035E1D151720822E10B01276BD3CA26FBA6
:10292000040E296F330E286F0001FBEC01F001C08B
:10293000E2FA320E0A010124016E040E0220036E37
:102940000150700FE96E020E0320EA6E010EEF6E69
:10295000FF0E016E0001ADD312D00A01D3CAE2FA14
:10296000E1CAE4FAE0CAE3FA0001A2D4015203E1A9
:10297000FF0E016E9ED3010E0A01D26F00010A0103
:10298000D253D8B494D30B01276BD3CA26FB040EC1
:10299000296F330E286F0001FBEC01F001C0E2FA51
:1029A000320E0A010124016E040E0220036E015052
:1029B000700FE96E020E0320EA6EEF6A0B01276BBF
:1029C000D3CA26FB040E296F330E286F0001FBECDF
:1029D00001F001C0E2FA310E0A010124016E040E79
:1029E0000220036E0150700FE96E020E0320EA6EA2
:1029F000D1CAEFFFD1516108D8A468D20B01276B6F
:102A0000D3CA26FB040E296F330E286F0001FBEC9E
:102A100001F002C0E3FA01C0E2FA270E0A01012424
:102A2000016E040E0220036E0150700F016E020E43
:102A3000032201C0E4FA03C0E5FA0B01276BD3CAF5
:102A400026FB040E296F330E286F0001FBEC01F00A
:102A500002C0E7FA01C0E6FA0A0101C0E8FA040E72
:102A60000224E96F1C0E0124016E000EE921036EA1
:102A70000150700FE96E020E0320EA6EEFCF00F0F6
:102A8000ECCF01F0ECCF02F0ECCF03F0E5CAEAFFA7
:102A9000E4CAE9FF00C0EFFF01C0ECFF02C0ECFF99
:102AA00003C0ECFFD3CAF6FA00016BEC0BF003C0D5
:102AB000DBFA02C0DAFA01C0D9FA00C0D8FADBCAE0
:102AC000DFFADACADEFAD9CADDFAD8CADCFA0A01B4
:102AD000D83D07D0D93D05D0DA3D03D0DB510F08F2
:102AE00037E0DC5306E1DD5304E1DE5302E1DF535E
:102AF0002FE0DBCA1CFBDACA1BFBD9CA1AFBD8CAF7
:102B000019FB0001AAEC06F003C0DFFA02C0DEFAEE
:102B100001C0DDFA00C0DCFA0A01DC3D07D0DD3D72
:102B200005D0DE3D03D0DF510F0808E0DC5307E19C
:102B3000DD5305E1DE5303E1DF5301E109D0DFCAD4
:102B4000DBFADECADAFADDCAD9FADCCAD8FAC0D7AB
:102B5000DBCA1EFBDACA1DFBD9CA1CFBD8CA1BFB89
:102B60000B01226B216B206B4DC21FFB00018DEC12
:102B700001F0020127510A010024D46F02012851FB
:102B80000A010120D56F020129510A010220D66FE6
:102B900002012A510A010320D76F0B01276BD3CA08
:102BA00026FB040E296F330E286F0001FBEC01F0A9
:102BB00002C0E3FA01C0E2FA240E0A010124016E08
:102BC000040E0220036E0150700F016E020E0322EC
:102BD00001C0E4FA03C0E5FA0B01276BD3CA26FB58
:102BE000040E296F330E286F0001FBEC01F002C0C8
:102BF000E7FA01C0E6FA270E0A010124016E040E6D
:102C00000220036E0150700FE96E020E0320EA6E7F
:102C1000EFCFE8FAECCFE9FAECCFEAFAECCFEBFA37
:102C2000ED52ED52ED52D890F06BEB31EF6FEA318F
:102C3000EE6FE931ED6FEACFF2FAE9CFF1FAF0CABF
:102C4000F6FAEFCAF5FAEECAF4FAF36FFA6BF96B1B
:102C5000F86B4DC2F7FA0001BBEC01F0EFCF00F0CA
:102C6000ECCF01F0ECCF02F0ECCF03F0F2CAEAFFB8
:102C7000F1CAE9FFE5CAEAFFE4CAE9FF00C0EFFFD5
:102C80000B01276BD3CA26FB040E296F330E286F66
:102C90000001FBEC01F001C0E2FA240E0A0101245C
:102CA000016E040E0220036E0150700FE96E020ED9
:102CB0000320EA6EEF50D427000ED523D623D72366
:102CC0000B01276BD3CA26FB040E296F330E286F26
:102CD0000001FBEC01F002C0E3FA01C0E2FA700E61
:102CE0000A010124016E020E0220036E01C0E4FA03
:102CF000E56FD7CA29FBD6CA28FBD5CA27FBD4CA99
:102D000026FBE8CF2BFB01C02AFB0001FBEC00F007
:102D10000B01276BD3CA26FB040E296F330E286FD5
:102D20000001FBEC01F001C0E2FA200E0A010124CF
:102D3000016E040E0220036E0150700FE96E020E48
:102D40000320EA6ED8CAEFFFD9CAECFFDACAECFF5B
:102D5000DBCAECFF0B01276BD3CA26FB040E296FDD
:102D6000330E286F0001FBEC01F002C0E3FA01C052
:102D7000E2FA250E0A010124016E040E0220036E00
:102D80000150700F016E020E032201C0E4FA03C06D
:102D9000E5FA0B01276BD3CA26FB040E296F330E0D
:102DA000286F0001FBEC01F002C0E7FA01C0E6FA6F
:102DB000270E0A010124016E040E0220036E015049
:102DC000700FE96E020E0320EA6EEFCFE8FAECCF47
:102DD000E9FAECCFEAFAECCFEBFAE951010BE5CADC
:102DE000EAFFE4CAE9FFE8CAEFFFEC6E0B01276BCC
:102DF000D3CA26FB040E296F330E286F0001FBECAB
:102E000001F002C0E3FA01C0E2FA250E0A01012432
:102E1000016E040E0220036E0150700FE96E020E67
:102E20000320EA6EECCFE5FAED52EFCFE4FAE4537B
:102E30004CE1E5534AE10B01276BD3CA26FB040E94
:102E4000296F330E286F0001FBEC01F002C0E7FA96
:102E500001C0E6FA270E0A010124016E040E0220C9
:102E6000036E0150700FE96E020E0320EA6EEFCF81
:102E7000E8FAECCFE9FAECCFEAFAECCFEBFAE85358
:102E800006E1E95304E1EA5302E1EB531EE00B01D2
:102E9000276BD3CA26FB040E296F330E286F00015F
:102EA000FBEC01F001C0E2FA250E0A010124016EDB
:102EB000040E0220036E0150700FE96E020E032013
:102EC000EA6E020EEC6EED52EF6AF1D00B01276B49
:102ED000D3CA26FB040E296F330E286F0001FBECCA
:102EE00001F001C0E2FA270E0A010124016E040E6E
:102EF0000220036E0150700FE96E020E0320EA6E8D
:102F0000EE52EE52EC6AED52EF6AED52EF6AED527C
:102F1000EF6AD3CAF6FA00016BEC0BF003C0E5FAD6
:102F200002C0E4FA01C0E3FA00C0E2FAEACFE7FA2D
:102F3000E9CFE6FA03C01EFB02C01DFB01C01CFB6B
:102F400000C01BFB0B01226B216B206B4DC21FFBD2
:102F500000018DEC01F0E7CAEAFFE6CAE9FF03C011
:102F6000D7FA02C0D6FA01C0D5FA00C0D4FA0201DD
:102F700027510A01D427020128510A01D523020151
:102F800029510A01D62302012A510A01D7230B0134
:102F9000276BD3CA26FB040E296F330E286F00015E
:102FA000FBEC01F002C0E3FA01C0E2FA700E0A0184
:102FB0000124016E020E0220036E01C0E4FAE56FE7
:102FC000D7CA29FBD6CA28FBD5CA27FBD4CA26FBF9
:102FD000E8CF2BFB01C02AFB0001FBEC00F00B014A
:102FE000276BD3CA26FB040E296F330E286F00010E
:102FF000FBEC01F002C0E3FA01C0E2FA200E0A0184
:103000000124016E040E0220036E0150700F016E48
:10301000020E032201C0E4FA03C0E5FAD3CAF6FAAD
:1030200000016BEC0BF0E5CAEAFFE4CAE9FF00C05F
:10303000EFFF01C0ECFF02C0ECFF03C0ECFF0B018F
:10304000276BD3CA26FB040E296F330E286F0001AD
:10305000FBEC01F001C0E2FA250E0A010124016E29
:10306000040E0220036E0150700FE96E020E032061
:10307000EA6EEC6AED52EF6A0B01276BD3CA26FBAE
:10308000040E296F330E286F0001FBEC01F001C024
:10309000E2FA240E0A010124016E040E0220036EDE
:1030A0000150700FE96E020E0320EA6EEF6AD3CA78
:1030B00001F00001B0EF21F00A01E35303E0000E3C
:1030C000016EF8D20B01276BE3CA26FB040E296FB1
:1030D000330E286F0001FBEC01F002C0EDFA01C0D5
:1030E000ECFA270E0A010124016E040E0220036E81
:1030F0000150700FE96E020E0320EA6EEFCFEEFA78
:10310000ECCFEFFAECCFF0FAECCFF1FA0B01276B32
:10311000E3CA26FB040E296F330E286F0001FBEC77
:1031200001F002C0F3FA01C0F2FA0A0101C0F4FA98
:10313000040E0224F56F1C0E0124016E000EF52111
:10314000036E0150700FE96E020E0320EA6EEFCF9E
:1031500000F0ECCF01F0ECCF02F0ECCF03F0035025
:10316000F15D0FE30BE10250F05D0BE307E101506D
:10317000EF5D07E303E10050EE5D03E3000E016E37
:1031800099D2E2CA03F0E1CAECFAE2CAEDFA0B0105
:10319000276BE3CA26FB040E296F330E286F00014C
:1031A000FBEC01F002C0EFFA01C0EEFA0B01276B55
:1031B000E3CA26FB040E296F330E286F0001FBECD7
:1031C00001F001C0F0FA250E0A010124016E040E7F
:1031D0000220036E0150700FE96E020E0320EA6EAA
:1031E000ECCFF3FAED52EFCFF2FAF251EE25016E89
:1031F000F351EF21036E0150700FE96E020E0320B0
:10320000EA6EEFCFF4FAEDCAEAFFECCAE9FFF4CABE
:10321000EFFF0B01276BE3CA26FB040E296F330E69
:10322000286F0001FBEC01F002C0EDFA01C0ECFADE
:10323000250E0A010124016E040E0220036E0150C6
:10324000700FE96E020E0320EA6E010EEE2601E316
:10325000EF2A0B01276BE3CA26FB040E296F330EFE
:10326000286F0001FBEC01F002C0EDFA01C0ECFA9E
:10327000270E0A010124016E040E0220036E015084
:10328000700FE96E020E0320EA6E010EEE2605E1D4
:10329000EE2A03E1EE2A01E1ED2A0B01276BE3CAD6
:1032A00026FB040E296F330E286F0001FBEC01F0A2
:1032B00002C0EDFA01C0ECFA250E0A010124016EEC
:1032C000040E0220036E0150700FE96E020E0320FF
:1032D000EA6EECCFEFFAED52EFCFEEFAEF510108C4
:1032E000D8B0E6D10B01276BE3CA26FB040E296F89
:1032F000330E286F0001FBEC01F001C0ECFA240E44
:103300000A010124016E040E0220036E0150700FA9
:10331000E96E020E0320EA6EEF2A0B01276BE3CA67
:1033200026FB040E296F330E286F0001FBEC01F021
:1033300002C0EDFA01C0ECFA240E0A010124016E6C
:10334000040E0220036E0150700FE96E020E03207E
:10335000EA6E02014D51EF5CD8B0B8D00B01276B7B
:10336000E3CA26FB040E296F330E286F0001FBEC25
:1033700001F002C0EDFA01C0ECFA200E0A010124AE
:10338000016E040E0220036E0150700FE96E020EF2
:103390000320EA6EEFCFEEFAECCFEFFAECCFF0FAC3
:1033A000ECCFF1FAEACFF3FAE9CFF2FAF1CA1EFB59
:1033B000F0CA1DFBEFCA1CFBEECA1BFB0B01226B04
:1033C000216B206B4DC21FFB00018DEC01F0F3CA95
:1033D000EAFFF2CAE9FF020127510A010024E86F5F
:1033E000020128510A010120E96F020129510A0155
:1033F0000220EA6F02012A510A010320EB6F0B0140
:10340000276BE3CA26FB040E296F330E286F0001D9
:10341000FBEC01F001C0ECFA240E0A010124016E5C
:10342000040E0220036E0150700FE96E020E03209D
:10343000EA6EEF50E827000EE923EA23EB230B01A5
:10344000276BE3CA26FB040E296F330E286F000199
:10345000FBEC01F002C0EDFA01C0ECFA700E0A01BB
:103460000124016E020E0220036E01C0EEFAEF6F1E
:10347000EBCA29FBEACA28FBE9CA27FBE8CA26FBF4
:10348000E8CF2BFB01C02AFB0001FBEC00F00B0195
:10349000276BE3CA26FB040E296F330E286F000149
:1034A000FBEC01F001C0ECFA250E0A010124016ECB
:1034B000040E0220036E0150700FE96E020E03200D
:1034C000EA6EEC6AED52EF6AF3D002010B01276B52
:1034D000E3CA26FB040E296F330E286F0001FBECB4
:1034E00001F001C0ECFA240E0A010124016E040E61
:1034F0000220036E0150700FE96E020E0320EA6E87
:10350000EF6A0B01276BE3CA26FB040E296F330E0B
:10351000286F0001FBEC01F002C0EDFA01C0ECFAEB
:10352000200E0A010124016E040E0220036E0150D8
:10353000700FE96E020E0320EA6EEFCFEEFAECCFC9
:10354000EFFAECCFF0FAECCFF1FAF1CA1CFBF0CABB
:103550001BFBEFCA1AFBEECA19FB0001AAEC06F02E
:1035600003C0E7FA02C0E6FA01C0E5FA00C0E4FAD7
:103570000A01E43D08D0E53D06D0E63D04D0E75120
:103580000F08D8B495D0E45307E1E55305E1E653BD
:1035900003E1E753D8B48CD0E7CA1EFBE6CA1DFB93
:1035A000E5CA1CFBE4CA1BFB0B01226B216B206BE1
:1035B0004DC21FFB00018DEC01F0020127510A01F1
:1035C0000024E86F020128510A010120E96F02017D
:1035D00029510A010220EA6F02012A510A0103203F
:1035E000EB6F0B01276BE3CA26FB040E296F330E2A
:1035F000286F0001FBEC01F002C0EDFA01C0ECFA0B
:10360000700E0A010124016E020E0220036E01C039
:10361000EEFAEF6FEBCA29FBEACA28FBE9CA27FBDF
:10362000E8CA26FBE8CF2BFB01C02AFB0001FBEC1C
:1036300000F00B01276BE3CA26FB040E296F330E43
:10364000286F0001FBEC01F001C0ECFA200E0A012A
:103650000124016E040E0220036E0150700FE96E0A
:10366000020E0320EA6EE4CAEFFFE5CAECFFE6CAE9
:10367000ECFFE7CAECFF0B01276BE3CA26FB040E45
:10368000296F330E286F0001FBEC01F001C0ECFA4A
:10369000250E0A010124016E040E0220036E015062
:1036A000700FE96E020E0320EA6EEC6AED52EF6ACB
:1036B000010E016E0001000C0A01DA5304E0000E55
:1036C000016E026E2DD0DE6BDD6BDC6BDB6BDC51D3
:1036D000D95D22E303E1D851DB5D1EE20A0EE26F01
:1036E000DF0EE16FDACAE3FA0001E6DC01C0E0FABE
:1036F0000A01E0530CE0D651DB25E96ED751DC21FD
:10370000EA6EDFCAEFFFDD2BD8B4DE2B01D004D088
:10371000DB2BD8B4DC2BDBD7DDCA01F0DECA02F02C
:103720000001000CC6CAD9FAC5CAD8FAC4CAD7FA69
:10373000C3CAD6FAD8CAF8FF0A01D7CAF7FFD6CA51
:10374000F6FFA684A688F29CF29EF2BEFDD7550E27
:10375000A76EAA0EA76EA682DE6BDE510F082DE3C0
:10376000DF6BDF513F080EE3DBCA03F0DA51DA2BDF
:10377000D8B4DB2BE96E03C0EAFFEFCFF5FF0D00F5
:10378000DF2BEFD7D8CAF8FFD7CAF7FFD6CAF6FFA4
:10379000400ED627000ED723D823D923F29CF29EC1
:1037A000F2BEFDD7A684550EA76EAA0EA76EA682FE
:1037B000C00EF212A694DE2BD0D7C00EF21200017A
:1037C0007DEF1CF00A01D26BD56BC66BC56BC46B69
:1037D000C36BC86BC76B060EEA6EC30EE96EFF0EB5
:1037E000D66F040ED86FD76B000123EC00F00A0EE1
:1037F0000A01E26FD00EE16FCFCAE3FA00015CDC90
:1038000001C0D1FA0A01D15303E0D051570801E0B9
:1038100076D00A0EE26FD00EE16FCFCAE3FA000154
:103820004BDC01C0D1FA0A01D15303E0D051460864
:1038300001E065D0D25363E1D55303E096908D90BB
:1038400002D096908D80FF0EC66FC56FC46FC36F98
:103850000A0ED76FC30ED66FD96B040ED86FCFCABE
:10386000DAFA000129DF0A01C33D07D0C43D05D0C3
:10387000C53D03D0C63D01D042D0060ED76FC30E62
:10388000D66F040ED96FD86BCFCADAFA000114DFF5
:1038900002C0D7FA01C0D6FA0A01D65303E1D751C4
:1038A000040801E02CD0D46BD36BD45103080DE392
:1038B000C30ED325E96E060ED421EA6EEF50570AE7
:1038C000EF6ED32BD8B4D42BF0D7C65305E1C55334
:1038D00003E1C4514B0812E2C6CAD9FAC5CAD8FAE4
:1038E000C4CAD7FAC3CAD6FA060EDB6FC30EDA6FA4
:1038F000040EDD6FDC6B000115D70A019BD70001B8
:10390000B8EF21F00A01D05301E0DBD10B01276BA6
:10391000D0CA26FB040E296F330E286F0001FBEC82
:1039200001F002C0D8FA01C0D7FA200E0A01012422
:10393000016E040E0220036E0150700FE96E020E3C
:103940000320EA6EEFCFD9FAECCFDAFAECCFDBFA4C
:10395000ECCFDCFAEACFDEFAE9CFDDFADCCA1EFBF7
:10396000DBCA1DFBDACA1CFBD9CA1BFB0B01226B8D
:10397000216B206B4DC21FFB00018DEC01F0DECAF4
:10398000EAFFDDCAE9FF020127510A010024D16FD5
:10399000020128510A010120D26F020129510A01B6
:1039A0000220D36F02012A510A010320D46F0B01B8
:1039B000276BD0CA26FB040E296F330E286F000137
:1039C000FBEC01F001C0D7FA240E0A010124016EBC
:1039D000040E0220036E0150700FE96E020E0320E8
:1039E000EA6EEF50D127000ED223D323D4230B014C
:1039F000276BD0CA26FB040E296F330E286F0001F7
:103A0000FBEC01F002C0D8FA01C0D7FA700E0A012F
:103A10000124016E020E0220036E01C0D9FADA6F92
:103A2000D4CA2DFBD3CA2CFBD2CA2BFBD1CA2AFB8A
:103A3000E8CF2FFB01C02EFB0001CFEC05F0020107
:103A40003F5303E0000150EC06F00B01276BD0CA96
:103A500026FB040E296F330E286F0001FBEC01F0EA
:103A600002C0D8FA01C0D7FA0A0101C0D9FA020E81
:103A70000224DA6F0B01276BD0CA26FB040E296FD4
:103A8000330E286F0001FBEC01F002C0DCFA01C02C
:103A9000DBFA2F0E0A010124016E040E0220036ED0
:103AA0000150700FE96E020E0320EA6EECCF03F0B6
:103AB000ED52EFCF02F00234DD6F0334DE6FDD37FD
:103AC000DE37DD37DE37DD37DE37DD37DE37E00E78
:103AD000DD17DD51D925016EDE51DA21036E01506B
:103AE000700F016E020E032201C0D5FA03C0D6FA90
:103AF0000B01276BD0CA26FB040E296F330E286FEB
:103B00000001FBEC01F002C0D8FA01C0D7FA0A01AB
:103B100001C0D9FA040E0224DA6F0B0E0124016EE3
:103B2000000EDA21036E0150700FE96E020E0320C1
:103B3000EA6EEFA810D01C0ED525E96E000ED62136
:103B4000EA6EEE52EE52EC6AED52EF6AED52EF6A17
:103B5000ED52EF6A39D01C0ED525016E000ED6212C
:103B6000036E01C0D7FAD86F0B01276BD0CA26FBB2
:103B7000040E296F330E286F0001FBEC01F002C028
:103B8000DAFA01C0D9FA270E0A010124016E040EE7
:103B90000220036E0150700FE96E020E0320EA6EE0
:103BA000EFCF00F0ECCF01F0ECCF02F0ECCF03F060
:103BB000D8CAEAFFD7CAE9FF00C0EFFF01C0ECFF97
:103BC00002C0ECFF03C0ECFF180ED525016E000EFD
:103BD000D621036E01C0D7FAD86F000101EC11F0B5
:103BE000D8CAEAFFD7CAE9FF02C0ECFFED5201C014
:103BF000EFFF160E0A01D525016E000ED621036EC9
:103C000001C0D7FAD86F00012BEC11F0D8CAEAFF37
:103C1000D7CAE9FF02C0ECFFED5201C0EFFF0B0174
:103C2000276BD0CA26FB040E296F330E286F0001C4
:103C3000FBEC01F002C0D8FA01C0D7FA2B0E0A0142
:103C40000124016E040E0220036E0150700FE96E14
:103C5000020E0320EA6EEFCFD9FAECCFDAFAECCFFE
:103C6000DBFAECCFDCFA0B01276BD0CA26FB040E83
:103C7000296F330E286F0001FBEC01F002C0DEFA61
:103C800001C0DDFA0A0101C001F0020E0224036E38
:103C90000150700F016E020E032201C0DFFA03C053
:103CA000E0FADCCA2DFBDBCA2CFBDACA2BFBD9CA33
:103CB0002AFB03C02FFB01C02EFB0001CFEC05F057
:103CC0000A010001AAEF1EF00A01CF5301E05ED005
:103CD0000B01276BCFCA26FB040E296F330E286F0A
:103CE0000001FBEC01F002C0D1FA01C0D0FA310EA4
:103CF0000A010124016E040E0220036E0150700FB0
:103D0000E96E020E0320EA6EEF5061081FE00B011E
:103D1000276BCFCA26FB040E296F330E286F0001D4
:103D2000FBEC01F002C0D4FA01C0D3FA310E0A0153
:103D30000124016E040E0220036E0150700FE96E23
:103D4000020E0320EA6EEF50770804E1CFCAD0FAE2
:103D50000001D8D50B01276BCFCA26FB040E296FB3
:103D6000330E286F0001FBEC01F001C0D0FA320ED7
:103D70000A010124016E040E0220036E0150700F2F
:103D8000E96E020E0320EA6E010EEF6E0001BBEF3A
:103D900021F00850030828E10A01E331EB6FE2311A
:103DA000EA6FE131E96FE031E86FEB33EA33E93391
:103DB000E833EB33EA33E933E833EB33EA33E9331F
:103DC000E833EB33EA33E933E833EB33EA33E9330F
:103DD000E833EB33EA33E933E833010EEB17E05114
:103DE0007F0BEC6F0BD00001E1CAE8FAE2CAE9FAF6
:103DF000E3CAEAFA0A01EB6BE0CAECFA02011F51CE
:103E00000A01E85D10E1020120510A01E95D0BE1C0
:103E1000020121510A01EA5D06E1020122510A0173
:103E2000EB5DD8B48ED002014E5123250A01ED6F0F
:103E300002014F5124210A01EE6F000E02012521DB
:103E40000A01EF6F000E020126210A01F06F020144
:103E50001F510A01ED25E46F020120510A01EE21F4
:103E6000E56F020121510A01EF21E66F02012251A3
:103E70000A01F021E76FE7CA2DFBE6CA2CFBE5CA71
:103E80002BFBE4CA2AFB0B012F6B170E2E6F0001D0
:103E9000CFEC05F002013B510A01E42702013C513D
:103EA0000A01E52302013D510A01E62302013E51C8
:103EB0000A01E723E7CA2DFBE6CA2CFBE5CA2BFB68
:103EC000E4CA2AFB0B012F6B170E2E6F0001CFECFB
:103ED00005F002014E5123250A01ED6F02014F51F9
:103EE00024210A01EE6F000E020125210A01EF6F65
:103EF000000E020126210A01F06FE851ED25E46F62
:103F0000E951EE21E56FEA51EF21E66FEB51F02127
:103F1000E76FE7CA29FBE6CA28FBE5CA27FBE4CA24
:103F200026FB0B012B6B170E2A6F0001FBEC00F038
:103F3000EBCA22F2EACA21F2E9CA20F2E8CA1FF269
:103F40000A01085003081BE10B01276BECCA26FB92
:103F5000296B040E286F0001FBEC01F00150170FD4
:103F6000E96E000E0220EA6EEE52EE52EC6AED525D
:103F7000EF6AED52EF6AED52EF6A0FD00A01D89066
:103F8000EC35026E036A03360250170FE96E000E1D
:103F90000320EA6EEC6AED52EF6A010E02013F6FF8
:103FA0000001000CD0CAE3FACFCAE2FA0A0E0A01F5
:103FB000E56FD30EE46F0001BEEC0CF002C0DFFA37
:103FC00001C0DEFA0A01DE5305E1DF5303E1000E12
:103FD000016E34D1DFCAF3FADECAF2FAD3CAF4FAB8
:103FE0000001E1EC07F001C0D2FA0A01D2531FE14F
:103FF0000B01276BD3CA26FB040E296F330E286FE3
:104000000001FBEC01F001C0E0FA320E0A010124CC
:10401000016E040E0220036E0150700FE96E020E55
:104020000320EA6E010EEF6E000E016E07D10B0148
:10403000276BD3CA26FB040E296F330E286F0001AD
:10404000FBEC01F001C0E0FA0A0101C0E2FA020E45
:104050000224E36F02012B350A01E46F02012C35C3
:104060000A01E56FE437E537E437E537E437E5374C
:10407000E437E537E00EE417E4510124016EE55121
:10408000E321036E0150700F016E020E032201C086
:10409000D4FA03C0D5FAD4CAE9FFD5CAEAFFE50EBF
:1040A000EF6E010ED16FD15107080BE3036AD151B6
:1040B000D425E96ED5510320EA6E200EEF6ED12B88
:1040C000F2D7D16BD151020810E3036AD151080F26
:1040D000016E000E03220150D425E96ED551032054
:1040E000EA6E200EEF6ED12BEDD70B01276BD3CAF2
:1040F00026FB040E296F330E286F0001FBEC01F044
:1041000002C0E1FA01C0E0FA0A0101C001F0020EAA
:104110000224036E0150700F016E020E032201C0D3
:10412000E2FA03C0E3FA30C22DFB2FC22CFB2EC2F1
:104130002BFB2DC22AFB03C02FFB01C02EFB00016D
:10414000CFEC05F0D3CAF6FA6BEC0BF003C0DDFA46
:1041500002C0DCFA01C0DBFA00C0DAFA0A01DA3D7B
:1041600007D0DB3D05D0DC3D03D0DD510F082DE04D
:10417000D65306E1D75304E1D85302E1D95325E0E1
:10418000DDCA1CFBDCCA1BFBDBCA1AFBDACA19FB43
:104190000001AAEC06F003C0D9FA02C0D8FA01C0A7
:1041A000D7FA00C0D6FADDCAE3FADCCAE2FADBCA03
:1041B000E1FADACAE0FAEDDDD9CADDFAD8CADCFAEA
:1041C000D7CADBFAD6CADAFAC9D7DDCAE3FADCCA3B
:1041D000E2FADBCAE1FADACAE0FA0001DADDDDCAA6
:1041E000FAFADCCAF9FADBCAF8FADACAF7FA0A010B
:1041F000FE6BFD6BFC6BFB6B00017DEC0FF050EC7C
:1042000006F00B01276BD3CA26FB040E296F330E71
:10421000286F0001FBEC01F001C0E0FA320E0A0148
:104220000124016E040E0220036E0150700FE96E2E
:10423000020E0320EA6E010EEF6E016E0001C2EF66
:1042400021F0F86AD08EEA6AE96AC088FF0EC16E72
:10425000C098C29CC29EC088C26EC098D26AD16A01
:10426000056A066A096E0A01C96BCA6B9B8C010E4E
:104270000A6E020EEA6E700EE96ED66B040ED86FEF
:10428000330ED76F000123EC00F006019A6B996B97
:10429000986B976BA36B0A01CE6BCC6BCB6BFF0E4D
:1042A000096ECE6BCD6B988686B673D0CE6B010E41
:1042B000CD6FD30E946EC69A300EC66E000EC76ECA
:1042C000320E0B01336F000132EC00F00A01CC6BAF
:1042D000CB6BCC5317E1CB51090814E3CD5312E05B
:1042E0000A0ECF6F000192EF00F001C0CDFA320E3E
:1042F0000B01336F000132EC00F00A01CB2BD8B474
:10430000CC2BE7D700010CEF02F0015203E0010EC5
:104310000A01CD6F0A01CD5304E1FF0E096E010EB3
:10432000CE6FCE5330E0060ECA6FA30EC96FCF6BAF
:10433000CF51000112EC00F00A01CF2B006ED06FBC
:104340000001D4EF03F00C0E0A01CF5DF1E1060E7F
:10435000D06FA30ECF6F720ED16F000158EF14F023
:1043600001C009F009520EE109C0CFFAE2EF1BF0DB
:1043700009C0CFFAA9D4060E0A01D06FA30ECF6FE1
:10438000000110D60A01FF0E946EC69A000EC66E8A
:0C439000C76E0A6A000100EF28F003006D
:020000040001F9
:06FFF800AEF745FFF8F72B
:00000001FF
;PIC18F67J50
