:020000040000FA
:04000000A7EF10F066
:0800080073EF00F0000000009E
:100010000000000000000000056ED8CF06F0E0CF21
:1000200007F00001E9CF0DF0EACF08F0E1CF09F0C9
:10003000E2CF0AF0D9CF0BF0DACF0CF0F3CF14F007
:10004000F4CF15F0FACF16F0FBCF17F000C00FF089
:1000500001C010F002C011F003C012F004C013F090
:10006000F2AA36EF00F0F2B465EF08F0F0A63CEF2C
:1000700000F0F0B0F1EF07F0F0A842EF00F0F0B2BE
:1000800001EF08F0F2A648EF00F0F2B021EF08F01F
:10009000A3AA4EEF00F0A4BA38EF08F00FC000F0AA
:1000A00010C001F011C002F012C003F013C004F040
:1000B0000E8E0DC0E9FF08C0EAFF09C0E1FF0AC0CB
:1000C000E2FF0BC0D9FF0CC0DAFF14C0F3FF15C06C
:1000D000F4FF16C0FAFF17C0FBFF055007C0E0FF92
:1000E00006C0D8FF10000001E9CF1FF0EACF1AF0D8
:1000F000E1CF1BF0E2CF1CF0D9CF1DF0DACF1EF01C
:10010000F3CF26F0F4CF27F0FACF28F0FBCF29F079
:1001100000C021F001C022F002C023F003C024F08F
:1001200004C025F0F2A898EF00F0F2B2E1EF07F07A
:10013000F0AA9EEF00F0F0B411EF08F09DAAA4EF32
:1001400000F09EBACFEF03F021C000F022C001F012
:1001500023C002F024C003F025C004F0208E1FC08D
:10016000E9FF1AC0EAFF1BC0E1FF1CC0E2FF1DC08F
:10017000D9FF1EC0DAFF26C0F3FF27C0F4FF28C056
:10018000FAFF29C0FBFF1100F2CF0EF0F29CF29EA5
:10019000AA0FF66E010EF722000EF86E0900F55058
:1001A0000EBCF28C0EBEF28E120000000080C0E089
:1001B000F8FEF8E0C080000000000002060E3EFEDF
:1001C0003E0E0602000000000000000000000000DB
:1001D00000000000000000183C3C3C1818001818F3
:1001E00000000066666624000000000000000000B9
:1001F0000000006C6CFE6C6C6CFE6C6C00000018F7
:10020000187CC6C2C07C0686C67C18180000000098
:1002100000C2C60C183066C60000000000386C6CC6
:100220003876DCCCCC7600000018181830000000BE
:100230000000000000000000000C183030303030AA
:10024000180C000000000030180C0C0C0C0C1830BE
:1002500000000000000000663CFF3C66000000005B
:10026000000000000018187E1818000000000000B0
:100270000000000000000018181830000000000006
:10028000000000FE00000000000000000000000070
:10029000000000001818000000000002060C1830D2
:1002A00060C080000000000000386CC6C6D6C6C61C
:1002B0006C38000000000018387818181818187EDC
:1002C00000000000007CC6060C183060C6FE00006E
:1002D0000000007CC606063C0606C67C0000000046
:1002E000000C1C3C6CCCFE0C0C1E0000000000FE40
:1002F000C0C0C0FC0606C67C00000000003860C01C
:10030000C0FCC6C6C67C0000000000FEC6060C1875
:100310003030303000000000007CC6C6C67CC6C647
:10032000C67C00000000007CC6C6C67E06060C78AF
:10033000000000000000181800000018180000005D
:10034000000000001818000000181830000000001D
:10035000000C183060C06030180C00000000000075
:1003600000007E00007E00000000000000603018E9
:100370000C060C18306000000000007CC6C60C188B
:100380001800181800000000007CC6C6DEDEDEDCA7
:10039000C07C000000000010386CC6C6FEC6C6C691
:1003A0000000000000FC6666667C666666FC000075
:1003B0000000003C66C2C0C0C0C2663C0000000035
:1003C00000F86C66666666666CF80000000000FE69
:1003D00066626878686266FE0000000000FE666281
:1003E0006878686060F000000000003C66C2C0C031
:1003F000DEC6663A0000000000C6C6C6C6FEC6C617
:10040000C6C600000000003C181818181818183C40
:1004100000000000001E0C0C0C0C0CCCCC78000072
:10042000000000E6666C6C786C6C66E6000000000C
:1004300000F060606060606266FE0000000000C660
:10044000EEFED6C6C6C6C6C60000000000C6E6F66A
:10045000FEDECEC6C6C600000000007CC6C6C6C60C
:10046000C6C6C67C0000000000FC6666667C606054
:1004700060F000000000007CC6C6C6C6C6D6DE7CA2
:100480000E00000000FC6666667C6C6666E6000096
:100490000000007CC6C660380CC6C67C00000000A8
:1004A000007E7E5A18181818183C0000000000C67C
:1004B000C6C6C6C6C6C6C67C0000000000C6C6C604
:1004C000C6C6C66C38100000000000C6C6C6C6D638
:1004D000D6FE6C6C0000000000C6C6C67C387CC628
:1004E000C6C60000000000666666663C1818183C28
:1004F0000000000000FEC68C183060C2C6FE00007E
:100500000000003C303030303030303C0000000023
:100510000080C0E070381C0E060200000000003CA5
:100520000C0C0C0C0C0C0C3C000010386CC60000C1
:1005300000000000000000000000000000000000BB
:100540000000000000FF0030180C00000000000058
:1005500000000000000000000000780C7CCCCC768D
:100560000000000000E06060786C6666667C000059
:100570000000000000007CC6C0C0C67C0000000077
:10058000001C0C0C3C6CCCCCCC76000000000000B5
:1005900000007CC6FEC0C67C00000000001C363295
:1005A000307C30303078000000000000000076CC55
:1005B000CCCC7C0CCC78000000E060606C76666689
:1005C00066E6000000000018180038181818183CDB
:1005D00000000000000606000E0606060666663CE1
:1005E000000000E06060666C786C66E60000000069
:1005F0000038181818181818183C000000000000DF
:100600000000ECFED6D6D6D60000000000000000A8
:10061000DC666666666600000000000000007CC6BE
:10062000C6C6C67C0000000000000000DC666666EE
:100630007C6060F000000000000076CCCCCC7C0C2C
:100640000C1E000000000000DC76666060F0000018
:100650000000000000007CC6701CC67C000000008A
:1006600000103030FC303030361C0000000000003C
:100670000000CCCCCCCCCC76000000000000000008
:10068000C6C6C66C38100000000000000000C6C6D8
:10069000D6D6FE6C0000000000000000C66C3838A2
:1006A0006CC60000000000000000C6C6C6C67E067C
:1006B0000C78000000000000FECC183066FE000040
:1006C0000000000E181818701818180E000000000E
:1006D00000181818181818181818000000000070D2
:1006E0001818180E1818187000000076DC000000AA
:1006F0000000000000000000000000000010386C46
:10070000C6C6FE000000F2CF0EF0F29CF29EF76A21
:100710002A0FF66E070EF722000EF86E0900F5504C
:100720000EBCF28C0EBEF28E1200204750532530C4
:10073000326400009EAAFED7ACCF2BF0AFCF01F001
:100740002BA202D0AC98AC88D0EF03F00A01215163
:100750002303F3CF01F0F4CF00F02403F35000267D
:1007600022512303F3500020026E0001000C0A0105
:10077000216B21511F0810E3036A21512F0F016ED5
:10078000000E03220150270FE96E090E0320EA6EC6
:10079000FF0EEF6E212BEDD70901A1EF06F0CAD7AE
:1007A00001C020FA0A0120510D0804E10901796B0A
:1007B0004ED30A0109017951F90FD8B048D3070F78
:1007C0000001CAEF07F00A012051240804E1010EDC
:1007D0000901796F7A6B09013AD309017A517A2BB1
:1007E000036A7D0FE96E090E0320EA6E20CAEFFF4F
:1007F0007A51050830E18051470806E181514108EE
:1008000003E1020E796F25D080514D0806E1815138
:10081000430803E1030E796F1CD08051530806E1B1
:100820008151410803E1040E796F13D080515308C0
:1008300006E18151560803E1050E796F0AD0805117
:10084000540806E18151470803E1060E796F01D093
:10085000796B7A6B7B6BFBD20A0120510A0803E0AB
:1008600020512A0804E10901796B62D00A01205164
:100870002C0806E109017B2B7A6B7C6B59D00A01AD
:10088000010E09017B5DF70F53E2090F00012BEF09
:1008900007F009014DD009014BD0090149D00901E8
:1008A00047D0090145D00A012051310804E1010E69
:1008B0000901276F02D00901276B769527B176854C
:1008C00037D009017A5306E1300E0A01205D090193
:1008D0004C6F09D04C510A0DF3CF4CF9300E0A0180
:1008E000205D09014C277A2B23D0090121D00A0170
:1008F00020512D0805E1010E09017C6F17D00A0176
:1009000009017C530AE0300E0A01205D09014D5FA8
:10091000000E4E5B4F5B505B09D0300E0A01205D2C
:1009200009014D27000E4E234F23502301D009010A
:100930008ED20A0120510A0803E020512A0804E15E
:100940000901796BB0D10A0120512C0806E1090197
:100950007B2B7A6B7C6BA7D10A01010E09017B5DB1
:10096000F70FD8B0A0D1090F000170EF07F009010F
:100970007A51FA0F35E2060F000144EF07F0300E0E
:100980000A01205D09012D6F2D510A0DF3CF2DF9BC
:1009900027D0300E0A01205D09012D2721D0300E0D
:1009A0000A01205D09012E6F2E510A0DF3CF2EF999
:1009B00017D0300E0A01205D09012E2711D0300E0C
:1009C0000A01205D09012F6F2F510A0DF3CF2FF976
:1009D00007D0300E0A01205D09012F2701D009013F
:1009E0007A2B61D10A012051410802E00901796B9B
:1009F0000901336B326B316B306B3C6B3B6B3A6B89
:100A0000396B456B446B436B426B4DD109013035FB
:100A10000A01226F090131350A01236F09013235BC
:100A20000A01246F090133350A01256F2237233764
:100A3000243725372237233724372537F80E221756
:100A4000D89009013035006E3135016E3235026EB5
:100A50003335036E00500A0122250901306F015021
:100A60000A0123210901316F02500A0124210901E1
:100A7000326F03500A0125210901336F300E0A013C
:100A8000205D09013027000E3123322333230BD19F
:100A900020CA38F9090107D1090139350A01226F45
:100AA00009013A350A01236F09013B350A01246F18
:100AB00009013C350A01256F2237233724372537B2
:100AC0002237233724372537F80E2217D89009010B
:100AD0003935006E3A35016E3B35026E3C35036E9A
:100AE00000500A0122250901396F01500A01232112
:100AF00009013A6F02500A01242109013B6F03509A
:100B00000A01252109013C6F300E0A01205D09010F
:100B10003927000E3A233B233C23C5D020CA41F994
:100B20000901C1D0090142350A01226F090143358B
:100B30000A01236F090144350A01246F0901453573
:100B40000A01256F223723372437253722372337E9
:100B500024372537F80E2217D89009014235006E48
:100B60004335016E4435026E4535036E00500A016F
:100B700022250901426F01500A0123210901436F17
:100B800002500A0124210901446F03500A01252162
:100B90000901456F300E0A01205D09014227000E50
:100BA0004323442345237FD00A0120512E0804E12A
:100BB000040E09017A6F28D009017A51020824E352
:100BC0004A350A01216F09014B350A01226F21378D
:100BD000223721372237F80E2117D89009014A35DC
:100BE000026E4B35036E02500A01212509014A6F3E
:100BF00003500A01222109014B6F300E0A01205DCA
:100C000009014A27000E4B237A2B4DD009017A5156
:100C1000FA0F47E2060F00015AEF07F0300E0A0103
:100C2000205D09012B6F2B510A0DF3CF2BF939D021
:100C3000300E0A01205D09012B2733D0300E0A0146
:100C4000205D09012A6F2A510A0DF3CF2AF929D014
:100C5000300E0A01205D09012A2723D0300E0A0137
:100C6000205D0901286F296B29C922FA28C921FAB8
:100C70000A01246B0A0E236F000168DD02C029F906
:100C800001C028F909010DD0300E0A01205D0901CB
:100C90002827000E2923D00E2827070E292301D04C
:100CA000090101D00901D3D00A0120510A0803E04B
:100CB00020512A0804E10901796B43D00A0120512F
:100CC0002C0806E109017B2B7A6B7C6B3AD00A0178
:100CD000010E09017B5DF20F34E20E0F000189EF76
:100CE00007F045D5300E0A01205D0901556F29D066
:100CF00009017A5306E1300E0A01205D0901216FD6
:100D00001DD07A2D1BD021510A0DF3CF21F9300EC1
:100D10000A01205D09012127215120080FE3010E5E
:100D2000215D036A2F0F016E000E03220150270F71
:100D3000E96E090E0320EA6E800EEF6E7A2B01D069
:100D4000090185D00A0120510A0803E020512A0830
:100D500004E10901796B75D00A0120512C0806E1E4
:100D600009017B2B7A6B7C6B6CD00A01010E0901A7
:100D70007B5DED0F66E2130F0001A7EF07F009019D
:100D8000216B226B5ED009015CD009015AD00901A8
:100D90007A5307E1300E0A01205D0901216F226BB1
:100DA0001FD07A2D1DD021510A0DF3CF21F9300E1D
:100DB0000A01205D090121272151200811E3215357
:100DC0000FE0010E215D036A2F0F016E000E03225A
:100DD0000150270FE96E090E0320EA6E22C9EFFFCA
:100DE0007A2B2FD009012DD009012BD009017A537C
:100DF00006E1300E0A01205D0901226F1FD07A2D15
:100E00001DD022510A0DF3CF22F9300E0A01205DC8
:100E1000090122272151200811E321530FE0010E7F
:100E2000215D036A2F0F016E000E03220150270F70
:100E3000E96E090E0320EA6E22C9EFFF7A2B01D07A
:100E4000090105D009017687796B01D009019E9AC5
:100E50000001A4EF00F0E824F76AF736770FF66E8A
:100E60000E0EF726000EF86EFB6E0A00F550FA6EB5
:100E70000800F550F96E920896089A089E08A20894
:100E8000A608C208EA08EE08E824F76AF736A90FB0
:100E9000F66E0E0EF726000EF86EFB6E0A00F55089
:100EA000FA6E0800F550F96E7E0992099E09B209A2
:100EB000BE09D209E824F76AF736D50FF66E0E0E92
:100EC000F726000EF86EFB6E0A00F550FA6E080069
:100ED000F550F96E1C0C300C3C0C500C5C0C880C62
:100EE000E824F76AF736010FF66E0F0EF726000EAC
:100EF000F86EFB6E0A00F550FA6E0800F550F96EB8
:100F00006E09E4090C0A900A980A1C0B240BA80B22
:100F10000C0CE824F76AF736330FF66E0F0EF7263F
:100F2000000EF86EFB6E0A00F550FA6E0800F550E0
:100F3000F96EE20CE40CF00CF00CF00CF00CF00C80
:100F4000F00CF00CF00CF00CF00CF00CF00CE824B1
:100F5000F76AF7366F0FF66E0F0EF726000EF86E73
:100F6000FB6E0A00F550FA6E0800F550F96E7E0D22
:100F7000860D8A0D8E0DE40DE80DEC0D8E0DE40D41
:100F8000E80DEC0D8E0DE40DE80DEC0D8E0DE40D6D
:100F9000E80DEC0DE824F76AF736B50FF66E0F0E84
:100FA000F726000EF86EFB6E0A00F550FA6E080088
:100FB000F550F96EC607DA0758083209A80C440D37
:100FC000440EFF0E936E81CF0BF798908F80010E29
:100FD00007010E6FF40E0D6FF292F2920001A4EF72
:100FE00000F0FF0E936E81CF0BF798908F80010E6B
:100FF00007010E6FF40E0D6FF090F09000014EEFB0
:1010000000F0FF0E936E81CF0BF798908F80010E4A
:1010100007010E6FF40E0D6FF092F09200014EEF8B
:1010200000F0FF0E936E81CF0BF798908F80010E2A
:1010300007010E6FF40E0D6FF094F0940001A4EF11
:1010400000F0FF0E936E81CF0BF798908F80010E0A
:1010500007010E6FF40E0D6F0BB106D00C5302E0BA
:10106000000E01D0010E0C6FF29000014EEF00F067
:10107000A4AAFED7AACF1CFA0A010901862BD8B46C
:10108000872B0A011C510D081CE01C510A0819E0AD
:101090000901C851C82B036A880FE96E090E0320A5
:1010A000EA6E1CCAEFFFC8511A0801E2C86B036A56
:1010B000C851880FE96E090E0320EA6E2A0EEF6E02
:1010C0000A01A49A00014EEF00F0150ED76EB80E7B
:1010D000D66E07010D510E1104E00D51D8B40E0764
:1010E0000D070F5301E00F07102BD8B4112B93807D
:1010F00081B004D0122BD8B4132B02D0136B126B17
:10110000F29400014EEF00F0090EEA6EF50EE96E62
:10111000EF500EE00F0E016E006A002EFED7012E7A
:10112000FBD78F0E006E002EFED70000EF2EF2D7F9
:10113000000C8C928C80966A13CA8DFF8C900000F4
:101140008C80000C8C828C80966A13CA8DFF8C90E8
:1011500000008C80000C0901F46B2C6A2D6A316A46
:10116000306AFF0E2F6E2E6E700E956E8C948C96DC
:10117000010EF56F0001C8DF8C968C868C808C8206
:101180008C940A0E0901F56F0001BEDF0A01136B92
:101190000001CFDF010E0A01136F0001CADF780ED4
:1011A0000901F56F0001B0DF110E0A01136F000194
:1011B000C0DF290E0A01136F0001BBDF130E0A0105
:1011C000136F0001B6DF380E0A01136F0001B1DFA3
:1011D0003A0E0A01136F0001ACDF050E0A01136F0E
:1011E0000001B0DF360E0A01136F0001A2DFA80E66
:1011F0000A01136F0001A6DF2D0E0A01136F000113
:1012000098DF0901F46BF4511F080AE3D890F43514
:10121000F56FE8CF13FA000195DF0901F42BF3D73E
:10122000F46BF4513F0807E3F4C913FA00018ADFB5
:101230000901F42BF6D7F46BF4511F080AE3D89098
:10124000F435F56FE8CF13FA00017CDF0901F42BC8
:10125000F3D70001D3EF11F02A0E0A01136F00013A
:1012600068DF0A01136B00016DDF0FCA13FA6ADF32
:101270000A01136B000166DF11CA13FA63DF2B0E3C
:101280000A01136F000155DF0A01136B00015ADFD9
:1012900010CA13FA57DF0A01136B000153DF12CA99
:1012A00013FA50DF000C8C940A010F6B106BCF0EF9
:1012B000116FAF0E126F0001CFDF2C0E0A01136FFA
:1012C000000137DF8C820901F56BF46BF5518E0854
:1012D0000EE3966A2FC08DFF8C908C80966A2EC08C
:1012E0008DFF8C908C80F42BD8B4F52BEFD78C84A9
:1012F0000001D5EF11F0080E016E020E006E002EF7
:10130000FED78C9C959C020E006E002EFED7090124
:10131000F6378C9AD8B0958AD8A0959A958C83ACDC
:10132000FED7012E01D002D00001E7D7020E006ED9
:10133000002EFED78C9C959C0000958A020E006EB4
:10134000002EFED7020E006E002EFED7958C83ACC9
:10135000FED7016A020E006E002EFED783BA01800E
:101360008C9C959C8C9A959A0001000C958A020E93
:10137000006E002EFED7958C020E006E002EFED75A
:101380008C9A959A020E006E002EFED78C9C959C2E
:10139000220E0901F66F0001AEDF015003E0AA0E34
:1013A000016E1DD0F4C9F6F9A6DF015003E0AB0EC3
:1013B000016E15D0F5C9F6F99EDF959A0000958C5F
:1013C00083ACFED7020E006E002EFED700D00000C8
:1013D000958A020E006E002EFED7000E016EE3EF1E
:1013E00011F08E0E006EF7C901F0F6C902F0036A23
:1013F000015209E102C001F0026A080E005E0152CA
:1014000002E1006A08D0D89001BE04D0023601364D
:101410000006F9D7019E63EF0BF00A010551D8B41D
:1014200071D0006E0951D8B46DD0002604E3810E4E
:10143000002668E204D07F0E005E64E363E006CA23
:101440000DFA0A510D1B068F0A8F08510C03F4CFB9
:101450000FFA07510B03F4CF03F0F3CF0EFA0C038E
:10146000F3500F27F4500E23000E032208510B03F4
:10147000F3500F27F4500E23000E026A03220222BB
:1014800006510C03F3500E27F4500322000E0222E3
:1014900006510B03F3500326F4500222000E016A9A
:1014A000012208510A03F3500E27F4500322000EC4
:1014B0000222012207510A03F3500326F4500222AC
:1014C000000E012206510A03F3500226F4500122B5
:1014D000002A01BE05D00E3703360236013600065B
:1014E000000E0EAF0AD0032A02220122015005E1AC
:1014F000025003E1035001E1002A0DBF018E0DAF40
:10150000019E04D0006A016A026A036A0001000CAD
:101510000901FE51D8B4B4D00A010A6F0251D8A40F
:1015200002D00901ADD00A5F07E37F0E0A27D8A0D9
:1015300002D00901A5D00AD0810E0A5FD8B002D02E
:1015400009019ED0D8A402D009019AD00ACA00F09D
:10155000016A026A036A096BFFC908FA088F00CAA8
:1015600007FA01CA06FA190E0A6F0551065F0DE265
:10157000010E075F0AE2085F08E2095F06E2092B35
:10158000082B072B0551062728D00451075F12E2CC
:10159000010E085F0FE2095F0DE2092B082B0451D1
:1015A00007270551062719E3072B17E1082B15E13B
:1015B000092B13D003518009085F0EE2010E095F69
:1015C0000BE2092B03518009082704510727E9E39F
:1015D000082BE7E1092BE5D703800A2F01D00BD0B8
:1015E000D8900637073708370937D89003360236C0
:1015F00001360B37BAD70BA106D0D8900132023290
:1016000003320B3304D0002E02D0090139D00BBFB6
:101610001ED0D89006370737083709370551065FBF
:1016200007E2010E075F04E2085F02E2095F1DE3C3
:101630000451075F05E2010E085F02E2095F15E34E
:1016400003518009085F03E2010E095F0EE3032ADC
:101650000CE1022A0AE1012A08E1002AD8A402D0FA
:1016600009010ED0013202320332FFC90AFA0351D6
:101670000A1B0AAF02D0018E08D0019E06D00901D4
:10168000006A016A026A036A0A010001AEEF0BF008
:10169000000E016EC250C30B0110C26E0901F56B42
:1016A000F46B270E006E002EFED700D0C282C2B2AD
:1016B000FED7C3CFF4F9C4CFF5F9F5C9F7F9F4C9EA
:1016C000F6F900018ED603C0E3F902C0E2F901C0C9
:1016D000E1F900C0E0F9E3C908FAE2C907FAE1C993
:1016E00006FAE0C905FA06C70CFA05C70BFA04C7E3
:1016F0000AFA03C709FA91DE00C0F6F901C0F7F94A
:1017000002C0F8F903C0F9F903C008FA02C007FAE9
:1017100001C006FA00C005FA0A010C6B0B6B0A6BDC
:10172000800E096F000179DE00C0FAF901C0FBF9F3
:1017300002C0FCF903C0FDF903C001FA02C000FABF
:1017400001C0FFF900C0FEF90A01056BFF0E046F2E
:101750007F0E036F8E0E026F0001DAD603C0E3F92D
:1017600002C0E2F901C0E1F900C0E0F9C0EF0BF0FE
:10177000979E8E9E0A0E0901F56F0001C5DC88D781
:10178000979A8E8A030E0901F56F0001BDDC040EE5
:10179000016EC250C30B0110C26E0A0E0901F56F33
:1017A0000001B2DCC282C2B2FED7C4CFCAF90901BD
:1017B000C3CFC9F9CA33C933CA33C933CA33C933EA
:1017C000CA33C933CA33C933CA33C933030ECA173C
:1017D000080E016EC250C30B0110C26E010EF56FF0
:1017E000000192DCC282C2B2FED7C4CFCCF909019B
:1017F000C3CFCBF9CC33CB33CC33CB33CC33CB339C
:10180000CC33CB33CC33CB33CC33CB33030ECC17ED
:10181000979A8E9A0001000C02CA2CF003CA2DF090
:10182000000C0A010751016A065D03E206CA00F0D6
:101830000CD0006A080E086F063700360751005CAE
:10184000D8B0006E0136082FF7D70001000C2C6AC3
:101850000E0E2D262D50B00802E20E0E2D5EBFEFAB
:101860000CF08C940A0107517F08D8A075D01E0E89
:10187000075F0C6B07CA0BFA196AF2BC198CF29C51
:10188000F2BE198EF29E0CCA22FA0BCA21FA246B00
:101890000E0E236F0001A6EC03F019BCF28C19BEEA
:1018A000F28E02C00CFA01C00BFA070E2C240A01BA
:1018B0000D6F0D0E2D240E6F2CC00FFA2DC010FAD7
:1018C0000DCA11FA126F0001C7DC2C0E0A01136F4A
:1018D00000012FDC8C820A01086B08510D083CE3E3
:1018E0000CCA03F00B510B2BD8B40C2B0D6F03C09B
:1018F0000EFA03C003F00D51F2CF0FFAF29CF29EE4
:1019000003C0F7FF0001C4EC00F00A010FBDF28C28
:101910000FBFF28E0A6F096B095107081BE30AAF6C
:101920000BD0966A31C08DFF8C908C80966A30C047
:101930008DFF8C908C800AD0966A2FC08DFF8C9082
:101940008C80966A2EC08DFF8C908C80D8900A3740
:10195000092BE2D7082BC1D78C84080E2C26000156
:10196000BFEF0CF00A0106510A0802E100016FD72F
:1019700006510D0805E006CA07FA000172D70A01F0
:101980000001000C200E0A0101A9300E026F00CAEE
:1019900000F000AF07D0001E002A00C000FA2D0E94
:1019A000026F018F015000CA06FA640E076F000132
:1019B00038DF00C000FA300E01240A01036F00CAAC
:1019C00006FA0A0E076F00012CDF300E00240A0110
:1019D000056F300E0124046F02CA00F001A702D087
:1019E00001AF019501B90BD001AF22D001B520D0D4
:1019F00000C003FA01B31CD000C004FA19D0300EA5
:101A0000035D16E100C003FA200E026F01A704D0A7
:101A10000195018301AF0193300E045D09E100C01F
:101A200004FA200E036F01A7F7D7019301AF0191CC
:101A300001A505D002CA06FA000194DF0A0101A33C
:101A400005D003CA06FA00018DDF0A0101A104D006
:101A500004CA06FA000186DF05CA06FA000182DF21
:101A6000000C0A010551B608056F036A06CA09FA97
:101A7000068FD8900633073308330332023201321F
:101A80000032052FF6D709AF0BD0001E011E021E33
:101A9000031E002AD8B4012AD8B4022AD8B4032AD3
:101AA0000001BFEF0DF0006A016A026A036A0A01D1
:101AB0000D6B0E6B0F6B106B0C510B110A11091192
:101AC0002CE0200E116FD8900537063707370837FE
:101AD0000D370E370F3710370C51105D08E10B51E1
:101AE0000F5D05E10A510E5D02E109510D5D0FE345
:101AF00009510D5F0A51D8A00A3D0E5F0B51D8A0C5
:101B00000B3D0F5F0C51D8A00C3D105FD880003604
:101B1000013602360336112FD6D70A0EEA6E0D0EA5
:101B2000E96E0001000CE9500901FD6FFC51FF6FE7
:101B30001CE0FBC908FAFAC907FAF9C906FAF8C99C
:101B400005FA0A010C6B0B6B200E0A6F820E096FEF
:101B5000000163DC03C0FBF902C0FAF901C0F9F926
:101B600000C0F8F90901FF2FE4D7FBC908FAFAC948
:101B700007FAF9C906FAF8C905FA000172D703C0D5
:101B8000FBF902C0FAF901C0F9F900C0F8F909013E
:101B9000FBAF0DD0FD07FD8BF81FF91FFA1FFB1FD0
:101BA000F82BD8B4F92BD8B4FA2BD8B4FB2B3B0EB6
:101BB0000A01046F9A0E036FCA0E026F016B0A0EC0
:101BC0000901FF6FFC51D8B4FD2BFBC908FAFAC913
:101BD00007FAF9C906FAF8C905FA04CA0CFA03CAE1
:101BE0000BFA02CA0AFA01CA09FA00015CDF0150C5
:101BF000EFCFF8F9ECCFF9F9ECCFFAF9ECCFFBF92C
:101C0000005213E10901FC29FF5DD8A402D00001B4
:101C10000CD0FD510DE00F0BFF5D01E042E2FDBF76
:101C200040D0FDBD05D0200E37D0200E0901FD1794
:101C3000FDAB0FD0FD9BFC51D8A4FD070050FD6FFC
:101C40002D0E0A01066F00018DDE0901FD51006EA7
:101C5000FD6BFC51FF5D0DE10050FD6F2E0E0A0182
:101C6000066F00017FDE0901FD51006E200EFD1799
:101C7000000E300EFDAB10D0FD9BFC51D8A4FD072B
:101C80000050FD6F2D0E0A01066F00016BDE090189
:101C9000FD51006EFD6B300E002600C006FA0001FB
:101CA00061DE04CA08FA03CA07FA02CA06FA01CAC0
:101CB00005FA0A010C6B0B6B0A6B0A0E096F000127
:101CC000F2DE03C004FA02C003FA01C002FA00C047
:101CD00001FA0901FF2F79D70001A6EF0FF08C94CC
:101CE00005CA0FFA06CA10FA07CA11FA08CA12FA88
:101CF0002CEC09F02C0E0A01136F000199EC08F08E
:101D00008C820A010551075D010F116B106F06519E
:101D1000085D010F036A136F03C014FA196AF2BC5D
:101D2000198CF29CF2BE198EF29E11CA22FA10CAC8
:101D300021FA03C024FA236F0001A6EC03F019BCBA
:101D4000F28C19BEF28E02C00EFA01C00DFA0A0121
:101D50000C6B0B6B0C510E5D12E303E10D510B5D2F
:101D60000EE2966A0ACA8DFF8C908C80966A09CA28
:101D70008DFF8C908C800B2BD8B40C2BEBD78C84E4
:101D80000001000CF80E0901FE6FFD6B036AFA51A9
:101D90002F0F016E000E03220150270FE96E090E6E
:101DA0000320EA6EEFCFFCF9FC517F0804E3C60E76
:101DB000FE6F180EFD6FFC9FFCC9FBF9FB5131084B
:101DC00002E2320EFB6FD890FB33060EF825FF6F50
:101DD0000E0EF95D0A01006FFFC902FA036F0001E0
:101DE0001BDD010E0901FA25FF6FE8CF00FA010E95
:101DF0000A01016F0001C6DD200E0901F95DE70F40
:101E00000A01006F170E0901F8250A01016F100E73
:101E10000901F95DD880FB55FF0F0A01046FF8C96D
:101E200005FA00CA06FA01CA07FA086F2FC00AFAB3
:101E30002EC009FA000153DF100E0901F95DD880A8
:101E4000FB55FF0F0A01016F170E0901F8250A0162
:101E5000026F100E0901F95D0A01036FF8C905FA56
:101E600001CA06FA02CA07FA086FFEC90AFAFDC9D2
:101E700009FA000134DF060E0901F825FF6F200E74
:101E8000F95DD880FB550A01016FFFC902FA036FA3
:101E90000001C2DCFCC900FA010E0A01016F000159
:101EA00071DDDBEF0FF00901F56B0A01026B036BCB
:101EB0000001B2DC2DC900FA010E0A01016F000118
:101EC00061DD3A0E0A01066F00014CDD2EC900FAF1
:101ED000010E0A01016F000155DD3A0E0A01066F7D
:101EE000000140DD2FC900FA010E0A01016F000157
:101EF00049DD0901F86BF851000183EC03F0090199
:101F0000F82B006EE8CF06FA00012CDD040E090163
:101F1000F85DF1E14CC900FA010E0A01016F000100
:101F200031DDB00E0A01026F036B000175DC020E99
:101F3000E96EE3C9FBF9E2C9FAF9E1C9F9F9E0C9C7
:101F4000F8F9010E0901FC6F0001EDD5560E0A01EA
:101F5000066F000107DD0901F46BF4511F0833E33C
:101F6000036AF4512F0F016E000E03220150270F58
:101F7000E96E090E0320EA6EEF3C01D022D0F5C9CC
:101F800006FA060E0A01076F00014BDC00501E0D19
:101F9000F350120F0901F66FF551050802E2AE0E7B
:101FA00001D05E0EF76FF6C9F8F9F7C9F9F9F4C96F
:101FB000FAF90001E7D60901F52BF5510C0801E209
:101FC00002D0F42BCAD7F5C9F4F9F4510B082CE36D
:101FD000F4C906FA060E0A01076F000122DC005060
:101FE0001E0DF350120F0901F66FF451050802E2BD
:101FF000AE0E01D05E0EF76F200EF75DE70FF96FA2
:10200000170EF625FA6FF6C905FAF9C906FAE8CFF0
:1020100007FAF7C908FA2FC00AFA2EC009FA000118
:102020005EDE0901F42BD1D70001000CE950090153
:10203000FC6FFBAF0DD0FC07FC8BF81FF91FFA1FDC
:10204000FB1FF82BD8B4F92BD8B4FA2BD8B4FB2B40
:102050003B0E0A01036F9A0E026FCA0E016F006BEE
:102060000A0E0901FE6FFBC908FAFAC907FAF9C995
:1020700006FAF8C905FA03CA0CFA02CA0BFA01CA31
:102080000AFA00CA09FA00010EDD0150EFCFF8F993
:10209000ECCFF9F9ECCFFAF9ECCFFBF9005213E1F0
:1020A0000901FE51010AD8A402D000010CD0FC5154
:1020B0000DE00F0BFE5D01E02CE2FCBF2AD0FCBD61
:1020C00005D0200E21D0200E0901FC17FCAB0CD04E
:1020D000FC9B00C0FCF92D0E0A01066F000142DCDA
:1020E0000901FCC900F0FC6B300EFCAB0DD0FC9B71
:1020F00000C0FCF92D0E0A01066F000133DC090156
:10210000FCC900F0FC6B300E002600C006FA00018E
:1021100029DC03CA08FA02CA07FA01CA06FA00CA89
:1021200005FA0A010C6B0B6B0A6B0A0E096F0001B2
:10213000BADC03C003FA02C002FA01C001FA00C00F
:1021400000FA0901FE2F8FD700012DEF12F0F86A77
:10215000F194F09CF09EF1909F8AA59AD08E0D8EFE
:10216000EA6AE96A7E964D0EB06EA60EAD6E900ECE
:10217000AC6E7C96190EAB6EA60EA86E900E9C6E81
:10218000C150C00BC16E070EB46E2B6A326A336A3F
:10219000460E0601C96F410ECA6F540ECB6F3F0E3B
:1021A000CC6FCD6BCE6B460ECF6F410ED06F540E01
:1021B000D16F310ED26F320ED36FD46B460ED56F06
:1021C000410ED66F540ED76F310ED86F360ED96FC1
:1021D000DA6B460EDB6F410EDC6F540EDD6F330E93
:1021E000DE6F320EDF6FE06BFF0EE26F800E0701D5
:1021F000036F3E0E046FEE0E056F630E066F850EC5
:10220000076F4B0E086FEB0E096F850E0A6F010EFC
:102210000C6FF40E0D6F010E0E6F640E0F6F106BCE
:10222000116B126B136B0901186B196B1A6B1B6B1B
:102230001C6B1D6B1E6B1F6B206B236B246B256B44
:10224000266B010E766F776B786B796B7A6B7B6B95
:102250007C6B7D6B7E6B7F6B806B816B866B876B22
:10226000886B896B8A6B8B6B8C6B8D6B8E6B8F6BBA
:10227000906B916B926B936B946B956B966B976B6A
:10228000986B996B9A6B9B6B9C6B9D6B9E6B9F6B1A
:10229000A06BA16BA26BA36BA46BA56BA66BA76BCA
:1022A000A86BA96BAA6BAB6BAC6BAD6BAE6BAF6B7A
:1022B000B06BB16BB26BB36BB46BB56BB66BB76B2A
:1022C000B86BB96BBA6BBB6BBC6BBD6BBE6BBF6BDA
:1022D000C06BC16BC26BC36BC46BC56BC66BC76B8A
:1022E000C86BE46BE56BE66BE76BF06BF16BF26B65
:1022F00097948E849B8CF19EC150C00B0B09C16ECC
:10230000C050C00B0209C06EC08EC280C28EC28295
:10231000C2B2FED7C29EB098930E946EAC8E9C8EC5
:10232000C69A300EC66E000EC76ED190800ED56E66
:10233000000E0409CA6EFF0ECB6EB150480B950912
:10234000B16E000E766E000E776E070EB46E97506B
:10235000270E006E002EFED700D0B450A19CB56AA7
:10236000150ED76EB80ED66E9D8AA38AF288F086B7
:10237000F088F08AF286F28AC00EF21297968E8664
:102380008C9E010ECE6F98988F98020EF56F00010B
:1023900084EC08F09888320E0901F56F000184EC96
:1023A00008F0ABEF08F053EF09F0640E0901F56F88
:1023B000000184EC08F0030E0901F46F0C0EF56FB8
:1023C0000001B6EF09F0050E07010E6FDC0E0D6F70
:1023D0000001B8EC0BF092988988090176A704D027
:1023E000000161DD0901769707010F5304E0000148
:1023F000F4D706D00701640E0F6F0001B8EC0BF0A4
:1024000052DD0A01026BA00E036F00010CEC0CF010
:102410000901E7C903F0E6C902F0E5C901F0E4C922
:1024200000F0010EE427D8B0E52BD8B4E62BD8B4E1
:10243000E72B03C0F7F902C0F6F901C0F5F900C0B7
:10244000F4F9440EE96E03C0FBF902C0FAF901C0C9
:0E245000F9F900C0F8F90001E9D5BFD7030083
:020000040001F9
:06FFF800AEF7C5FFF8F3AF
:00000001FF
;PIC18F67J50
