:020000040000FA
:040000009CEF25F05C
:080008000A6613EF00F004EF9B
:1000100028F00000000000000A661BEF00F00CEF63
:1000200028F0000CF76A380FF66E000EF722000E6B
:10003000F86E0900F5501200000000000000005F9B
:1000400000000007000700147F147F14242A7F2A71
:10005000122313086462364955225000050300003C
:10006000001C2241000041221C0014083E08140814
:10007000083E080800503000000808080808006022
:1000800060000020100804023E5149453E00427FB6
:10009000400042615149462141454B311814127FBD
:1000A0001027454545393C4A494930017109050346
:1000B0003649494936064949291E003636000000AE
:1000C0005636000008142241001414141414004180
:1000D0002214080201510906324979413E7E11116C
:1000E000117E7F494949363E414141227F414122AB
:1000F0001C7F494949417F090909013E4149497A23
:100100007F0808087F00417F41002040413F017F78
:10011000081422417F404040407F020C027F7F0450
:1001200008107F3E4141413EF76A3C0FF66E010EDA
:10013000F722000EF86E0900F55012007F09090938
:10014000063E4151215E7F091929464649494931F8
:1001500001017F01013F4040403F1F2040201F3FE1
:100160004038403F63140814630708700807615162
:10017000494543007F4141000204081020004141ED
:100180007F0004020102044040404040000102049C
:100190000020545454787F48444438384444442020
:1001A000384444487F3854545418087E0901020CDE
:1001B0005252523E7F0804047800447D40002040A3
:1001C000443D007F1028440000417F40007C04181B
:1001D00004787C0804047838444444387C141414AB
:1001E00008081414187C7C0804040848545454204B
:1001F000043F4440203C4040207C1C2040201C3CCC
:100200004030403C44281028440C5050503C44643A
:10021000544C44000836410000007F000000413685
:10022000080010080810087846414678F76A400F21
:10023000F66E020EF722000EF86E0900F55012005D
:1002400053572055706461746500F76A5E0FF66E4F
:10025000020EF722000EF86E0900F5501200496EEA
:1002600076616C69642046696C650000F76A800FEE
:10027000F66E020EF722000EF86E0900F55012001D
:1002800046696C6520636F727275707465640000F6
:10029000F76AA40FF66E020EF722000EF86E090040
:1002A000F55012004C6F6164696E672E2E2E0000AF
:1002B000F76AC40FF66E020EF722000EF86E090000
:1002C000F5501200424F4F54204C4F4144455200CC
:1002D000F76AE40FF66E020EF722000EF86E0900C0
:1002E000F55012004750534C4F4753572E42494E3A
:1002F0000000F76A060FF66E030EF722000EF86E86
:100300000900F5501200466F756E64204750534C3B
:100310004F4753572E42494E0000F76A2E0FF66E94
:10032000030EF722000EF86E0900F5501200535725
:100330002075706461746520636F6D706C657465A1
:10034000642E0000F76A580FF66E030EF722000EB7
:10035000F86E0900F5501200506C656173652072EB
:10036000657374617274206465766963652E00003C
:100370000A01DE6BDD6BDE5101080FE303E1DD51A5
:10038000F7080BE3E30EDD25E96E080EDE21EA6EC9
:10039000EF6ADD2BD8B4DE2BEED70001000C0B0189
:1003A00061516303F3CF01F0F4CF00F06403F35025
:1003B000002662516303F3500020026E0001000C1E
:1003C0000A01DC6B60CBDBFADCCA62FBDBCA61FBD7
:1003D0000B01646B540E636F0001E1DF02C0DCFAB5
:1003E00001C0DBFA0B015F510A01DB27000EDC23A1
:1003F0000001000C0A01E45303E00B01611F0A0134
:10040000DCCA03F0DB51DB2BD8B4DC2B0B01626FB1
:10041000E30E6225E96E080E0320EA6E61CBEFFF62
:100420000001000C0A01E2511F0801E351D0E25122
:100430007F0801E24DD0E16BE151040844E3E25151
:100440004F081CE3E251E00F050DF350E06BDF6F46
:10045000E151DF250B01616F000E0A01E0210B0164
:10046000626F036E6151F2CF63FBF29E0001DADD31
:100470000B0163BFF28EE8CFE3FA0A01E2514F08A5
:100480001BE2E251B00F050DF350E06BDF6FE1515D
:10049000DF250B01616F000E0A01E0210B01626F85
:1004A000036E6151F2CF63FBF29E00013DDE0B0152
:1004B00063BFF28EE8CFE3FAE3CA61FB00019ADF83
:1004C0000A01E12BB9D70B01616B000193DF0A012F
:1004D00000016EEF02F060CBE2FAA4D7000C070E29
:1004E0000B01636F63BF13D0839000D000D062CB49
:1004F00000F06351016E04E0D8900032012EFCD769
:1005000000A0839200B0838283806307EBD7000151
:10051000000CE00E956E8394839661CB62FBDFDF67
:100520008386EF0E956E000C400E0B01616F00018B
:10053000F0DF800E0B01616F0001EBDFE00E956EC6
:10054000838483960B01606B5F6B6051010815E338
:1005500003E15F51F70811E3E30E5F25E96E080E32
:100560006021EA6EEFCF61FB61CB62FB0001B7DF78
:100570000B015F2BD8B4602BE8D78386EF0E956E06
:100580000001000C0B0EEA6E600EE96EEF500DE0FC
:10059000020E016E006A002EFED7012EFBD7970EC9
:1005A000006E002EFED7EF2EF3D7000C0A01F26783
:1005B00003D0F36702D007D0F32BF1CAEEFFF22F7E
:1005C000FCD7F32FFAD70001000CE00E956E0A015C
:1005D000E46B850E006E002EFED783848386850E25
:1005E000006E002EFED78398FA0E0B01606F00019B
:1005F000C9DF8388210E0B01616F00018ADFBE0E07
:100600000B01616F000185DF130E0B01616F0001AB
:1006100080DF200E0B01616F00017BDF090E0B01F3
:10062000616F000176DF320E0B01606F0001AADFFF
:100630009FDE0A0E0B01606F0001A4DF080E0B01A4
:10064000616F000166DF0A0E0B01606F00019ADF27
:100650000C0E0B01616F00015CDFEF0E956E57EF22
:1006600026F00B015E6B5E510F0807E3C950FF0EC9
:10067000C96EC7A0FED75E2BF6D7C95056CBC9FFAF
:10068000C7A0FED75ACB60FBC9505ACBC9FFC7A041
:10069000FED759CB60FBC95059CBC9FFC7A0FED7C5
:1006A00058CB60FBC95058CBC9FFC7A0FED757CB6A
:1006B00060FBC95057CBC9FFC7A0FED7C950950EE4
:1006C000C96EC7A0FED75E6B5B515E5D11E2C9507B
:1006D000FF0EC96EC7A0FED7C9CF5FFB5C515F5D3F
:1006E00001E106D05D515F5D01E102D05E2BECD7E8
:1006F0005FCB01F00001000C0A01ED6B8B94640EDE
:100700000B01606F00013EDF0A01ED6BEB51ED5D07
:100710002FE28B84140E0B01606F000133DF0A019E
:10072000EC6BEC51130807E3C950FF0EC96EC7A06C
:10073000FED7EC2BF6D78B94140E0B01606F0001E3
:1007400021DF400E0B01566F5A6B596B586B576B7C
:10075000800E5B6F010E5C6F990E5D6F000181DF93
:1007600001C0EEFA0A01EE2D01D002D0ED2BCED75A
:10077000EB51ED5D04E38B84300E016E23D0ED6B05
:10078000EB51ED5D16E2410E0B01566F5A6B596B42
:10079000586B576B800E5B6F5C6B990E5D6F000141
:1007A00060DF01C0EEFA0A01EE5301E102D0ED2B49
:1007B000E7D78B84EB51ED5D03E3310E016E02D080
:1007C000000E016E00018EEF26F08B94010E0B01DE
:1007D000606F0001D7DED8900B01506B4435516F2C
:1007E0004535526F4635536F510E566F53CB5AFBFA
:1007F00052CB59FB51CB58FB50CB57FB100E5B6FC4
:100800005C6B400E5D6F00012CDF01C04AFB0B01E9
:100810004A51400805E18B84110E016E45D006D087
:100820004A5304E08B84100E016E3ED04E6B4D6B2C
:100830004E5103080FE3C950FF0EC96EC7A0FED783
:10084000C9CF4AFB4A51FE0801E104D04D2BD8B470
:100850004E2BEED74A51FE0804E08B84120E016E37
:1008600023D04C6B4B6B4C51010811E348514B2585
:10087000E96E49514C21EA6EC950FF0EC96EC7A0FE
:10088000FED7C9CFEFFF4B2BD8B44C2BECD7C950B8
:10089000FF0EC96EC7A0FED7C950FF0EC96EC7A014
:1008A000FED78B84000E016E0001000C016A026A03
:1008B000006A036A0B01035102E1025118E0100EB5
:1008C000046FD89000370137003603360351035CBC
:1008D00002E10251005C07E30251005ED8A003066A
:1008E0000351035ED88001360236042FEAD7000197
:1008F00062EF05F00B01416B426B010E436FDA6A48
:10090000D96A0B0E466F390E456F0B0EEA6E3D0E1F
:10091000E96E46CBE2FF45CBE1FF43CB44FBD890E9
:10092000E550EE02F3504123F4504223442FF7D711
:1009300041CBDEFF42CB41FB426BD8B0422B452B73
:10094000D8B4462B432B43510508DFE10001000CCE
:10095000006A016A026A036A0B01176B186B196B54
:100960001A6B16511511141113112CE0200E1B6F68
:10097000D8900F3710371137123717371837193704
:100980001A3716511A5D08E11551195D05E1145128
:10099000185D02E11351175D0FE31351175F1451F6
:1009A000D8A0143D185F1551D8A0153D195F1651F8
:1009B000D8A0163D1A5FD8800036013602360336BD
:1009C0001B2FD6D70B0EEA6E170EE96E0001000C36
:1009D00002011A6B196B186B176B266B256B246B56
:1009E000236B3F6B0401BB6B26C247FB25C246FB52
:1009F00024C245FB23C244FB020E0B01496F700E5B
:100A0000486F0001E2DE01C009F0095203E009C0AD
:100A100001F0AFD102017051EB081DE036C423F2A2
:100A200037C424F238C425F226C247FB25C246FB50
:100A300024C245FB23C244FB020E0B01496F700E1A
:100A4000486F0001C2DE01C009F0095203E009C08D
:100A500001F08FD10201020EEA6E400EE96E020E25
:100A6000E26E700EE16E300E016EE6CFEEFF012EEB
:100A7000FCD751350A01FC6F020152350A01FD6FA6
:100A8000FC37FD37FC37FD37FC37FD37FC37FD37CA
:100A9000E00EFC17010E02014B5D006E000E4C597A
:100AA000036E00500A01FC25FE6F0350FD21FF6F0D
:100AB000E8CF01FBFECA00FB4CC203FB4BC202FBAA
:100AC0000001F4D602013A6B396B02C038F201C062
:100AD00037F23E6B3D6B57C23CF256C23BF23B5382
:100AE0000EE13C530CE13D530AE13E5308E167C27D
:100AF0003EF266C23DF265C23CF264C23BF20A01BC
:100B0000F26BF16B54C2F0FA53C2EFFAEF530EE1FD
:100B1000F0530CE1F1530AE1F25308E163C2F2FA37
:100B200062C2F1FA61C2F0FA60C2EFFA0B013C6BEB
:100B30003B6B3A6B50C239FB3EC240FB3DC23FFBB0
:100B40003CC23EFB3BC23DFB0001D4DE02014E51E4
:100B500000264F510122000E0222032200500A01FA
:100B6000EF5DFC6F0150F059FD6F0250F159FE6FBF
:100B70000350F259FF6F020137510A01FC25F36F50
:100B8000020138510A01FD21F46F020139510A01B5
:100B9000FE21F56F02013A510A01FF21F66FF6CAF4
:100BA00012FBF5CA11FBF4CA10FBF3CA0FFB0B01D1
:100BB000166B156B146B4DC213FB0001C9DE03C02D
:100BC000FAFA02C0F9FA01C0F8FA00C0F7FA0A010D
:100BD000FA530EE1F9530CE1F8510F0809E303E170
:100BE000F751F40805E3010E0401BB6F13D00A01AD
:100BF000FA530DE1F9530BE1F851FF0808E303E163
:100C0000F751F40804E3020E0401BB6F03D0030E96
:100C10000401BB6F02014E5123250A01EB6F020153
:100C20004F5124210A01EC6F000E020125210A0117
:100C3000ED6F000E020126210A01EE6FEECA47FB9E
:100C4000EDCA46FBECCA45FBEBCA44FB0B01496B02
:100C5000170E486F0001B9DD01C009F00201226BD7
:100C6000216B206B1F6B0B013C6B3B6B3A6B50C2D3
:100C700039FB3EC240FB3DC23FFB3CC23EFB3BC298
:100C80003DFB000137DE0050020123250A01FC6F05
:100C90000150020124210A01FD6F025002012521A9
:100CA0000A01FE6F0350020126210A01FF6F0201B3
:100CB00037510A01FC250B01006F020138510A016E
:100CC000FD210B01016F020139510A01FE210B01C7
:100CD000026F02013A510A01FF210B01036F020169
:100CE0004E510B010025046F02014F510B010121F0
:100CF000056F000E0221066F000E0321076FD890CA
:100D000002014D350B01045D0201276F000E0B013E
:100D100005590201286F000E0B0106590201296FC7
:100D2000000E0B01075902012A6F0A01FB6BFB53EE
:100D30001EE10B01626BFBCA61FB020E646F330E96
:100D4000636F0001CFEC01F001C0FCFA320E0A0122
:100D50000124016E020E0220036E0150700FE96E35
:100D6000020E0320EA6E010EEF6EFB2BE0D709C0E6
:100D700001F000019EEF26F0E6CAEAFFE5CAE9FFAE
:100D80000A01ECCAEFFFE92AD8B4EA2AEF6AE52B98
:100D9000D8B4E62B0001C0EF26F00B01095301E0A7
:100DA00001D13C6B3B6B3A6B50C239FB3EC240FBFE
:100DB0003DC23FFB3CC23EFB3BC23DFB00019ADD16
:100DC0000050020123250B010E6F01500201242166
:100DD0000B010F6F0250020125210B01106F035010
:100DE000020126210B01116F02014E510B010E254C
:100DF0000A6F02014F510B010F210B6F000E1021E2
:100E00000C6F000E11210D6F626B09CB61FB020E9E
:100E1000646F330E636F0001CFEC01F002C00FFB73
:100E200001C00EFB700E0B010124016E020E0220A8
:100E3000036E01C010FB116F0DCB47FB0CCB46FBC3
:100E40000BCB45FB0ACB44FB496F01C048FB0001BB
:100E5000BCDC0DCB30F20CCB2FF20BCB2EF20ACB3D
:100E60002DF20B01626B09CB61FB020E646F330E36
:100E7000636F0001CFEC01F001C00EFB2B0E0B01E4
:100E80000124016E020E0220036E0150700FE96E04
:100E9000020E0320EA6E0ACBEFFF0BCBECFF0CCB6C
:100EA000ECFF0DCBECFF626B09CB61FB020E646FB4
:100EB000330E636F0001CFEC01F001C00EFB2F0E6B
:100EC0000B010124016E020E0220036E0150700F0F
:100ED000E96E020E0320EA6EEC6AED52EF6A626B75
:100EE00009CB61FB020E646F330E636F0001CFEC20
:100EF00001F002C00FFB01C00EFB0B0101C001F0AD
:100F0000020E0224036E0150700F016E020E0322C6
:100F100001C010FB03C011FB626B09CB61FB020E29
:100F2000646F330E636F0001CFEC01F002C013FB5E
:100F300001C012FB700E0B010124016E020E022093
:100F4000036E01C014FB156F11CBEAFF10CBE9FF54
:100F5000E26E01C0E1FF200E016EE6CFEEFF012E32
:100F6000FCD7626B09CB61FB020E646F330E636FBB
:100F70000001CFEC01F001C00EFB200E0B0101249B
:100F8000016E020E0220036E0150700FE96E020E18
:100F90000320EA6E6CC2EFFF6DC2ECFF6EC2ECFF85
:100FA0006FC2ECFF0001C3EF0FF019CB1BFB18CB96
:100FB0001AFB1BCB03F00B011ACBE9FF1BCBEAFF9B
:100FC000EF5206E01A2BD8B41B2B0001F2D70B010D
:100FD00018511A5D006E19511B59036E00C001F0C3
:100FE000026E0001000C0B0110CBE9FF11CBEAFFF0
:100FF000EF502E080DE1010E1025E96E000E1121B3
:10100000EA6EEF502E0804E1FF0E016E04D003D00B
:10101000000E016E00D00001A5EF0EF00B01366B43
:1010200033CBE9FF34CBEAFFEF6A356B3551070864
:1010300019E3036A35513125E96E32510320EA6E16
:10104000EFCF37FB3751200801E10CD03651362B5A
:10105000036A3325E96E34510320EA6E37CBEFFF84
:10106000352BE4D7356B355102082CE3036A355133
:10107000080F016E000E032201503125E96E325136
:101080000320EA6EEFCF37FB3751200802E03753D9
:1010900001E118D035530AE13651362B036A332566
:1010A000E96E34510320EA6E2E0EEF6E3651362B68
:1010B000036A3325E96E34510320EA6E37CBEFFF24
:1010C000352BD1D73651362B036A3325E96E34518F
:1010D0000320EA6EEF6A00017BEF0BF00B0131CBCE
:1010E000E9FF32CBEAFFEFCF35FB34CB03F033CB54
:1010F000E9FF34CBEAFFEF50355D15E132CB03F069
:1011000031CBE9FF03C0EAFFEF5203E1000E016EAD
:101110001FD032CB03F03151312BD8B4322B332BCB
:10112000D8B4342BDCD732CB03F031CBE9FF32CB50
:10113000EAFFEFCF35FB34CB03F033CBE9FF34CB01
:10114000EAFFEF50355D02E2FF0E01D0010E016EA5
:10115000000186EF0BF00B01485309E1495307E109
:101160004A5305E14B5303E1210E016E78D08B9475
:10117000010E606F0001C2EC02F0D8900B01526BBF
:101180004835536F4935546F4A35556F580E566F71
:1011900055CB5AFB54CB59FB53CB58FB52CB57FB87
:1011A000100E5B6F5C6B400E5D6F000131EC03F065
:1011B00001C04EFB0B014E51400805E18B84220E0D
:1011C000016E4DD006D04E5304E08B84200E016E8C
:1011D00046D0C950FE0EC96EC7A0FED7506B4F6BEC
:1011E0005051010811E34C514F25E96E4D515021EA
:1011F000EA6EEFCF51FBC95051CBC9FFC7A0FED754
:101200004F2BD8B4502BECD7C950FF0EC96EC7A0D6
:10121000FED7C950FF0EC96EC7A0FED7C950FF0E3A
:10122000C96EC7A0FED7C9CF4EFB506B4F6B505154
:101230000F0812E303E14F51FE080EE3C950FF0E01
:10124000C96EC7A0FED7C9CF4EFB4E5301E004D0F4
:101250004F2BD8B4502BEBD78B84000E016E0001BE
:10126000000C02014E5123250B01486F02014F5122
:1012700024210B01496F000E020125210B014A6F49
:10128000000E020126210B014B6F02011F510B01C1
:101290004825446F020120510B014921456F02018D
:1012A00021510B014A21466F020122510B014B21B2
:1012B000476F47CB4BFB46CB4AFB45CB49FB44CB67
:1012C00048FB4D6B170E4C6F000145DF01C009F064
:1012D00002013B510B01442702013C510B01452304
:1012E00002013D510B01462302013E510B014723F0
:1012F00047CB4BFB46CB4AFB45CB49FB44CB48FB9A
:101300004D6B170E4C6F000126DF01C009F0020182
:101310003F6B0001000C0401BB510308D8A492D01C
:101320000B013A31426F3931416F3831406F3731FB
:101330003F6F4233413340333F33423341334033D5
:101340003F334233413340333F3342334133403301
:101350003F334233413340333F33423341334033F1
:101360003F33010E421737517F0B436F02011F516C
:101370000B013F5D0FE1020120510B01405D0AE1CD
:10138000020121510B01415D05E1020122510B01D6
:10139000425D3CE002013F5303E0000162DF0201D5
:1013A0004E5123250B01446F02014F5124210B01A3
:1013B000456F000E020125210B01466F000E020150
:1013C00026210B01476F3F5144253B6F405145217A
:1013D0003C6F415146213D6F425147213E6F3ECB0C
:1013E00047FB3DCB46FB3CCB45FB3BCB44FB496B32
:1013F000170E486F0001E5EC03F042CB22F241CB1F
:1014000021F240CB20F23FCB1FF20B01626B43CBAA
:1014100061FB646B040E636F0001CFEC01F002C04E
:1014200003F00150170FE96E000E0220EA6EEFCFB5
:1014300000F0ECCF01F0ECCF02F0ECCF03F0A3D042
:10144000A2D0040138CB3FFB39CB40FB3ACB41FB68
:101450000B01426B37CB43FB02011F510B013F5D78
:101460000FE1020120510B01405D0AE1020121510F
:101470000B01415D05E1020122510B01425D3CE09F
:1014800002013F5303E00001ECDE02014E5123252F
:101490000B01446F02014F5124210B01456F000ED7
:1014A000020125210B01466F000E020126210B01CE
:1014B000476F3F5144253B6F405145213C6F41519F
:1014C00046213D6F425147213E6F3ECB47FB3DCB0E
:1014D00046FB3CCB45FB3BCB44FB496B170E486FAF
:1014E0000001E5EC03F042CB22F241CB21F240CBEC
:1014F00020F23FCB1FF20B01D8904335026E036AF6
:1015000003360250170FE96E000E0320EA6EECCF8F
:1015100045FBED52EFCF44FB4551FE0821E2FF0AA7
:1015200003E14451F4081CE2D8904335026E036A8B
:1015300003360250170FE96E000E0320EA6EECCF5F
:1015400045FBED52EFCF44FB44CB00F045CB01F01F
:10155000FF0E026E0F0E036E000115D014D00B01AA
:10156000D8904335026E036A03360250170FE96EB6
:10157000000E0320EA6EEFCF00F0ECCF01F0026A1C
:10158000036A000100D0000C0B01125303E0000EAF
:10159000016E65D3306B2F6BFF0E0201326F316F1E
:1015A0000F0E366FFF0E356F346F336F0B01626BAA
:1015B00012CB61FB020E646F330E636F0001CFEC40
:1015C00001F002C032FB01C031FB200E0B010124EF
:1015D000016E020E0220036E0150700FE96E020EC2
:1015E0000320EA6EEFCF00F0ECCF01F0ECCF02F079
:1015F000ECCF03F003C02AFB02C029FB01C028FB8B
:1016000000C027FB626B12CB61FB020E646F330ECE
:10161000636F0001CFEC01F001C031FB700E0B01D4
:101620000124016E020E022001C013FB146F166B21
:10163000156B1653D8A4C6D015510F08D8A0C2D028
:1016400013CBE9FF14CBEAFFEF50E50806E013CB1C
:10165000E9FF14CBEAFFEF523BE10201313D01D03B
:1016600002D00B0135D0323D01D002D00B0130D079
:1016700016CB32F215CB31F20B01626B12CB61FB50
:10168000020E646F330E636F0001CFEC01F002C0F5
:1016900032FB01C031FB200E0B010124016E020E52
:1016A0000220036E0150700FE96E020E0320EA6EF5
:1016B000EFCF00F0ECCF01F0ECCF02F0ECCF03F075
:1016C00003C036F202C035F201C034F200C033F27A
:1016D00013CBE9FF14CBEAFFEF5203E1000E016EDA
:1016E000BED214CB32FB13CB31FB0B0E346F170E73
:1016F000336F000193D40B0E0B01326F170E316F55
:1017000011CB34FB10CB33FB0001E8D4015251E183
:101710000B01626B12CB61FB020E646F330E636FC1
:101720000001CFEC01F002C032FB01C031FB0B0124
:1017300001C001F0020E0224036E0150700F016E11
:10174000020E032201C033FB03C034FB03C0EAFFD7
:1017500001C0E9FF14CBE2FF13CBE1FF200E016EC5
:10176000E6CFEEFF012EFCD7626B12CB61FB020EBF
:10177000646F330E636F0001CFEC01F001C031FBE9
:101780002F0E0B010124016E020E0220036E015088
:10179000700FE96E020E0320EA6E16CBECFFED52DD
:1017A00015CBEFFF16CB2CF215CB2BF2010E016EF1
:1017B00056D2200E0B011327D8B0142B152BD8B4FA
:1017C000162B37D70401BB510308D8A4A0D10B01B5
:1017D0002F2B02014D510B012F5DD8B0ACD0626BA5
:1017E00012CB61FB020E646F330E636F0001CFEC0E
:1017F00001F002C032FB01C031FB200E0B010124BD
:10180000016E020E0220036E0150700FE96E020E8F
:101810000320EA6EEFCF33FBECCF34FBECCF35FB8C
:10182000ECCF36FBEACF38FBE9CF37FB36CB3CFBBE
:1018300035CB3BFB34CB3AFB33CB39FB406B3F6BB7
:101840003E6B4DC23DFB00017AEC04F038CBEAFF61
:1018500037CBE9FF020127510B010024396F020148
:1018600028510B0101203A6F020129510B0102207E
:101870003B6F02012A510B0103203C6F2F51392588
:101880002B6F000E3A212C6F000E3B212D6F000EA6
:101890003C212E6F626B12CB61FB020E646F330E24
:1018A000636F0001CFEC01F002C032FB01C031FBDD
:1018B000700E0B010124016E020E0220036E01C0A6
:1018C00033FB346F2ECB47FB2DCB46FB2CCB45FB9C
:1018D0002BCB44FB496F01C048FB0001E5EC03F052
:1018E0002ECB30F22DCB2FF22CCB2EF22BCB2DF298
:1018F0000B01626B12CB61FB020E646F330E636FE0
:101900000001CFEC01F001C031FB2B0E0B010124D3
:10191000016E020E0220036E0150700FE96E020E7E
:101920000320EA6E2BCBEFFF2CCBECFF2DCBECFF93
:101930002ECBECFFEAD02F6B626B12CB61FB020E59
:10194000646F330E636F0001CFEC01F002C032FB15
:1019500001C031FB200E0B010124016E020E02209A
:10196000036E0150700FE96E020E0320EA6EEFCF96
:1019700033FBECCF34FBECCF35FBECCF36FB36CB77
:101980003AFB35CB39FB34CB38FB33CB37FB00018B
:10199000C2DC03C02AFB02C029FB01C028FB00C037
:1019A00027FB2ACB36F229CB35F228CB34F227CBD2
:1019B00033F20B01273D08D0283D06D0293D04D045
:1019C0002A510F08D8B49FD0275307E1285305E1C7
:1019D000295303E12A53D8B496D02ACB3CFB29CB18
:1019E0003BFB28CB3AFB27CB39FB406B3F6B3E6B75
:1019F0004DC23DFB00017AEC04F0020127510B01BE
:101A000000242B6F020128510B0101202C6F0201D1
:101A100029510B0102202D6F02012A510B010320D5
:101A20002E6F626B12CB61FB020E646F330E636F1D
:101A30000001CFEC01F002C032FB01C031FB700E9F
:101A40000B010124016E020E0220036E01C033FB64
:101A5000346F2ECB47FB2DCB46FB2CCB45FB2BCB42
:101A600044FB496F01C048FB0001E5EC03F02ECBBD
:101A700030F22DCB2FF22CCB2EF22BCB2DF20B01F3
:101A8000626B12CB61FB020E646F330E636F000159
:101A9000CFEC01F001C031FB2B0E0B010124016ED4
:101AA000020E0220036E0150700FE96E020E032039
:101AB000EA6E2BCBEFFF2CCBECFF2DCBECFF2ECB2C
:101AC000ECFF626B12CB61FB020E646F330E636F2F
:101AD0000001CFEC01F001C031FB200E0B0101240D
:101AE000016E020E0220036E0150700FE96E020EAD
:101AF0000320EA6E27CBEFFF28CBECFF29CBECFFCE
:101B00002ACBECFF02D0010E306FA4D004010B01F0
:101B10002F2B02013A530AE1395308E1385306E109
:101B200037510B012F5DD8B093D002010B013C6BF4
:101B30003B6B3A6B50C239FB3EC240FB3DC23FFBA0
:101B40003CC23EFB3BC23DFB00017AEC04F000507E
:101B5000020123250B01316F0150020124210B01E9
:101B6000326F0250020125210B01336F0350020135
:101B700026210B01346F02014E510B013125356FC7
:101B800002014F510B013221366F000E3321376FA6
:101B9000000E3421386F2F5135252B6F000E362162
:101BA0002C6F000E37212D6F000E38212E6F626BC7
:101BB00012CB61FB020E646F330E636F0001CFEC3A
:101BC00001F002C032FB01C031FB700E0B01012499
:101BD000016E020E0220036E01C033FB346F2ECB68
:101BE00047FB2DCB46FB2CCB45FB2BCB44FB496F56
:101BF00001C048FB0001E5EC03F02ECB30F22DCB09
:101C00002FF22CCB2EF22BCB2DF20B01626B12CBD1
:101C100061FB020E646F330E636F0001CFEC01F0C5
:101C200001C031FB2B0E0B010124016E020E0220BC
:101C3000036E0150700FE96E020E0320EA6E2BCB8B
:101C4000EFFF2CCBECFF2DCBECFF2ECBECFF02D02B
:101C5000010E306F3053D8B4D5D4000E016E0001A0
:101C6000000C0B01626B14CB61FB020E646F330E30
:101C7000636F0001CFEC01F002C01AFB01C019FB39
:101C80000B0101C01BFB020E02241C6F140E012469
:101C9000016E000E1C21036E0150700FE96E020EE2
:101CA0000320EA6EECCF03F0ED52EFCF00F003C05B
:101CB00001F0026A036A03C018FB02C017FB01C0EF
:101CC00016FB00C015FB16CB18FB15CB17FB156BCD
:101CD000166B626B14CB61FB020E646F330E636F85
:101CE0000001CFEC01F001C019FB0B0101C01BFB8F
:101CF000020E02241C6F1A0E0124016E000E1C211C
:101D0000036E0150700FE96E020E0320EA6EECCFF5
:101D100003F0ED52EF5015130350161315CB00F0DE
:101D200016CB01F017CB02F018CB03F00001000C2A
:101D30000B010B5303E0000E016ED9D00ACB11FB4F
:101D400009CB10FB0001F3EF07F0015205E0010E93
:101D5000016E0B01CCD000010ACB11FB09CB10FBAB
:101D60000BCB12FB11DC015205E1000E016E0B01E1
:101D7000BED000010BCB14FB74DF03C013FB02C009
:101D800012FB01C011FB00C010FBEACF15FBE9CF2D
:101D900014FB03C03CFB02C03BFB01C03AFB00C08C
:101DA00039FB0B01406B3F6B3E6B4DC23DFB0001AD
:101DB0007AEC04F015CBEAFF14CBE9FF03C00FFB6C
:101DC00002C00EFB01C00DFB00C00CFB020127513D
:101DD0000B010C27020128510B010D23020129518F
:101DE0000B010E2302012A510B010F23626B0BCB57
:101DF00061FB020E646F330E636F0001CFEC01F0E4
:101E000002C011FB01C010FB700E0B010124016E1A
:101E1000020E0220036E01C012FB136F0FCB47FBB3
:101E20000ECB46FB0DCB45FB0CCB44FB496F01C0F1
:101E300048FB0001E5EC03F00FCB30F20ECB2FF2A4
:101E40000DCB2EF20CCB2DF20B01626B0BCB61FB99
:101E5000020E646F330E636F0001CFEC01F001C01E
:101E600010FB2B0E0B010124016E020E0220036EEB
:101E70000150700FE96E020E0320EA6E0CCBEFFFEB
:101E80000DCBECFF0ECBECFF0FCBECFF626B0BCB63
:101E900061FB020E646F330E636F0001CFEC01F043
:101EA00002C011FB01C010FB200E0B010124016ECA
:101EB000020E0220036E0150700F016E020E03220B
:101EC00001C012FB03C013FB0BCB14FB0001C9DEE6
:101ED00013CBEAFF12CBE9FF00C0EFFF01C0ECFF1C
:101EE00002C0ECFF03C0ECFF010E016E0B0100010C
:101EF000F9EF0FF00B0100CBE9FF01CBEAFFFF0E7A
:101F0000EF6E026B025326E1626B02CB61FB020EA5
:101F1000646F330E636F0001CFEC01F002C007FB6A
:101F200001C006FB320E0B010124016E020E0220DD
:101F3000036E0150700FE96E020E0320EA6EEF523D
:101F400007E000CBE9FF01CBEAFF02CBEFFF02D0B5
:101F5000022BD8D701CB03F000CBE9FF01CBEAFF7E
:101F6000EF3C04D0000E016E026E84D001CB03F072
:101F700000CBE9FF01CBEAFFEFCF06FB06CB09FB65
:101F80000001CDEF06F0FFCA05FBFECA04FBFFCA45
:101F900019FBFECA18FBD5EC07F001C003FB0B01CF
:101FA000026B0351025D62E2036A02510A01FE25DF
:101FB000E96EFF510320EA6EEF502F0854E1036AE7
:101FC0000B0102510A01FE25E96EFF510320EA6E62
:101FD000EF6A01CB03F000CBE9FF01CBEAFFEFCFC3
:101FE00006FB05CB0AFB04CB09FB06CB0BFB000170
:101FF0009FD6015226E101CB03F00B0100CBE9FF94
:1020000001CBEAFF626BEFCF61FB020E646F330E10
:10201000636F0001CFEC01F001C007FB320E0B0132
:102020000124016E020E0220036E0150700FE96E52
:10203000020E0320EA6E010EEF6E000E016E026EBC
:1020400019D00B0102510A01FE250B01066F000E8B
:102050000A01FF210B01076F010E0625046F000E18
:102060000721056F0A010B01022B9BD704CB01F05E
:1020700005CB02F00001000C1AC216FB19C215FBB9
:1020800018C214FB17C213FB0401BB510308D8A4E8
:10209000E6D016CB12FB15CB11FB14CB10FB13CBE8
:1020A0000FFB0B0112510201675DD8A0D6D016E1DB
:1020B0000B0111510201665DD8A0CFD00FE10B01D9
:1020C00010510201655DD8A0C8D008E164510B0130
:1020D0000F5DD8A002D00201C0D002011F510B0138
:1020E0000F5D0FE1020120510B01105D0AE10201B9
:1020F00021510B01115D05E1020122510B01125D1D
:1021000046E002014E5123250B01216F02014F5180
:1021100024210B01226F000E020125210B01236FE8
:10212000000E020126210B01246F0F512125176F8C
:1021300010512221186F11512321196F125124219E
:102140001A6F02013F5303E0000131EC09F01ACB92
:1021500047FB19CB46FB18CB45FB17CB44FB0B01C8
:10216000496B170E486F0001E5EC03F012CB1AF231
:1021700011CB19F210CB18F20FCB17F21AC222F2C0
:1021800019C221F218C220F217C21FF20B01206BF4
:102190001F6B205358E11F517F0855E31F35026E16
:1021A0002035036E02360336FC0E02160250170F5E
:1021B000E96E000E0320EA6EEFCF21FBECCF22FB8D
:1021C000ECCF23FBECCF24FB215339E1225337E141
:1021D000235335E1245333E112CB1EFB11CB1DFBFE
:1021E00010CB1CFB0FCB1BFB1B371C371D371E37BF
:1021F0001B371C371D371E371B371C371D371E3743
:102200001B371C371D371E371B371C371D371E3732
:102210001B371C371D371E371B371C371D371E3722
:10222000800E1B171F511B1320511C131BCB00F0DA
:102230001CCB01F01DCB02F01ECB03F0E8D01F2B0E
:10224000D8B4202BA6D7010E0F27D8B0102BD8B4A6
:10225000112BD8B4122B26D70201D2D0040116CBF1
:1022600012FB15CB11FB14CB10FB13CB0FFB0B0197
:102270001253D8A4C4D01153D8A4C1D01051020114
:10228000575DD8B002D00B01BAD006E156510B0110
:102290000F5DD8B0B4D002011F510B010F5D0FE1EB
:1022A000020120510B01105D0AE1020121510B01D5
:1022B000115D05E1020122510B01125D46E00201B0
:1022C0004E5123250B01216F02014F5124210B0197
:1022D000226F000E020125210B01236F000E020167
:1022E00026210B01246F0F512125176F1051222138
:1022F000186F11512321196F125124211A6F0201F5
:102300003F5303E0000131EC09F01ACB47FB19CB36
:1023100046FB18CB45FB17CB44FB0B01496B170E53
:10232000486F0001E5EC03F012CB1AF211CB19F261
:1023300010CB18F20FCB17F21AC222F219C221F2F7
:1023400018C220F217C21FF20B01206B1F6B205125
:1023500000084CE3D8901F35026E2035036E025002
:10236000170FE96E000E0320EA6EECCF22FBED5250
:10237000EFCF21FB215336E1225334E112CB1EFB78
:1023800011CB1DFB10CB1CFB0FCB1BFB1DCB1EFB76
:102390001CCB1DFB1BCB1CFB1B6B1F511B132051AC
:1023A0001C131E530AE11D5308E11C51FE0811E2E3
:1023B000FF0A03E11B51F4080CE21BCB00F01CCB1D
:1023C00001F01D51FF09026E1E510F09036E1FD04F
:1023D00009D01BCB00F01CCB01F01DCB02F01ECBB3
:1023E00003F015D01F2BD8B4202BB1D7010E0F2727
:1023F000D8B0102BD8B4112BD8B4122B39D7020176
:10240000FF0E006E016E026E0F0E036E0B010001D7
:10241000000C0401BB510308D8A494D00B0118315F
:10242000246F1731236F1631226F1531216F24333A
:1024300023332233213324332333223321332433F0
:1024400023332233213324332333223321332433E0
:102450002333223321332433233322332133010E18
:10246000241715517F0B256F02014E5123250B01B7
:10247000266F02014F5124210B01276F000E02012C
:1024800025210B01286F000E020126210B01296F67
:10249000215126251D6F225127211E6F23512821EE
:1024A0001F6F24512921206F02011F510B01215D53
:1024B0000FE1020120510B01225D0AE102012151CD
:1024C0000B01235D05E1020122510B01245D1EE099
:1024D00002013F5303E0000131EC09F020CB47FB40
:1024E0001FCB46FB1ECB45FB1DCB44FB0B01496BB1
:1024F000170E486F0001E5EC03F024CB22F223CB4A
:1025000021F222CB20F221CB1FF20B01626B25CBF3
:1025100061FB646B040E636F0001CFEC01F00150AE
:10252000170FE96E000E0220EA6E19CBEFFF1ACBEF
:10253000ECFF1BCBECFF1CCBECFF010E02013F6F4D
:102540006FD0040116CB21FB17CB22FB18CB23FB4A
:102550000B01246B15CB25FB02014E5123250B01EA
:10256000266F02014F5124210B01276F000E02013B
:1025700025210B01286F000E020126210B01296F76
:10258000215126251D6F225127211E6F23512821FD
:102590001F6F24512921206F02011F510B01215D62
:1025A0000FE1020120510B01225D0AE102012151DC
:1025B0000B01235D05E1020122510B01245D1EE0A8
:1025C00002013F5303E0000131EC09F020CB47FB4F
:1025D0001FCB46FB1ECB45FB1DCB44FB0B01496BC0
:1025E000170E486F0001E5EC03F024CB22F223CB59
:1025F00021F222CB20F221CB1FF20B01D8902535FE
:10260000026E036A03360250170FE96E000E0320B4
:10261000EA6E19CBEFFF1ACBECFF010E02013F6F00
:102620000001000C0B01176B146B12CB19FB11CBC3
:1026300018FB0001D5EC07F001C015FB0B01136B73
:10264000135107080BE3036A13510F25E96E10516C
:102650000320EA6E200EEF6E132BF2D7136B13518B
:10266000020810E3036A1351080F016E000E0322E3
:1026700001500F25E96E10510320EA6E200EEF6E17
:10268000132BEDD7136B1551135D37E2036A13510A
:102690001125E96E12510320EA6EEFCF16FB165199
:1026A000600806E216517A0803E31651DF0B01D0E9
:1026B0001651166F16512E0803E1010E176F1BD02D
:1026C000175310E01451142B036A080F016E000E0B
:1026D000032201500F25E96E10510320EA6E16CB3C
:1026E000EFFF09D0036A13510F25E96E1051032043
:1026F000EA6E16CBEFFF132BC6D70001CAEF15F019
:10270000BC0E0F5C0B01116F070E1058126FD890A2
:1027100011CB12FB116B1237146B1134026E14358E
:10272000036E0236033602360336023603360236AD
:102730000336E00E02160250111303501213036AFF
:10274000135011130350121311CB01F012CB02F0EE
:102750000001000C0B01126B14C011FB11CB12FB1A
:10276000116B123712371237F80E1217146B15341B
:10277000026E1435036E0236033602360336023615
:10278000033602360336E00E0216025011130350D0
:102790001213146BD8901431036E163011130350BA
:1027A000121311CB01F012CB02F00001000C0A0150
:1027B000FE5303E0000E016ED8D20401BB510308A2
:1027C000D8A41FD10201333DEED0343DECD0353DCD
:1027D000EAD036510F08D8A4E6D000014DDC03C082
:1027E00036F202C035F201C034F200C033F2020109
:1027F000326B316B0B01626BFECA61FB020E646FC0
:10280000330E636F0001CFEC01F002C00EFB01C07C
:102810000DFB200E0B010124016E020E0220036E3F
:102820000150700FE96E020E0320EA6EEFCF0FFB2E
:10283000ECCF10FBECCF11FBECCF12FB12CB18FB53
:1028400011CB17FB10CB16FB0FCB15FB36C21CFBB5
:1028500035C21BFB34C21AFB33C219FB0001D9DDA0
:1028600036C218FB35C217FB34C216FB33C215FB48
:102870000F0E0B011C6FFF0E1B6F1A6F196F0001FB
:10288000C8DD36C23CFB35C23BFB34C23AFB33C227
:1028900039FB0B01406B3F6B3E6B4DC23DFB0001B2
:1028A0007AEC04F0020127510B010024036F0201AE
:1028B00028510B010120046F020129510B01022054
:1028C000056F02012A510B010320066F0C6B0B6B85
:1028D0000C5101081EE3626BFECA61FB020E646FBD
:1028E000330E636F0001CFEC01F001C00DFB0B0153
:1028F0000B510124016E0C510220036E0150700F28
:10290000E96E020E0320EA6EEF6A0B2BD8B40C2B93
:10291000DFD70C6B0B6B0C533EE102014D510B01E9
:102920000B5D39E20B5103250D6F0C5104210E6F25
:10293000000E05210F6F000E0621106F626BFECA9C
:1029400061FB020E646F330E636F0001CFEC01F088
:1029500002C012FB01C011FB700E0B010124016EBD
:10296000020E0220036E01C013FB146F10CB4BFB51
:102970000FCB4AFB0ECB49FB0DCB48FB4D6F01C083
:102980004CFB0001ABEC08F001C009F00B010B2B74
:10299000D8B40C2BC0D7095205E0000E016E0A0115
:1029A000E4D10B012CD00B01626BFECA61FB020E5D
:1029B000646F330E636F0001CFEC01F002C00EFBB9
:1029C00001C00DFB2B0E0B010124016E020E022033
:1029D000036E0150700FE96E020E0320EA6EEFCF16
:1029E00000F0ECCF01F0ECCF02F0ECCF03F003C02D
:1029F00006FB02C005FB01C004FB00C003FB2DD099
:102A000004010B01626BFECA61FB020E646F330EA0
:102A1000636F0001CFEC01F002C00EFB01C00DFBA3
:102A20002B0E0B010124016E020E0220036E0150D9
:102A3000700FE96E020E0320EA6EEFCF00F0ECCFCC
:102A400001F0ECCF02F0ECCF03F003C006FB02C0B4
:102A500005FB01C004FB00C003FB626BFECA61FB07
:102A6000020E646F330E636F0001CFEC01F002C001
:102A70000EFB01C00DFB700E0B010124016E020E56
:102A80000220036E01C00FFB106F06CB47FB05CB86
:102A900046FB04CB45FB03CB44FB496F01C048FB1D
:102AA0000001E5EC03F00B01626BFECA61FB020E54
:102AB000646F330E636F0001CFEC01F001C00DFBBA
:102AC000020131350B010F6F020132350B01106F1E
:102AD0000F3710370F3710370F3710370F371037C2
:102AE000E00E0F170F510124016E10510220036EEA
:102AF0000150700F016E020E032201C001FB03C0E2
:102B000002FB626BFECA61FB020E646F330E636FE1
:102B10000001CFEC01F001C00DFB2B0E0B010124D5
:102B2000016E020E0220036E0150700FE96E020E5C
:102B30000320EA6E03CBEFFF04CBECFF05CBECFFE9
:102B400006CBECFF626BFECA61FB020E646F330EB4
:102B5000636F0001CFEC01F001C00DFB2F0E0B01E4
:102B60000124016E020E0220036E0150700FE96E07
:102B7000020E0320EA6E32C2ECFFED5231C2EFFFCB
:102B800002CB10FB01CB0FFB00CB12FBFFCA11FBEA
:102B9000000148D50B0E0B010125E96E000E022144
:102BA000EA6EEF6A00013CEC10F003C00AFB02C0C1
:102BB00009FB01C008FB00C007FB1A0E0B01012531
:102BC000E96E000E0221EA6E07CBEFFF08CBECFFA7
:102BD000140E0125E96E000E0221EA6E09CBEFFF0B
:102BE0000ACBECFF0ACB18FB09CB17FB08CB16FB73
:102BF00007CB15FB0F0E1C6FFF0E1B6F1A6F196FA3
:102C0000000107DC1C0E0B010125E96E000E0221FC
:102C1000EA6EEE52EE52EC6AED52EF6AED52EF6A56
:102C2000ED52EF6A626BFECA61FB020E646F330EF7
:102C3000636F0001CFEC01F001C00DFB270E0B010B
:102C40000124016E020E0220036E0150700FE96E26
:102C5000020E0320EA6EEE52EE52EC6AED52EF6A7B
:102C6000ED52EF6AED52EF6A180E0125016E000E6B
:102C70000221036E01C00DFB0E6F000141DD0ECB82
:102C8000EAFF0DCBE9FF02C0ECFFED5201C0EFFF00
:102C9000160E0B010125016E000E0221036E01C00C
:102CA0000DFB0E6F000156DD0ECBEAFF0DCBE9FFE9
:102CB00002C0ECFFED5201C0EFFF0B01626BFECAD8
:102CC00061FB020E646F330E636F0001CFEC01F005
:102CD00002C00EFB01C00DFB700E0B010124016E42
:102CE000020E0220036E01C00FFB106F06CB4BFBE0
:102CF00005CB4AFB04CB49FB03CB48FB4D6F01C01E
:102D00004CFB0001ABEC08F001C009F00B01626B59
:102D1000FECA61FB020E646F330E636F0001CFECDD
:102D200001F002C00EFB01C00DFB0B0101C001F060
:102D3000020E0224036E0150700F016E020E032278
:102D400001C00FFB03C010FB03C0EAFF01C0E9FF95
:102D500002CBE2FF01CBE1FF200E016EE6CFEEFFDA
:102D6000012EFCD7010E016E0A01000116EF17F0CB
:102D7000938081A004D0FF0E016EBDEF1AF0ECCA63
:102D8000FFFAEBCAFEFA0A0E0B01016FEF0E006F9D
:102D900000017AEC0FF002C0FDFA01C0FCFA0A0152
:102DA000FC5308E1FD5306E1FF0E016E0001BDEF8B
:102DB0001AF00A01EE6BFDCA11FBFCCA10FBEFCA48
:102DC00012FB0001C4EC0AF001C0EEFA0A01EE5356
:102DD00035E1ED51720822E10B01626BEFCA61FB34
:102DE000020E646F330E636F0001CFEC01F001C07F
:102DF000FEFA320E0A010124016E020E0220036E59
:102E00000150700FE96E020E0320EA6E010EEF6EA4
:102E1000FF0E016E0001B1D312D00A01EFCAFEFA13
:102E2000FDCA00FBFCCAFFFA0001C1D4015203E154
:102E3000FF0E016EA2D3010E0A01EE6F00010A011E
:102E4000EE53D8B496D30B01626BEFCA61FB020E4E
:102E5000646F330E636F0001CFEC01F001C0FEFA26
:102E6000320E0A010124016E020E0220036E01508F
:102E7000700FE96E020E0320EA6EEF6A0B01626BBF
:102E8000EFCA61FB020E646F330E636F0001CFEC7B
:102E900001F001C0FEFA310E0A010124016E020E9A
:102EA0000220036E0150700FE96E020E0320EA6EDD
:102EB000EDCAEFFFED516108D8A46AD20B01626B35
:102EC000EFCA61FB020E646F330E636F0001CFEC3B
:102ED00001F002C0FFFA01C0FEFA270E0A01012428
:102EE000016E020E0220036E0150700F016E020E81
:102EF000032201C000FB0B0103C001FB626BEFCAA0
:102F000061FB020E646F330E636F0001CFEC01F0C2
:102F100002C003FB01C002FB0B0101C004FB020E57
:102F20000224056F1C0E0124016E000E0521036EA4
:102F30000150700FE96E020E0320EA6EEFCF00F031
:102F4000ECCF01F0ECCF02F0ECCF03F001CBEAFFC5
:102F500000CBE9FF00C0EFFF01C0ECFF02C0ECFFB7
:102F600003C0ECFFEFCA14FB000131EC0EF003C00C
:102F7000F7FA02C0F6FA01C0F5FA00C0F4FAF7CA8F
:102F8000FBFAF6CAFAFAF5CAF9FAF4CAF8FA0A012B
:102F9000F43D07D0F53D05D0F63D03D0F7510F08BD
:102FA00037E0F85306E1F95304E1FA5302E1FB5329
:102FB0002FE0F7CA3AFBF6CA39FBF5CA38FBF4CA68
:102FC00037FB00018BEC09F003C0FBFA02C0FAFAF0
:102FD00001C0F9FA00C0F8FA0A01F83D07D0F93D3E
:102FE00005D0FA3D03D0FB510F0808E0F85307E184
:102FF000F95305E1FA5303E1FB5301E109D0FBCAA0
:10300000F7FAFACAF6FAF9CAF5FAF8CAF4FAC0D722
:10301000F7CA3CFBF6CA3BFBF5CA3AFBF4CA39FBDC
:103020000B01406B3F6B3E6B4DC23DFB00017AECE8
:1030300004F0020127510A010024F06F0201285117
:103040000A010120F16F020129510B0102200A013E
:10305000F26F02012A510B0103200A01F36F0B01E9
:10306000626BEFCA61FB020E646F330E636F000187
:10307000CFEC01F002C0FFFA01C0FEFA240E0A01F3
:103080000124016E020E0220036E0150700F016ECA
:10309000020E032201C000FB0B0103C001FB626BA7
:1030A000EFCA61FB020E646F330E636F0001CFEC59
:1030B00001F002C003FB01C002FB270E0B0101243B
:1030C000016E020E0220036E0150700FE96E020EB7
:1030D0000320EA6EEFCF04FBECCF05FBECCF06FB41
:1030E000ECCF07FBED52ED52ED52D8900C6B07314F
:1030F0000B6F06310A6F0531096FEACF0EFBE9CF7E
:103100000DFB0CCB12FB0BCB11FB0ACB10FB0F6F93
:10311000166B156B146B4DC213FB0001A8EC04F089
:10312000EFCF00F0ECCF01F0ECCF02F0ECCF03F0EA
:103130000ECBEAFF0DCBE9FF01CBEAFF00CBE9FFA5
:1031400000C0EFFF0B01626BEFCA61FB020E646F00
:10315000330E636F0001CFEC01F001C0FEFA240EC4
:103160000A010124016E020E0220036E0150700F4D
:10317000E96E020E0320EA6EEF50F027000EF123F5
:10318000F223F3230B01626BEFCA61FB020E646F43
:10319000330E636F0001CFEC01F002C0FFFA01C0F3
:1031A000FEFA700E0A010124016E020E0220036E67
:1031B00001C000FB0B01016FF3CA47FBF2CA46FBDB
:1031C000F1CA45FBF0CA44FB496F01C048FB00014E
:1031D000E5EC03F00B01626BEFCA61FB020E646F5A
:1031E000330E636F0001CFEC01F001C0FEFA200E38
:1031F0000A010124016E020E0220036E0150700FBD
:10320000E96E020E0320EA6EF4CAEFFFF5CAECFF86
:10321000F6CAECFFF7CAECFF0B01626BEFCA61FB69
:10322000020E646F330E636F0001CFEC01F002C039
:10323000FFFA01C0FEFA250E0A010124016E020EFA
:103240000220036E0150700F016E020E032201C0B6
:1032500000FB0B0103C001FB626BEFCA61FB020EB6
:10326000646F330E636F0001CFEC01F002C003FB0B
:1032700001C002FB270E0B010124016E020E022089
:10328000036E0150700FE96E020E0320EA6EEFCF5D
:1032900004FBECCF05FBECCF06FBECCF07FB0551A5
:1032A000010B01CBEAFF00CBE9FF04CBEFFFEC6E93
:1032B000626BEFCA61FB020E646F330E636F000135
:1032C000CFEC01F002C0FFFA01C0FEFA250E0A01A0
:1032D0000124016E020E0220036E0150700FE96E90
:1032E000020E0320EA6EECCF01FBED52EFCF00FBA4
:1032F0000B0100534BE1015349E1626BEFCA61FBE3
:10330000020E646F330E636F0001CFEC01F002C058
:1033100003FB01C002FB270E0B010124016E020E0C
:103320000220036E0150700FE96E020E0320EA6E58
:10333000EFCF04FBECCF05FBECCF06FBECCF07FB9C
:10334000045306E1055304E1065302E107531EE06E
:10335000626BEFCA61FB020E646F330E636F000194
:10336000CFEC01F001C0FEFA250E0A010124016E26
:10337000020E0220036E0150700FE96E020E032050
:10338000EA6E020EEC6EED52EF6A0B01F3D00A0109
:103390000B01626BEFCA61FB020E646F330E636F49
:1033A0000001CFEC01F001C0FEFA270E0A01012452
:1033B000016E020E0220036E0150700FE96E020EC4
:1033C0000320EA6EEE52EE52EC6AED52EF6AED52D5
:1033D000EF6AED52EF6AEFCA14FB000131EC0EF018
:1033E00003C001FB02C000FB01C0FFFA00C0FEFAEF
:1033F000EACF03FBE9CF02FB03C03CFB02C03BFB6F
:1034000001C03AFB00C039FB0B01406B3F6B3E6BC8
:103410004DC23DFB00017AEC04F003CBEAFF02CB86
:10342000E9FF03C0F3FA02C0F2FA01C0F1FA00C0EA
:10343000F0FA020127510A01F027020128510A017E
:10344000F123020129510A01F22302012A510A0142
:10345000F3230B01626BEFCA61FB020E646F330E44
:10346000636F0001CFEC01F002C0FFFA01C0FEFA69
:10347000700E0A010124016E020E0220036E01C0CB
:1034800000FB0B01016FF3CA47FBF2CA46FBF1CA0E
:1034900045FBF0CA44FB496F01C048FB0001E5EC65
:1034A00003F00B01626BEFCA61FB020E646F330E17
:1034B000636F0001CFEC01F002C0FFFA01C0FEFA19
:1034C000200E0A010124016E020E0220036E01503B
:1034D000700F016E020E032201C000FB03C001FB4E
:1034E000EFCA14FB000131EC0EF001CBEAFF00CB78
:1034F000E9FF00C0EFFF01C0ECFF02C0ECFF03C01A
:10350000ECFF0B01626BEFCA61FB020E646F330EBE
:10351000636F0001CFEC01F001C0FEFA250E0A0135
:103520000124016E020E0220036E0150700FE96E3D
:10353000020E0320EA6EEC6AED52EF6A0B01626B39
:10354000EFCA61FB020E646F330E636F0001CFECB4
:1035500001F001C0FEFA240E0A010124016E020EE0
:103560000220036E0150700FE96E020E0320EA6E16
:10357000EF6A0B010A01EFCA01F00001CDEF26F05E
:103580000A01FE5303E0000E016EFCD20B01626BD8
:10359000FECA61FB020E646F330E636F0001CFEC55
:1035A00001F002C008FB01C007FB270E0B0101243C
:1035B000016E020E0220036E0150700FE96E020EC2
:1035C0000320EA6EEFCF09FBECCF0AFBECCF0BFB3D
:1035D000ECCF0CFB626BFECA61FB020E646F330E14
:1035E000636F0001CFEC01F002C00EFB01C00DFBC8
:1035F0000B0101C00FFB020E0224106F1C0E0124F0
:10360000016E000E1021036E0150700FE96E020E64
:103610000320EA6EEFCF00F0ECCF01F0ECCF02F028
:10362000ECCF03F003500C5D10E30BE102500B5D97
:103630000CE307E101500A5D08E303E10050095D76
:1036400004E3000E016E0A019DD2FDCA03F0FCCA1C
:1036500007FB0B01FDCA08FB626BFECA61FB020E91
:10366000646F330E636F0001CFEC01F002C00AFB00
:1036700001C009FB0B01626BFECA61FB020E646FA5
:10368000330E636F0001CFEC01F001C00BFB250E80
:103690000B010124016E020E0220036E0150700F17
:1036A000E96E020E0320EA6EECCF0EFBED52EFCF77
:1036B0000DFB0D510925016E0E510A21036E0150BB
:1036C000700FE96E020E0320EA6EEFCF0FFB08CBFE
:1036D000EAFF07CBE9FF0FCBEFFF626BFECA61FB8E
:1036E000020E646F330E636F0001CFEC01F002C075
:1036F00008FB01C007FB250E0B010124016E020E21
:103700000220036E0150700FE96E020E0320EA6E74
:10371000010EEE2601E3EF2A626BFECA61FB020E88
:10372000646F330E636F0001CFEC01F002C008FB41
:1037300001C007FB270E0B010124016E020E0220BF
:10374000036E0150700FE96E020E0320EA6E010E47
:10375000EE2605E1EE2A03E1EE2A01E1ED2A626B95
:10376000FECA61FB020E646F330E636F0001CFEC83
:1037700001F002C008FB01C007FB250E0B0101246C
:10378000016E020E0220036E0150700FE96E020EF0
:103790000320EA6EECCF0AFBED52EFCF09FB0A5192
:1037A0000108D8B0ECD1626BFECA61FB020E646FF7
:1037B000330E636F0001CFEC01F001C007FB240E54
:1037C0000B010124016E020E0220036E0150700FE6
:1037D000E96E020E0320EA6EEF2A626BFECA61FBFD
:1037E000020E646F330E636F0001CFEC01F002C074
:1037F00008FB01C007FB240E0B010124016E020E21
:103800000220036E0150700FE96E020E0320EA6E73
:1038100002014D51EF5CD8B0B4D00B01626BFECA0F
:1038200061FB020E646F330E636F0001CFEC01F099
:1038300002C008FB01C007FB200E0B010124016E32
:10384000020E0220036E0150700FE96E020E03207B
:10385000EA6EEFCF09FBECCF0AFBECCF0BFBECCF12
:103860000CFBEACF0EFBE9CF0DFB0CCB3CFB0BCBEB
:103870003BFB0ACB3AFB09CB39FB406B3F6B3E6B02
:103880004DC23DFB00017AEC04F00ECBEAFF0DCBFC
:10389000E9FF020127510B010024036F02012851A7
:1038A0000B010120046F020129510B010220056F59
:1038B00002012A510B010320066F626BFECA61FBF5
:1038C000020E646F330E636F0001CFEC01F001C094
:1038D00007FB240E0B010124016E020E0220036E71
:1038E0000150700FE96E020E0320EA6EEF500327BD
:1038F000000E042305230623626BFECA61FB020E41
:10390000646F330E636F0001CFEC01F002C008FB5F
:1039100001C007FB700E0B010124016E020E022094
:10392000036E01C009FB0A6F06CB47FB05CB46FBC4
:1039300004CB45FB03CB44FB496F01C048FB0001AE
:10394000E5EC03F00B01626BFECA61FB020E646FD3
:10395000330E636F0001CFEC01F001C007FB250EB1
:103960000B010124016E020E0220036E0150700F44
:10397000E96E020E0320EA6EEC6AED52EF6AFFD0A8
:1039800002010B01626BFECA61FB020E646F330E13
:10399000636F0001CFEC01F001C007FB240E0B01A7
:1039A0000124016E020E0220036E0150700FE96EB9
:1039B000020E0320EA6EEF6A626BFECA61FB020E22
:1039C000646F330E636F0001CFEC01F002C008FB9F
:1039D00001C007FB200E0B010124016E020E022024
:1039E000036E0150700FE96E020E0320EA6EEFCFF6
:1039F00009FBECCF0AFBECCF0BFBECCF0CFB0CCBA9
:103A00003AFB0BCB39FB0ACB38FB09CB37FB000168
:103A10008BEC09F003C002FB02C001FB01C000FBFC
:103A200000C0FFFA0A01FF3D10D00B01003D01D09C
:103A300002D00A010AD0013D01D002D00A0105D00E
:103A400002510F08D8B49BD00A01FF530FE10B01BC
:103A50000053D8B402D00A0109D00153D8B402D01F
:103A60000A0104D00253D8B48AD00A0102CB3CFB2D
:103A700001CB3BFB00CB3AFBFFCA39FB0B01406B90
:103A80003F6B3E6B4DC23DFB00017AEC04F002013E
:103A900027510B010024036F020128510B01012063
:103AA000046F020129510B010220056F02012A5106
:103AB0000B010320066F626BFECA61FB020E646F8E
:103AC000330E636F0001CFEC01F002C008FB01C0B0
:103AD00007FB700E0B010124016E020E0220036E23
:103AE00001C009FB0A6F06CB47FB05CB46FB04CBA5
:103AF00045FB03CB44FB496F01C048FB0001E5ECEB
:103B000003F00B01626BFECA61FB020E646F330EA1
:103B1000636F0001CFEC01F001C007FB200E0B0129
:103B20000124016E020E0220036E0150700FE96E37
:103B3000020E0320EA6EFFCAEFFF00CBECFF01CBC1
:103B4000ECFF02CBECFF626BFECA61FB020E646FFE
:103B5000330E636F0001CFEC01F001C007FB250EAF
:103B60000B010124016E020E0220036E0150700F42
:103B7000E96E020E0320EA6EEC6AED52EF6A010E66
:103B8000016E0A010001000C0A01F55304E0000E69
:103B9000016E026E2DD0F96BF86BF76BF66BF75177
:103BA000F45D22E303E1F351F65D1EE20A0EFD6FC0
:103BB000FA0EFC6FF5CAFEFA0001E2DC01C0FBFA66
:103BC0000A01FB530CE0F151F625E96EF251F721A1
:103BD000EA6EFACAEFFFF82BD8B4F92B01D004D063
:103BE000F62BD8B4F72BDBD7F8CA01F0F9CA02F0EC
:103BF0000001000CE9500B01076F3B0E0E6F9A0E8F
:103C00000D6FCA0E0C6F0B6B0A0E096F06CB12FB01
:103C100005CB11FB04CB10FB03CB0FFB0ECB16FB2C
:103C20000DCB15FB0CCB14FB0BCB13FB0001A8EC4D
:103C300004F00150EFCF03FBECCF04FBECCF05FB0E
:103C4000ECCF06FB005213E10B010951010AD8A485
:103C500002D000010CD007510CE00F0B095D01E010
:103C600010E207BF0ED007BD04D0200E03D00B0119
:103C7000076B300E002600C060FB00016BEC02F009
:103C80000B010ECB12FB0DCB11FB0CCB10FB0BCBA6
:103C90000FFB166B156B146B0A0E136F0001A8EC6B
:103CA00004F003C00EFB02C00DFB01C00CFB00C002
:103CB0000BFB0B01092FAAD7000174EF20F0E0C81D
:103CC000F4FADFC8F3FADEC8F2FADDC8F1FAF3CA93
:103CD000F8FF0A01F2CAF7FFF1CAF6FFA684A68828
:103CE000F29CF29EF2BEFDD7550EA76EAA0EA76EED
:103CF000A682F96BF9510F082DE3FA6BFA513F08D0
:103D00000EE3F6CA03F0F551F52BD8B4F62BE96EA5
:103D100003C0EAFFEFCFF5FF0D00FA2BEFD7F3CA90
:103D2000F8FFF2CAF7FFF1CAF6FF400EF127000EC6
:103D3000F223F323F423F29CF29EF2BEFDD7A68475
:103D4000550EA76EAA0EA76EA682C00EF212A694FA
:103D5000F92BD0D7C00EF21200018EEF20F00A012D
:103D6000EE6B0801E06BDF6BDE6BDD6BE26BE16B32
:103D7000040EEA6EDD0EE96EFF0E0A01F16F040E0D
:103D8000F36FF26B0001D6EC02F0B8EC01F00B011E
:103D90005F6B606B0001E0EC01F00A01F16BF15127
:103DA000000116EC01F00A01F12B006EE8CF60FB78
:103DB00000016BEC02F0090E0A01F15DF0E1000177
:103DC00094EC02F00A0E0A01FD6FEC0EFC6FEBCAD8
:103DD000FEFA0001C0EC1AF001C0EDFA0A01ED5341
:103DE00003E0EC5157081EE00B015F6B010E606FA2
:103DF0000001E0EC01F00A01F16BF151000125EC4A
:103E000001F00A01F12B006EE8CF60FB00016BECC2
:103E100002F00C0E0A01F15DF0E1000194EC02F0F9
:103E2000FFD70A010A0EFD6FEC0EFC6FEBCAFEFA1B
:103E30000001C0EC1AF001C0EDFA0A01ED5303E0F5
:103E4000EC5146081EE00B015F6B010E606F000134
:103E5000E0EC01F00A01F16BF151000125EC01F0F9
:103E60000A01F12B006EE8CF60FB00016BEC02F061
:103E70000C0E0A01F15DF0E1000194EC02F0FFD7B5
:103E80000A01EE53D8A44CD1FF0E0801E06FDF6F9A
:103E9000DE6FDD6F080E0A01F26FDD0EF16FF46B5D
:103EA000040EF36FEBCAF5FA00016EDE0801DD3D8A
:103EB00008D0DE3D06D0DF3D04D0E03D02D00A014F
:103EC0002FD1040E0A01F26FDD0EF16F040EF46FB4
:103ED000F36BEBCAF5FA000157DE02C0F2FA01C03B
:103EE000F1FA0A01F15303E1F25104081EE00B015B
:103EF0005F6B010E606F0001E0EC01F00A01F16BF5
:103F0000F151000136EC01F00A01F12B006EE8CF0F
:103F100060FB00016BEC02F00E0E0A01F15DF0E1B6
:103F2000000194EC02F0FFD70A01F06BEF6BF05147
:103F300003080DE3DD0EEF25E96E040EF021EA6EB5
:103F4000EF50570AEF6EEF2BD8B4F02BF0D70801E3
:103F5000E05306E1DF5304E1DE514F08D8B0DED074
:103F60000B015F6B030E606F0001E0EC01F00A01D2
:103F7000F16BF151000148EC01F00A01F12B006EE8
:103F8000E8CF60FB00016BEC02F00A0E0A01F15D64
:103F9000F0E10B015F6B040E606F0001E0EC01F0DB
:103FA0000B01626BEBCA61FB020E646F330E636F31
:103FB0000001CFEC01F002C0F2FA01C0F1FA270EC5
:103FC0000A010124016E020E0220036E0150700FDF
:103FD000E96E020E0320EA6EEFCFF3FAECCFF4FAAB
:103FE000ECCFF5FAECCFF6FAEACFF8FAE9CFF7FA28
:103FF000F6CA3CFBF5CA3BFBF4CA3AFBF3CA39FBF1
:104000000B01406B3F6B3E6B640E3D6F00017AEC21
:1040100004F0F8CAEAFFF7CAE9FF03C0F7FA02C0E2
:10402000F6FA01C0F5FA00C0F4FA0B01626BEBCAB4
:1040300061FB020E646F330E636F0001CFEC01F081
:1040400002C0FAFA01C0F9FA0A0101C0FBFA020E35
:104050000224FC6F1C0E0124016E000EFC21036E75
:104060000150700FE96E020E0320EA6EEFCF00F0F0
:10407000ECCF01F0ECCF02F0ECCF03F003C000FB7B
:1040800002C0FFFA01C0FEFA00C0FDFAEACF02FB4F
:10409000E9CF01FBF7CA12FBF6CA11FBF5CA10FB08
:1040A000F4CA0FFB03C016FB02C015FB01C014FBD2
:1040B00000C013FB0001A8EC04F002CBEAFF01CB27
:1040C000E9FF03C0F8FA02C0F7FA01C0F6FA00C02F
:1040D000F5FA410EE96E03C006FB02C005FB01C004
:1040E00004FB00C003FB86D5250E0B01606F0001A9
:1040F0006BEC02F094EC02F0E0C8F4FADFC8F3FADB
:10410000DEC8F2FADDC8F1FA040E0A01F66FDD0E20
:10411000F56F040EF86FF76B0001D1D50A01B1D627
:10412000000103EF27F00A01EC5301E047D20B0135
:10413000626BECCA61FB020E646F330E636F0001A9
:10414000CFEC01F002C0F4FA01C0F3FA200E0A012C
:104150000124016E020E0220036E0150700FE96E01
:10416000020E0320EA6EEFCFF5FAECCFF6FAECCFB1
:10417000F7FAECCFF8FAEACFFAFAE9CFF9FAF8CA87
:104180003CFBF7CA3BFBF6CA3AFBF5CA39FB0B010D
:10419000406B3F6B3E6B4DC23DFB00017AEC04F07F
:1041A000FACAEAFFF9CAE9FF020127510A0100240D
:1041B000ED6F020128510A010120EE6F0201295121
:1041C0000A010220EF6F02012A510A010320F06F59
:1041D0000B01626BECCA61FB020E646F330E636FFE
:1041E0000001CFEC01F001C0F3FA240E0A01012412
:1041F000016E020E0220036E0150700FE96E020E76
:104200000320EA6EEF50ED27000EEE23EF23F0239C
:104210000B01626BECCA61FB020E646F330E636FBD
:104220000001CFEC01F002C0F4FA01C0F3FA700E05
:104230000A010124016E020E0220036E01C0F5FA8C
:10424000F66FF0CA4BFBEFCA4AFBEECA49FBEDCA58
:1042500048FBE8CF4DFB01C04CFB0001ABEC08F084
:1042600002013F5303E0000131EC09F00B01626BE6
:10427000ECCA61FB020E646F330E636F0001CFEC7A
:1042800001F002C0F4FA01C0F3FA2B0E0A01012476
:10429000016E020E0220036E0150700FE96E020ED5
:1042A0000320EA6EEFCFF5FAECCFF6FAECCFF7FA8F
:1042B000ECCFF8FA0B01626BECCA61FB020E646F83
:1042C000330E636F0001CFEC01F002C0FAFA01C0B7
:1042D000F9FA700E0A010124016E020E0220036E2B
:1042E00001C0FBFAFC6FF8CA47FBF7CA46FBF6CAE7
:1042F00045FBF5CA44FBE8CF49FB01C048FB000180
:10430000E5EC03F00152D8A430D10B01626BECCA8A
:1043100061FB020E646F330E636F0001CFEC01F09E
:1043200002C0F4FA01C0F3FA0B01626BECCA61FB44
:10433000020E646F330E636F0001CFEC01F002C018
:10434000F6FA01C0F5FA2F0E0A010124016E020EE1
:104350000220036E0150700FE96E020E0320EA6E18
:10436000ECCF03F0ED52EFCF02F00234F76F0334DD
:10437000F86FF737F837F737F837F737F837F73791
:10438000F837E00EF717F751F325016EF851F421D5
:10439000036E0150700F016E020E032201C0F1FA8C
:1043A00003C0F2FA0B01626BECCA61FB020E646F90
:1043B000330E636F0001CFEC01F002C0F4FA01C0CC
:1043C000F3FA0A0101C0F5FA020E0224F66F0B0E91
:1043D0000124016E000EF621036E0150700FE96E8C
:1043E000020E0320EA6EEFA810D01C0EF125E96E34
:1043F000000EF221EA6EEE52EE52EC6AED52EF6AD6
:10440000ED52EF6AED52EF6A39D01C0EF125016EC4
:10441000000EF221036E01C0F3FAF46F0B01626B20
:10442000ECCA61FB020E646F330E636F0001CFECC8
:1044300001F002C0F6FA01C0F5FA270E0A010124C4
:10444000016E020E0220036E0150700FE96E020E23
:104450000320EA6EEFCF00F0ECCF01F0ECCF02F0DA
:10446000ECCF03F0F4CAEAFFF3CAE9FF00C0EFFFA4
:1044700001C0ECFF02C0ECFF03C0ECFF180EF125F9
:10448000016E000EF221036E01C0F3FAF46F000119
:1044900080EC13F0F4CAEAFFF3CAE9FF02C0ECFFB4
:1044A000ED5201C0EFFF160E0A01F125016E000E5C
:1044B000F221036E01C0F3FAF46F0001AAEC13F0CD
:1044C000F4CAEAFFF3CAE9FF02C0ECFFED5201C0F3
:1044D000EFFF0B01626BECCA61FB020E646F330EDF
:1044E000636F0001CFEC01F002C0F4FA01C0F3FAEF
:1044F0002B0E0A010124016E020E0220036E0150F0
:10450000700FE96E020E0320EA6EEFCFF5FAECCFE2
:10451000F6FAECCFF7FAECCFF8FA0B01626BECCAC3
:1045200061FB020E646F330E636F0001CFEC01F08C
:1045300002C0FAFA01C0F9FA700E0A010124016EF4
:10454000020E0220036E01C0FBFAFC6FF8CA4BFB9F
:10455000F7CA4AFBF6CA49FBF5CA48FBE8CF4DFB50
:1045600001C04CFB0001ABEC08F00B01626BECCA24
:1045700061FB020E646F330E636F0001CFEC01F03C
:1045800002C0F4FA01C0F3FA700E0A010124016EB0
:10459000020E0220036E01C0F5FAF66FF0CA47FB67
:1045A000EFCA46FBEECA45FBEDCA44FBE8CF49FB28
:1045B00001C048FB0001E5EC03F00A01000127EF10
:1045C00023F00A01EB5301E05ED00B01626BEBCAF2
:1045D00061FB020E646F330E636F0001CFEC01F0DC
:1045E00002C0EDFA01C0ECFA310E0A010124016E9D
:1045F000020E0220036E0150700FE96E020E0320BE
:10460000EA6EEF5061081FE00B01626BEBCA61FBC1
:10461000020E646F330E636F0001CFEC01F002C035
:10462000F0FA01C0EFFA310E0A010124016E020E08
:104630000220036E0150700FE96E020E0320EA6E35
:10464000EF50770804E1EBCAECFA00016CD50B01DE
:10465000626BEBCA61FB020E646F330E636F000185
:10466000CFEC01F001C0ECFA320E0A010124016E18
:10467000020E0220036E0150700FE96E020E03203D
:10468000EA6E010EEF6E000107EF27F00401BB5147
:10469000030831E10A01FF310B01076F0A01FE3106
:1046A0000B01066F0A01FD310B01056F0A01FC3198
:1046B0000B01046F07330633053304330733063326
:1046C0000533043307330633053304330733063326
:1046D0000533043307330633053304330733063316
:1046E00005330433010E07170A01FC517F0B0B0140
:1046F000086F0CD00401FDCA04FBFECA05FBFFCA0B
:1047000006FB0B01076BFCCA08FB0B0102011F51E2
:104710000B01045D10E1020120510B01055D0BE16D
:10472000020121510B01065D06E1020122510B013C
:10473000075DD8B48AD002014E5123250B01096FC1
:1047400002014F5124210B010A6F000E02012521A5
:104750000B010B6F000E020126210B010C6F0201F1
:104760001F510B010925006F020120510B010A2185
:10477000016F020121510B010B21026F0201225135
:104780000B010C21036F03CB4BFB02CB4AFB01CB8C
:1047900049FB00CB48FB4D6B170E4C6F0001ABEC97
:1047A00008F002013B510B01002702013C510B01B3
:1047B000012302013D510B01022302013E510B0175
:1047C000032303CB4BFB02CB4AFB01CB49FB00CBC2
:1047D00048FB4D6B170E4C6F0001ABEC08F002016B
:1047E0004E5123250B01096F02014F5124210B016A
:1047F0000A6F000E020125210B010B6F000E020152
:1048000026210B010C6F04510925006F05510A2167
:10481000016F06510B21026F07510C21036F03CB6F
:1048200047FB02CB46FB01CB45FB00CB44FB496B6E
:10483000170E486F0001E5EC03F007CB22F206CB20
:1048400021F205CB20F204CB1FF20401BB51030877
:104850001BE10B01626B08CB61FB646B040E636FA1
:104860000001CFEC01F00150170FE96E000E02209D
:10487000EA6EEE52EE52EC6AED52EF6AED52EF6ADA
:10488000ED52EF6A10D00401D8900B010835026E8A
:10489000036A03360250170FE96E000E0320EA6E1A
:1048A000EC6AED52EF6A010E02013F6F0001000C4D
:1048B000ECCAFFFAEBCAFEFA0A0E0B01016FEF0E0B
:1048C000006F00017AEC0FF002C0FBFA01C0FAFAA7
:1048D0000A01FA5305E1FB5303E1000E016E29D1F1
:1048E000FBCA11FBFACA10FBEFCA12FB0001C4ECB1
:1048F0000AF001C0EEFA0A01EE531FE10B01626BF0
:10490000EFCA61FB020E646F330E636F0001CFECE0
:1049100001F001C0FCFA320E0A010124016E020E00
:104920000220036E0150700FE96E020E0320EA6E42
:10493000010EEF6E000E016EFCD00B01626BEFCA30
:1049400061FB020E646F330E636F0001CFEC01F068
:1049500001C0FCFA02012B350A01FE6F02012C3561
:104960000A01FF6FFE37FF37FE37FF37FE37FF378D
:10497000FE37FF37E00EFE17FE510124016EFF5196
:104980000220036E0150700F016E020E032201C05F
:10499000F0FA03C0F1FAF0CAE9FFF1CAEAFFE50E46
:1049A000EF6E010EED6FED5107080BE3036AED5159
:1049B000F025E96EF1510320EA6E200EEF6EED2B2B
:1049C000F2D7ED6BED51020810E3036AED51080FC9
:1049D000016E000E03220150F025E96EF151032013
:1049E000EA6E200EEF6EED2BEDD70B01626BEFCA76
:1049F00061FB020E646F330E636F0001CFEC01F0B8
:104A000002C0FDFA01C0FCFA700E0A010124016E19
:104A1000020E0220036E01C0FEFAFF6F30C24BFB94
:104A20002FC24AFB2EC249FB2DC248FBE8CF4DFBEB
:104A300001C04CFB0001ABEC08F0EFCA14FB31ECF9
:104A40000EF003C0F9FA02C0F8FA01C0F7FA00C08C
:104A5000F6FA0A01F63D07D0F73D05D0F83D03D040
:104A6000F9510F082DE0F25306E1F35304E1F4533A
:104A700002E1F55325E0F9CA3AFBF8CA39FBF7CA57
:104A800038FBF6CA37FB00018BEC09F003C0F5FADE
:104A900002C0F4FA01C0F3FA00C0F2FAF9CAFFFA50
:104AA000F8CAFEFAF7CAFDFAF6CAFCFAEFDDF5CA53
:104AB000F9FAF4CAF8FAF3CAF7FAF2CAF6FAC9D759
:104AC000F9CAFFFAF8CAFEFAF7CAFDFAF6CAFCFA02
:104AD0000001DCDDF9CA18FBF8CA17FBF7CA16FBA0
:104AE000F6CA15FB0B011C6B1B6B1A6B196B0001D3
:104AF00009EC12F031EC09F00B01626BEFCA61FBBB
:104B0000020E646F330E636F0001CFEC01F001C041
:104B1000FCFA320E0A010124016E020E0220036E1D
:104B20000150700FE96E020E0320EA6E010EEF6E67
:104B3000016E00010EEF27F0F86AD09EEA6AE96A7A
:104B40007E960C0EAF6EA60EAC6E900EAB6E7C9683
:104B50000C0E6F6EA60E6C6E900E6B6EC150C00B7D
:104B6000C16E070EB46E056A066A460E0401A36F95
:104B7000410EA46F540EA56F3F0EA66FA76BA86BD6
:104B8000460EA96F410EAA6F540EAB6F310EAC6F7B
:104B9000320EAD6FAE6B460EAF6F410EB06F540E5E
:104BA000B16F310EB26F360EB36FB46B460EB56F88
:104BB000410EB66F540EB76F330EB86F320EB96F29
:104BC000BA6BFF0EBC6F0A01DB6BDC6BE56BE66B4F
:104BD000010E0A6E020EEA6E700EE96EF16B020EA5
:104BE000F36F330EF26F0001D6EC02F004019A6B02
:104BF000996B986B976BBD6B0A01EA6BC150C00B48
:104C00000E09C16EC050C00B0709C06EC08EC280B5
:104C1000C28EC282C2B2FED7C29EB098930E946E6C
:104C2000C69A300EC66E000EC76E639A636E646ECF
:104C3000D190800ED56ECD6A000E0409CA6EFF0EAB
:104C4000CB6EB150480BB16E000E766E000E776ED3
:104C5000070EB46E9750060E006E002EFED70000B1
:104C6000B450A19CB56AF19E9B6AD36AD3508B92D3
:104C70000C0EBA6E676A98908F90B76E696A070ECD
:104C8000B46E9750060E006E002EFED70000B45092
:104C9000A19CB56A969E8D8E98908F8098968F86EF
:104CA000640EBB6E500EB86E0001E5EF02F0B8EC7A
:104CB00001F094EC02F00A01E86BE76B010E086E5C
:104CC000FF0E0401BC6F7D0EBB6EBA50CF0BBA6EE7
:104CD0009380076A81B0072A07523EE10A01EA6B16
:104CE000010EE96F930E946EC69A300EC66E000EDA
:104CF000C76E320E0B01606F0001C2EC02F00A01B8
:104D0000E86BE76BE85317E1E751090814E3E9534F
:104D100012E00A0EEB6F00017CEF03F001C0E9FA2C
:104D2000320E0B01606F0001C2EC02F00A01E72BAA
:104D3000D8B4E82BE7D70001E8EF04F0015203E014
:104D4000010E0A01E96F0A01E95306E1FF0E0401B1
:104D5000BC6F010E0A01EA6F0A01EA53D8B4A1D070
:104D6000040EE66FBD0EE56FEB6BEB51000168ECD6
:104D700001F00A01EB2B006EEC6F0001BCEF06F0B6
:104D80000C0E0A01EB5DF1E1040EEC6FBD0EEB6F52
:104D9000720EED6F0001B8EF16F001C0BCF4040113
:104DA000BC53D8A47FD00001B8EC01F00B015F6BBD
:104DB000020E606F0001E0EC01F00A01EB6BEB51B9
:104DC000000179EC01F00A01EB2B006EE8CF60FBEB
:104DD00000016BEC02F0120E0A01EB5DF0E1000144
:104DE00094EC02F0080E0A01EB6FFA0E0B01606FF3
:104DF0000001C2EC02F00A01EB2FF7D7BCC4EBFABA
:104E00000001AFEF1EF0BCC4EBFAE1EF22F0040E9C
:104E10000A01EC6FBD0EEB6F00014AD5B8EC01F052
:104E20000B015F6B606B0001E0EC01F00A01EB6BC2
:104E3000EB5100018DEC01F00A01EB2B006EE8CF85
:104E400060FB00016BEC02F0140E0A01EB5DF0E177
:104E50000B015F6B020E606F0001E0EC01F00A01D4
:104E6000EB6BEB510001A2EC01F00A01EB2B006EA1
:104E7000E8CF60FB00016BEC02F0160E0A01EB5D5F
:104E8000F0E1000194EC02F0140E0A01EB6FFA0E4F
:104E90000B01606F0001C2EC02F00A01EB2FF7D7A3
:0E4EA000FFD704010A6A000100EF28F00300AA
:10500000B8EC01F0030E0B015F6F060E606F00013C
:10501000E0EC01F00B01676B6751000158EC01F007
:105020000B01672B006E606F00016BEC02F00B0E42
:105030000B01675DF1E1000194EC02F0080E0B0139
:10504000676FFA0E606F0001C2EC02F00B01672F70
:08505000F8D7FFD70001000CA6
:020000040001F9
:06FFF800A0F444F7F8F349
:00000001FF
;PIC18F67J10
