:020000040000FA
:0400000031EF41F0AB
:08000800E8CF05F0D8CF06F0A7
:10001000E0CF07F00001E9CF0DF0EACF08F0E1CF23
:1000200009F0E2CF0AF0D9CF0BF0DACF0CF0F3CF22
:1000300014F0F4CF15F0FACF16F0FBCF17F000C094
:100040000FF001C010F002C011F003C012F004C0A4
:1000500013F0A0A22FEF00F0A1B2ACEF03F0F2A6D4
:1000600035EF00F0F2B09AEF03F09DAA3BEF00F0FD
:100070009EBA15EF04F0A3AA41EF00F0A4BABCEFBA
:1000800004F00FC000F010C001F011C002F012C067
:1000900003F013C004F00DC0E9FF08C0EAFF09C077
:1000A000E1FF0AC0E2FF0BC0D9FF0CC0DAFF14C0A9
:1000B000F3FF15C0F4FF16C0FAFF17C0FBFF05C021
:1000C000E8FF07C0E0FF06C0D8FF1000F76AE00FA6
:1000D000F66E000EF722000EF86E0900F5501200C1
:1000E000524D4300F76AF80FF66E000EF722000E2D
:1000F000F86E0900F550120047474100F2CF0EF0AC
:10010000F29EF76A1A0FF66E010EF722000EF86ED5
:100110000900F5500EBEF28E120000000000000033
:10012000005F00000007000700147F147F14242ADA
:100130007F2A1223130864623649552250000503B2
:100140000000001C2241000041221C0014083E084F
:100150001408083E08080050300000080808080885
:10016000006060000020100804023E5149453E0036
:10017000427F400042615149462141454B311814AC
:10018000127F1027454545393C4A494930017109DC
:1001900005033649494936064949291E00363600C5
:1001A00000005636000008142241001414141414E0
:1001B00000412214080201510906324979413E7E6C
:1001C0001111117E7F494949363E414141227F410B
:1001D00041221C7F494949417F090909013E4149A2
:1001E000497A7F0808087F00417F41002040413F55
:1001F000017F081422417F404040407F020C027F73
:100200007F0408107F3E4141413EF2CF0EF0F29E46
:10021000F76A280FF66E020EF722000EF86E09003C
:10022000F5500EBEF28E12007F090909063E4151BB
:10023000215E7F09192946464949493101017F015B
:10024000013F4040403F1F2040201F3F4038403F7B
:100250006314081463070870080761514945430097
:100260007F41410002040810200041417F00040248
:100270000102044040404040060909060020545451
:1002800054787F48444438384444442038444448EF
:100290007F3854545418087E0901020C5252523EC1
:1002A0007F0804047800447D40002040443D007FE6
:1002B0001028440000417F40007C041804787C082A
:1002C00004047838444444387C1414140808141482
:1002D000187C7C080404084854545420043F4440CB
:1002E000203C4040207C1C2040201C3C4030403CB6
:1002F00044281028440C5050503C4464544C440052
:100300000836410000007F00000041360800100858
:100310000810087846414678F2CF0EF0F29EF76A50
:10032000360FF66E030EF722000EF86E0900F55038
:100330000EBEF28E12004750532530346C752E5489
:1003400058540000F2CF0EF0F29EF76A620FF66E7C
:10035000030EF722000EF86E0900F5500EBEF28E65
:10036000120044697374616E63653D256C754D0DB3
:100370000A00F2CF0EF0F29EF76A900FF66E030EAF
:10038000F722000EF86E0900F5500EBEF28E120034
:100390004D6178696D756D2053706565643D2535D7
:1003A0002E31666B6D2F680D0A00F2CF0EF0F29EB3
:1003B000F76AC80FF66E030EF722000EF86E0900FA
:1003C000F5500EBEF28E12004D696E696D756D208E
:1003D000416C7469747564653D25342E30664D0D2D
:1003E0000A00F2CF0EF0F29EF76A000FF66E040ECE
:1003F000F722000EF86E0900F5500EBEF28E1200C4
:100400004D6178696D756D20416C746974756465B2
:100410003D25352E30664D0D0A00F2CF0EF0F29ECE
:10042000F76A380FF66E040EF722000EF86E090018
:10043000F5500EBEF28E120053444F4B0000F2CF27
:100440000EF0F29EF76A5C0FF66E040EF722000EB5
:10045000F86E0900F5500EBEF28E12004E4F534456
:100460000000F2CF0EF0F29EF76A800FF66E040ED7
:10047000F722000EF86E0900F5500EBEF28E120043
:1004800025356C644B4D482C2025336C7525630055
:10049000F2CF0EF0F29EF76AAE0FF66E040EF72260
:1004A000000EF86E0900F5500EBEF28E12002535D2
:1004B0002E31664B4D482C2025336C75256300008A
:1004C000F2CF0EF0F29EF76ADE0FF66E040EF72200
:1004D000000EF86E0900F5500EBEF28E12002535A2
:1004E0002E31664B4D482025352E31664B4D000090
:1004F000F2CF0EF0F29EF76A0E0FF66E050EF7229F
:10050000000EF86E0900F5500EBEF28E1200462065
:1005100053697A653A256C750000F2CF0EF0F29EB1
:10052000F76A380FF66E050EF722000EF86E090016
:10053000F5500EBEF28E12004D6178206B6D2F6863
:100540003A256C640000F2CF0EF0F29EF76A640F59
:10055000F66E050EF722000EF86E0900F5500EBE7D
:10056000F28E12004D696E20416C742E3A256C6437
:100570006D00F2CF0EF0F29EF76A900FF66E050E48
:10058000F722000EF86E0900F5500EBEF28E120032
:100590004D617820416C742E3A256C646D00F2CF69
:1005A0000EF0F29EF76ABC0FF66E050EF722000EF3
:1005B000F86E0900F5500EBEF28E12004C6F6720E7
:1005C0005374617475732000F2CF0EF0F29EF76AD7
:1005D000E60FF66E050EF722000EF86E0900F550D4
:1005E0000EBEF28E120054696D657A6F6E6525330A
:1005F0006400F2CF0EF0F29EF76A100FF66E060E50
:10060000F722000EF86E0900F5500EBEF28E1200B1
:100610004261636B6C69676874202000F2CF0EF052
:10062000F29EF76A3A0FF66E060EF722000EF86E8B
:100630000900F5500EBEF28E12004750534C6F6702
:100640006765720D0A00F2CF0EF0F29EF76A640F32
:10065000F66E060EF722000EF86E0900F5500EBE7B
:10066000F28E1200475053204C6F6767657200008E
:10067000F2CF0EF0F29EF76A8E0FF66E060EF7229C
:10068000000EF86E0900F5500EBEF28E12003138E1
:100690002D4D61792D303700F2CF0EF0F29EF76AC2
:1006A000B60FF66E060EF722000EF86E0900F55032
:1006B0000EBEF28E120030303A30303A3030000048
:1006C000F2CF0EF0F29EF76ADE0FF66E060EF722FC
:1006D000000EF86E0900F5500EBEF28E1200304B7F
:1006E0004D480000F2CF0EF0F29EF76A020FF66E50
:1006F000070EF722000EF86E0900F5500EBEF28EBE
:1007000012004750532530346C752E4C4F47000073
:10071000F2CF0EF0F29EF76A2E0FF66E070EF7225A
:10072000000EF86E0900F5500EBEF28E12004E4F0C
:1007300047505300FF0E936E81CFABF19388000EAC
:1007400081B8010E000A05E1AFC8A4F10101A66B52
:100750000001F29041EF00F03C0EB36EAF0EB26EAE
:1007600098968F86A09F0101A32BA351050810E244
:10077000A36BA45304E0A43D01D001D0A407A5536A
:1007800001E0A507A65301E0A607A75301E0A707CC
:10079000A192000141EF00F00B01715342E06DCBDB
:1007A000E9FF6ECBEAFFEFCF72FB70CB03F06FCBAC
:1007B000E9FF70CBEAFFEF50725D18E06ECB03F0FB
:1007C0006DCBE9FF6ECBEAFFEFCF72FB70CB03F08E
:1007D0006FCBE9FF70CBEAFFEF50725D03E2FF0ED3
:1007E000036E01D0010E016E1ED00BD06ECB03F054
:1007F0006DCBE9FF6ECBEAFFEF5203E1000E016E15
:1008000012D06ECB03F06D516D2BD8B46E2B70CB24
:1008100003F06F516F2BD8B4702B71070001BCD758
:100820000B01000E016E0001000CA08F9EAAFED7E6
:10083000AECF68FB0B010001A0A101D09AD00B0143
:100840006851240802E100019F6B00019F519F2B1A
:10085000036A1F0FE96E000E0320EA6E68CBEFFFFC
:100860000B0168510A0806E000019F517F08D8B0CB
:1008700080D00B010101216B036A00019F511F0F02
:10088000E96E000E0320EA6EEF6A9F51090803E249
:100890001F5024080AE09F6B036A9F511F0FE96EE7
:1008A000000E0320EA6EEF6A64D00B0EEA6E690E4A
:1008B000E96EF2CF6DFBF29E000E08DC0A00090023
:1008C000F550EE6E0009FBE10B016DBFF28E6E6B11
:1008D000220E6D6F0B0E706F690E6F6F030E716FCE
:1008E00000015ADF01520EE1EA6AA10EE96EE26AE6
:1008F0001F0EE16EE752E6CFEEFFFCE19FC021F153
:10090000A08137D00B0EEA6E690EE96EF2CF6DFB57
:10091000F29E000E72EC00F00A000900F550EE6E37
:100920000009FBE10B016DBFF28E6E6B220E6D6F45
:100930000B0E706F690E6F6F030E716F00012CDF6D
:1009400001520FE1010EEA6E220EE96EE26A1F0EFD
:10095000E16EE752E6CFEEFFFCE19FC0A2F1A0837B
:1009600008D0036A9F511F0FE96E000E0320EA6E44
:10097000EF6A9E9A41EF00F0A49A41EF00F0080E52
:10098000016E0000000000008C9A959A00000000A3
:1009900000000A01EB378C9CD8B0958CD8A0959CB0
:1009A000958A83AAFED7012E01D002D00001E9D793
:1009B000000000008C9A959A0000958C00000000C1
:1009C0000000000000000000958A83AAFED7016A9B
:1009D00000000000000083BC01808C9A959A8C9CDA
:1009E000959C0001000C958C00000000958A000089
:1009F000000000008C9C959C000000008C9A959A49
:100A0000A00E0A01EB6F0001BADF015001B003D064
:100A10000A01EA9102D00A01EA81959C0000958AB8
:100A200083AAFED700000000000000000000958CA3
:100A300000000000000EEAA1010E016E0001000C92
:100A4000080E0A01EB6F00C0ECFA958C0000000064
:100A50000000958A83AAFED783BCD88083ACD89047
:100A6000013600000000959A8C9AEB2FEED7958CFA
:100A70000000000000008C9CEC51D8A4959C000064
:100A8000958A83AAFED7000000008C9A959A0000F0
:100A9000000000008C9C959C00017DEF05F0A3DF19
:100AA0000152FDE0958C00000000958A00000000D6
:100AB00000008C9C959C000000008C9A959AA00EDA
:100AC0000A01EB6F00015BDFE8CAEBFA58DF958C97
:100AD00000000000958A00000000000083AAFED7F5
:100AE0008C9C959C000000008C9A959AA10E0A019E
:100AF000EB6F000144DF006AA3D701C0E9FA959CBF
:100B00000000958A83AAFED70000000000000000C4
:100B10000000958C000000000A01E9CA01F0000104
:100B2000AAEF05F0150E0A01E36F080EE56FA30E9C
:100B3000E46FE26BE351E25D16E2E5CA03F0E451D3
:100B4000E42BD8B4E52BE66F03C0E7FAE2CAE8FA73
:100B50000001A5D7E7CAEAFFE6CAE9FF01C0EFFF37
:100B60000A01E22BE7D70001DBEF41F03CDF015245
:100B7000FDE0958C00000000958A00000000000058
:100B80008C9C959C000000008C9A959AA00E0A01FE
:100B9000EB6F0001F4DEE8CAEBFAF1DEE9CAEBFA2A
:100BA000EEDE959C0000958A83AAFED70000000027
:100BB000000000000000958C00000000FCEF05F034
:100BC000150E0A01E46F080EE66FA30EE56FE36BE6
:100BD000E451E35D14E2E6CA03F0E551E52BD8B435
:100BE000E62BE96E03C0EAFFEFCFE7FAE3CAE8FAC3
:100BF000E7CAE9FA0001BAD70A01E32BE9D70001F5
:100C0000000C8E0E006EFDCA01F0FCCA02F0036AF1
:100C1000015209E102C001F0026A080E005E0152B1
:100C200002E1006A08D0D89001BE04D00236013635
:100C30000006F9D7019E0000000C0B010351D8B447
:100C400071D0006E0751D8B46DD0002604E3810E38
:100C5000002668E204D07F0E005E64E363E004CB0C
:100C60000BFB08510B1B048F088F06510A03F4CFAE
:100C70000DFB05510903F4CF03F0F3CF0CFB0A037E
:100C8000F3500D27F4500C23000E032206510903E4
:100C9000F3500D27F4500C23000E026A03220222A7
:100CA00004510A03F3500C27F4500322000E0222D1
:100CB00004510903F3500326F4500222000E016A86
:100CC000012206510803F3500C27F4500322000EB2
:100CD0000222012205510803F3500326F450022298
:100CE000000E012204510803F3500226F4500122A1
:100CF000002A01BE05D00C37033602360136000645
:100D0000000E0CAF0AD0032A02220122015005E195
:100D1000025003E1035001E1002A0BBF018E0BAF2B
:100D2000019E04D0006A016A026A036A00000001A1
:100D3000000C000E016EC250C30B0110C26EC282C5
:100D4000C2B2FED7C4CFE3FA0A01C3CFE2FAE3CAC4
:100D5000FDFAE2CAFCFA000154DF03C0AFF102C0A1
:100D6000AEF101C0ADF100C0ACF1AFC106FBAEC148
:100D700005FBADC104FBACC103FBD30E0B010A6F35
:100D8000B90E096F050E086F770E076F000155DF6A
:100D900003C0AFF102C0AEF101C0ADF100C0ACF1D3
:100DA000000C0B0EEA6E480EE96EEF500DE0020EDD
:100DB000016E006A002EFED7012EFBD7970E006E43
:100DC000002EFED7EF2EF3D7000C070E0A01F16FAD
:100DD000F1BF15D083900000000000000000F0CAB1
:100DE00000F0F151016E04E0D8900032012EFCD7E2
:100DF00000A0839200B083828380F107E9D70001CD
:100E0000000CE00E956E83948396EFCAF0FADDDF56
:100E10008386EF0E956E000C0A01D36BD26BD35113
:100E200001080FE303E1D251F7080BE3D80ED225F6
:100E3000E96E080ED321EA6EEF6AD22BD8B4D32B19
:100E4000EED70001000CE00E956E0A01D96B850EFD
:100E5000006E002EFED783848386850E006E002EE2
:100E6000FED78398FA0E0B01486F00019ADF838842
:100E7000210E0A01EF6F0001C4DFBE0E0A01EF6F01
:100E80000001BFDF130E0A01EF6F0001BADF200E71
:100E90000A01EF6F0001B5DF090E0A01EF6F0001D3
:100EA000B0DF320E0B01486F00017BDFB5DF0A0EA9
:100EB0000B01486F000175DF080E0A01EF6F00019A
:100EC000A0DF0A0E0B01486F00016BDF0C0E0A0158
:100ED000EF6F000196DFEF0E956E72EF42F00B019F
:100EE0003B513D03F3CF01F0F4CF00F03E03F3504C
:100EF00000263C513D03F3500020026E0001000C1F
:100F00000A01D16BEECAD0FAD1CA3CFBD0CA3BFB76
:100F10000B013E6B540E3D6F0001E1DF02C0D1FAC0
:100F200001C0D0FA0A01ED51D027000ED1230001F3
:100F3000000C0A01D95303E00B01041F0A01D1CAB6
:100F400003F0D051D02BD8B4D12B0B01056FD80EA4
:100F50000525E96E080E0320EA6E04CBEFFF0001C1
:100F6000000C0A01D7511F0801E347D0D7517F0871
:100F700001E243D0D66BD65104083AE3D7514F086B
:100F800017E3D751E00F050DF350D56BD46FD65151
:100F9000D4250B01046F000E0A01D5210B01056F4A
:100FA000036E045100017EEC00F0E8CFD8FA0A018C
:100FB000D7514F0816E2D751B00F050DF350D56B3E
:100FC000D46FD651D4250B01046F000E0A01D52130
:100FD0000B01056F036E0451000105EC01F0E8CF31
:100FE000D8FAD8CA04FB0001A4DF0A01D62BC3D764
:100FF0000B01046B00019DDF0A01000103EF08F003
:1010000003CBD7FAAED7000C400E0A01EF6F0001F8
:10101000F8DE800E0A01EF6F0001F3DEE00E956E40
:10102000838483960A01EE6BED6BEE51010815E3A4
:1010300003E1ED51F70811E3D80EED25E96E080E36
:10104000EE21EA6EEFCFEFFAEFCAF0FA0001BDDE53
:101050000A01ED2BD8B4EE2BE8D78386EF0E956E00
:101060000001000C0B01386B396B010E3A6FDA6A24
:10107000D96A0B0E3D6F300E3C6F0B0EEA6E340ECC
:10108000E96E3DCBE2FF3CCBE1FF3ACB3BFBD89096
:10109000E550EE02F3503823F45039233B2FF7D7B5
:1010A00038CBDEFF39CB38FB396BD8B0392B3C2B32
:1010B000D8B43D2B3A2B3A510508DFE10001000C72
:1010C0000B01556B55510F0807E3C950FF0EC96E50
:1010D000C7A0FED7552BF6D7C9504DCBC9FFC7A027
:1010E000FED751CB57FBC95051CBC9FFC7A0FED784
:1010F00050CB57FBC95050CBC9FFC7A0FED74FCB31
:1011000057FBC9504FCBC9FFC7A0FED74ECB57FBEB
:10111000C9504ECBC9FFC7A0FED7C950950EC96EA6
:10112000C7A0FED7556B5251555D11E2C950FF0E55
:10113000C96EC7A0FED7C9CF56FB5351565D01E11A
:1011400006D05451565D01E102D0552BECD756CB59
:1011500001F00001000C0B013F5309E1405307E18E
:10116000415305E1425303E1210E016E76D08B9489
:10117000010E486F000115DED8900B01496B3F3519
:101180004A6F40354B6F41354C6F580E4D6F4CCB0D
:1011900051FB4BCB50FB4ACB4FFB49CB4EFB100EC8
:1011A000526F536B400E546F00018ADF01C045FB44
:1011B0000B014551400805E18B84220E016E4DD094
:1011C00006D0455304E08B84200E016E46D0C950F2
:1011D000FE0EC96EC7A0FED7476B466B475101088C
:1011E00011E343514625E96E44514721EA6EEFCFA2
:1011F00048FBC95048CBC9FFC7A0FED7462BD8B47F
:10120000472BECD7C950FF0EC96EC7A0FED7C950F7
:10121000FF0EC96EC7A0FED7C950FF0EC96EC7A08A
:10122000FED7C9CF45FB476B466B47510F0812E30A
:1012300003E14651FE080EE3C950FF0EC96EC7A078
:10124000FED7C9CF45FB455301E004D0462BD8B4A7
:10125000472BEBD78B84000E016E0001000C0301BD
:10126000F151C6250B013F6F0301F251C7210B015C
:10127000406F000E0301C8210B01416F000E0301F6
:10128000C9210B01426F0301C2510B013F253B6F86
:101290000301C3510B0140213C6F0301C4510B01F9
:1012A00041213D6F0301C5510B0142213E6F3ECBF1
:1012B00042FB3DCB41FB3CCB40FB3BCB3FFB010E1C
:1012C000446FBA0E436F000146DF01C046F80301C8
:1012D000DE510B013B270301DF510B013C230301CE
:1012E000E0510B013D230301E1510B013E233ECBB5
:1012F00042FB3DCB41FB3CCB40FB3BCB3FFB010EDC
:10130000446FBA0E436F000126DF01C046F80301A7
:10131000E26B0001000CBC0E0101B05D0B01096F16
:10132000070E0101B1590B010A6FD89009CB0AFBD6
:10133000096B0A370C6BB2C10BFB0B35026E0C3517
:10134000036E0236033602360336023603360236A1
:101350000336E00E02160250091303500A13036A03
:101360000101B4510B01091303500A1309CB01F019
:101370000ACB02F00001000C0B010A6BB5C109FB9E
:1013800009CB0AFB096B0A370A370A37F80E0A1726
:101390000C6BB6C10BFB0B35026E0C35036E0236BF
:1013A0000336023603360236033602360336E00EC3
:1013B00002160250091303500A130C6BB7C10BFB42
:1013C000D8900C31036E0B31091303500A1309CB6B
:1013D00001F00ACB02F00001000C0A01FC5301E00D
:1013E000CCD10B013C6BFCCA3BFB040E3E6F330EB1
:1013F0003D6F000174DD02C004FB01C003FB200E41
:101400000B010124016E040E0220036E0150130F24
:10141000E96E040E0320EA6EEFCF05FBECCF06FB6E
:10142000ECCF07FBECCF08FBEACF0AFBE9CF09FBC7
:1014300008CB33FB07CB32FB06CB31FB05CB30FBB4
:10144000376B366B356BF0C334FB00010BDE0ACB18
:10145000EAFF09CBE9FF0301CA510B0100240A018D
:10146000FD6F0301CB510B0101200A01FE6F030147
:10147000CC510B0102200A01FF6F0301CD510B017A
:101480000320006F3C6BFCCA3BFB040E3E6F330E27
:101490003D6F000124DD01C003FB240E0B0101247C
:1014A000016E040E0220036E0150130FE96E040E4C
:1014B0000320EA6EEF500A01FD27000EFE23FF23F2
:1014C0000B0100233C6BFCCA3BFB040E3E6F330E4A
:1014D0003D6F000104DD02C004FB01C003FB130EDD
:1014E0000B010124016E040E0220036E01C005FBF6
:1014F000066F00CB42FBFFCA41FBFECA40FBFDCAA0
:101500003FFB446F01C043FB000125DE0301E253B2
:1015100002E00001A4DE0B013C6BFCCA3BFB040EA5
:101520003E6F330E3D6F0001DADC02C004FB01C0E8
:1015300003FB0B0101C005FB020E0224066F3C6B8E
:10154000FCCA3BFB040E3E6F330E3D6F0001C7DC4F
:1015500002C008FB01C007FB2F0E0B010124016E26
:10156000040E0220036E0150130FE96E040E0320D7
:10157000EA6EECCF03F0ED52EFCF09FB03C00AFB9C
:101580003C6B200E3B6F03C03EFB09CB3DFB0001D3
:10159000A6DC01C00AFB0B0101500525016E0250BB
:1015A0000621036E0150130F016E040E032201C0C9
:1015B00001FB03C002FB3C6BFCCA3BFB040E3E6F0D
:1015C000330E3D6F00018BDC02C004FB01C003FB46
:1015D0000B0101C005FB040E0224066F0B0E012453
:1015E000016E000E0621036E0150130FE96E040E0A
:1015F0000320EA6EEFA810D01C0E0125E96E000E44
:101600000221EA6EEE52EE52EC6AED52EF6AED52B2
:10161000EF6AED52EF6A38D01C0E0125016E000E04
:101620000221036E01C003FB03C004FB3C6BFCCA38
:101630003BFB040E3E6F330E3D6F000150DC02C0D9
:1016400006FB01C005FB270E0B010124016E040EF1
:101650000220036E0150130FE96E040E0320EA6EA0
:10166000EFCF00F0ECCF01F0ECCF02F0ECCF03F0C5
:1016700004CBEAFF03CBE9FF00C0EFFF01C0ECFFA2
:1016800002C0ECFF03C0ECFF180E0125016E000E36
:101690000221036E01C003FB046F00013CDE04CB9A
:1016A000EAFF03CBE9FF02C0ECFFED5201C0EFFF00
:1016B000160E0B010125016E000E0221036E01C002
:1016C00003FB046F000158DE04CBEAFF03CBE9FF04
:1016D00002C0ECFFED5201C0EFFF0B013C6BFCCAF6
:1016E0003BFB040E3E6F330E3D6F00016FEC07F0C5
:1016F00002C004FB01C003FB2B0E0B010124016E91
:10170000040E0220036E0150130FE96E040E032035
:10171000EA6EEFCF05FBECCF06FBECCF07FBECCF7F
:1017200008FB3C6BFCCA3BFB040E3E6F330E3D6F67
:1017300000016FEC07F002C00AFB01C009FB0B01BE
:1017400001C001F0020E0224036E0150130F016E5E
:10175000040E032201C00BFB03C00CFB08CB42FBB1
:1017600007CB41FB06CB40FB05CB3FFB03C044FB53
:1017700001C043FB0001EFDC0A010001000C0A017B
:10178000E35301E05ED00B013C6BE3CA3BFB040E6C
:101790003E6F330E3D6F00016FEC07F002C0E5FABB
:1017A00001C0E4FA310E0A010124016E040E022088
:1017B000036E0150130FE96E040E0320EA6EEF5022
:1017C00061081FE00B013C6BE3CA3BFB040E3E6F5C
:1017D000330E3D6F00016FEC07F002C0E8FA01C064
:1017E000E7FA310E0A010124016E040E0220036E95
:1017F0000150130FE96E040E0320EA6EEF507708D4
:1018000004E1E3CAFCFA0001E8DD0B013C6BE3CA2A
:101810003BFB040E3E6F330E3D6F00016FEC07F093
:1018200001C0E4FA320E0A010124016E040E022006
:10183000036E0150130FE96E040E0320EA6E010ED1
:10184000EF6E0001000C0A01E46B8B94640E0B0137
:10185000486F0001D1EC06F00A01E46BE251E45D4F
:1018600031E28B84140E0B01486F0001D1EC06F0BD
:101870000A01E36BE351130807E3C950FF0EC96E79
:10188000C7A0FED7E32BF6D78B94140E0B01486F3D
:101890000001D1EC06F0400E0B014D6F516B506B07
:1018A0004F6B4E6B800E526F010E536F990E546F3B
:1018B000000106DC01C0E5FA0A01E52D01D002D0E5
:1018C000E42BCCD7E251E45D04E38B84300E016E4F
:1018D00024D0E46BE251E45D17E2410E0B014D6F41
:1018E000516B506B4F6B4E6B800E526F536B990E5A
:1018F000546F000160EC08F001C0E5FA0A01E553FD
:1019000001E102D0E42BE6D78B84E251E45D03E3EE
:10191000310E016E02D0000E016E0001ACEF43F0FB
:101920008B94010E0B01486F0001D1EC06F0D890AA
:101930000B01476B3B35486F3C35496F3D354A6F6E
:10194000510E4D6F4ACB51FB49CB50FB48CB4FFB5F
:1019500047CB4EFB100E526F536B400E546F00017D
:1019600060EC08F001C041FB0B014151400805E16A
:101970008B84110E016E45D006D0415304E08B8458
:10198000100E016E3ED0456B446B455103080FE3CA
:10199000C950FF0EC96EC7A0FED7C9CF41FB415148
:1019A000FE0801E104D0442BD8B4452BEED74151B9
:1019B000FE0804E08B84120E016E23D0436B426B51
:1019C0004351010811E33F514225E96E4051432143
:1019D000EA6EC950FF0EC96EC7A0FED7C9CFEFFF90
:1019E000422BD8B4432BECD7C950FF0EC96EC7A009
:1019F000FED7C950FF0EC96EC7A0FED78B84000E5C
:101A0000016E0001000C016A026A006A036A0A01A1
:101A1000FA5102E1F95118E0100EFB6FD890F73738
:101A2000F83700360336FA51035C02E1F951005CE5
:101A300007E3F951005ED8A00306FA51035ED8808F
:101A400001360236FB2FEAD700000001000C006AC5
:101A5000016A026A036A0B010F6B106B116B126B48
:101A60000E510D110C110B112CE0200E136FD8909C
:101A70000737083709370A370F371037113712374A
:101A80000E51125D08E10D51115D05E10C51105D23
:101A900002E10B510F5D0FE30B510F5F0C51D8A00A
:101AA0000C3D105F0D51D8A00D3D115F0E51D8A017
:101AB0000E3D125FD8800036013602360336132FF2
:101AC000D6D700000B0EEA6E0F0EE96E0001000C77
:101AD0000301BD6BBC6BBB6BBA6BC96BC86BC76BCF
:101AE000C66BE26B08015F6BC9C33EFBC8C33DFB1D
:101AF000C7C33CFBC6C33BFB040E0B01406F130E78
:101B00003F6F00010DDF01C046F80801465303E0B6
:101B100046C801F0B0D104011351EB081EE0D9C54D
:101B2000C6F3DAC5C7F3DBC5C8F3C9C33EFBC8C3F8
:101B30003DFBC7C33CFBC6C33BFB040E0B01406F20
:101B4000130E3F6F0001ECDE01C046F8080146535A
:101B500003E046C801F08FD10401030EEA6EE30EE4
:101B6000E96E040EE26E130EE16E300E016EE6CFEA
:101B7000EEFF012EFCD70301F4350A01F36F0301D8
:101B8000F5350A01F46FF337F437F337F437F337E9
:101B9000F437F337F437E00EF317010E0301EE5D6F
:101BA000006E000EEF59036E00500A01F325F56F29
:101BB0000350F421F66FF86FF5CAF7FAEFC3FAFA9B
:101BC000EEC3F9FA00011FDF0301DD6BDC6B02C01D
:101BD000DBF301C0DAF3E16BE06BFAC3DFF3F9C3C7
:101BE000DEF3DE530EE1DF530CE1E0530AE1E15393
:101BF00008E10AC4E1F309C4E0F308C4DFF307C451
:101C0000DEF30A01E96BE86BF7C3E7FAF6C3E6FA1D
:101C1000E6530EE1E7530CE1E8530AE1E95308E12A
:101C200006C4E9FA05C4E8FA04C4E7FA03C4E6FA0C
:101C30000B01336B326B316BF3C330FBE1C337FB0A
:101C4000E0C336FBDFC335FBDEC334FB000132ECFF
:101C500008F00301F1510026F2510122000E022288
:101C6000032200500A01E65DF36F0150E759F46F5B
:101C70000250E859F56F0350E959F66F0301DA5144
:101C80000A01F325EA6F0301DB510A01F421EB6F2E
:101C90000301DC510A01F521EC6F0301DD510A015A
:101CA000F621ED6FEDCA0AFBECCA09FBEBCA08FB93
:101CB000EACA07FB0B010E6B0D6B0C6BF0C30BFB41
:101CC0000001C5DE03C0F1FA02C0F0FA01C0EFFA6C
:101CD00000C0EEFA0A01F1530EE1F0530CE1EF51AE
:101CE0000F0809E303E1EE51F40805E3010E0801D2
:101CF0005F6F13D00A01F1530DE1F0530BE1EF5187
:101D0000FF0808E303E1EE51F40804E3020E0801C2
:101D10005F6F03D0030E08015F6F0301F151C62509
:101D20000A01E26F0301F251C7210A01E36F000EBD
:101D30000301C8210A01E46F000E0301C9210A0151
:101D4000E56FE5CA3EFBE4CA3DFBE3CA3CFBE2CAE1
:101D50003BFB010E0B01406FBA0E3F6F0001E0DD4F
:101D600001C046F80301C56BC46BC36BC26B0B01AA
:101D7000336B326B316BF3C330FBE1C337FBE0C332
:101D800036FBDFC335FBDEC334FB000132EC08F069
:101D900000500301C6250A01F36F01500301C7215A
:101DA0000A01F46F02500301C8210A01F56F0350C4
:101DB0000301C9210A01F66F0301DA510A01F32573
:101DC000F76F0301DB510A01F421F86F0301DC51C5
:101DD0000A01F521F96F0301DD510A01F621FA6FBD
:101DE0000301F1510A01F725FB6F0301F2510A01CA
:101DF000F821FC6F000EF921FD6F000EFA21FE6F35
:101E0000D8900301F0350A01FB5D0301CA6F000E93
:101E10000A01FC590301CB6F000E0A01FD590301B1
:101E2000CC6F000E0A01FE590301CD6F0A01F26B5F
:101E3000F2531EE10B013C6BF2CA3BFB040E3E6FFA
:101E4000330E3D6F00016FEC07F001C0F3FA320E64
:101E50000A010124016E040E0220036E0150130FCB
:101E6000E96E040E0320EA6E010EEF6EF22BE0D74E
:101E7000080146C801F00001BFEF43F0800ED8A270
:101E800002D00B01001B0B01056B066BFCCA04FBA7
:101E90000051041B0A01FB51D8B4E4D00B01036FBD
:101EA000006E0A01FF51D8B4E7D00B01035FD8B42C
:101EB00085D03EE300CB09FB098F01CB08FB02CBA9
:101EC00007FB066BD8900933083307330633032F1B
:101ED000F8D704AF03D00581E4D0059103910589BB
:101EE0000A0EEA6EFE0EE96EEFD0059904BF0AD025
:101EF00003A113D00933083307330633002AD8B4BB
:101F0000CBD00BD009BF0CD0D89006370737083795
:101F100009370006D8B4C0D0F5D7058D6FD0059D20
:101F2000FCCA04FB04AF02D0098FAFD0099FADD02B
:101F3000FFCA03FBFFCA00F00A01FB510B01035F5C
:101F4000FCCA09FB098FFDCA08FBFECA07FB066B2A
:101F5000D8900933083307330633032FF8D704AF7B
:101F600003D005839ED005930391058B0B0EEA6E7B
:101F7000020EE96EA9D0059B04BF0AD003A113D0BD
:101F80000933083307330633002AD8B485D00BD081
:101F900009BF0CD0D8900637073708370937000635
:101FA000D8B47AD0F5D7058F29D0059F00CB04FB94
:101FB00000AF02D0098F69D0099F67D000CB09FB21
:101FC000098F01CB08FB02CB07FB04AF04D0099FAC
:101FD000058567D00595066B03910A0EEA6EFE0E25
:101FE000E96E72D004BF1CD0FCCA04FB03A106D06A
:101FF0000933083307330633002A4EE006AF0BD00F
:10200000072B09E1082B07E1092B05E10933083308
:102010000733002A41E005BD82D705BFC6D71CD0D3
:10202000800E091B09AF04D03CD000CB04FB0AD0C2
:10203000FCCA04FB095306E1085304E1075302E11B
:10204000006A23D009BF08D0D89006370737083771
:102050000937002EF7D720D004AF02D0098F15D052
:10206000099F13D0FFCA00F000CB09FB01CB08FB8E
:1020700002CB07FB0B0109D0FBCA00F0FCCA09FB2D
:10208000FDCA08FBFECA07FB0B0109CB01F008CB18
:1020900002F007CB03F034D0006A016A026A036AD7
:1020A0002FD0066B071F081F091F061F062B05E10F
:1020B000072B03E1082B01E1092B05B10ED705B36E
:1020C00052D705B587D7B1D7EF50072705E3082BBF
:1020D00003E1092BD8B40381ED52EF50082703E345
:1020E000092BD8B40381ED52EF50EFBE01D0800A26
:1020F0000927D8B0038105B9F8D605BB3CD772D7FC
:1021000000000001000C0A01FB51D8B4B4D00B014F
:10211000076F0A01FF51D8B4AED00B01075F07E388
:102120007F0E0727D8A002D00A01A5D00AD0810EC1
:10213000075FD8B002D00A019ED0D8A402D00A010D
:102140009AD007CB00F0016A026A036A066BFCCAE8
:1021500005FB058FFDCA04FBFECA03FB190E076FC2
:102160000251035F0DE2010E045F0AE2055F08E21F
:10217000065F06E2062B052B042B0251032728D00D
:102180000151045F12E2010E055F0FE2065F0DE2EE
:10219000062B052B015104270251032719E3042BB9
:1021A00017E1052B15E1062B13D000518009055FBF
:1021B0000EE2010E065F0BE2062B00518009052797
:1021C00001510427E9E3052BE7E1062BE5D703805E
:1021D000072F01D00BD0D8900337043705370637C7
:1021E000D8900336023601360837BAD708A106D090
:1021F000D890013202320332083304D0002E02D0CC
:102200000A0139D008BF1ED0D890033704370537EC
:1022100006370251035F07E2010E045F04E2055F27
:1022200002E2065F1DE30151045F05E2010E055F56
:1022300002E2065F15E300518009055F03E2010E2B
:10224000065F0EE3032A0CE1022A0AE1012A08E1F3
:10225000002AD8A402D00A010ED001320232033281
:10226000FCCA07FB0051071B07AF02D0018E08D044
:10227000019E06D00A01006A016A026A036A0B0124
:1022800000000001000C0A01E56BE46BEA6B080139
:102290009E6BA26BA16BA06B9F6BE3CA03F00A015C
:1022A000E2CAE9FFE3CAEAFFEF5213E0E45105088E
:1022B00010E3E3CA03F0E2CAE9FFE3CAEAFFEF5022
:1022C0002C0801E1E42BE22BD8B4E32B0801E5D77D
:1022D0000A01E451050803E3000E016EDCD2E3CAF3
:1022E00003F0E2CAE9FFE3CAEAFFEF503108D8A4DD
:1022F000D0D2010EEA6FE22BD8B4E32BE22BD8B494
:10230000E32BE3CAECFAE2CAEBFAEE6BED6BE56B9A
:10231000ECCA03F0EBCAE9FFECCAEAFFEF502F0862
:102320002EE2ECCA03F0EBCAE9FFECCAEAFFEF5079
:10233000390825E3EECA3CFBEDCA3BFB0B013E6BC3
:102340000A0E3D6F00016FEC07F002C0EEFA01C00B
:10235000EDFA0A01EBCAE9FFECCAEAFF300EEF5CC6
:10236000EF6FF06BEF51ED27F051EE23EB2BD8B46C
:10237000EC2BE52BE551040801E201D0C9D7EDCAE9
:1023800001F0EECA02F001C09EF8010EE525E22739
:10239000000EE323E3CAECFAE2CAEBFAF96BF06B46
:1023A000EF6BEE6BED6BE56BECCA03F0EBCAE9FF8C
:1023B000ECCAEAFFEF502D0807E1010EF96FE52B9B
:1023C000EB2BD8B4EC2B0DD0ECCA03F0EBCAE9FF31
:1023D000ECCAEAFFEF502B0804E1E52BEB2BD8B455
:1023E000EC2BECCA03F0EBCAE9FFECCAEAFFEF50B2
:1023F0002F0859E2ECCA03F0EBCAE9FFECCAEAFF86
:10240000EF50390850E3F0CA06FBEFCA05FBEECAED
:1024100004FBEDCA03FB0B010A6B096B200E086F6E
:10242000820E076F00011DEC06F003C0F0FA02C037
:10243000EFFA01C0EEFA00C0EDFAECCA03F00A01AF
:10244000EBCAE9FFECCAEAFF300EEF5CFD6BFC6FF4
:10245000000101EC06F003C0F4FA02C0F3FA01C077
:10246000F2FA00C0F1FAD892F0CAFEFAEFCAFDFA09
:10247000EECAFCFAEDCAFBFAF4CA02FBF3CA01FB8E
:10248000F2CA00FBF1CAFFFAF9DC03C0F0FA02C09D
:10249000EFFA01C0EEFA00C0EDFA0A01EB2BD8B456
:1024A000EC2BE52B9ED7ECCA03F0EBCAE9FFECCA94
:1024B000EAFFEF502E08D8A47CD0E52BEB2BD8B444
:1024C000EC2BF86BF76B200EF66F820EF56FECCAF3
:1024D00003F0EBCAE9FFECCAEAFFEF502F0869E20C
:1024E000ECCA03F0EBCAE9FFECCAEAFFEF50390887
:1024F00060E3ECCA03F0EBCAE9FFECCAEAFF300E76
:10250000EF5CFD6BFC6F000101EC06F003C0F4FA18
:1025100002C0F3FA01C0F2FA00C0F1FAF4CAFEFAFE
:10252000F3CAFDFAF2CAFCFAF1CAFBFAF8CA02FBD6
:10253000F7CA01FBF6CA00FBF5CAFFFAE4DDD89240
:10254000F0CAFEFAEFCAFDFAEECAFCFAEDCAFBFACF
:1025500003C002FB02C001FB01C000FB00C0FFFA88
:102560008DDC03C0F0FA02C0EFFA01C0EEFA00C041
:10257000EDFAF8CA06FBF7CA05FBF6CA04FBF5CA72
:1025800003FB0B010A6B096B200E086F820E076FAD
:1025900000011DEC06F003C0F8FA02C0F7FA01C012
:1025A000F6FA00C0F5FA0A01EB2BD8B4EC2BE52BB8
:1025B0008ED7F9531BE0F0CA06FBEFCA05FBEECA43
:1025C00004FBEDCA03FB0B010A6B096B800E086F5D
:1025D0007F0E076F00011DEC06F003C0F0FA02C089
:1025E000EFFA01C0EEFA00C0EDFA0A01EDCA00F000
:1025F000EECA01F0EFCA02F0F0CA03F003C0E9FA34
:1026000002C0E8FA01C0E7FA00C0E6FA010EE525CB
:10261000E227000EE323E3CAECFAE2CAEBFAF96B15
:10262000F06BEF6BEE6BED6BE56BECCA03F0EBCA96
:10263000E9FFECCAEAFFEF502D0807E1010EF96F40
:10264000E52BEB2BD8B4EC2B0DD0ECCA03F0EBCA86
:10265000E9FFECCAEAFFEF502B0804E1E52BEB2B76
:10266000D8B4EC2BECCA03F0EBCAE9FFECCAEAFFE2
:10267000EF502F085AE2ECCA03F0EBCAE9FFECCAAC
:10268000EAFFEF50390851E3F0CA06FBEFCA05FB39
:10269000EECA04FBEDCA03FB0B010A6B096B200EAB
:1026A000086F820E076F00011DEC06F003C0F0FA00
:1026B00002C0EFFA01C0EEFA00C0EDFAECCA03F076
:1026C0000A01EBCAE9FFECCAEAFF300EEF5CFD6BD2
:1026D000FC6F000101EC06F003C0F4FA02C0F3FA4B
:1026E00001C0F2FA00C0F1FAD892F0CAFEFAEFCABD
:1026F000FDFAEECAFCFAEDCAFBFAF4CA02FBF3CA11
:1027000001FBF2CA00FBF1CAFFFA3EEC0FF003C076
:10271000F0FA02C0EFFA01C0EEFA00C0EDFA0A01C9
:10272000EB2BD8B4EC2BE52B9DD7ECCA03F0EBCA0E
:10273000E9FFECCAEAFFEF502E08D8A47DD0E52BC4
:10274000EB2BD8B4EC2BF86BF76B200EF66F820EE8
:10275000F56FECCA03F0EBCAE9FFECCAEAFFEF50F1
:102760002F086AE2ECCA03F0EBCAE9FFECCAEAFF01
:10277000EF50390861E3ECCA03F0EBCAE9FFECCA99
:10278000EAFF300EEF5CFD6BFC6F000101EC06F020
:1027900003C0F4FA02C0F3FA01C0F2FA00C0F1FA81
:1027A000F4CAFEFAF3CAFDFAF2CAFCFAF1CAFBFA5D
:1027B000F8CA02FBF7CA01FBF6CA00FBF5CAFFFA2A
:1027C000A2DCD892F0CAFEFAEFCAFDFAEECAFCFA11
:1027D000EDCAFBFA03C002FB02C001FB01C000FB13
:1027E00000C0FFFA3EEC0FF003C0F0FA02C0EFFAAF
:1027F00001C0EEFA00C0EDFAF8CA06FBF7CA05FB05
:10280000F6CA04FBF5CA03FB0B010A6B096B200E29
:10281000086F820E076F00011DEC06F003C0F8FA86
:1028200002C0F7FA01C0F6FA00C0F5FA0A01EB2B74
:10283000D8B4EC2BE52B8DD7F9531BE0F0CA06FB7F
:10284000EFCA05FBEECA04FBEDCA03FB0B010A6BE2
:10285000096B800E086F7F0E076F00011DEC06F0FC
:1028600003C0F0FA02C0EFFA01C0EEFA00C0EDFAC0
:102870000A01EDCA00F0EECA01F0EFCA02F0F0CA98
:1028800003F003C0A2F802C0A1F801C0A0F800C084
:102890009FF8EACA01F00001D9EF43F00A01F051B4
:1028A000016AEF5D03E2EFCA00F00CD0006A080E87
:1028B000F16FEF370036F051005CD8B0006E013692
:1028C000F12FF7D70001000C8E0E006E0A01ED51BA
:1028D000005EEECA02F0EFCA01F0028E005209E07B
:1028E000D890025202E1015204E002320132002E7D
:1028F000F7D7EEAF05D0011E021E012AD8B4022A76
:1029000000000001000C0A01E451130804E3000E6A
:10291000016E0EEF1BF0070EE56FE551E52B036A24
:10292000E225E96EE3510320EA6E300EEF5C080108
:102930008B6F8B510A0DF3CF8BF80A01E551E52B14
:10294000036AE225E96EE3510320EA6E300EEF5C84
:1029500008018B270A01E551E52B036AE225E96EA0
:10296000E3510320EA6E300EEF5C08018C6F8C514E
:102970000A0DF3CF8CF80A01E551E52B036AE22535
:10298000E96EE3510320EA6E300EEF5C08018C27FC
:102990000A01E551E52B036AE225E96EE3510320C4
:1029A000EA6E300EEF5C08018D6F8D510A0DF3CF8A
:1029B0008DF80A01E551E52B036AE225E96EE35142
:1029C0000320EA6E300EEF5C08018D27180E8B276E
:1029D000A4518B258B6F8BC8EFFA180E0A01F06F8C
:1029E00000015CDF00C08BF80A01E451E55D0EE2F6
:1029F000036AE551E225E96EE3510320EA6EEF50E8
:102A00002C0804E0E52B0001EFD70A01E52BE45187
:102A1000E55D04E3000E016E0EEF1BF0036AE55165
:102A2000E225E96EE3510320EA6EEF50410804E02D
:102A3000000E016E0EEF1BF0E52BE52B0801916BEC
:102A4000906B8F6B8E6B966B956B946B936B9B6B94
:102A50009A6B996B986B0A01E551E225E66F000EBF
:102A6000E321E76FE7CAECFAE6CAEBFAF96BF06B21
:102A7000EF6BEE6BED6BE56BECCA03F0EBCAE9FFB5
:102A8000ECCAEAFFEF502D0807E1010EF96FE52BC4
:102A9000EB2BD8B4EC2B0DD0ECCA03F0EBCAE9FF5A
:102AA000ECCAEAFFEF502B0804E1E52BEB2BD8B47E
:102AB000EC2BECCA03F0EBCAE9FFECCAEAFFEF50DB
:102AC0002F085AE2ECCA03F0EBCAE9FFECCAEAFFAE
:102AD000EF50390851E3F0CA06FBEFCA05FBEECA16
:102AE00004FBEDCA03FB0B010A6B096B200E086F98
:102AF000820E076F00011DEC06F003C0F0FA02C061
:102B0000EFFA01C0EEFA00C0EDFAECCA03F00A01D8
:102B1000EBCAE9FFECCAEAFF300EEF5CFD6BFC6F1D
:102B2000000101EC06F003C0F4FA02C0F3FA01C0A0
:102B3000F2FA00C0F1FAD892F0CAFEFAEFCAFDFA32
:102B4000EECAFCFAEDCAFBFAF4CA02FBF3CA01FBB7
:102B5000F2CA00FBF1CAFFFA3EEC0FF003C0F0FA34
:102B600002C0EFFA01C0EEFA00C0EDFA0A01EB2B49
:102B7000D8B4EC2BE52B9DD7ECCA03F0EBCAE9FFE8
:102B8000ECCAEAFFEF502E08D8A47ED0E52BEB2B41
:102B9000D8B4EC2BF86BF76B200EF66F820EF56F46
:102BA000ECCA03F0EBCAE9FFECCAEAFFEF502F08CA
:102BB0006BE2ECCA03F0EBCAE9FFECCAEAFFEF50A4
:102BC000390862E3ECCA03F0EBCAE9FFECCAEAFF9A
:102BD000300EEF5CFD6BFC6F000101EC06F003C0F2
:102BE000F4FA02C0F3FA01C0F2FA00C0F1FAF4CA32
:102BF000FEFAF3CAFDFAF2CAFCFAF1CAFBFAF8CA05
:102C000002FBF7CA01FBF6CA00FBF5CAFFFA83EC28
:102C100010F0D892F0CAFEFAEFCAFDFAEECAFCFA3A
:102C2000EDCAFBFA03C002FB02C001FB01C000FBBE
:102C300000C0FFFA3EEC0FF003C0F0FA02C0EFFA5A
:102C400001C0EEFA00C0EDFAF8CA06FBF7CA05FBB0
:102C5000F6CA04FBF5CA03FB0B010A6B096B200ED5
:102C6000086F820E076F00011DEC06F003C0F8FA32
:102C700002C0F7FA01C0F6FA00C0F5FA0A01EB2B20
:102C8000D8B4EC2BE52B8CD7F9531BE0F0CA06FB2C
:102C9000EFCA05FBEECA04FBEDCA03FB0B010A6B8E
:102CA000096B800E086F7F0E076F00011DEC06F0A8
:102CB00003C0F0FA02C0EFFA01C0EEFA00C0EDFA6C
:102CC0000A01EDCA00F0EECA01F0EFCA02F0F0CA44
:102CD00003F003C091F802C090F801C08FF800C063
:102CE0008EF8010EE525E627000EE723E7CA03F07C
:102CF000E6CAE9FFE7CAEAFFEF520FE0E6CAE9FFDA
:102D0000E7CAEAFFEFCF92F808010A01E62BD8B430
:102D1000E72BE62BD8B4E72B04D0000E016E0EEFA4
:102D20001BF0E7CAECFAE6CAEBFAF96BF06BEF6B53
:102D3000EE6BED6BE56BECCA03F0EBCAE9FFECCA96
:102D4000EAFFEF502D0807E1010EF96FE52BEB2BA1
:102D5000D8B4EC2B0DD0ECCA03F0EBCAE9FFECCAF7
:102D6000EAFFEF502B0804E1E52BEB2BD8B4EC2B5A
:102D7000ECCA03F0EBCAE9FFECCAEAFFEF502F08F8
:102D80005AE2ECCA03F0EBCAE9FFECCAEAFFEF50E3
:102D9000390851E3F0CA06FBEFCA05FBEECA04FB93
:102DA000EDCA03FB0B010A6B096B200E086F820E44
:102DB000076F00011DEC06F003C0F0FA02C0EFFA45
:102DC00001C0EEFA00C0EDFAECCA03F00A01EBCA4A
:102DD000E9FFECCAEAFF300EEF5CFD6BFC6F00010F
:102DE00001EC06F003C0F4FA02C0F3FA01C0F2FAF3
:102DF00000C0F1FAD892F0CAFEFAEFCAFDFAEECAA4
:102E0000FCFAEDCAFBFAF4CA02FBF3CA01FBF2CAF0
:102E100000FBF1CAFFFA3EEC0FF003C0F0FA02C06B
:102E2000EFFA01C0EEFA00C0EDFA0A01EB2BD8B4BC
:102E3000EC2BE52B9DD7ECCA03F0EBCAE9FFECCAFB
:102E4000EAFFEF502E08D8A47ED0E52BEB2BD8B4A8
:102E5000EC2BF86BF76B200EF66F820EF56FECCA59
:102E600003F0EBCAE9FFECCAEAFFEF502F086BE270
:102E7000ECCA03F0EBCAE9FFECCAEAFFEF503908ED
:102E800062E3ECCA03F0EBCAE9FFECCAEAFF300EDA
:102E9000EF5CFD6BFC6F000101EC06F003C0F4FA7F
:102EA00002C0F3FA01C0F2FA00C0F1FAF4CAFEFA65
:102EB000F3CAFDFAF2CAFCFAF1CAFBFAF8CA02FB3D
:102EC000F7CA01FBF6CA00FBF5CAFFFA83EC10F063
:102ED000D892F0CAFEFAEFCAFDFAEECAFCFAEDCAC1
:102EE000FBFA03C002FB02C001FB01C000FB00C0F3
:102EF000FFFA3EEC0FF003C0F0FA02C0EFFA01C097
:102F0000EEFA00C0EDFAF8CA06FBF7CA05FBF6CAEE
:102F100004FBF5CA03FB0B010A6B096B200E086F5B
:102F2000820E076F00011DEC06F003C0F8FA02C024
:102F3000F7FA01C0F6FA00C0F5FA0A01EB2BD8B493
:102F4000EC2BE52B8CD7F9531BE0F0CA06FBEFCA3C
:102F500005FBEECA04FBEDCA03FB0B010A6B096B10
:102F6000800E086F7F0E076F00011DEC06F003C096
:102F7000F0FA02C0EFFA01C0EEFA00C0EDFA0A0161
:102F8000EDCA00F0EECA01F0EFCA02F0F0CA03F099
:102F900003C096F802C095F801C094F800C093F8F9
:102FA000010EE525E627000EE723E6CAE9FFE7CA9A
:102FB000EAFFEFCF97F808010A01E62BD8B4E72B18
:102FC000E62BD8B4E72BE7CAECFAE6CAEBFAF96BC2
:102FD000F06BEF6BEE6BED6BE56BECCA03F0EBCADD
:102FE000E9FFECCAEAFFEF502D0807E1010EF96F87
:102FF000E52BEB2BD8B4EC2B0DD0ECCA03F0EBCACD
:10300000E9FFECCAEAFFEF502B0804E1E52BEB2BBC
:10301000D8B4EC2BECCA03F0EBCAE9FFECCAEAFF28
:10302000EF502F085AE2ECCA03F0EBCAE9FFECCAF2
:10303000EAFFEF50390851E3F0CA06FBEFCA05FB7F
:10304000EECA04FBEDCA03FB0B010A6B096B200EF1
:10305000086F820E076F00011DEC06F003C0F0FA46
:1030600002C0EFFA01C0EEFA00C0EDFAECCA03F0BC
:103070000A01EBCAE9FFECCAEAFF300EEF5CFD6B18
:10308000FC6F000101EC06F003C0F4FA02C0F3FA91
:1030900001C0F2FA00C0F1FAD892F0CAFEFAEFCA03
:1030A000FDFAEECAFCFAEDCAFBFAF4CA02FBF3CA57
:1030B00001FBF2CA00FBF1CAFFFA3EEC0FF003C0BD
:1030C000F0FA02C0EFFA01C0EEFA00C0EDFA0A0110
:1030D000EB2BD8B4EC2BE52B9DD7ECCA03F0EBCA55
:1030E000E9FFECCAEAFFEF502E08D8A47ED0E52B0A
:1030F000EB2BD8B4EC2BF86BF76B200EF66F820E2F
:10310000F56FECCA03F0EBCAE9FFECCAEAFFEF5037
:103110002F086BE2ECCA03F0EBCAE9FFECCAEAFF46
:10312000EF50390862E3ECCA03F0EBCAE9FFECCADE
:10313000EAFF300EEF5CFD6BFC6F000101EC06F066
:1031400003C0F4FA02C0F3FA01C0F2FA00C0F1FAC7
:10315000F4CAFEFAF3CAFDFAF2CAFCFAF1CAFBFAA3
:10316000F8CA02FBF7CA01FBF6CA00FBF5CAFFFA70
:1031700083EC10F0D892F0CAFEFAEFCAFDFAEECA5C
:10318000FCFAEDCAFBFA03C002FB02C001FB01C05E
:1031900000FB00C0FFFA3EEC0FF003C0F0FA02C0E3
:1031A000EFFA01C0EEFA00C0EDFAF8CA06FBF7CA62
:1031B00005FBF6CA04FBF5CA03FB0B010A6B096B9E
:1031C000200E086F820E076F00011DEC06F003C091
:1031D000F8FA02C0F7FA01C0F6FA00C0F5FA0A01DF
:1031E000EB2BD8B4EC2BE52B8CD7F9531BE0F0CAB2
:1031F00006FBEFCA05FBEECA04FBEDCA03FB0B019D
:103200000A6B096B800E086F7F0E076F00011DECC3
:1032100006F003C0F0FA02C0EFFA01C0EEFA00C0F7
:10322000EDFA0A01EDCA00F0EECA01F0EFCA02F0B1
:10323000F0CA03F003C09BF802C09AF801C099F8E5
:1032400000C098F8010EE525E627000EE723E7CA3F
:10325000ECFAE6CAEBFAF96BF06BEF6BEE6BED6B29
:10326000E56BECCA03F0EBCAE9FFECCAEAFFEF50EA
:103270002D0807E1010EF96FE52BEB2BD8B4EC2BF1
:103280000DD0ECCA03F0EBCAE9FFECCAEAFFEF503D
:103290002B0804E1E52BEB2BD8B4EC2BECCA03F0A4
:1032A000EBCAE9FFECCAEAFFEF502F085AE2ECCA7A
:1032B00003F0EBCAE9FFECCAEAFFEF50390851E32B
:1032C000F0CA06FBEFCA05FBEECA04FBEDCA03FB1E
:1032D0000B010A6B096B200E086F820E076F00014D
:1032E0001DEC06F003C0F0FA02C0EFFA01C0EEFADE
:1032F00000C0EDFAECCA03F00A01EBCAE9FFECCA20
:10330000EAFF300EEF5CFD6BFC6F000101EC06F094
:1033100003C0F4FA02C0F3FA01C0F2FA00C0F1FAF5
:10332000D892F0CAFEFAEFCAFDFAEECAFCFAEDCA6C
:10333000FBFAF4CA02FBF3CA01FBF2CA00FBF1CAB2
:10334000FFFA3EEC0FF003C0F0FA02C0EFFA01C042
:10335000EEFA00C0EDFA0A01EB2BD8B4EC2BE52B0A
:103360009DD7ECCA03F0EBCAE9FFECCAEAFFEF50C5
:103370002E08D8A47ED0E52BEB2BD8B4EC2BF86B21
:10338000F76B200EF66F820EF56FECCA03F0EBCAF6
:10339000E9FFECCAEAFFEF502F086BE2ECCA03F03A
:1033A000EBCAE9FFECCAEAFFEF50390862E3ECCA66
:1033B00003F0EBCAE9FFECCAEAFF300EEF5CFD6BED
:1033C000FC6F000101EC06F003C0F4FA02C0F3FA4E
:1033D00001C0F2FA00C0F1FAF4CAFEFAF3CAFDFA2B
:1033E000F2CAFCFAF1CAFBFAF8CA02FBF7CA01FBFF
:1033F000F6CA00FBF5CAFFFA83EC10F0D892F0CAC7
:10340000FEFAEFCAFDFAEECAFCFAEDCAFBFA03C0F7
:1034100002FB02C001FB01C000FB00C0FFFA3EEC52
:103420000FF003C0F0FA02C0EFFA01C0EEFA00C0DC
:10343000EDFAF8CA06FBF7CA05FBF6CA04FBF5CAA3
:1034400003FB0B010A6B096B200E086F820E076FDE
:1034500000011DEC06F003C0F8FA02C0F7FA01C043
:10346000F6FA00C0F5FA0A01EB2BD8B4EC2BE52BE9
:103470008CD7F9531BE0F0CA06FBEFCA05FBEECA76
:1034800004FBEDCA03FB0B010A6B096B800E086F8E
:103490007F0E076F00011DEC06F003C0F0FA02C0BA
:1034A000EFFA01C0EEFA00C0EDFA0A01EDCA00F031
:1034B000EECA01F0EFCA02F0F0CA03F003C0F0FA5E
:1034C00002C0EFFA01C0EEFA00C0EDFA000164ECB0
:1034D00014F002C09DF801C09CF8010E0A01E52518
:1034E000E627000EE723E56BE551E52B036AE625A9
:1034F000E96EE7510320EA6E300EEF5C0801896F38
:1035000089510A0DF3CF89F80A01E551E52B036AC9
:10351000E625E96EE7510320EA6E300EEF5C080104
:1035200089270A01E551E52B036AE625E96EE75193
:103530000320EA6E300EEF5C0801886F88510A0D97
:10354000F3CF88F80A01E551E52B036AE625E96E19
:10355000E7510320EA6E300EEF5C080188270A016C
:10356000E551E52B036AE625E96EE7510320EA6E93
:10357000300EEF5C0801866F876B87C83CFB86C8FE
:103580003BFB0B013E6B0A0E3D6F00016FEC07F039
:1035900002C087F801C086F80A01E551E52B036AED
:1035A000E625E96EE7510320EA6E300EEF5C080174
:1035B0008627000E8723D00E8627070E872387C80D
:1035C000B1F186C8B0F188C8B2F189C8B3F189C831
:1035D000B4F18BC8B5F18CC8B6F18DC8B7F19BC8F2
:1035E00006FB9AC805FB99C804FB98C803FB560E56
:1035F0000B010A6F0E0E096F6D0E086F7F0E076FBD
:1036000000011DEC06F003C09BF802C09AF801C04F
:1036100099F800C098F8010E016E0A010001E4EF6C
:1036200043F0DBCAEAFFDACAE9FF0A01EECAEFFF9C
:10363000E92AD8B4EA2AEF6ADA2BD8B4DB2B0001E6
:10364000000CEACFEDFAE9CFECFA0A01E639F0090D
:10365000E86FE827E20FE96F320FEB6FE6510F0BCF
:10366000E927E927EB27E90FEA6FEA27EA27E53997
:103670000F0BEA27EB27EA37EB37EB1FEB37E55168
:103680000F0BEB27E837070EE76F0A0EEA07EB2769
:10369000FDE3E907EA27FDE3E807E927FDE3E7079C
:1036A000E827FDE30A0EEA6EE70EE96E070EEC1559
:1036B000EC9DE926EB0EE95CD8B4EC8DEF50006E82
:1036C00008E1ECBD06D0ECB915D0ECB702D0200E65
:1036D00003D0EC87EC99300E0026EACFE6FAE9CF6A
:1036E000E5FA00C0EEFA00019CDFE6CAEAFFE5CA8F
:1036F000E9FF0A01EE50ECADDDD70001000C0A0134
:10370000FF5301E00ED10B01336B326B316BF3C30E
:1037100030FBE1C337FBE0C336FBDFC335FBDEC361
:1037200034FB000132EC08F000500301C6250B0108
:10373000046F01500301C7210B01056F0250030103
:10374000C8210B01066F03500301C9210B01076F4C
:103750000301F1510B010425006F0301F2510B012C
:103760000521016F000E0621026F000E0721036F75
:103770003C6BFFCA3BFB040E3E6F330E3D6F0001F6
:103780006FEC07F002C005FB01C004FB0B0101C098
:1037900001F0020E0224036E0150130F016E040E9D
:1037A000032201C006FB03C007FB03CB3EFB02CB99
:1037B0003DFB01CB3CFB00CB3BFB03C040FB01C00E
:1037C0003FFB000190EC0CF003CBD3F302CBD2F320
:1037D00001CBD1F300CBD0F30B013C6BFFCA3BFB19
:1037E000040E3E6F330E3D6F00016FEC07F001C019
:1037F00004FB2B0E0B010124016E040E0220036E4C
:103800000150130FE96E040E0320EA6E00CBEFFFA8
:1038100001CBECFF02CBECFF03CBECFF3C6BFFCA10
:103820003BFB040E3E6F330E3D6F00016FEC07F063
:1038300001C004FB2F0E0B010124016E040E0220B7
:10384000036E0150130FE96E040E0320EA6EEC6A5A
:10385000ED52EF6A3C6BFFCA3BFB040E3E6F330E2A
:103860003D6F00016FEC07F002C005FB01C004FBD7
:103870000B0101C001F0040E0224036E0150130F6E
:10388000066F040E0320076F3C6BFFCA3BFB040E60
:103890003E6F330E3D6F00016FEC07F002C009FB75
:1038A00001C008FB0B0101C001F0020E0224036EEF
:1038B0000150130F016E040E032201C00AFB03C066
:1038C0000BFB07CBEAFF06CBE9FF03C0E2FF01C019
:1038D000E1FF200E016EE6CFEEFF012EFCD73C6B20
:1038E000FFCA3BFB040E3E6F330E3D6F00016FECD1
:1038F00007F001C004FB200E0B010124016E040E31
:103900000220036E0150130FE96E040E0320EA6ECD
:103910000FC4EFFF10C4ECFF11C4ECFF12C4ECFFA6
:103920000A010001C5EF23F00FCB11FB0ECB10FBFA
:1039300011CB03F00B0110CBE9FF11CBEAFFEF52E3
:1039400006E0102BD8B4112B0001F2D70B010E5159
:10395000105D006E0F511159036E00C001F0026E30
:103960000001000C0B0107CBE9FF08CBEAFFEF5089
:103970002E080DE1010E0725E96E000E0821EA6E02
:10398000EF502E0804E1FF0E016E04D003D0000EAC
:10399000016E00D000019FEF22F00B012D6B2ACBAE
:1039A000E9FF2BCBEAFFEF6A2C6B2C51070819E3D8
:1039B000036A2C512825E96E29510320EA6EEFCFC6
:1039C0002EFB2E51200801E10CD02D512D2B036A26
:1039D0002A25E96E2B510320EA6E2ECBEFFF2C2B0C
:1039E000E4D72C6B2C5102082CE3036A2C51080FEE
:1039F000016E000E032201502825E96E2951032093
:103A0000EA6EEFCF2EFB2E51200802E02E5301E18B
:103A100018D02C530AE12D512D2B036A2A25E96E6B
:103A20002B510320EA6E2E0EEF6E2D512D2B036AC3
:103A30002A25E96E2B510320EA6E2ECBEFFF2C2BAB
:103A4000D1D72D512D2B036A2A25E96E2B51032046
:103A5000EA6EEF6A000167EF1FF00B0128CBE9FF68
:103A600029CBEAFFEFCF2CFB2BCB03F02ACBE9FFCE
:103A70002BCBEAFFEF502C5D17E129CB03F028CBCD
:103A8000E9FF03C0EAFFEF5203E1000E016E22D00E
:103A900029CB03F02851282BD8B4292B2A2BD8B4B2
:103AA0002B2B0001DAD70B0129CB03F028CBE9FF40
:103AB00029CBEAFFEFCF2CFB2BCB03F02ACBE9FF7E
:103AC0002BCBEAFFEF502C5D03E2FF0E036E01D01B
:103AD000010E016E000172EF1FF008015F51030833
:103AE000D8A494D00B013131396F3031386F2F3178
:103AF000376F2E31366F3933383337333633393306
:103B00003833373336333933383337333633393361
:103B10003833373336333933383337333633393351
:103B2000383337333633010E39172E517F0B3A6F46
:103B30000301C2510B01365D0FE10301C3510B01BB
:103B4000375D0AE10301C4510B01385D05E1030152
:103B5000C5510B01395D3EE00301E25304E0000171
:103B60002FEC09F00301F151C6250B013B6F030156
:103B7000F251C7210B013C6F000E0301C8210B015C
:103B80003D6F000E0301C9210B013E6F36513B25ED
:103B9000326F37513C21336F38513D21346F3951E9
:103BA0003E21356F35CB3EFB34CB3DFB33CB3CFB6D
:103BB00032CB3BFB010E406FBA0E3F6F000190EC21
:103BC0000CF039CBC5F338CBC4F337CBC3F336CBCA
:103BD000C2F30B013C6B3ACB3BFB3E6B040E3D6FDB
:103BE00000016FEC07F002C003F00150BA0FE96E5C
:103BF000010E0220EA6EEFCF00F0ECCF01F0ECCF27
:103C000002F0ECCF03F0A5D0A4D008012FCB36FBF7
:103C100030CB37FB31CB38FB0B01396B2ECB3AFB6A
:103C20000301C2510B01365D0FE10301C3510B01CA
:103C3000375D0AE10301C4510B01385D05E1030161
:103C4000C5510B01395D3EE00301E25304E0000180
:103C50002FEC09F00301F151C6250B013B6F030165
:103C6000F251C7210B013C6F000E0301C8210B016B
:103C70003D6F000E0301C9210B013E6F36513B25FC
:103C8000326F37513C21336F38513D21346F3951F8
:103C90003E21356F35CB3EFB34CB3DFB33CB3CFB7C
:103CA00032CB3BFB010E406FBA0E3F6F000190EC30
:103CB0000CF039CBC5F338CBC4F337CBC3F336CBD9
:103CC000C2F30B01D8903A35026E036A03360250F4
:103CD000BA0FE96E010E0320EA6EECCF3CFBED5209
:103CE000EFCF3BFB3C51FE0821E2FF0A03E13B51D1
:103CF000F4081CE2D8903A35026E036A033602508B
:103D0000BA0FE96E010E0320EA6EECCF3CFBED52D8
:103D1000EFCF3BFB3BCB00F03CCB01F0FF0E026E44
:103D20000F0E036E000115D014D00B01D8903A3558
:103D3000026E036A03360250BA0FE96E010E0320C9
:103D4000EA6EEFCF00F0ECCF01F0026A036A0001E7
:103D500000D0000C0B01095303E0000E016E79D373
:103D6000276B266BFF0E0301D56FD46F0F0ED96F33
:103D7000FF0ED86FD76FD66F0B013C6B09CB3BFBA7
:103D8000040E3E6F330E3D6F00016FEC07F002C072
:103D900029FB01C028FB200E0B010124016E040E3B
:103DA0000220036E0150130FE96E040E0320EA6E29
:103DB000EFCF00F0ECCF01F0ECCF02F0ECCF03F04E
:103DC00003C021FB02C020FB01C01FFB00C01EFB83
:103DD0003C6B09CB3BFB040E3E6F330E3D6F000185
:103DE0006FEC07F001C028FB0B0101C001F0020ECF
:103DF0000224036E0150130F016E040E032201C052
:103E00000AFB03C00BFB0D6B0C6B0D53D8A4C2D087
:103E10000C510F08D8A0BED00ACBE9FF0BCBEAFFAC
:103E2000EF50E50806E00ACBE9FF0BCBEAFFEF52C3
:103E30003BE10301D43D01D002D00B0135D0D53D8B
:103E400001D002D00B0130D00DCBD5F30CCBD4F385
:103E50000B013C6B09CB3BFB040E3E6F330E3D6FF9
:103E600000016FEC07F002C029FB01C028FB200E07
:103E70000B010124016E040E0220036E0150130F8A
:103E8000E96E040E0320EA6EEFCF00F0ECCF01F0F4
:103E9000ECCF02F0ECCF03F003C0D9F302C0D8F3AB
:103EA00001C0D7F300C0D6F30ACBE9FF0BCBEAFF82
:103EB000EF5203E1000E016ECCD20BCB29FB0ACBF3
:103EC00028FB0B0E2B6F0E0E2A6F000166D50B0E12
:103ED0000B01296F0E0E286F08CB2BFB07CB2AFB9B
:103EE0000001BBD501524DE10B013C6B09CB3BFB03
:103EF000040E3E6F330E3D6F00016FEC07F002C001
:103F000029FB01C028FB0B0101C001F0040E0224B3
:103F1000036E0150130F2A6F040E03202B6FEA6EFD
:103F20002ACBE9FF0BCBE2FF0ACBE1FF200E016EAB
:103F3000E6CFEEFF012EFCD73C6B09CB3BFB040E1A
:103F40003E6F330E3D6F00016FEC07F001C028FBA0
:103F50002F0E0B010124016E040E0220036E01508E
:103F6000130FE96E040E0320EA6E0DCBECFFED5249
:103F70000CCBEFFF0DCBCFF30CCBCEF3010E016ECC
:103F800068D2200E0B010A27D8B00B2B0C2BD8B40B
:103F90000D2B3BD708015F510308D8A4ACD10B010E
:103FA000262B0301F0510B01265DD8B0B2D03C6B3B
:103FB00009CB3BFB040E3E6F330E3D6F00016FECEF
:103FC00007F002C029FB01C028FB200E0B010124D1
:103FD000016E040E0220036E0150130FE96E040EF1
:103FE0000320EA6EEFCF2AFBECCF2BFBECCF2CFBB0
:103FF000ECCF2DFBEACF2FFBE9CF2EFB2DCB33FBF4
:104000002CCB32FB2BCB31FB2ACB30FB376B366B07
:10401000356BF0C334FB000132EC08F02FCBEAFF24
:104020002ECBE9FF0301CA510B010024306F0301BD
:10403000CB510B010120316F0301CC510B01022048
:10404000326F0301CD510B010320336F2651302510
:10405000226F000E3121236F000E3221246F000EDB
:104060003321256F3C6B09CB3BFB040E3E6F330EB7
:104070003D6F00016FEC07F002C029FB01C028FB77
:104080000B0101C001F0020E0224036E0150130F58
:10409000016E040E032201C02AFB03C02BFB25CBBB
:1040A0003EFB24CB3DFB23CB3CFB22CB3BFB03C0A5
:1040B00040FB01C03FFB000190EC0CF025CBD3F39B
:1040C00024CBD2F323CBD1F322CBD0F30B013C6B27
:1040D00009CB3BFB040E3E6F330E3D6F00016FECCE
:1040E00007F001C028FB2B0E0B010124016E040E0A
:1040F0000220036E0150130FE96E040E0320EA6ED6
:1041000022CBEFFF23CBECFF24CBECFF25CBECFF46
:10411000F0D0266B3C6B09CB3BFB040E3E6F330E9D
:104120003D6F00016FEC07F002C029FB01C028FBC6
:10413000200E0B010124016E040E0220036E0150BB
:10414000130FE96E040E0320EA6EEFCF2AFBECCFCB
:104150002BFBECCF2CFBECCF2DFB2DCB31FB2CCB59
:1041600030FB2BCB2FFB2ACB2EFB0001B6DC03C090
:1041700021FB02C020FB01C01FFB00C01EFB21CBA6
:10418000D9F320CBD8F31FCBD7F31ECBD6F30B013B
:104190001E3D08D01F3D06D0203D04D021510F0800
:1041A000D8B4A5D01E5307E11F5305E1205303E106
:1041B0002153D8B49CD021CB33FB20CB32FB1FCB77
:1041C00031FB1ECB30FB376B366B356BF0C334FBEA
:1041D000000132EC08F00301CA510B010024226FE8
:1041E0000301CB510B010120236F0301CC510B01C3
:1041F0000220246F0301CD510B010320256F3C6B7E
:1042000009CB3BFB040E3E6F330E3D6F00016FEC9C
:1042100007F002C029FB01C028FB0B0101C001F01F
:10422000020E0224036E0150130F016E040E0322CE
:1042300001C02AFB03C02BFB25CB3EFB24CB3DFB5F
:1042400023CB3CFB22CB3BFB03C040FB01C03FFB2D
:10425000000190EC0CF025CBD3F324CBD2F323CB8D
:10426000D1F322CBD0F30B013C6B09CB3BFB040E0B
:104270003E6F330E3D6F00016FEC07F001C028FB6D
:104280002B0E0B010124016E040E0220036E01505F
:10429000130FE96E040E0320EA6E22CBEFFF23CB4F
:1042A000ECFF24CBECFF25CBECFF3C6B09CB3BFBBD
:1042B000040E3E6F330E3D6F00016FEC07F001C03E
:1042C00028FB200E0B010124016E040E0220036E58
:1042D0000150130FE96E040E0320EA6E1ECBEFFFB0
:1042E0001FCBECFF20CBECFF21CBECFF02D0010E6B
:1042F000276FAAD008010B01262B0301DD530AE129
:10430000DC5308E1DB5306E1DA510B01265DD8B03E
:1043100099D003010B01336B326B316BF3C330FB6C
:10432000E1C337FBE0C336FBDFC335FBDEC334FB41
:10433000000132EC08F000500301C6250B01286F84
:1043400001500301C7210B01296F02500301C8214D
:104350000B012A6F03500301C9210B012B6F0301CD
:10436000F1510B0128252C6F0301F2510B0129217A
:104370002D6F000E2A212E6F000E2B212F6F26513C
:104380002C25226F000E2D21236F000E2E21246F6D
:10439000000E2F21256F3C6B09CB3BFB040E3E6FBB
:1043A000330E3D6F00016FEC07F002C029FB01C026
:1043B00028FB0B0101C001F0020E0224036E015024
:1043C000130F016E040E032201C02AFB03C02BFB56
:1043D00025CB3EFB24CB3DFB23CB3CFB22CB3BFB45
:1043E00003C040FB01C03FFB000190EC0CF025CB6B
:1043F000D3F324CBD2F323CBD1F322CBD0F30B01D5
:104400003C6B09CB3BFB040E3E6F330E3D6F00014E
:104410006FEC07F001C028FB2B0E0B010124016E8D
:10442000040E0220036E0150130FE96E040E0320E8
:10443000EA6E22CBEFFF23CBECFF24CBECFF25CBA6
:10444000ECFF02D0010E276F2753D8B4C1D4000E61
:10445000016E0001000C0B013C6B0BCB3BFB040E0F
:104460003E6F330E3D6F00016FEC07F002C011FB91
:1044700001C010FB0B0101C012FB040E0224136FDC
:10448000140E0124016E000E1321036E0150130F50
:10449000E96E040E0320EA6EECCF03F0ED52EFCF8D
:1044A00000F003C001F0026A036A03C00FFB02C000
:1044B0000EFB01C00DFB00C00CFB0DCB0FFB0CCBAA
:1044C0000EFB0C6B0D6B3C6B0BCB3BFB040E3E6F82
:1044D000330E3D6F00016FEC07F001C010FB0B01C4
:1044E00001C012FB040E0224136F1A0E0124016E88
:1044F000000E1321036E0150130FE96E040E03200A
:10450000EA6EECCF03F0ED52EF500C1303500D1395
:104510000CCB00F00DCB01F00ECB02F00FCB03F073
:104520000001000C0B01015303E0000E016EE0D00E
:1045300000CB08FBFFCA07FB0001B2EF1CF00152E1
:1045400005E0010E016E0B01D3D0000100CB08FB8A
:10455000FFCA07FB01CB09FBAAEC1EF0015205E1E3
:10456000000E016E0B01C4D0000101CB0BFB73DF09
:1045700003C009FB02C008FB01C007FB00C006FB2B
:10458000EACF0BFBE9CF0AFB03C033FB02C032FBCF
:1045900001C031FB00C030FB0B01376B366B356B54
:1045A000F0C334FB000132EC08F00BCBEAFF0ACB7E
:1045B000E9FF03C005FB02C004FB01C003FB00C010
:1045C00002FB0301CA510B0102270301CB510B016E
:1045D00003230301CC510B0104230301CD510B0133
:1045E00005233C6B01CB3BFB040E3E6F330E3D6F4E
:1045F00000016FEC07F002C007FB01C006FB0B01D6
:1046000001C001F0020E0224036E0150130F016E6F
:10461000040E032201C008FB03C009FB05CB3EFBCF
:1046200004CB3DFB03CB3CFB02CB3BFB03C040FB7D
:1046300001C03FFB000190EC0CF005CBD3F304CBA1
:10464000D2F303CBD1F302CBD0F30B013C6B01CB04
:104650003BFB040E3E6F330E3D6F00016FEC07F025
:1046600001C006FB2B0E0B010124016E040E02207B
:10467000036E0150130FE96E040E0320EA6E02CBA5
:10468000EFFF03CBECFF04CBECFF05CBECFF3C6B67
:1046900001CB3BFB040E3E6F330E3D6F00016FEC10
:1046A00007F002C007FB01C006FB200E0B0101242E
:1046B000016E040E0220036E0150130F016E040EF2
:1046C000032201C008FB03C009FB01CB0BFB000167
:1046D000C2DE09CBEAFF08CBE9FF00C0EFFF01C053
:1046E000ECFF02C0ECFF03C0ECFF010E016E0B01FA
:1046F0000001F8EF23F00A01F8CAE9FFF9CAEAFF5E
:10470000FF0EEF6EFA6BFA5327E10B013C6BFACA0E
:104710003BFB040E3E6F330E3D6F00016FEC07F064
:1047200002C0FFFA01C0FEFA320E0A010124016E36
:10473000040E0220036E0150130FE96E040E0320D5
:10474000EA6EEF5207E0F8CAE9FFF9CAEAFFFACACF
:10475000EFFF02D0FA2BD7D7F9CA03F0F8CAE9FF66
:10476000F9CAEAFFEF3C04D0000E016E026E7DD064
:10477000F9CA03F0F8CAE9FFF9CAEAFFEFCFFEFA77
:10478000FECAFFFA00017FEF1BF0F7CAFDFAF6CA76
:10479000FCFAF7CA0FFBF6CA0EFB94EC1CF001C042
:1047A000FBFA0A01FA6BFB51FA5D5BE2036AFA510C
:1047B000F625E96EF7510320EA6EEF502F084FE11E
:1047C000036AFA51F625E96EF7510320EA6EEF6AA3
:1047D000F9CA03F0F8CAE9FFF9CAEAFFEFCFFEFA17
:1047E000FDCA00FBFCCAFFFAFECA01FB00019AD613
:1047F000015228E1F9CA03F0F8CAE9FFF9CAEAFF51
:104800000B013C6BEFCF3BFB040E3E6F330E3D6F55
:1048100000016FEC07F001C0FFFA320E0A0101241B
:10482000016E040E0B010220036E0150130FE96E9E
:10483000040E0320EA6E010EEF6E000E016E026E92
:104840000A0113D00A01FA51F625FE6F000EF72176
:10485000FF6F010EFE25FC6F000EFF21FD6FFA2B8E
:10486000A2D7FCCA01F0FDCA02F00001A8EF2AF0AD
:10487000BDC30CFBBCC30BFBBBC30AFBBAC309FB28
:1048800008015F510308D8A4E9D00CCB08FB0BCB7F
:1048900007FB0ACB06FB09CB05FB0B010851040102
:1048A0000A5DD8A0D9D016E10B0107510401095DBA
:1048B000D8A0D2D00FE10B0106510401085DD8A0A9
:1048C000CBD008E107510B01055DD8A002D004014F
:1048D000C3D004010301C2510B01055D0FE10301C7
:1048E000C3510B01065D0AE10301C4510B01075DD1
:1048F00005E10301C5510B01085D47E00301F151DA
:10490000C6250B01176F0301F251C7210B01186F68
:10491000000E0301C8210B01196F000E0301C9210C
:104920000B011A6F055117250D6F065118210E6FD7
:10493000075119210F6F08511A21106F0301E2531B
:1049400003E000012FEC09F010CB3EFB0FCB3DFB49
:104950000ECB3CFB0DCB3BFB010E0B01406FBA0EA7
:104960003F6F000190EC0CF008CBBDF307CBBCF31C
:1049700006CBBBF305CBBAF3BDC3C5F3BCC3C4F3CD
:10498000BBC3C3F3BAC3C2F30B01166B156B16534B
:1049900058E115517F0855E31535026E1635036E43
:1049A00002360336FC0E02160250BA0FE96E010EF3
:1049B0000320EA6EEFCF17FBECCF18FBECCF19FB0F
:1049C000ECCF1AFB175339E1185337E1195335E18E
:1049D0001A5333E108CB14FB07CB13FB06CB12FBB6
:1049E00005CB11FB11371237133714371137123734
:1049F000133714371137123713371437113712376B
:104A0000133714371137123713371437113712375A
:104A1000133714371137123713371437800E111725
:104A2000155111131651121311CB00F012CB01F0D6
:104A300013CB02F014CB03F0ECD0152BD8B4162B0B
:104A4000A6D7010E0527D8B0062BD8B4072BD8B4AB
:104A5000082B080122D70401D5D008010CCB08FB94
:104A60000BCB07FB0ACB06FB09CB05FB0B0108535D
:104A7000D8A4C7D00753D8A4C4D006510301FA5D07
:104A8000D8B002D00B01BDD006E1F9510B01055D94
:104A9000D8B0B7D00301C2510B01055D0FE103018E
:104AA000C3510B01065D0AE10301C4510B01075D0F
:104AB00005E10301C5510B01085D47E00301F15118
:104AC000C6250B01176F0301F251C7210B01186FA7
:104AD000000E0301C8210B01196F000E0301C9214B
:104AE0000B011A6F055117250D6F065118210E6F16
:104AF000075119210F6F08511A21106F0301E2535A
:104B000003E000012FEC09F010CB3EFB0FCB3DFB87
:104B10000ECB3CFB0DCB3BFB010E0B01406FBA0EE5
:104B20003F6F000190EC0CF008CBBDF307CBBCF35A
:104B300006CBBBF305CBBAF3BDC3C5F3BCC3C4F30B
:104B4000BBC3C3F3BAC3C2F30B01166B156B16518B
:104B500000084CE3D8901535026E1635036E0250EE
:104B6000BA0FE96E010E0320EA6EECCF18FBED528E
:104B7000EFCF17FB175336E1185334E108CB14FB82
:104B800007CB13FB06CB12FB05CB11FB13CB14FB9E
:104B900012CB13FB11CB12FB116B155111131651D4
:104BA000121314530AE1135308E11251FE0811E2E3
:104BB000FF0A03E11151F4080CE211CB00F012CB13
:104BC00001F01351FF09026E14510F09036E21D039
:104BD00009D011CB00F012CB01F013CB02F014CBB3
:104BE00003F017D0152BD8B4162BB1D7010E05271B
:104BF000D8B0062BD8B4072BD8B4082B080136D769
:104C00000B010401FF0E006E016E026E0F0E036EAB
:104C10000B010001000C08015F510308D8A495D0D6
:104C20000B010E311A6F0D31196F0C31186F0B31EA
:104C3000176F1A331933183317331A3319331833DC
:104C400017331A331933183317331A331933183308
:104C500017331A331933183317331A3319331833F8
:104C60001733010E1A170B517F0B1B6F0301F15104
:104C7000C6250B011C6F0301F251C7210B011D6FEB
:104C8000000E0301C8210B011E6F000E0301C92194
:104C90000B011F6F17511C25136F18511D21146F25
:104CA00019511E21156F1A511F21166F0301C25190
:104CB0000B01175D0FE10301C3510B01185D0AE100
:104CC0000301C4510B01195D05E10301C5510B013D
:104CD0001A5D1FE00301E25303E000012FEC09F02D
:104CE00016CB3EFB15CB3DFB14CB3CFB13CB3BFB68
:104CF000010E0B01406FBA0E3F6F000190EC0CF0FB
:104D00001ACBC5F319CBC4F318CBC3F317CBC2F33B
:104D10000B013C6B1BCB3BFB3E6B040E3D6F00015C
:104D20006FEC07F00150BA0FE96E010E0220EA6E37
:104D30000FCBEFFF10CBECFF11CBECFF12CBECFF56
:104D4000010E0301E26F70D008010CCB17FB0DCBF5
:104D500018FB0ECB19FB0B011A6B0BCB1BFB0301D2
:104D6000F151C6250B011C6F0301F251C7210B0144
:104D70001D6F000E0301C8210B011E6F000E030101
:104D8000C9210B011F6F17511C25136F18511D21CD
:104D9000146F19511E21156F1A511F21166F03012F
:104DA000C2510B01175D0FE10301C3510B01185DE7
:104DB0000AE10301C4510B01195D05E10301C5516D
:104DC0000B011A5D1FE00301E25303E000012FEC29
:104DD00009F016CB3EFB15CB3DFB14CB3CFB13CBB4
:104DE0003BFB010E0B01406FBA0E3F6F000190ECD0
:104DF0000CF01ACBC5F319CBC4F318CBC3F317CB04
:104E0000C2F30B01D8901B35026E036A03360250C1
:104E1000BA0FE96E010E0320EA6E0FCBEFFF10CB45
:104E2000ECFF010E0301E26F0001000C0B010D6BA2
:104E30000A6B08CB0FFB07CB0EFB000194EC1CF0B8
:104E400001C00BFB0B01096B095107080BE3036A57
:104E500009510525E96E06510320EA6E200EEF6E1A
:104E6000092BF2D7096B0951020810E3036A0951B3
:104E7000080F016E000E032201500525E96E065150
:104E80000320EA6E200EEF6E092BEDD7096B0B5154
:104E9000095D37E2036A09510725E96E08510320CD
:104EA000EA6EEFCF0CFB0C51600806E20C517A0859
:104EB00003E30C51DF0B01D00C510C6F0C512E0889
:104EC00003E1010E0D6F1BD00D5310E00A510A2BA8
:104ED000036A080F016E000E032201500525E96EDA
:104EE00006510320EA6E0CCBEFFF09D0036A09518B
:104EF0000525E96E06510320EA6E0CCBEFFF092B66
:104F0000C6D700019CEF29F00A01F65303E0000E1A
:104F1000016E08D308015F510308D8A438D10301FA
:104F2000D63D07D1D73D05D1D83D03D1D9510F0882
:104F3000D8A4FFD000019CDC03C0D9F302C0D8F391
:104F400001C0D7F300C0D6F30301D56BD46B0B01BE
:104F50003C6BF6CA3BFB040E3E6F330E3D6F000107
:104F60006FEC07F002C006FB01C005FB200E0B0131
:104F70000124016E040E0220036E0150130FE96E2E
:104F8000040E0320EA6EEFCF07FBECCF08FBECCF5B
:104F900009FBECCF0AFB0ACB0EFB09CB0DFB08CBC0
:104FA0000CFB07CB0BFBD9C312FBD8C311FBD7C338
:104FB00010FBD6C30FFB00012EDED9C30EFBD8C3F6
:104FC0000DFBD7C30CFBD6C30BFB0F0E0B01126FEF
:104FD000FF0E116F106F0F6F00011DDED9C333FB81
:104FE000D8C332FBD7C331FBD6C330FB0B01376BC1
:104FF000366B356BF0C334FB000132EC08F0030173
:10500000CA510B0100240A01FB6F0301CB510B01B4
:1050100001200A01FC6F0301CC510B0102200A019F
:10502000FD6F0301CD510B0103200A01FE6F0B013F
:10503000046B036B0451010823E33C6BF6CA3BFB92
:10504000040E3E6F330E3D6F00016FEC07F001C0A0
:1050500005FB0B0101C007FB020E0224086F035180
:105060000124016E04510821036E0150130FE96EF3
:10507000040E0320EA6EEF6A032BD8B4042BDAD7B0
:10508000046B036B04534CE10301F0510B01035D0E
:1050900047E203510A01FB250B01056F04510A0188
:1050A000FC210B01066F000E0A01FD210B01076FA9
:1050B000000E0A01FE210B01086F3C6BF6CA3BFB98
:1050C000040E3E6F330E3D6F00016FEC07F002C01F
:1050D0000AFB01C009FB0B0101C001F0020E022412
:1050E000036E0150130F016E040E032201C00BFB6F
:1050F00003C00CFB08CB42FB07CB41FB06CB40FBBC
:1051000005CB3FFB03C044FB01C043FB0001ABECFC
:1051100008F001C046F80B01032BD8B4042BB2D71A
:105120000801465305E0000E016E0A01FBD108019B
:105130002DD00B013C6BF6CA3BFB040E3E6F330EC9
:105140003D6F00016FEC07F002C006FB01C005FBDC
:105150002B0E0B010124016E040E0220036E015080
:10516000130FE96E040E0320EA6EEFCF00F0ECCFD0
:1051700001F0ECCF02F0ECCF03F003C0FEFA02C066
:10518000FDFA01C0FCFA00C0FBFA08012CD00B01AB
:105190003C6BF6CA3BFB040E3E6F330E3D6F0001C5
:1051A0006FEC07F002C006FB01C005FB2B0E0B01E4
:1051B0000124016E040E0220036E0150130FE96EEC
:1051C000040E0320EA6EEFCF00F0ECCF01F0ECCF3D
:1051D00002F0ECCF03F003C0FEFA02C0FDFA01C0FA
:1051E000FCFA00C0FBFA0B013C6BF6CA3BFB040E59
:1051F0003E6F330E3D6F00016FEC07F002C006FBFF
:1052000001C005FB0B0101C001F0020E0224036E78
:105210000150130F016E040E032201C007FB03C0EF
:1052200008FBFECA3EFBFDCA3DFBFCCA3CFBFBCAB9
:105230003BFB03C040FB01C03FFB000190EC0CF0C6
:105240000B013C6BF6CA3BFB040E3E6F330E3D6F09
:1052500000016FEC07F002C006FB01C005FB0B016B
:1052600001C007FB020E0224086F3C6B200E3B6F4F
:10527000D5C33EFBD4C33DFB00016FEC07F001C07A
:1052800009FB0B0101500725016E02500821036E36
:105290000150130F016E040E032201C0F9FA0A0136
:1052A00003C0FAFA0B013C6BF6CA3BFB040E3E6FDF
:1052B000330E3D6F00016FEC07F001C005FB2B0EB4
:1052C0000B010124016E040E0220036E0150130F26
:1052D000E96E040E0320EA6EFBCAEFFFFCCAECFF86
:1052E000FDCAECFFFECAECFF3C6BF6CA3BFB040EAA
:1052F0003E6F330E3D6F00016FEC07F001C005FB00
:105300002F0E0B010124016E040E0220036E0150CA
:10531000130FE96E040E0320EA6ED5C3ECFFED52C5
:10532000D4C3EFFFFACA06FBF9CA05FBF8CA08FBAB
:10533000F7CA07FB00017AD50B0E0A01F925E96EC1
:10534000000EFA21EA6EEF6A000138EC24F003C087
:1053500002FB02C001FB01C000FB00C0FFFA1A0EF5
:105360000A01F925E96E000EFA21EA6E0B01FFCA67
:10537000EFFF00CBECFF140E0A01F925E96E000ED9
:10538000FA21EA6E01CBEFFF02CBECFF02CB0EFB62
:1053900001CB0DFB00CB0CFBFFCA0BFB0F0E0B016F
:1053A000126FFF0E116F106F0F6F000134DC1C0EB7
:1053B0000A01F925E96E000EFA21EA6EEE52EE526C
:1053C000EC6AED52EF6AED52EF6AED52EF6A0B01B3
:1053D0003C6BF6CA3BFB040E3E6F330E3D6F000183
:1053E0006FEC07F001C005FB270E0B010124016ED5
:1053F000040E0220036E0150130FE96E040E032009
:10540000EA6EEE52EE52EC6AED52EF6AED52EF6A3E
:10541000ED52EF6A180E0A01F925016E000EFA210D
:10542000036E01C005FB0B01066F00018BEC09F058
:1054300006CBEAFF05CBE9FF02C0ECFFED5201C04D
:10544000EFFF160E0A01F925016E000EFA21036E18
:1054500001C005FB0B01066F0001BCEC09F006CB97
:10546000EAFF05CBE9FF02C0ECFFED5201C0EFFF00
:105470000B013C6BF6CA3BFB040E3E6F330E3D6FD7
:1054800000016FEC07F002C006FB01C005FB0B0139
:1054900001C001F0020E0224036E0150130F016ED1
:1054A000040E032201C007FB03C008FBFECA42FB37
:1054B000FDCA41FBFCCA40FBFBCA3FFB03C044FBE7
:1054C00001C043FB0001ABEC08F001C046F80B0142
:1054D0003C6BF6CA3BFB040E3E6F330E3D6F000182
:1054E0006FEC07F002C006FB01C005FB0B0101C019
:1054F00001F0040E0224036E0150130F076F040E17
:105500000320086FEA6E07CBE9FFFACAE2FFF9CA87
:10551000E1FF200E016EE6CFEEFF012EFCD7010E5B
:10552000016E0A010001F3EF2AF0938081A004D0FC
:10553000FF0E016E9FEF2EF0E4CAF7FAE3CAF6FA07
:105540000A0E0A01F96FE70EF86F00017BEF23F0F6
:1055500002C0F5FA01C0F4FA0A01F45308E1F55368
:1055600006E1FF0E016E00019FEF2EF00A01E66BCF
:10557000F5CA08FBF4CA07FBE7CA09FB0001AAEC5D
:105580001EF001C0E6FA0A01E65335E1E551720862
:1055900022E10B013C6BE7CA3BFB040E3E6F330E6E
:1055A0003D6F00016FEC07F001C0F6FA320E0A0100
:1055B0000124016E040E0220036E0150130FE96EE8
:1055C000040E0320EA6E010EEF6EFF0E016E000165
:1055D000B6D312D00A01E7CAF6FAF5CAF8FAF4CA45
:1055E000F7FA000191D4015203E1FF0E016EA7D337
:1055F000010E0A01E66F00010A01E653D8B49DD3FB
:105600000B013C6BE7CA3BFB040E3E6F330E3D6F54
:1056100000016FEC07F001C0F6FA320E0A01012416
:10562000016E040E0220036E0150130FE96E040E8A
:105630000320EA6EEF6A0B013C6BE7CA3BFB040EEA
:105640003E6F330E3D6F00016FEC07F001C0F6FABC
:10565000310E0A010124016E040E0220036E015076
:10566000130FE96E040E0320EA6EE5CAEFFFE55161
:105670006108D8A471D20B013C6BE7CA3BFB040E56
:105680003E6F330E3D6F00016FEC07F002C0F7FA7A
:1056900001C0F6FA270E0A010124016E040E022051
:1056A000036E0150130F016E040E032201C0F8FABD
:1056B00003C0F9FA0B013C6BE7CA3BFB040E3E6FDB
:1056C000330E3D6F00016FEC07F002C0FBFA01C022
:1056D000FAFA0A0101C0FCFA040E0224FD6F1C0E46
:1056E0000124016E000EFD21036E0150130FE96EBF
:1056F000040E0320EA6EEFCF00F0ECCF01F0ECCF08
:1057000002F0ECCF03F0F9CAEAFFF8CAE9FF00C0E3
:10571000EFFF01C0ECFF02C0ECFF03C0ECFFE7CAE3
:105720000BFB00012BEC22F003C0EFFA02C0EEFAF3
:1057300001C0EDFA00C0ECFAEFCAF3FAEECAF2FAD1
:10574000EDCAF1FAECCAF0FA0A01EC3D07D0ED3DE2
:1057500005D0EE3D03D0EF510F0839E0F05306E1DC
:10576000F15304E1F25302E1F35331E0EFCA31FBAC
:10577000EECA30FBEDCA2FFBECCA2EFB00016DEC2C
:105780001DF003C0F3FA02C0F2FA01C0F1FA00C042
:10579000F0FA0A01F03D07D0F13D05D0F23D03D00B
:1057A000F3510F0808E0F05307E1F15305E1F2531C
:1057B00003E1F35301E10BD0F3CAEFFAF2CAEEFAB8
:1057C000F1CAEDFAF0CAECFA0001BED70A01EFCA3D
:1057D00033FBEECA32FBEDCA31FBECCA30FB0B01E6
:1057E000376B366B356BF0C334FB000132EC08F0DD
:1057F0000301CA510A010024E86F0301CB510A01D9
:105800000120E96F0301CC510A010220EA6F030174
:10581000CD510A010320EB6F0B013C6BE7CA3BFB48
:10582000040E3E6F330E3D6F00016FEC07F002C0B7
:10583000F7FA01C0F6FA240E0A010124016E040EE3
:105840000220036E0150130F016E040E032201C0EB
:10585000F8FA03C0F9FA0B013C6BE7CA3BFB040EF4
:105860003E6F330E3D6F00016FEC07F002C0FBFA94
:1058700001C0FAFA270E0A010124016E040E02206B
:10588000036E0150130FE96E040E0320EA6EEFCF92
:10589000FCFAECCFFDFAECCFFEFAECCFFFFAED52BA
:1058A000ED52ED52D8900B01046B0A01FF310B0150
:1058B000036F0A01FE310B01026F0A01FD310B017A
:1058C000016FEACF06FBE9CF05FB04CB0AFB03CB54
:1058D00009FB02CB08FB076F0E6B0D6B0C6BF0C363
:1058E0000BFB000127EC0DF0EFCF00F0ECCF01F047
:1058F000ECCF02F0ECCF03F006CBEAFF05CBE9FFDB
:10590000F9CAEAFFF8CAE9FF00C0EFFF0B013C6BE0
:10591000E7CA3BFB040E3E6F330E3D6F00016FEC98
:1059200007F001C0F6FA240E0A010124016E040EEC
:105930000220036E0150130FE96E040E0320EA6E7D
:10594000EF50E827000EE923EA23EB230B013C6B21
:10595000E7CA3BFB040E3E6F330E3D6F00016FEC58
:1059600007F002C0F7FA01C0F6FA130E0A0101248B
:10597000016E040E0220036E01C0F8FAF96FEBCA43
:105980003EFBEACA3DFBE9CA3CFBE8CA3BFBE8CF69
:1059900040FB01C03FFB000190EC0CF00B013C6BA5
:1059A000E7CA3BFB040E3E6F330E3D6F00016FEC08
:1059B00007F001C0F6FA200E0A010124016E040E60
:1059C0000220036E0150130FE96E040E0320EA6EED
:1059D000ECCAEFFFEDCAECFFEECAECFFEFCAECFF3A
:1059E0000B013C6BE7CA3BFB040E3E6F330E3D6F71
:1059F00000016FEC07F002C0F7FA01C0F6FA250EBD
:105A00000A010124016E040E0220036E0150130FDF
:105A1000016E040E032201C0F8FA03C0F9FA0B016B
:105A20003C6BE7CA3BFB040E3E6F330E3D6F00013B
:105A30006FEC07F002C0FBFA01C0FAFA270E0A0168
:105A40000124016E040E0220036E0150130FE96E53
:105A5000040E0320EA6EEFCFFCFAECCFFDFAECCF98
:105A6000FEFAECCFFFFAFD51010BF9CAEAFFF8CAC2
:105A7000E9FFFCCAEFFFEC6E0B013C6BE7CA3BFB96
:105A8000040E3E6F330E3D6F00016FEC07F002C055
:105A9000F7FA01C0F6FA250E0A010124016E040E80
:105AA0000220036E0150130FE96E040E0320EA6E0C
:105AB000ECCFF9FAED52EFCFF8FAF8534CE1F95385
:105AC0004AE10B013C6BE7CA3BFB040E3E6F330E11
:105AD0003D6F00016FEC07F002C0FBFA01C0FAFA5B
