:020000040000FA
:040000007DEF31F06F
:0800080061EF00F000000000B0
:100010000000000000000000056ED8CF06F0E0CF21
:1000200007F00001E9CF0DF0EACF08F0E1CF09F0C9
:10003000E2CF0AF0D9CF0BF0DACF0CF0F3CF14F007
:10004000F4CF15F0FACF16F0FBCF17F000C00FF089
:1000500001C010F002C011F003C012F004C013F090
:10006000F2AA36EF00F0F2B456EF04F0A3AA3CEF88
:1000700000F0A4BAF5EF03F00FC000F010C001F0DB
:1000800011C002F012C003F013C004F00E8E0DC0B8
:10009000E9FF08C0EAFF09C0E1FF0AC0E2FF0BC0A8
:1000A000D9FF0CC0DAFF14C0F3FF15C0F4FF16C06F
:1000B000FAFF17C0FBFF055007C0E0FF06C0D8FFDE
:1000C00010000001E9CF1EF0EACF19F0E1CF1AF0DD
:1000D000E2CF1BF0D9CF1CF0DACF1DF0F3CF25F023
:1000E000F4CF26F0FACF27F0FBCF28F000C020F0A5
:1000F00001C021F002C022F003C023F004C024F0AC
:100100009DAA86EF00F09EBA3CEF03F020C000F0FD
:1001100021C001F022C002F023C003F024C004F08B
:100120001F8E1EC0E9FF19C0EAFF1AC0E1FF1BC005
:10013000E2FF1CC0D9FF1DC0DAFF25C0F3FF26C0B7
:10014000F4FF27C0FAFF28C0FBFF1100F2CF0EF02A
:10015000F29CF29EF76A700FF66E010EF722000E07
:10016000F86E0900F5500EBCF28C0EBEF28E120035
:100170000D0A5265616420736563746F72232025D4
:100180006C752E00F2CF0EF0F29CF29EF76AA80F6B
:10019000F66E010EF722000EF86E0900F5500EBC47
:1001A000F28C0EBEF28E12000D0A577269746553FE
:1001B0006563746F7228256C75292E00F2CF0EF0DE
:1001C000F29CF29EF76AE00FF66E010EF722000E27
:1001D000F86E0900F5500EBCF28C0EBEF28E1200C5
:1001E0000D0A52656164526F6F744469726563747D
:1001F0006F7279282900F2CF0EF0F29CF29EF76A16
:100200001A0FF66E020EF722000EF86E0900F55076
:100210000EBCF28C0EBEF28E12000D0A46696E64A0
:10022000446972456E7472792825732C25642900FF
:10023000F2CF0EF0F29CF29EF76A540FF66E020EA9
:10024000F722000EF86E0900F5500EBCF28C0EBEBF
:10025000F28E12000D0A54727946696C6528257376
:100260002900F2CF0EF0F29CF29EF76A860FF66E2E
:10027000020EF722000EF86E0900F5500EBCF28C4B
:100280000EBEF28E12000D0A436C757374657220F7
:1002900073746172747320617420256C75283078D2
:1002A00025303458292E0000F2CF0EF0F29CF29E39
:1002B000F76ACC0FF66E020EF722000EF86E0900F8
:1002C000F5500EBCF28C0EBEF28E12000D0A466F77
:1002D000756E6420656E6420636C7573746572203E
:1002E000256C7528307825303458292E0000F76A9F
:1002F000020FF66E030EF722000EF86E0900F5509D
:100300001200524D4300F76A1A0FF66E030EF722E1
:10031000000EF86E0900F550120043545300F2CF5E
:100320000EF0F29CF29EF76A420FF66E030EF72271
:10033000000EF86E0900F5500EBCF28C0EBEF28E67
:100340001200524547203078253032583D20307811
:10035000253032580D0A0000F2CF0EF0F29CF29ECA
:10036000F76A7C0FF66E030EF722000EF86E090096
:10037000F5500EBCF28C0EBEF28E120039393939AE
:100380000000F2CF0EF0F29CF29EF76AA60FF66E16
:10039000030EF722000EF86E0900F5500EBCF28C29
:1003A0000EBEF28E120047505343415220737461C7
:1003B000727465642E0D0A00F2CF0EF0F29CF29E6C
:1003C000F76ADC0FF66E030EF722000EF86E0900D6
:1003D000F5500EBCF28C0EBEF28E12000D0A2530C6
:1003E000337520526563763A20257300F2CF0EF004
:1003F000F29CF29EF76A100FF66E040EF722000EC2
:10040000F86E0900F5500EBCF28C0EBEF28E120092
:100410000D0A4C6561646572277320676F6E652EE7
:100420000000F2CF0EF0F29CF29EF76A460FF66ED5
:10043000040EF722000EF86E0900F5500EBCF28C87
:100440000EBEF28E12002447504354532C25732CB9
:10045000452A30300D0A0000F2CF0EF0F29CF29ED9
:10046000F76A7C0FF66E040EF722000EF86E090094
:10047000F5500EBCF28C0EBEF28E12000D0A5344E3
:10048000206361726420496E7365727465642E0026
:10049000F2CF0EF0F29CF29EF76AB40FF66E040EE5
:1004A000F722000EF86E0900F5500EBCF28C0EBE5D
:1004B000F28E12000D0A496E6974205344202825DB
:1004C0006C64292E2E2E0000F2CF0EF0F29CF29ECC
:1004D000F76AEC0FF66E040EF722000EF86E0900B4
:1004E000F5500EBCF28C0EBEF28E12000D0A534473
:1004F00020496E6974204F6B0000F2CF0EF0F29C21
:10050000F29EF76A1E0FF66E050EF722000EF86EC9
:100510000900F5500EBCF28C0EBEF28E12000D0AD0
:10052000534420496E6974204661696C65642E00ED
:10053000F2CF0EF0F29CF29EF76A540FF66E050EA3
:10054000F722000EF86E0900F5500EBCF28C0EBEBC
:10055000F28E12000D0A204661696C656420746F8A
:1005600020696E69744661742C206572726F722006
:10057000636F6465203D203078253032582E0000AE
:10058000F2CF0EF0F29CF29EF76AA40FF66E050E03
:10059000F722000EF86E0900F5500EBCF28C0EBE6C
:1005A000F28E1200257325303264253032642E4CD1
:1005B0004F470000F2CF0EF0F29CF29EF76AD80F80
:1005C000F66E050EF722000EF86E0900F5500EBC0F
:1005D000F28C0EBEF28E12002447504354532C2549
:1005E000732C25732C452A30300D0A0009016953FC
:1005F0003FE065C9E9FF66C9EAFFEFCF6AF968C95C
:1006000003F067C9E9FF68C9EAFFEF506A5D17E0C8
:1006100066C903F065C9E9FF66C9EAFFEFCF6AF969
:1006200068C903F067C9E9FF68C9EAFFEF506A5D6E
:1006300002E2FF0E01D0010E016E1CD00BD066C984
:1006400003F065C9E9FF66C9EAFFEF5203E1000E56
:10065000016E10D066C903F06551652BD8B4662BC6
:1006600068C903F06751672BD8B4682B6907BFD7F7
:10067000000E016E0001000C9EAAFED7AFCF60F9FC
:1006800009010601FC5305E009016051A4A8FED749
:10069000A96E0701D487D4A101D0A3D0090160516C
:1006A000240803E10701D36BD4870701D351D32B6F
:1006B000036A520FE96E070E0320EA6E60C9EFFF6E
:1006C000090160510A0806E00701D3517F08D8B03C
:1006D00088D00901036A0701D351520FE96E070E52
:1006E0000320EA6EEF6AD351090803E2525124084D
:1006F00003E0D36B526B75D0090EEA6E610EE96EA2
:10070000F2CF65F9F29CF29E000E0001F0DD0A00C6
:100710000900F550EE6E0009FBE1090165BDF28CA0
:1007200065BFF28E070E666F550E656F090E686F16
:10073000610E676F030E696F000158DF01521BE104
:10074000070EEA6ED50EE96E070EE26E520EE16EEE
:10075000E752E6CFEEFFFCE1D3C756F8036A080183
:100760005651D50FE96E070E0320EA6EEF6A0701B6
:10077000D48137D00001090EEA6E610EE96EF2CF26
:1007800065F9F29CF29E000EBEDD0A000900F550EC
:10079000EE6E0009FBE1090165BDF28C65BFF28ECA
:1007A000070E666F550E656F090E686F610E676FF5
:1007B000030E696F00011ADF015211E1080EEA6EA3
:1007C000570EE96E070EE26E520EE16EE752E6CF6B
:1007D000EEFFFCE1D3C789F80701D48502D00701F9
:1007E000D36B9E9A000186EF00F0A4AAFED7AACF91
:1007F0005BF909010701082BD8B4092B0A0E046F15
:1008000009015B510D0814E05B510A0811E0070172
:100810004A514A2B036A0A0FE96E070E0320EA6E5B
:100820005BC9EFFF4A511A0801E24A6B3BD009014C
:1008300007014A51060835E20A51440832E10B51DA
:1008400052082FE10C5156082CE1010E516F93967E
:100850008A8609015B6B5B5103081AE3036A5B51EB
:100860004B0F016E070E032203C05DF9030E5B25DB
:10087000036A0A0FE96E070E0320EA6EEFCF5FF9F5
:100880005DC9EAFF01C0E9FF5FC9EFFF5B2BE3D75A
:10089000036A5B514B0FE96E070E0320EA6EEF6AA5
:1008A00007014A6BA49A00013CEF00F0150ED76EC9
:1008B000B80ED66E0601FD5301E0FD07FE2BD8B43D
:1008C000FF2B0701005301E00007035301E003077A
:1008D000055301E00507065301E006070151021127
:1008E00004E00151D8B402070107F29400013CEF83
:1008F00000F00801EF6703D0F06702D007D0F02BBB
:10090000EEC8EEFFEF2FFCD7F02FFAD70001000C56
:10091000DBC801F0DAC800F00066012A0900F5CF53
:10092000EEFF002EFBD7012EF9D7F86AA7EF04F0EF
:10093000110E0801D96FF86AFC0EF76EF66AEA6AC2
:10094000380EE96EDB6BD9C8DAF80001E1D7BBEFEE
:1009500032F0F250036EF29EA6840F01550EA76E80
:10096000AA0EA76EA68200000350F2120001000C2E
:10097000D08CF6503F0B006EC00EF6160A00DAC897
:1009800001F0F65000660AD0010F08E1F750010FA0
:10099000030B04E1A6880900DCDF0A00006607D02B
:1009A000EECFF5FF015204E00F00010603D0000670
:1009B0000B000C003F0EF6143F0AE3E1CADF0166AC
:1009C000E0D7F86AF2EF04F0110E0801D96FF86A67
:1009D000FC0EF76EF66AEA6A380EE96ED9C8DAF8E4
:1009E0000001C6D7E4EF32F0090EEA6E410EE96E5F
:1009F000EF500EE00F0E016E006A002EFED7012EA2
:100A0000FBD78F0E006E002EFED70000EF2EF2D720
:100A1000000C8E0E006EF2C801F0F1C802F0036AFD
:100A2000015209E102C001F0026A080E005E0152A3
:100A300002E1006A08D0D89001BE04D00236013627
:100A40000006F9D7019E000C0801F051D8B471D00E
:100A5000006EF451D8B46DD0002604E3810E002658
:100A600068E204D07F0E005E64E363E0F1C8F8F84A
:100A7000F551F81BF18FF58FF351F703F4CFFAF826
:100A8000F251F603F4CF03F0F3CFF9F8F703F35084
:100A9000FA27F450F923000E0322F351F603F35022
:100AA000FA27F450F923000E026A03220222F151C0
:100AB000F703F350F927F4500322000E0222F151FC
:100AC000F603F3500326F4500222000E016A0122BD
:100AD000F351F503F350F927F4500322000E0222DC
:100AE0000122F251F503F3500326F4500222000EC6
:100AF0000122F151F503F3500226F4500122002A9D
:100B000001BE05D0F9370336023601360006000E65
:100B1000F9AF0AD0032A02220122015005E1025056
:100B200003E1035001E1002AF8BF018EF8AF019EF6
:100B300004D0006A016A026A036A0001000C08011D
:100B4000F051D8B4A5D0FC6FF451D8B4A1D0FC5F5B
:100B500005E37F0EFC27D8B09BD006D0810EFC5F4A
:100B6000D8A096D0D8B494D0FCC800F0016A026A2C
:100B7000036AFB6BF1C8FAF8FA8FF2C8F9F8F3C808
:100B8000F8F8190EFC6FF751F85F0DE2010EF95FEE
:100B90000AE2FA5F08E2FB5F06E2FB2BFA2BF92B75
:100BA000F751F82728D0F651F95F12E2010EFA5FEB
:100BB0000FE2FB5F0DE2FB2BFA2BF651F927F75101
:100BC000F82719E3F92B17E1FA2B15E1FB2B13D0CA
:100BD000F5518009FA5F0EE2010EFB5F0BE2FB2B81
:100BE000F5518009FA27F651F927E9E3FA2BE7E1F5
:100BF000FB2BE5D70380FC2F01D00BD0D890F83722
:100C0000F937FA37FB37D890033602360136FD370D
:100C1000BAD7FDA106D0D890013202320332FD339B
:100C200002D0000635E0FDBF1ED0D890F837F93766
:100C3000FA37FB37F751F85F07E2010EF95F04E27C
:100C4000FA5F02E2FB5F1AE3F651F95F05E2010E7B
:100C5000FA5F02E2FB5F12E3F5518009FA5F03E2FB
:100C6000010EFB5F0BE3032A09E1022A07E1012AD7
:100C700005E1002A0DE0013202320332F1C8FCF82E
:100C8000F551FC1BFCAF02D0018E06D0019E04D0B2
:100C9000006A016A026A036A0001000C000E016E1C
:100CA000C250C30B0110C26E0801DA6BD96B270E5C
:100CB000006E002EFED700D0C282C2B2FED7C3CFD4
:100CC000D9F8C4CFDAF8DAC8F2F8D9C8F1F80001D7
:100CD000A0DE03C0B5F802C0B4F801C0B3F800C08C
:100CE000B2F8B5C8F3F8B4C8F2F8B3C8F1F8B2C8AE
:100CF000F0F8FBC6F7F8FAC6F6F8F9C6F5F8F8C644
:100D0000F4F8A2DE00C0DBF801C0DCF802C0DDF8B8
:100D100003C0DEF803C0F3F802C0F2F801C0F1F836
:100D200000C0F0F80801F76BF66BF56B800EF46FFE
:100D300000018ADE00C0DFF801C0E0F802C0E1F87F
:100D400003C0E2F803C0F3F802C0F2F801C0F1F802
:100D500000C0F0F80801F76BFF0EF66F7F0EF56F1D
:100D60008E0EF46F0001EBDE03C0B5F802C0B4F8DC
:100D700001C0B3F800C0B2F8BFEF06F08FD765EF3F
:100D800033F00801E06B8B90DF6BDF5107081FE346
:100D9000D890E037070ED880DF55E16FDEC800F04D
:100DA000E151016E04E0D8900032012EFCD700A082
:100DB00002D08B8201D08B9200008B8000008B9040
:100DC0009288000E80B8010EE013DF2BDED7E0C85A
:100DD00001F00001000C979A8E8A030E006E002E1F
:100DE000FED700D0979A8E9A030E006E002EFED783
:100DF00000D0DAC8DEF8C5DF01C0DCF8DBC8DEF8F9
:100E0000C0DF0801DCC801F00001000C979A8E8A4F
:100E1000030E006E002EFED700D0979A8E9A030E16
:100E2000006E002EFED700D0DAC8DEF8AADF000C74
:100E3000240E0801DA6F1F0EDB6F0001CCDF210EDC
:100E40000801DA6F3F0EDB6F0001C5DF230E0801DA
:100E5000DA6F030EDB6F0001BEDF260E0801DA6FCA
:100E6000070EDB6F0001B7DF310E0801DA6F070EE6
:100E7000DB6F0001B0DF250E0801DA6F020EDB6FB9
:100E80000001A9DF300E0801DA6F0001BFDFE70EB5
:100E90000801DE6F000175DFE70E0801DE6F00015B
:100EA00070DFE70E0801DE6F00016BDFE70E08015F
:100EB000DE6F000166DFE70E0801DE6F000161DF13
:100EC0002A0E0801DA6F0001A1DFE70E0801DE6FCC
:100ED000000157DFE70E0801DE6F000152DFE70E69
:100EE0000801DE6F00014DDFE70E0801DE6F000133
:100EF00048DFE70E0801DE6F000143DF979A8E8A14
:100F00008EEF07F0979A8E8A97948E94200E0801A0
:100F1000DA6F390EDB6F00015EDF8AD7200E080121
:100F2000DA6F3B0EDB6F000156DF979A8E8A97943B
:100F30008E847FEF33F00801DE6BDD6BDD51070837
:100F400018E38B9000008B800000928880A80FD05F
:100F5000070ED880DD55DF6F010E006EDF51016E88
:100F600004E0D8900036012EFCD70050DE13DD2BB4
:100F7000E5D78B90DEC801F00001000C979A8E8AAD
:100F8000030E006E002EFED700D0979A8E9A030EA5
:100F9000006E002EFED700D00801DB511F0BDD6F65
:100FA000DE6F0001EEDEC7DF01C0DCF8979A8E8AA3
:100FB0000801DCC801F000010BEF08F00801EFBFE9
:100FC00010D00F0E006EEE3900160A0E005C03E220
:100FD000300E002602D0EF51002600509EA8FED70A
:100FE000AE6E0F0EEE170A0EEE5D02E2300E02D06C
:100FF000EF9FEF51EE27EE519EA8FED7AE6E000197
:10100000000C0801D96BD95117083FE3DA6BD9C836
:10101000DBF80001B3D701C0DAF80801DB6BDB5164
:1010200000018FEC01F00801DB2B006E00509EA840
:10103000FED7AE6E060EDB5DF2E1D9C8EEF8370ED4
:10104000EF6F0001BBDF0A0E0801DC6FDC5100010D
:101050008FEC01F00801DC2B006E00509EA8FED73B
:10106000AE6E0E0EDC5DF2E1DAC8EEF8370EEF6F11
:101070000001A4DF0D0E9EA8FED7AE6E0A0E9EA83C
:10108000FED7AE6E0801D92BBED7000181EF33F039
:10109000ACA202D0AC98AC88ACA402D0AFCFD9F847
:1010A0009CA202D09C989C889CA402D0AACFD9F87C
:1010B00083EF33F0610E0801DA6F0001A7DE08014B
:1010C000D96BD951060815E3036AD951B70F016EE0
:1010D000080E032201C0DAF803C0DBF800012BDFA1
:1010E000DBC8EAFFDAC8E9FF01C0EFFF0801D92B2E
:1010F000E8D7BE6BE20EDA6F000188DE270E08012A
:10110000DA6F400EDB6F000166DE979A8E8AA1EFE0
:1011100033F009012B51016A2A5D03E22AC900F06C
:101120000CD0006A080E2C6F2A3700362B51005C59
:10113000D8B0006E01362C2FF7D70001000C0150FB
:10114000DDC82AF9640E09012B6F0001E2DF00C03F
:10115000DDF80150300E08E10801DEA30ED0DEB745
:101160000CD0DEB9200E04D00801DE97DE99DE81B6
:10117000012601509EA8FED7AE6EDDC82AF90A0EE0
:1011800009012B6F0001C5DF00C0DDF80150300EF2
:1011900008E10801DEB70BD0DEA109D0DEB9200ED0
:1011A0000001012601509EA8FED7AE6E0801300E48
:1011B000DD27DD519EA8FED7AE6E0001C9EF33F0EA
:1011C0000801E251E319800BE56FE2AF02D0E21FA4
:1011D000E22BE3AF02D0E31FE32BE351016AE25DB0
:1011E00003E2E2C800F00CD0006A080EE46FE237B8
:1011F0000036E351005CD8B0006E0136E42FF7D71B
:10120000E5AF02D0011E012A0001D6EF0AF0800EE0
:10121000D8A202D00801F51B0801FA6BFB6BF1C8DC
:10122000F9F8F551F91BF051D8B4DFD0F86F006E22
:10123000F451D8B4E3D0F85FD8B483D03EE3F5C816
:10124000FEF8FE8FF6C8FDF8F7C8FCF8FB6BD890E7
:10125000FE33FD33FC33FB33F82FF8D7F9AF03D05F
:10126000FA81E0D0FA91F891FA89080EEA6EF30E4D
:10127000E96EEBD0FA99F9BF0AD0F8A113D0FE338A
:10128000FD33FC33FB33002AD8B4C7D00BD0FEBFEC
:101290000CD0D890FB37FC37FD37FE370006D8B4AA
:1012A000BCD0F5D7FA8D6DD0FA9DF1C8F9F8F1AF41
:1012B00002D0FE8FABD0FE9FA9D0F4C8F8F8F4C8D6
:1012C00000F0F051F85FF1C8FEF8FE8FF2C8FDF8AB
:1012D000F3C8FCF8FB6BD890FE33FD33FC33FB33D3
:1012E000F82FF8D7F9AF03D0FA839CD0FA93F8918E
:1012F000FA8B080EEA6EF70EE96EA7D0FA9BF9BFDB
:101300000AD0F8A113D0FE33FD33FC33FB33002A9F
:10131000D8B483D00BD0FEBF0CD0D890FB37FC37AD
:10132000FD37FE370006D8B478D0F5D7FA8F29D02C
:10133000FA9FF5C8F9F8F5AF02D0FE8F67D0FE9F8F
:1013400065D0F5C8FEF8FE8FF6C8FDF8F7C8FCF8C2
:10135000F9AF04D0FE9FFA8565D0FA95FB6BF89142
:10136000080EEA6EF30EE96E70D0F9BF1CD0F1C81A
:10137000F9F8F8A106D0FE33FD33FC33FB33002A25
:101380004CE0FBAF0BD0FC2B09E1FD2B07E1FE2B62
:1013900005E1FE33FD33FC33002A3FE0FABD84D77C
:1013A000FABFC6D71CD0800EFE1BFEAF04D03AD0C9
:1013B000F5C8F9F80AD0F1C8F9F8FE5306E1FD5373
:1013C00004E1FC5302E1006A21D0FEBF08D0D890AE
:1013D000FB37FC37FD37FE37002EF7D71ED0F9AFAD
:1013E00002D0FE8F13D0FE9F11D0F4C800F0F5C8D4
:1013F000FEF8F6C8FDF8F7C8FCF808D0F0C800F011
:10140000F1C8FEF8F2C8FDF8F3C8FCF8FEC801F018
:10141000FDC802F0FCC803F034D0006A016A026A19
:10142000036A2FD0FB6BFC1FFD1FFE1FFB1FFB2B56
:1014300005E1FC2B03E1FD2B01E1FE2BFAB112D7F4
:10144000FAB354D7FAB589D7B3D7EF50FC2705E3E1
:10145000FD2B03E1FE2BD8B4F881ED52EF50FD27B0
:1014600003E3FE2BD8B4F881ED52EF50EFBE01D06C
:10147000800AFE27D8B0F881FAB9FCD6FABB3ED76D
:1014800074D70001000C8E0E006E0801E051005E62
:10149000E1C802F0E2C801F0028E005209E0D890E3
:1014A000025202E1015204E002320132002EF7D76B
:1014B000E1AF05D0011E021E012AD8B4022A0001A4
:1014C000000C090134513603F3CF01F0F4CF00F0E2
:1014D0003703F350002635513603F3500020026ED7
:1014E0000001000C0801DB51130804E3000E016E3B
:1014F000E8EF10F0070EDC6FDC51DC2B036AD92516
:10150000E96EDA510320EA6E300EEF5C8F6F8F5177
:101510000A0DF3CF8FF8DC51DC2B036AD925E96E75
:10152000DA510320EA6E300EEF5C8F27DC51DC2BA2
:10153000036AD925E96EDA510320EA6E300EEF5CBA
:10154000906F90510A0DF3CF90F8DC51DC2B036AB9
:10155000D925E96EDA510320EA6E300EEF5C902750
:10156000DC51DC2B036AD925E96EDA510320EA6EDF
:10157000300EEF5C916F91510A0DF3CF91F8DC5171
:10158000DC2B036AD925E96EDA510320EA6E300EAE
:10159000EF5C91278FC8DFF8080EDF27180EDF25D4
:1015A000E16FE26F180EE36F00010AD600C08FF8FA
:1015B0000801DB51DC5D0CE2036ADC51D925E96EE0
:1015C000DA510320EA6EEF502C0802E0DC2BF1D751
:1015D000DC2BDB51DC5D04E3000E016EE8EF10F064
:1015E000036ADC51D925E96EDA510320EA6EEF5027
:1015F000410814E0926B966B956B946B936B9B6BAD
:101600009A6B996B986BA26BA16BA06B9F6B9E6B97
:101610009D6B000E016EE8EF10F002D0010E926F8C
:10162000DC2BDC2BDC51D925DD6F000EDA21DE6FDF
:10163000DEC8E1F8DDC8E0F8EE6BE56BE46BE36B68
:10164000E26BDC6BE1C803F0E0C8E9FFE1C8EAFF48
:10165000EF502D0807E1010EEE6FDC2BE02BD8B424
:10166000E12B0DD0E1C803F0E0C8E9FFE1C8EAFFD3
:10167000EF502B0804E1DC2BE02BD8B4E12BE1C8C0
:1016800003F0E0C8E9FFE1C8EAFFEF502F0858E295
:10169000E1C803F0E0C8E9FFE1C8EAFFEF5039080C
:1016A0004FE3E5C8F3F8E4C8F2F8E3C8F1F8E2C89C
:1016B000F0F8F76BF66B200EF56F820EF46F0001F9
:1016C00024EC05F003C0E5F802C0E4F801C0E3F83B
:1016D00000C0E2F8E1C803F00801E0C8E9FFE1C892
:1016E000EAFF300EEF5CF26BF16F000109EC05F0E0
:1016F00003C0E9F802C0E8F801C0E7F800C0E6F866
:10170000D892E5C8F3F8E4C8F2F8E3C8F1F8E2C803
:10171000F0F8E9C8F7F8E8C8F6F8E7C8F5F8E6C859
:10172000F4F875DD03C0E5F802C0E4F801C0E3F8A1
:1017300000C0E2F80801E02BD8B4E12BDC2B9FD7E6
:10174000E1C803F0E0C8E9FFE1C8EAFFEF502E0866
:10175000D8A47DD0DC2BE02BD8B4E12BED6BEC6B67
:10176000200EEB6F820EEA6FE1C803F0E0C8E9FFDC
:10177000E1C8EAFFEF502F086AE2E1C803F0E0C8D1
:10178000E9FFE1C8EAFFEF50390861E3E1C803F07F
:10179000E0C8E9FFE1C8EAFF300EEF5CF26BF16FE1
:1017A000000109EC05F003C0E9F802C0E8F801C047
:1017B000E7F800C0E6F8E9C8F3F8E8C8F2F8E7C8C7
:1017C000F1F8E6C8F0F8EDC8F7F8ECC8F6F8EBC8A1
:1017D000F5F8EAC8F4F89FEC05F0D892E5C8F3F8FC
:1017E000E4C8F2F8E3C8F1F8E2C8F0F803C0F7F88B
:1017F00002C0F6F801C0F5F800C0F4F808DD03C037
:10180000E5F802C0E4F801C0E3F800C0E2F8EDC872
:10181000F3F8ECC8F2F8EBC8F1F8EAC8F0F8080100
:10182000F76BF66B200EF56F820EF46F000124EC5F
:1018300005F003C0EDF802C0ECF801C0EBF800C001
:10184000EAF80801E02BD8B4E12BDC2B8DD7EE535E
:101850001AE0E5C8F3F8E4C8F2F8E3C8F1F8E2C822
:10186000F0F8F76BF66B800EF56F7F0EF46F0001EA
:1018700024EC05F003C0E5F802C0E4F801C0E3F889
:1018800000C0E2F80801E2C800F0E3C801F0E4C8D3
:1018900002F0E5C803F003C096F802C095F801C055
:1018A00094F800C093F8010EDC25DD27000EDE233E
:1018B000DEC803F0DDC8E9FFDEC8EAFFEF520DE045
:1018C000DDC8E9FFDEC8EAFFEFCF97F8DD2BD8B41B
:1018D000DE2BDD2BD8B4DE2B04D0000E016EE8EF3A
:1018E00010F0DEC8E1F8DDC8E0F8EE6BE56BE46B04
:1018F000E36BE26BDC6BE1C803F0E0C8E9FFE1C831
:10190000EAFFEF502D0807E1010EEE6FDC2BE02B14
:10191000D8B4E12B0DD0E1C803F0E0C8E9FFE1C87D
:10192000EAFFEF502B0804E1DC2BE02BD8B4E12BCD
:10193000E1C803F0E0C8E9FFE1C8EAFFEF502F0873
:1019400058E2E1C803F0E0C8E9FFE1C8EAFFEF5060
:1019500039084FE3E5C8F3F8E4C8F2F8E3C8F1F852
:10196000E2C8F0F8F76BF66B200EF56F820EF46F9D
:10197000000124EC05F003C0E5F802C0E4F801C062
:10198000E3F800C0E2F8E1C803F00801E0C8E9FFAD
:10199000E1C8EAFF300EEF5CF26BF16F000109EC79
:1019A00005F003C0E9F802C0E8F801C0E7F800C09C
:1019B000E6F8D892E5C8F3F8E4C8F2F8E3C8F1F81D
:1019C000E2C8F0F8E9C8F7F8E8C8F6F8E7C8F5F8AB
:1019D000E6C8F4F81CDC03C0E5F802C0E4F801C076
:1019E000E3F800C0E2F80801E02BD8B4E12BDC2BCF
:1019F0009FD7E1C803F0E0C8E9FFE1C8EAFFEF5074
:101A00002E08D8A47ED0DC2BE02BD8B4E12BED6BD4
:101A1000EC6B200EEB6F820EEA6FE1C803F0E0C8BA
:101A2000E9FFE1C8EAFFEF502F086BE2E1C803F0DD
:101A3000E0C8E9FFE1C8EAFFEF50390862E3E1C816
:101A400003F0E0C8E9FFE1C8EAFF300EEF5CF26B9B
:101A5000F16F000109EC05F003C0E9F802C0E8F8F5
:101A600001C0E7F800C0E6F8E9C8F3F8E8C8F2F802
:101A7000E7C8F1F8E6C8F0F8EDC8F7F8ECC8F6F8F2
:101A8000EBC8F5F8EAC8F4F89FEC05F0D892E5C881
:101A9000F3F8E4C8F2F8E3C8F1F8E2C8F0F803C0DC
:101AA000F7F802C0F6F801C0F5F800C0F4F807EC4A
:101AB00009F003C0E5F802C0E4F801C0E3F800C093
:101AC000E2F8EDC8F3F8ECC8F2F8EBC8F1F8EAC8B0
:101AD000F0F80801F76BF66B200EF56F820EF46FCD
:101AE000000124EC05F003C0EDF802C0ECF801C0E1
:101AF000EBF800C0EAF80801E02BD8B4E12BDC2BAE
:101B00008CD7EE531AE0E5C8F3F8E4C8F2F8E3C85E
:101B1000F1F8E2C8F0F8F76BF66B800EF56F7F0E08
:101B2000F46F000124EC05F003C0E5F802C0E4F80E
:101B300001C0E3F800C0E2F80801E2C800F0E3C821
:101B400001F0E4C802F0E5C803F003C09BF802C04E
:101B50009AF801C099F800C098F8010EDC25DD273D
:101B6000000EDE23DDC8E9FFDEC8EAFFEFCF9CF8F8
:101B7000DD2BD8B4DE2BDD2BD8B4DE2BDEC8E1F8AC
:101B8000DDC8E0F8EE6BE56BE46BE36BE26BDC6BFE
:101B9000E1C803F0E0C8E9FFE1C8EAFFEF502D0813
:101BA00007E1010EEE6FDC2BE02BD8B4E12B0DD05A
:101BB000E1C803F0E0C8E9FFE1C8EAFFEF502B08F5
:101BC00004E1DC2BE02BD8B4E12BE1C803F0E0C842
:101BD000E9FFE1C8EAFFEF502F0859E2E1C803F03E
:101BE000E0C8E9FFE1C8EAFFEF50390850E3E5C873
:101BF000F3F8E4C8F2F8E3C8F1F8E2C8F0F8F76BDC
:101C0000F66B200EF56F820EF46F000124EC05F0E8
:101C100003C0E5F802C0E4F801C0E3F800C0E2F850
:101C2000E1C803F00801E0C8E9FFE1C8EAFF300EAF
:101C3000EF5CF26BF16F000109EC05F003C0E9F80D
:101C400002C0E8F801C0E7F800C0E6F8D892E5C89D
:101C5000F3F8E4C8F2F8E3C8F1F8E2C8F0F8E9C82C
:101C6000F7F8E8C8F6F8E7C8F5F8E6C8F4F807ECBE
:101C700009F003C0E5F802C0E4F801C0E3F800C0D1
:101C8000E2F80801E02BD8B4E12BDC2B9ED7E1C8A9
:101C900003F0E0C8E9FFE1C8EAFFEF502E08D8A43E
:101CA0007ED0DC2BE02BD8B4E12BED6BEC6B200E5F
:101CB000EB6F820EEA6FE1C803F0E0C8E9FFE1C80C
:101CC000EAFFEF502F086BE2E1C803F0E0C8E9FF3C
:101CD000E1C8EAFFEF50390862E3E1C803F0E0C869
:101CE000E9FFE1C8EAFF300EEF5CF26BF16F000133
:101CF00009EC05F003C0E9F802C0E8F801C0E7F814
:101D000000C0E6F8E9C8F3F8E8C8F2F8E7C8F1F867
:101D1000E6C8F0F8EDC8F7F8ECC8F6F8EBC8F5F847
:101D2000EAC8F4F89FEC05F0D892E5C8F3F8E4C8E7
:101D3000F2F8E3C8F1F8E2C8F0F803C0F7F802C01F
:101D4000F6F801C0F5F800C0F4F807EC09F003C09C
:101D5000E5F802C0E4F801C0E3F800C0E2F8EDC81D
:101D6000F3F8ECC8F2F8EBC8F1F8EAC8F0F80801AB
:101D7000F76BF66B200EF56F820EF46F000124EC0A
:101D800005F003C0EDF802C0ECF801C0EBF800C0AC
:101D9000EAF80801E02BD8B4E12BDC2B8CD7EE530A
:101DA0001AE0E5C8F3F8E4C8F2F8E3C8F1F8E2C8CD
:101DB000F0F8F76BF66B800EF56F7F0EF46F000195
:101DC00024EC05F003C0E5F802C0E4F801C0E3F834
:101DD00000C0E2F80801E2C800F0E3C801F0E4C87E
:101DE00002F0E5C803F003C0A2F802C0A1F801C0E8
:101DF000A0F800C09FF8010EDC25DD27000EDE23D1
:101E0000DEC8E1F8DDC8E0F8EE6BE56BE46BE36B90
:101E1000E26BDC6BE1C803F0E0C8E9FFE1C8EAFF70
:101E2000EF502D0807E1010EEE6FDC2BE02BD8B44C
:101E3000E12B0DD0E1C803F0E0C8E9FFE1C8EAFFFB
:101E4000EF502B0804E1DC2BE02BD8B4E12BE1C8E8
:101E500003F0E0C8E9FFE1C8EAFFEF502F0859E2BC
:101E6000E1C803F0E0C8E9FFE1C8EAFFEF50390834
:101E700050E3E5C8F3F8E4C8F2F8E3C8F1F8E2C8C3
:101E8000F0F8F76BF66B200EF56F820EF46F000121
:101E900024EC05F003C0E5F802C0E4F801C0E3F863
:101EA00000C0E2F8E1C803F00801E0C8E9FFE1C8BA
:101EB000EAFF300EEF5CF26BF16F000109EC05F008
:101EC00003C0E9F802C0E8F801C0E7F800C0E6F88E
:101ED000D892E5C8F3F8E4C8F2F8E3C8F1F8E2C82C
:101EE000F0F8E9C8F7F8E8C8F6F8E7C8F5F8E6C882
:101EF000F4F807EC09F003C0E5F802C0E4F801C00B
:101F0000E3F800C0E2F80801E02BD8B4E12BDC2BA9
:101F10009ED7E1C803F0E0C8E9FFE1C8EAFFEF504F
:101F20002E08D8A47ED0DC2BE02BD8B4E12BED6BAF
:101F3000EC6B200EEB6F820EEA6FE1C803F0E0C895
:101F4000E9FFE1C8EAFFEF502F086BE2E1C803F0B8
:101F5000E0C8E9FFE1C8EAFFEF50390862E3E1C8F1
:101F600003F0E0C8E9FFE1C8EAFF300EEF5CF26B76
:101F7000F16F000109EC05F003C0E9F802C0E8F8D0
:101F800001C0E7F800C0E6F8E9C8F3F8E8C8F2F8DD
:101F9000E7C8F1F8E6C8F0F8EDC8F7F8ECC8F6F8CD
:101FA000EBC8F5F8EAC8F4F89FEC05F0D892E5C85C
:101FB000F3F8E4C8F2F8E3C8F1F8E2C8F0F803C0B7
:101FC000F7F802C0F6F801C0F5F800C0F4F807EC25
:101FD00009F003C0E5F802C0E4F801C0E3F800C06E
:101FE000E2F8EDC8F3F8ECC8F2F8EBC8F1F8EAC88B
:101FF000F0F80801F76BF66B200EF56F820EF46FA8
:10200000000124EC05F003C0EDF802C0ECF801C0BB
:10201000EBF800C0EAF80801E02BD8B4E12BDC2B88
:102020008CD7EE531AE0E5C8F3F8E4C8F2F8E3C839
:10203000F1F8E2C8F0F8F76BF66B800EF56F7F0EE3
:10204000F46F000124EC05F003C0E5F802C0E4F8E9
:1020500001C0E3F800C0E2F80801E2C800F0E3C8FC
:1020600001F0E4C802F0E5C803F003C0E3F802C0E1
:10207000E2F801C0E1F800C0E0F8000143EC0AF02A
:1020800002C0A4F801C0A3F8010E0801DC25DD2779
:10209000000EDE23DC6BDC51DC2B036ADD25E96EF0
:1020A000DE510320EA6E300EEF5C8D6F8D510A0D0C
:1020B000F3CF8DF8DC51DC2B036ADD25E96EDE51B0
:1020C0000320EA6E300EEF5C8D27DC51DC2B036AB7
:1020D000DD25E96EDE510320EA6E300EEF5C8C6F79
:1020E0008C510A0DF3CF8CF8DC51DC2B036ADD2513
:1020F000E96EDE510320EA6E300EEF5C8C27DC5176
:10210000DC2B036ADD25E96EDE510320EA6E300E1A
:10211000EF5C8A6F8B6B8BC835F98AC834F909017B
:10212000376B0A0E366F000161EC0AF002C08BF8C3
:1021300001C08AF80801DC51DC2B036ADD25E96E59
:10214000DE510320EA6E300EEF5C8A27000E8B23EF
:10215000D00E8A27070E8B238BC831F08AC830F047
:102160008CC832F08DC833F08DC834F08FC835F08C
:1021700090C836F091C837F0A2C8F3F8A1C8F2F8B9
:10218000A0C8F1F89FC8F0F8560EF76F0E0EF66F64
:102190006D0EF56F7F0EF46F000124EC05F003C0A7
:1021A000A2F802C0A1F801C0A0F800C09FF8A2C820
:1021B000E3F8A1C8E2F8A0C8E1F89FC8E0F843EC52
:1021C0000AF002C09EF801C09DF8010E016E0801E0
:1021D000000180EF34F00801B651000118E0010A57
:1021E0001FE0030A26E0010A39E0070A42E0010A7B
:1021F00049E0030A52E0010A59E00F0AD8B46AD054
:10220000010AD8B471D0030AD8B477D084D00801B9
:10221000DA5303E1D951370802E2010EB66F7ED0DE
:10222000320E0701036F98908F80020E0801B66F7F
:1022300075D093988A980801DA5305E1D951360888
:1022400002E3B66B0AD0DA5303E1D9514B0803E23B
:10225000030EB66F02D0020EB66F60D0640E070197
:10226000036FC80E066F98908F80040E0801B66F3A
:1022700055D00701035304E1050E0801B66F0701AD
:1022800008014CD0640E0701036FC80E066F9890CA
:102290008F80060E0801B66F41D00701035304E199
:1022A000070E0801B66F0701080138D0C80E0701F4
:1022B000066F0801DA5306E1D9514A0803E3020E1A
:1022C000B66F07D0DA5303E1D951730802E2080E62
:1022D000B66F24D0320E0701036F066F98908F807F
:1022E000090E0801B66F1AD00701035304E10A0E64
:1022F0000801B66F0701080111D00801DA5308E19F
:10230000D951720805E398908F90070EB66F02D0EE
:10231000080EB66F03D00801B66B00D0000189EF3C
:1023200034F00901316B326B010E336FDA6AD96A0E
:10233000090E366F290E356F090EEA6E2D0EE96E05
:1023400036C9E2FF35C9E1FF33C934F9D890E55009
:10235000EE02F3503123F4503223342FF7D731C932
:10236000DEFF32C931F9326BD8B0322B352BD8B4FD
:10237000362B332B33510508DFE10001000C006AD6
:10238000016A026A036A0901566B576B586B596BF5
:1023900055515411531152112CE0200E5A6FD89000
:1023A0004E374F37503751375637573758375937D9
:1023B0005551595D08E15451585D05E15351575D40
:1023C00002E15251565D0FE35251565F5351D8A06E
:1023D000533D575F5451D8A0543D585F5551D8A034
:1023E000553D595FD88000360136023603365A2FE4
:1023F000D6D7090EEA6E560EE96E0001000CE950C0
:102400000901466F3B0E4D6F9A0E4C6FCA0E4B6F13
:102410004A6B0A0E486F45C951F944C950F943C97E
:102420004FF942C94EF94DC955F94CC954F94BC938
:1024300053F94AC952F90001A2DF0150EFCF42F926
:10244000ECCF43F9ECCF44F9ECCF45F9005213E15E
:1024500009014851010AD8A402D000010CD046510C
:102460000CE00F0B485D01E00EE246BF0CD046BD0C
:1024700004D0200E03D00901466B300E0026005018
:102480009EA8FED7AE6E4DC951F94CC950F94BC943
:102490004FF94AC94EF9556B546B536B0A0E526F84
:1024A00000016DDF03C04DF902C04CF901C04BF9CA
:1024B00000C04AF90901482FAED70001000C0901FC
:1024C0004E6B4E510F0807E3C950FF0EC96EC7A0EF
:1024D000FED74E2BF6D7C95046C9C9FFC7A0FED7B5
:1024E0004AC950F9C9504AC9C9FFC7A0FED749C94E
:1024F00050F9C95049C9C9FFC7A0FED748C950F90A
:10250000C95048C9C9FFC7A0FED747C950F9C9502B
:1025100047C9C9FFC7A0FED7C950950EC96EC7A04D
:10252000FED74E6B4B514E5D11E2C950FF0EC96E86
:10253000C7A0FED7C9CF4FF94C514F5D01E106D07E
:102540004D514F5D01E102D04E2BECD74FC901F048
:102550000001000C0901416B41510001C2EC00F087
:102560000901412B006E00509EA8FED7AE6E0E0EE4
:10257000415DF2E1410EE96E3BC945F93AC944F9C2
:1025800039C943F938C942F9000139DF290E9EA83B
:10259000FED7AE6E2E0E9EA8FED7AE6E0901385342
:1025A00009E1395307E13A5305E13B5303E1210EB9
:1025B000016E72D08B94010E416F0001F4EC04F0B7
:1025C000D8900901426B3835436F3935446F3A353D
:1025D000456F580E466F45C94AF944C949F943C980
:1025E00048F942C947F9100E4B6F4C6B400E4D6FC6
:1025F000000165DF01C03EF909013E51400805E1D7
:102600008B84220E016E48D006D03E5304E08B84AA
:10261000200E016E41D0C950FE0EC96EC7A0FED774
:102620003DC9EAFF3CC9E9FF406B3F6B40510108DF
:1026300008E3EECFC9FFC7A0FED73F2BD8B4402B8D
:10264000F5D7C950FF0EC96EC7A0FED7C950FF0EFF
:10265000C96EC7A0FED7C950FF0EC96EC7A0FED76E
:10266000C9CF3EF9406B3F6B40510F0812E303E1C5
:102670003F51FE080EE3C950FF0EC96EC7A0FED73A
:10268000C9CF3EF93E5301E004D03F2BD8B4402BD4
:10269000EBD78B84000E016E0001000C020180510B
:1026A00055250901386F0201815156210901396F01
:1026B000000E0201572109013A6F000E0201582154
:1026C00009013B6F0201515109013825346F0201A4
:1026D000525109013921356F0201535109013A2143
:1026E000366F0201545109013B21376F37C93BF95D
:1026F00036C93AF935C939F934C938F93D6B490E4B
:102700003C6F000127DF01C0D5F602016D510901C0
:10271000342702016E510901352302016F5109016D
:102720003623020170510901372337C93BF936C9F5
:102730003AF935C939F934C938F93D6B490E3C6F5E
:10274000000108DF01C0D5F60201716B0001000C29
:10275000BC0E305C0801FD6F070E3158FE6FD8903B
:10276000FDC8FEF8FD6BFE370901006B080132342D
:10277000026E09010035036E023603360236033657
:102780000236033602360336E00E02160250080106
:10279000FD130350FE13036A3450FD130350FE1360
:1027A000FDC801F0FEC802F00001000C0801FE6B3C
:1027B00035C0FDF8FDC8FEF8FD6BFE37FE37FE376D
:1027C000F80EFE170901006B08013634026E09018C
:1027D0000035036E02360336023603360236033600
:1027E00002360336E00E021602500801FD130350B4
:1027F000FE130901006BD8900031036E08013730D9
:10280000FD130350FE13FDC801F0FEC802F00001E5
:10281000000C0801EA5301E0D5D10901356BEAC883
:1028200034F9040E376F330E366F000161EC0AF095
:1028300002C0F2F801C0F1F8200E08010124016E77
:10284000040E0220036E0150A20FE96E020E032057
:10285000EA6EEFCFF3F8ECCFF4F8ECCFF5F8ECCF6D
:10286000F6F8EACFF8F8E9CFF7F8F6C82CF9F5C88A
:102870002BF9F4C82AF9F3C829F90901306B2F6B39
:102880002E6B7FC22DF900014CDDF8C8EAFFF7C8B6
:10289000E9FF0201595108010024EB6F02015A516E
:1028A00008010120EC6F02015B5108010220ED6F6D
:1028B00002015C5108010320EE6F0901356BEAC883
:1028C00034F9040E376F330E366F000161EC0AF0F5
:1028D00001C0F1F8240E08010124016E040E02204B
:1028E000036E0150A20FE96E020E0320EA6EEF5054
:1028F000EB27000EEC23ED23EE230901356BEAC82C
:1029000034F9040E376F330E366F000161EC0AF0B4
:1029100002C0F2F801C0F1F8A20E08010124016E14
:10292000020E0220036E01C0F3F8F46FEEC83BF90B
:10293000EDC83AF9ECC839F9EBC838F9E8CF3DF9F8
:1029400001C03CF9000106DE0201715302E0000102
:10295000A5DE0901356BEAC834F9040E376F330E72
:10296000366F000161EC0AF002C0F2F801C0F1F824
:10297000080101C0F3F8020E0224F46F0901356B5F
:10298000EAC834F9040E376F330E366F000161EC7C
:102990000AF002C0F6F801C0F5F82F0E0801012474
:1029A000016E040E0220036E0150A20FE96E020EAA
:1029B0000320EA6EECCF03F0ED52EFCF02F00234C9
:1029C000F76F0334F86FF737F837F737F837F7371B
:1029D000F837F737F837E00EF717F751F325016EA0
:1029E000F851F421036E0150A20F016E020E032272
:1029F00001C0EFF803C0F0F80901356BEAC834F9FB
:102A0000040E376F330E366F000161EC0AF002C01E
:102A1000F2F801C0F1F8080101C0F3F8040E022435
:102A2000F46F0B0E0124016E000EF421036E0150B1
:102A3000A20FE96E020E0320EA6EEFA810D01C0E62
:102A4000EF25E96E000EF021EA6EEE52EE52EC6ACE
:102A5000ED52EF6AED52EF6AED52EF6A39D01C0E7B
:102A6000EF25016E000EF021036E01C0F1F8F26F48
:102A70000901356BEAC834F9040E376F330E366F2F
:102A8000000161EC0AF002C0F4F801C0F3F8270E6F
:102A900008010124016E040E0220036E0150A20FF2
:102AA000E96E020E0320EA6EEFCF00F0ECCF01F0EA
:102AB000ECCF02F0ECCF03F0F2C8EAFFF1C8E9FF77
:102AC00000C0EFFF01C0ECFF02C0ECFF03C0ECFF51
:102AD000180EEF25016E000EF021036E01C0F1F813
:102AE000F26F000135DEF2C8EAFFF1C8E9FF02C06B
:102AF000ECFFED5201C0EFFF160E0801EF25016E4D
:102B0000000EF021036E01C0F1F8F26F00014EDEFD
:102B1000F2C8EAFFF1C8E9FF02C0ECFFED5201C0C4
:102B2000EFFF0901356BEAC834F9040E376F330E35
:102B3000366F000161EC0AF002C0F2F801C0F1F852
:102B40002B0E08010124016E040E0220036E0150B9
:102B5000A20FE96E020E0320EA6EEFCFF3F8ECCF7E
:102B6000F4F8ECCFF5F8ECCFF6F80901356BEAC8CC
:102B700034F9040E376F330E366F000161EC0AF042
:102B800002C0F8F801C0F7F8080101C001F0020E18
:102B90000224036E0150A20F016E020E032201C037
:102BA000F9F803C0FAF8F6C83BF9F5C83AF9F4C8E1
:102BB00039F9F3C838F903C03DF901C03CF9000107
:102BC000C9DC08010001000C0801D95301E05ED006
:102BD0000901356BD9C834F9040E376F330E366FDF
:102BE000000161EC0AF002C0DBF801C0DAF8310E36
:102BF00008010124016E040E0220036E0150A20F91
:102C0000E96E020E0320EA6EEF5061081FE0090131
:102C1000356BD9C834F9040E376F330E366F0001A7
:102C200061EC0AF002C0DEF801C0DDF8310E0801E7
:102C30000124016E040E0220036E0150A20FE96E02
:102C4000020E0320EA6EEF50770804E1D9C8EAF8D3
:102C50000001DFDD0901356BD9C834F9040E376F87
:102C6000330E366F000161EC0AF001C0DAF8320E63
:102C700008010124016E040E0220036E0150A20F10
:102C8000E96E020E0320EA6E010EEF6E0001000CE9
:102C9000E9500801DE6FDDAF0DD0DE07DE8BDA1FF5
:102CA000DB1FDC1FDD1FDA2BD8B4DB2BD8B4DC2B09
:102CB000D8B4DD2B3B0EE56F9A0EE46FCA0EE36FBE
:102CC000E26B0A0EE06FDDC851F9DCC850F9DBC8D1
:102CD0004FF9DAC84EF9E5C855F9E4C854F9E3C824
:102CE00053F9E2C852F90001BFEC11F00150EFCFE7
:102CF000DAF8ECCFDBF8ECCFDCF8ECCFDDF8005203
:102D000013E10801E051010AD8A402D000010CD05F
:102D1000DE510DE00F0BE05D01E028E2DEBF26D0C2
:102D2000DEBD05D0200E1DD0200E0801DE17DEAB63
:102D30000AD0DE9B00C0DEF82D0E9EA8FED7AE6E38
:102D4000DEC800F0DE6B300EDEAB0BD0DE9B00C0C9
:102D5000DEF82D0E9EA8FED7AE6EDEC800F0DE6B4C
:102D6000300E002600509EA8FED7AE6EE5C851F981
:102D7000E4C850F9E3C84FF9E2C84EF90901556BB0
:102D8000546B536B0A0E526F0001BFEC11F003C07D
:102D9000E5F802C0E4F801C0E3F800C0E2F8080179
:102DA000E02F91D700012FEF35F00801DB6B8B94FA
:102DB000640E0901416F0001F4EC04F00801DB6BC3
:102DC000D951DB5D32E28B84140E0901416F0001A1
:102DD000F4EC04F00801DA6BDA51130807E3C95088
:102DE000FF0EC96EC7A0FED7DA2BF6D78B94140E50
:102DF0000901416F0001F4EC04F0400E0901466F37
:102E00004A6B496B486B476B800E4B6F010E4C6FE2
:102E1000990E4D6F00015FEC12F001C0DCF8080163
:102E2000DC2D01D002D0DB2BCBD7D951DB5D04E305
:102E30008B84300E016E24D0DB6BD951DB5D17E241
:102E4000410E0901466F4A6B496B486B476B800E18
:102E50004B6F4C6B990E4D6F00015FEC12F001C08F
:102E6000DCF80801DC5301E102D0DB2BE6D78B84D0
:102E7000D951DB5D03E3310E016E02D0000E016E0D
:102E8000000147EF35F08B94010E0901416F0001FD
:102E9000F4EC04F009013F6B3F510001A6EC00F097
:102EA00009013F2B006E00509EA8FED7AE6E0F0E9C
:102EB0003F5DF2E1410EE96E37C945F936C944F983
:102EC00035C943F934C942F90001FFEC11F02E0E67
:102ED0009EA8FED7AE6ED8900901406B3435416F85
:102EE0003535426F3635436F510E466F43C94AF947
:102EF00042C949F941C948F940C947F9100E4B6F19
:102F00004C6B400E4D6F00015FEC12F001C03AF9BE
:102F100009013A51400805E18B84110E016E42D03F
:102F200006D03A5304E08B84100E016E3BD03E6B0A
:102F30003D6B3E5103080FE3C950FF0EC96EC7A099
:102F4000FED7C9CF3AF93A51FE0801E104D03D2B32
:102F5000D8B43E2BEED73A51FE0804E08B84120E13
:102F6000016E20D039C9EAFF38C9E9FF3C6B3B6BE1
:102F70003C5101080AE3FF0EC96EC7A0FED7C9CFB6
:102F8000EEFF3B2BD8B43C2BF3D7C950FF0EC96ED4
:102F9000C7A0FED7C950FF0EC96EC7A0FED78B844D
:102FA000000E016E0001000C016A026A006A036AE9
:102FB0000801F15102E1F05118E0100EF26FD890C3
:102FC000EE37EF3700360336F151035C02E1F05182
:102FD000005C07E3F051005ED8A00306F151035EE8
:102FE000D88001360236F22FEAD7000173EF18F0CD
:102FF00002014C6B4B6B4A6B496B586B576B566BB2
:10300000556B716B0601D66B58C237F957C236F94A
:1030100056C235F955C234F9020E0901396FA20EB4
:10302000386F000130DF01C0D5F60601D55303E04B
:10303000D5C601F0AFD10201A251EB081EE068C471
:1030400055F269C456F26AC457F258C237F957C2EA
:1030500036F956C235F955C234F9020E0901396FF5
:10306000A20E386F00010FDF01C0D5F60601D5535F
:1030700003E0D5C601F08ED10201020EEA6E720E97
:10308000E96E020EE26EA20EE16E300E016EE6CF28
:10309000EEFF012EFCD783350801EA6F020184356B
:1030A0000801EB6FEA37EB37EA37EB37EA37EB37F4
:1030B000EA37EB37E00EEA17010E02017D5D006E84
:1030C000000E7E59036E00500801EA25EC6F035094
:1030D000EB21ED6FEF6FECC8EEF87EC2F1F87DC228
:1030E000F0F8000161D702016C6B6B6B02C06AF2F1
:1030F00001C069F2706B6F6B89C26EF288C26DF2AB
:103100006D530EE16E530CE16F530AE1705308E109
:1031100099C270F298C26FF297C26EF296C26DF2C7
:103120000801E06BDF6B86C2DEF885C2DDF8DD5397
:103130000EE1DE530CE1DF530AE1E05308E195C2F2
:10314000E0F894C2DFF893C2DEF892C2DDF809011C
:103150002C6B2B6B2A6B82C229F970C230F96FC2BB
:103160002FF96EC22EF96DC22DF9000191EC11F00C
:1031700002018051002681510122000E0222032209
:1031800000500801DD5DEA6F0150DE59EB6F02501F
:10319000DF59EC6F0350E059ED6F020169510801EE
:1031A000EA25E16F02016A510801EB21E26F020199
:1031B0006B510801EC21E36F02016C510801ED2114
:1031C000E46FE4C851F9E3C850F9E2C84FF9E1C827
:1031D0004EF90901556B546B536B7FC252F90001D4
:1031E000BFEC11F003C0E8F802C0E7F801C0E6F850
:1031F00000C0E5F80801E8530EE1E7530CE1E651A1
:103200000F0809E303E1E551F40805E3010E0601A7
:10321000D66F13D00801E8530DE1E7530BE1E651F7
:10322000FF0808E303E1E551F40804E3020E060198
:10323000D66F03D0030E0601D66F020180515525CB
:103240000801D96F0201815156210801DA6F000E81
:10325000020157210801DB6F000E0201582108010D
:10326000DC6FDCC837F9DBC836F9DAC835F9D9C8FC
:1032700034F90901396B490E386F000104DE01C0D1
:10328000D5F60201546B536B526B516B09012C6BD9
:103290002B6B2A6B82C229F970C230F96FC22FF9E9
:1032A0006EC22EF96DC22DF9000191EC11F00050A3
:1032B000020155250801EA6F01500201562108015B
:1032C000EB6F0250020157210801EC6F035002011D
:1032D00058210801ED6F020169510801EA25EE6FDE
:1032E00002016A510801EB21EF6F02016B510801E5
:1032F000EC21F06F02016C510801ED21F16F020128
:1033000080510801EE25F26F020181510801EF2181
:10331000F36F000EF021F46F000EF121F56FD890DD
:1033200002017F350801F25D0201596F000E0801AC
:10333000F35902015A6F000E0801F45902015B6F44
:10334000000E0801F55902015C6F0801E96BE953B1
:103350001EE10901356BE9C834F9040E376F330EED
:10336000366F000161EC0AF001C0EAF8320E080184
:103370000124016E040E0220036E0150A20FE96EBB
:10338000020E0320EA6E010EEF6EE92BE0D7060174
:10339000D5C601F000017FEF35F00801DC6BDB6B77
:1033A000DAC803F0D9C8E9FFDAC8EAFFEF5230E023
:1033B000DB5101082DE3DAC803F0D9C8E9FFDAC808
:1033C000EAFFEF502C0801E1DB2BD92BD8B4DA2B24
:1033D000DB2D1DD0DC5103081AE3DC51DC2B036A22
:1033E000200F016E000E032201508A0F016E080E9D
:1033F000032203C0DFF8D9C8E9FFDAC8EAFFEFCF3C
:10340000E0F8DFC8EAFF01C0E9FFE0C8EFFFC8D776
:10341000036ADC51200F016E000E032201508A0F57
:10342000E96E080E0320EA6EEF6ADB5303E1000E3B
:10343000016E02D0010E016E0001B7EF35F0C0C879
:10344000EAFFBFC8E9FF0801E1C8EFFFE92AD8B4E5
:10345000EA2AEF6ABF2BD8B4C02B0001000C200E63
:103460000801DCA9300EDD6FDBC800F0DBAF07D050
:10347000001E002A00C0DBF82D0EDD6FDC8F01502E
:10348000DBC82AF9640E09012B6F000189EC08F0F2
:1034900000C0DBF8300E01240801DE6FDBC82AF91A
:1034A0000A0E09012B6F000189EC08F0300E002490
:1034B0000801E06F300E0124DF6FDDC800F0DCA7EB
:1034C00002D0DCAFDC95DCB90BD0DCAF22D0DCB5B0
:1034D00020D000C0DEF8DCB31CD000C0DFF819D06B
:1034E000300EDE5D16E100C0DEF8200EDD6FDCA7D9
:1034F00004D0DC95DC83DCAFDC93300EDF5D09E1CA
:1035000000C0DFF8200EDE6FDCA7F7D7DC93DCAF5E
:10351000DC91DCA505D0DDC8E1F8000190DF0801F1
:10352000DCA305D0DEC8E1F8000189DF0801DCA1D9
:1035300004D0DFC8E1F8000182DFE0C8E1F8000153
:103540007EDF000C0801FA6BFA510001DEEC00F09E
:103550000801FA2B006E00509EA8FED7AE6E150E25
:10356000FA5DF2E1F55301E014D109012C6B2B6BEC
:103570002A6B82C229F970C230F96FC22FF96EC26C
:103580002EF96DC22DF9000191EC11F000500201ED
:1035900055250801FA6F0150020156210801FB6F01
:1035A0000250020157210801FC6F0350020158210B
:1035B0000801FD6F020180510801FA25F66F020132
:1035C00081510801FB21F76F000EFC21F86F000EFE
:1035D000FD21F96F0901356BF5C834F9040E376F19
:1035E000330E366F000161EC0AF002C0FBF801C037
:1035F000FAF8080101C001F0020E0224036E015026
:10360000A20F016E020E032201C0FCF803C0FDF8F8
:10361000F9C837F9F8C836F9F7C835F9F6C834F9F2
:1036200003C039F901C038F900012DDCF9C862F294
:10363000F8C861F2F7C860F2F6C85FF20901356BAD
:10364000F5C834F9040E376F330E366F000161ECA4
:103650000AF001C0FAF82B0E08010124016E040ED5
:103660000220036E0150A20FE96E020E0320EA6EE3
:10367000F6C8EFFFF7C8ECFFF8C8ECFFF9C8ECFF9D
:103680000901356BF5C834F9040E376F330E366F08
:10369000000161EC0AF001C0FAF82F0E08010124C4
:1036A000016E040E0220036E0150A20FE96E020E9D
:1036B0000320EA6EEC6AED52EF6A0901356BF5C83A
:1036C00034F9040E376F330E366F000161EC0AF0E7
:1036D00002C0FBF801C0FAF8080101C001F0040EB5
:1036E0000224036E0150A20F016E020E032201C0DC
:1036F000FCF803C0FDF80901356BF5C834F9040E78
:10370000376F330E366F000161EC0AF002C0FFF82C
:1037100001C0FEF8080101C001F0020E0224036E90
:103720000150A20F016E020E032201C000F909012F
:1037300003C001F9FDC8EAFFFCC8E9FF03C0E2FFCE
:1037400001C0E1FF200E016EE6CFEEFF012EFCD797
:10375000356BF5C834F9040E376F330E366F000140
:1037600061EC0AF001C0FAF8200E08010124016E94
:10377000040E0220036E0150A20FE96E020E032018
:10378000EA6E9EC2EFFF9FC2ECFFA0C2ECFFA1C297
:10379000ECFF0001CBEF23F005C907F904C906F9D6
:1037A00007C903F0090106C9E9FF07C9EAFFEF529B
:1037B00006E0062BD8B4072B0001F2D7090104510B
:1037C000065D006E05510759036E00C001F0026EE0
:1037D0000001000C0801FCC8E9FFFDC8EAFFEF503A
:1037E0002E080DE1010EFC25E96E000EFD21EA6EAA
:1037F000EF502E0804E1FF0E016E04D003D0000E3E
:10380000016E00D0000181EF22F0200E090125A9F0
:10381000300E266F24C900F024AF07D0001E002A06
:1038200000C024F92D0E266F258F015024C92AF9D6
:10383000640E2B6F000189EC08F000C024F9300EF3
:1038400001240901276F24C92AF90A0E2B6F0001F0
:1038500089EC08F0300E00240901296F300E012494
:10386000286F26C900F025A702D025AF259525B9D8
:103870000BD025AF22D025B520D000C027F925B325
:103880001CD000C028F919D0300E275D16E100C009
:1038900027F9200E266F25A704D02595258325AF6F
:1038A0002593300E285D09E100C028F9200E276F0E
:1038B00025A7F7D7259325AF259125A504D0265117
:1038C0009EA8FED7AE6E25A304D027519EA8FED792
:1038D000AE6E25A104D028519EA8FED7AE6E295108
:1038E0009EA8FED7AE6E000176EF1EF00901266B92
:1038F00023C9E9FF24C9EAFFEF6A256B25510708B0
:1039000019E3036A25512125E96E22510320EA6E4D
:10391000EFCF27F92751200801E10CD02651262BA3
:10392000036A2325E96E24510320EA6E27C9EFFFBD
:10393000252BE4D7256B255102082CE3036A25517A
:10394000080F016E000E032201502125E96E22515D
:103950000320EA6EEFCF27F92751200802E0275312
:1039600001E118D025530AE12651262B036A2325AD
:10397000E96E24510320EA6E2E0EEF6E2651262B9F
:10398000036A2325E96E24510320EA6E27C9EFFF5D
:10399000252BD1D72651262B036A2325E96E2451E6
:1039A0000320EA6EEF6A00013FEF1FF0090121C911
:1039B000E9FF22C9EAFFEFCF25F924C903F023C9A3
:1039C000E9FF24C9EAFFEF50255D15E122C903F0A4
:1039D00021C9E9FF03C0EAFFEF5203E1000E016EC7
:1039E0001FD022C903F02151212BD8B4222B232B25
:1039F000D8B4242BDCD722C903F021C9E9FF22C99E
:103A0000EAFFEFCF25F924C903F023C9E9FF24C950
:103A1000EAFFEF50255D02E2FF0E01D0010E016EBC
:103A20000001000C0601D6510308D8A493D0090167
:103A30002A31326F2931316F2831306F27312F6FA2
:103A40003233313330332F333233313330332F335A
:103A50003233313330332F333233313330332F334A
:103A60003233313330332F333233313330332F333A
:103A7000010E321727517F0B336F0201515109019B
:103A80002F5D0FE1020152510901305D0AE102018F
:103A900053510901315D05E1020154510901325DC3
:103AA0003DE00201715304E000014EEC13F002010D
:103AB000805155250901346F0201815156210901B8
:103AC000356F000E020157210901366F000E020109
:103AD00058210901376F2F5134252B6F3051352173
:103AE0002C6F315136212D6F325137212E6F2EC957
:103AF00037F92DC936F92CC935F92BC934F9396B89
:103B0000490E386F000143EC17F032C954F231C945
:103B100053F230C952F22FC951F20901356B33C942
:103B200034F9376B040E366F000161EC0AF002C005
:103B300003F00150490FE96E000E0220EA6EEFCF4C
:103B400000F0ECCF01F0ECCF02F0ECCF03F0A4D00A
:103B5000A3D0060128C92FF929C930F92AC931F99A
:103B60000901326B27C933F90201515109012F5D57
:103B70000FE1020152510901305D0AE10201535186
:103B80000901315D05E1020154510901325D3DE059
:103B90000201715304E000014EEC13F00201805168
:103BA00055250901346F0201815156210901356FF4
:103BB000000E020157210901366F000E0201582143
:103BC0000901376F2F5134252B6F305135212C6F60
:103BD000315136212D6F325137212E6F2EC937F9D1
:103BE0002DC936F92CC935F92BC934F9396B490E71
:103BF000386F000143EC17F032C954F231C953F267
:103C000030C952F22FC951F20901D8903335026EF2
:103C1000036A03360250490FE96E000E0320EA6E74
:103C2000ECCF35F9ED52EFCF34F93551FE0821E2F2
:103C3000FF0A03E13451F4081CE2D8903335026ED8
:103C4000036A03360250490FE96E000E0320EA6E44
:103C5000ECCF35F9ED52EFCF34F934C900F035C966
:103C600001F0FF0E026E0F0E036E000115D014D08E
:103C70000901D8903335026E036A03360250490FAA
:103C8000E96E000E0320EA6EEFCF00F0ECCF01F0FA
:103C9000026A036A000100D0000C09011D6B1D516E
:103CA0000001FBEC00F009011D2B006E00509EA8E6
:103CB000FED7AE6E0F0E1D5DF2E1FDC8EAFFFCC837
:103CC000E9FF000EEF1008E0EF509EA8FED7AE6EA1
:103CD000E92AD8B4EA2AF5D72C0E9EA8FED7AE6EF4
:103CE000FEC824F91F0E256F00018FD5290E9EA84E
:103CF000FED7AE6E0801FE5303E0000E016E8BD3BB
:103D000009011C6B1B6BFF0E0201646F636F0F0ECA
:103D1000686FFF0E676F666F656F0901356BFEC8D0
:103D200034F9040E376F330E366F000161EC0AF080
:103D300002C01EF901C01DF9200E09010124016E07
:103D4000040E0220036E0150A20FE96E020E032042
:103D5000EA6EEFCF00F0ECCF01F0ECCF02F0ECCF49
:103D600003F003C016F902C015F901C014F900C030
:103D700013F9356BFEC834F9040E376F330E366F06
:103D8000000161EC0AF001C01DF9090101C001F058
:103D9000020E0224036E0150A20F016E020E0322D6
:103DA00001C0FFF8080103C000F90901026B016BB3
:103DB0000253D8A4D0D001510F08D8A0CCD0FFC84E
:103DC000E9FF090100C9EAFFEF50E50807E0FFC875
:103DD000E9FF090100C9EAFFEF523BE10201633D3F
:103DE00001D002D0090135D0643D01D002D00901D3
:103DF00030D002C964F201C963F20901356BFEC813
:103E000034F9040E376F330E366F000161EC0AF09F
:103E100002C01EF901C01DF9200E09010124016E26
:103E2000040E0220036E0150A20FE96E020E032061
:103E3000EA6EEFCF00F0ECCF01F0ECCF02F0ECCF68
:103E400003F003C068F202C067F201C066F200C06E
:103E500065F2FFC8E9FF090100C9EAFFEF5205E179
:103E6000000E016E0801D7D2090100C922F9FFC86E
:103E700021F9090E246F030E236F000137D5090EB7
:103E80000901226F030E216FFDC824F9FCC823F934
:103E900000018CDD015252E10901356BFEC834F995
:103EA000040E376F330E366F000161EC0AF002C06A
:103EB0001EF901C01DF9090101C001F0040E022420
:103EC000036E0150A20F016E020E032201C01FF902
:103ED00003C020F903C0EAFF01C0E9FF00C9E2FF07
:103EE000FFC8E1FF200E016EE6CFEEFF012EFCD7EA
:103EF000356BFEC834F9040E376F330E366F000190
:103F000061EC0AF001C01DF92F0E09010124016EB8
:103F1000040E0220036E0150A20FE96E020E032070
:103F2000EA6E02C9ECFFED5201C9EFFF02C95EF271
:103F300001C95DF2010E016E08016DD2200E08016B
:103F4000FF27D8A003D00901002B08010901012B8C
:103F5000D8B4022B2DD70601D6510308D8A4ACD172
:103F600009011B2B02017F5109011B5DD8B0B2D0A2
:103F7000356BFEC834F9040E376F330E366F00010F
:103F800061EC0AF002C01EF901C01DF9200E090102
:103F90000124016E040E0220036E0150A20FE96E8F
:103FA000020E0320EA6EEFCF1FF9ECCF20F9ECCF21
:103FB00021F9ECCF22F9EACF24F9E9CF23F922C97C
:103FC0002CF921C92BF920C92AF91FC929F9306B0D
:103FD0002F6B2E6B7FC22DF9000191EC11F024C9DB
:103FE000EAFF23C9E9FF0201595109010024256FA5
:103FF00002015A5109010120266F02015B5109019A
:104000000220276F02015C5109010320286F1B5118
:104010002525176F000E2621186F000E2721196F16
:10402000000E28211A6F356BFEC834F9040E376F65
:10403000330E366F000161EC0AF002C01EF901C0B8
:104040001DF9090101C001F0020E0224036E0150A6
:10405000A20F016E020E032201C01FF903C020F956
:104060001AC937F919C936F918C935F917C934F910
:1040700003C039F901C038F9000143EC17F01AC93F
:1040800062F219C961F218C960F217C95FF2090139
:10409000356BFEC834F9040E376F330E366F0001EE
:1040A00061EC0AF001C01DF92B0E09010124016E1B
:1040B000040E0220036E0150A20FE96E020E0320CF
:1040C000EA6E17C9EFFF18C9ECFF19C9ECFF1AC94E
:1040D000ECFFF0D01B6B356BFEC834F9040E376F64
:1040E000330E366F000161EC0AF002C01EF901C008
:1040F0001DF9200E09010124016E040E0220036E39
:104100000150A20FE96E020E0320EA6EEFCF1FF9F5
:10411000ECCF20F9ECCF21F9ECCF22F922C92AF912
:1041200021C929F920C928F91FC927F900017ADC1A
:1041300003C016F902C015F901C014F900C013F943
:1041400016C968F215C967F214C966F213C965F297
:104150000901133D08D0143D06D0153D04D0165179
:104160000F08D8B4A5D0135307E1145305E1155334
:1041700003E11653D8B49CD016C92CF915C92BF9F4
:1041800014C92AF913C929F9306B2F6B2E6B7FC222
:104190002DF9000191EC11F002015951090100249F
:1041A000176F02015A5109010120186F02015B517A
:1041B00009010220196F02015C51090103201A6FE5
:1041C000356BFEC834F9040E376F330E366F0001BD
:1041D00061EC0AF002C01EF901C01DF9090101C01D
:1041E00001F0020E0224036E0150A20F016E020EB6
:1041F000032201C01FF903C020F91AC937F919C9F0
:1042000036F918C935F917C934F903C039F901C0AD
:1042100038F9000143EC17F01AC962F219C961F2CA
:1042200018C960F217C95FF20901356BFEC834F98D
:10423000040E376F330E366F000161EC0AF001C0D7
:104240001DF92B0E09010124016E040E0220036EDC
:104250000150A20FE96E020E0320EA6E17C9EFFFAC
:1042600018C9ECFF19C9ECFF1AC9ECFF356BFEC881
:1042700034F9040E376F330E366F000161EC0AF02B
:1042800001C01DF9200E09010124016E040E022057
:10429000036E0150A20FE96E020E0320EA6E13C9ED
:1042A000EFFF14C9ECFF15C9ECFF16C9ECFF02D0F3
:1042B000010E1C6FAAD0060109011B2B02016C53D1
:1042C0000AE16B5308E16A5306E1695109011B5D7C
:1042D000D8B099D0020109012C6B2B6B2A6B82C2DA
:1042E00029F970C230F96FC22FF96EC22EF96DC272
:1042F0002DF9000191EC11F0005002015525090142
:104300001D6F01500201562109011E6F025002016A
:10431000572109011F6F0350020158210901206F25
:104320000201805109011D25216F020181510901FE
:104330001E21226F000E1F21236F000E2021246FEB
:104340001B512125176F000E2221186F000E23210B
:10435000196F000E24211A6F356BFEC834F9040E54
:10436000376F330E366F000161EC0AF002C01EF9A0
:1043700001C01DF9090101C001F0020E0224036E03
:104380000150A20F016E020E032201C01FF903C0EB
:1043900020F91AC937F919C936F918C935F917C9F1
:1043A00034F903C039F901C038F9000143EC17F0C2
:1043B0001AC962F219C961F218C960F217C95FF22D
:1043C0000901356BFEC834F9040E376F330E366FB2
:1043D000000161EC0AF001C01DF92B0E0901012456
:1043E000016E040E0220036E0150A20FE96E020E50
:1043F0000320EA6E17C9EFFF18C9ECFF19C9ECFFDB
:104400001AC9ECFF02D0010E1C6F1C53D8B4B1D4F2
:10441000000E016E08010001000C0901356B00C996
:1044200034F9040E376F330E366F000161EC0AF079
:1044300002C006F901C005F9090101C007F9040E1F
:104440000224086F140E0124016E000E0821036E71
:104450000150A20FE96E020E0320EA6EECCF03F0CA
:10446000ED52EFCF00F003C001F0026A036A03C00F
:1044700004F902C003F901C002F900C001F902C940
:1044800004F901C903F9016B026B356B00C934F9FA
:10449000040E376F330E366F000161EC0AF001C075
:1044A00005F9090101C007F9040E0224086F1A0E6C
:1044B0000124016E000E0821036E0150A20FE96E67
:1044C000020E0320EA6EECCF03F0ED52EF50011321
:1044D0000350021301C900F002C901F003C902F040
:1044E00004C903F00001000C0801F75303E0000EBB
:1044F000016EE2D0F6C8FDF8F5C8FCF80001EAEF5D
:104500001BF0015205E0010E016E0801D5D000013B
:10451000F6C8FDF8F5C8FCF8F7C8FEF84DEC1EF03B
:10452000015205E1000E016E0801C6D00001F7C876
:1045300000F973DF03C0FFF802C0FEF801C0FDF808
:1045400000C0FCF8EACF01F9E9CF00F903C02CF96B
:1045500002C02BF901C02AF900C029F90901306B0A
:104560002F6B2E6B7FC22DF9000191EC11F001C968
:10457000EAFF00C9E9FF03C0FBF802C0FAF801C076
:10458000F9F800C0F8F8020159510801F8270201B2
:104590005A510801F92302015B510801FA23020173
:1045A0005C510801FB230901356BF7C834F9040E8F
:1045B000376F330E366F000161EC0AF002C0FDF870
:1045C00001C0FCF8080101C001F0020E0224036ED4
:1045D0000150A20F016E020E032201C0FEF803C0BB
:1045E000FFF8FBC837F9FAC836F9F9C835F9F8C841
:1045F00034F903C039F901C038F9000143EC17F070
:10460000FBC862F2FAC861F2F9C860F2F8C85FF25A
:104610000901356BF7C834F9040E376F330E366F66
:10462000000161EC0AF001C0FCF82B0E0801012426
:10463000016E040E0220036E0150A20FE96E020EFD
:104640000320EA6EF8C8EFFFF9C8ECFFFAC8ECFFE8
:10465000FBC8ECFF0901356BF7C834F9040E376F5E
:10466000330E366F000161EC0AF002C0FDF801C0A4
:10467000FCF8200E08010124016E040E0220036ED6
:104680000150A20F016E020E032201C0FEF803C00A
:10469000FFF8F7C800F90001C0DEFFC8EAFFFEC856
:1046A000E9FF00C0EFFF01C0ECFF02C0ECFF03C058
:1046B000ECFF010E016E08010001FEEF23F008017E
:1046C000F46BF451000118EC01F00801F42B006EBA
:1046D00000509EA8FED7AE6E0A0EF45DF2E1EDC862
:1046E000EAFFECC8E9FF000EEF1008E0EF509EA8CB
:1046F000FED7AE6EE92AD8B4EA2AF5D7290E9EA8CD
:10470000FED7AE6EEEC8E9FFEFC8EAFFFF0EEF6E10
:10471000F06BF05327E10901356BF0C834F9040E52
:10472000376F330E366F000161EC0AF002C0F5F806
:1047300001C0F4F8320E08010124016E040E0220BB
:10474000036E0150A20FE96E020E0320EA6EEF52D3
:1047500007E0EEC8E9FFEFC8EAFFF0C8EFFF02D0BC
:10476000F02BD7D7EFC803F0EEC8E9FFEFC8EAFF98
:10477000EF3C04D0000E016E026E7BD0EFC803F058
:10478000EEC8E9FFEFC8EAFFEFCFF4F8F4C8F5F898
:104790000001A2EF1AF0EDC8F3F8ECC8F2F8EDC88A
:1047A00005F9ECC804F9CCEC1BF001C0F1F80801E4
:1047B000F06BF151F05D59E2036AF051EC25E96EBE
:1047C000ED510320EA6EEF502F084DE1036AF051DE
:1047D000EC25E96EED510320EA6EEF6AEFC803F0B5
:1047E000EEC8E9FFEFC8EAFFEFCFF4F8F3C8F6F838
:1047F000F2C8F5F8F4C8F7F8000176D6015226E1C0
:10480000EFC803F0EEC8E9FFEFC8EAFF0901356B16
:10481000EFCF34F9040E376F330E366F000161ECC1
:104820000AF001C0F5F8320E08010124016E040EF1
:104830000220036E0150A20FE96E020E0320EA6E01
:10484000010EEF6E000E016E026E13D00801F051E2
:10485000EC25F46F000EED21F56F010EF425F26FDB
:10486000000EF521F36FF02BA4D7F2C801F0F3C8C6
:1048700002F00001BFEF2AF04CC202F94BC201F96D
:104880004AC200F949C2FFF80601D6510308D8A46C
:10489000EFD002C9FEF801C9FDF800C9FCF8FFC855
:1048A000FBF80801FE510201995DD8A0DFD016E1A6
:1048B0000801FD510201985DD8A0D8D00FE1080190
:1048C000FC510201975DD8A0D1D008E196510801B2
:1048D000FB5DD8A002D00201C9D0020151510801EC
:1048E000FB5D0FE1020152510801FC5D0AE102018A
:1048F00053510801FD5D05E1020154510801FE5DBF
:104900004DE002018051552509010D6F02018151D1
:10491000562109010E6F000E0201572109010F6F88
:10492000000E020158210901106F0801FB51090115
:104930000D25036F0801FC5109010E21046F0801C8
:10494000FD5109010F21056F0801FE5109011021D8
:10495000066F0201715303E000014EEC13F006C92B
:1049600037F905C936F904C935F903C934F909011C
:10497000396B490E386F000143EC17F0FEC84CF25A
:10498000FDC84BF2FCC84AF2FBC849F24CC254F2D3
:104990004BC253F24AC252F249C251F209010C6BA6
:1049A0000B6B0C5358E10B517F0855E30B35026E2E
:1049B0000C35036E02360336FC0E02160250490F08
:1049C000E96E000E0320EA6EEFCF0DF9ECCF0EF981
:1049D000ECCF0FF9ECCF10F90D5339E10E5337E15D
:1049E0000F5335E1105333E1FEC80AF9FDC809F948
:1049F000FCC808F9FBC807F90737083709370A3731
:104A00000737083709370A370737083709370A37AA
:104A10000737083709370A370737083709370A379A
:104A20000737083709370A370737083709370A378A
:104A3000800E07170B5107130C51081307C900F01C
:104A400008C901F009C902F00AC903F0F2D00B2B22
:104A5000D8B40C2BA6D7010E0801FB27D8B0FC2B2D
:104A6000D8B4FD2BD8B4FE2B1DD70201DBD0060134
:104A700002C9FEF801C9FDF800C9FCF8FFC8FBF83F
:104A80000801FE53D8A4CDD0FD53D8A4CAD0FC5100
:104A90000201895DD8B002D00801C3D006E1885177
:104AA0000801FB5DD8B0BDD0020151510801FB5D8A
:104AB0000FE1020152510801FC5D0AE1020153516C
:104AC0000801FD5D05E1020154510801FE5D4DE064
:104AD00002018051552509010D6F020181515621B6
:104AE00009010E6F000E0201572109010F6F000E20
:104AF000020158210901106F0801FB5109010D2520
:104B0000036F0801FC5109010E21046F0801FD51DA
:104B100009010F21056F0801FE5109011021066FDF
:104B20000201715303E000014EEC13F006C937F99E
:104B300005C936F904C935F903C934F90901396BD6
:104B4000490E386F000143EC17F0FEC84CF2FDC867
:104B50004BF2FCC84AF2FBC849F24CC254F24BC2B9
:104B600053F24AC252F249C251F209010C6B0B6B6B
:104B70000C5100084CE3D8900B35026E0C35036ED7
:104B80000250490FE96E000E0320EA6EECCF0EF9D9
:104B9000ED52EFCF0DF90D5336E10E5334E1FEC85F
:104BA0000AF9FDC809F9FCC808F9FBC807F909C9E1
:104BB0000AF908C909F907C908F9076B0B51071366
:104BC0000C5108130A530AE1095308E10851FE0881
:104BD00011E2FF0A03E10751F4080CE207C900F0F3
:104BE00008C901F00951FF09026E0A510F09036E4D
:104BF00020D009D007C900F008C901F009C902F0A6
:104C00000AC903F016D00B2BD8B40C2BB1D7010E68
:104C10000801FB27D8B0FC2BD8B4FD2BD8B4FE2B51
:104C200030D70201FF0E006E016E026E0F0E036E92
:104C300009010001000C0601D6510308D8A494D044
:104C400009010431106F03310F6F02310E6F013112
:104C50000D6F10330F330E330D3310330F330E330C
:104C60000D3310330F330E330D3310330F330E3338
:104C70000D3310330F330E330D3310330F330E3328
:104C80000D33010E101701517F0B116F020180517E
:104C900055250901126F0201815156210901136F37
:104CA000000E020157210901146F000E0201582164
:104CB0000901156F0D511225096F0E5113210A6F4D
:104CC0000F5114210B6F105115210C6F020151511E
:104CD00009010D5D0FE10201525109010E5D0AE16A
:104CE0000201535109010F5D05E10201545109010F
:104CF000105D1EE00201715303E000014EEC13F061
:104D00000CC937F90BC936F90AC935F909C934F99B
:104D10000901396B490E386F000143EC17F010C9D7
:104D200054F20FC953F20EC952F20DC951F20901E2
:104D3000356B11C934F9376B040E366F000161EC25
:104D40000AF00150490FE96E000E0220EA6E05C913
:104D5000EFFF06C9ECFF07C9ECFF08C9ECFF010E25
:104D60000201716F6FD0060102C90DF903C90EF976
:104D700004C90FF90901106B01C911F90201805131
:104D800055250901126F0201815156210901136F46
:104D9000000E020157210901146F000E0201582173
:104DA0000901156F0D511225096F0E5113210A6F5C
:104DB0000F5114210B6F105115210C6F020151512D
:104DC00009010D5D0FE10201525109010E5D0AE179
:104DD0000201535109010F5D05E10201545109011E
:104DE000105D1EE00201715303E000014EEC13F070
:104DF0000CC937F90BC936F90AC935F909C934F9AB
:104E00000901396B490E386F000143EC17F010C9E6
:104E100054F20FC953F20EC952F20DC951F20901F1
:104E2000D8901135026E036A03360250490FE96EBD
:104E3000000E0320EA6E05C9EFFF06C9ECFF010E64
:104E40000201716F0001000C0901036B006BFEC8C9
:104E500005F9FDC804F90001CCEC1BF001C001F913
:104E60000801FF6BFF5107080BE3036AFF51FB25A5
:104E7000E96EFC510320EA6E200EEF6EFF2BF2D795
:104E8000FF6BFF51020810E3036AFF51080F016E28
:104E9000000E03220150FB25E96EFC510320EA6E4F
:104EA000200EEF6EFF2BEDD7FF6B090101510801BA
:104EB000FF5D3DE2036AFF51FD25E96EFE510320CF
:104EC000EA6EEFCF02F909010251600806E20251D1
:104ED0007A0803E30251DF0B01D00251026F025145
:104EE0002E0803E1010E036F1FD0035312E000519F
:104EF000002B036A080F016E000E03220150080107
:104F0000FB25E96EFC510320EA6E02C9EFFF0BD0CE
:104F10000901036A0801FF51FB25E96EFC510320DA
:104F2000EA6E02C9EFFF09010801FF2BBED700019D
:104F3000B5EF29F00801EC5303E0000E016E09D330
:104F40000601D6510308D8A42DD10201653DFCD03D
:104F5000663DFAD0673DF8D068510F08D8A4F4D068
:104F600000018ADC03C068F202C067F201C066F289
:104F700000C065F20201646B636B0901356BECC81C
:104F800034F9040E376F330E366F000161EC0AF00E
:104F900002C0FCF801C0FBF8200E08010124016EDC
:104FA000040E0220036E0150A20FE96E020E0320D0
:104FB000EA6EEFCFFDF8ECCFFEF8ECCFFFF8ECCFC8
:104FC00000F900C904F9FFC803F9FEC802F9FDC8D9
:104FD00001F968C208F967C207F966C206F965C235
:104FE00005F9000128DE68C204F967C203F966C248
:104FF00002F965C201F90F0E0901086FFF0E076F74
:10500000066F056F000117DE68C22CF967C22BF925
:1050100066C22AF965C229F90901306B2F6B2E6B24
:105020007FC22DF9000191EC11F0020159510801E4
:105030000024F16F02015A5108010120F26F0201B0
:105040005B5108010220F36F02015C51080103204B
:10505000F46FFA6BF96BFA51010824E30901356B1F
:10506000ECC834F9040E376F330E366F000161EC73
:105070000AF001C0FBF8080101C0FDF8020E02248D
:10508000FE6FF9510124016EFA51FE21036E0150A9
:10509000A20FE96E020E0320EA6EEF6AF92BD8B474
:1050A000FA2BD9D7FA6BF96BFA5345E102017F511C
:1050B0000801F95D40E2F951F125FB6FFA51F22147
:1050C000FC6F000EF321FD6F000EF421FE6F09014D
:1050D000356BECC834F9040E376F330E366F0001B0
:1050E00061EC0AF002C000F901C0FFF801C001F054
:1050F000020E09010224036E0150A20F016E020E7E
:10510000032201C001F903C002F9FEC83BF9FDC842
:105110003AF9FCC839F9FBC838F903C03DF901C0B8
:105120003CF90001AAEC12F001C0D5F60801F92BF8
:10513000D8B4FA2BB9D70601D55305E0000E016E9D
:10514000080107D206012DD00901356BECC834F9EE
:10515000040E376F330E366F000161EC0AF002C0A7
:10516000FCF801C0FBF82B0E08010124016E040EAF
:105170000220036E0150A20FE96E020E0320EA6EB8
:10518000EFCF00F0ECCF01F0ECCF02F0ECCF03F06A
:1051900003C0F4F802C0F3F801C0F2F800C0F1F85F
:1051A00006012CD00901356BECC834F9040E376FB9
:1051B000330E366F000161EC0AF002C0FCF801C04A
:1051C000FBF82B0E08010124016E040E0220036E71
:1051D0000150A20FE96E020E0320EA6EEFCF00F03D
:1051E000ECCF01F0ECCF02F0ECCF03F003C0F4F809
:1051F00002C0F3F801C0F2F800C0F1F80901356B04
:10520000ECC834F9040E376F330E366F000161ECD1
:105210000AF002C0FCF801C0FBF8080101C001F06F
:10522000020E0224036E0150A20F016E020E032231
:1052300001C0FDF803C0FEF8F4C837F9F3C836F929
:10524000F2C835F9F1C834F903C039F901C038F9A9
:10525000000143EC17F00901356BECC834F9040E7A
:10526000376F330E366F000161EC0AF001C0FBF8B6
:10527000080101C0FDF8020E0224FE6F0201633531
:105280000801FF6F020164350901006F0801FF3753
:10529000090100370801FF37090100370801FF370E
:1052A000090100370801FF3709010037E00E080146
:1052B000FF17FF510124016E090100510801FE2171
:1052C000036E0150A20F016E020E032201C0EFF81F
:1052D00003C0F0F80901356BECC834F9040E376FE0
:1052E000330E366F000161EC0AF001C0FBF82B0EA3
:1052F00008010124016E040E0220036E0150A20F6A
:10530000E96E020E0320EA6EF1C8EFFFF2C8ECFF6F
:10531000F3C8ECFFF4C8ECFF0901356BECC834F9B5
:10532000040E376F330E366F000161EC0AF001C0D6
:10533000FBF82F0E08010124016E040E0220036EFB
:105340000150A20FE96E020E0320EA6E64C2ECFF68
:10535000ED5263C2EFFFF0C8FCF8EFC8FBF8EEC8EF
:10536000FEF8EDC8FDF800016FD50B0E0801EF2522
:10537000E96E000EF021EA6EEF6A00013CEC24F0C9
:1053800003C0F8F802C0F7F801C0F6F800C0F5F85D
:105390001A0E0801EF25E96E000EF021EA6EF5C83D
:1053A000EFFFF6C8ECFF140EEF25E96E000EF021BA
:1053B000EA6EF7C8EFFFF8C8ECFFF8C804F9F7C8C1
:1053C00003F9F6C802F9F5C801F90F0E0901086FD3
:1053D000FF0E076F066F056F00012DDC1C0E080124
:1053E000EF25E96E000EF021EA6EEE52EE52EC6A05
:1053F000ED52EF6AED52EF6AED52EF6A0901356B3B
:10540000ECC834F9040E376F330E366F000161ECCF
:105410000AF001C0FBF8270E08010124016E040EFA
:105420000220036E0150A20FE96E020E0320EA6E05
:10543000EE52EE52EC6AED52EF6AED52EF6AED5227
:10544000EF6A180EEF25016E000EF021036E01C009
:10545000FBF8FC6F0001A8EC13F0FCC8EAFFFBC8E6
:10546000E9FF02C0ECFFED5201C0EFFF160E08018C
:10547000EF25016E000EF021036E01C0FBF8FC6FFA
:105480000001D6EC13F0FCC8EAFFFBC8E9FF02C03C
:10549000ECFFED5201C0EFFF0901356BECC834F9A8
:1054A000040E376F330E366F000161EC0AF002C054
:1054B000FCF801C0FBF8080101C001F0020E022453
:1054C000036E0150A20F016E020E032201C0FDF80F
:1054D00003C0FEF8F4C83BF9F3C83AF9F2C839F949
:1054E000F1C838F903C03DF901C03CF90001AAEC4C
:1054F00012F001C0D5F60901356BECC834F9040E81
:10550000376F330E366F000161EC0AF002C0FCF811
:1055100001C0FBF8080101C001F0040E0224036E73
:105520000150A20F016E020E032201C0FDF803C05C
:10553000FEF803C0EAFF01C0E9FFF0C8E2FFEFC8D0
:10554000E1FF200E016EE6CFEEFF012EFCD7010E2B
:10555000016E00010BEF2BF0978C85AC04D0FF0E91
:10556000016E33EF2FF0DAC8EDF8D9C8ECF8080E69
:105570000801EF6FDD0EEE6F00015FEF23F002C058
:10558000EBF801C0EAF80801EA5308E1EB5306E141
:10559000FF0E016E000133EF2FF00801DC6BEBC84A
:1055A000FDF8EAC8FCF8DDC8FEF800014DEC1EF07D
:1055B00001C0DCF80801DC5337E1DB51720823E15C
:1055C0000901356BDDC834F9040E376F330E366FC1
:1055D000000161EC0AF001C0ECF8320E0801012470
:1055E000016E040E0220036E0150A20FE96E020E3E
:1055F0000320EA6E010EEF6EFF0E016E000133EF25
:105600002FF013D00801DDC8ECF8EBC8EEF8EAC8BB
:10561000EDF800018FD4015204E1FF0E016E33EF6B
:105620002FF0010E0801DC6F00010801DC53D8B433
:1056300031EF2FF00901356BDDC834F9040E376FF7
:10564000330E366F000161EC0AF001C0ECF8320E47
:1056500008010124016E040E0220036E0150A20F06
:10566000E96E020E0320EA6EEF6A0901356BDDC8B0
:1056700034F9040E376F330E366F000161EC0AF017
:1056800001C0ECF8310E08010124016E040E022065
:10569000036E0150A20FE96E020E0320EA6EDBC812
:1056A000EFFFDB516108D8A4EBD20901356BDDC8EF
:1056B00034F9040E376F330E366F000161EC0AF0D7
:1056C00002C0EDF801C0ECF8270E08010124016EBC
:1056D000040E0220036E0150A20F016E020E03227F
:1056E00001C0EEF803C0EFF80901356BDDC834F9ED
:1056F000040E376F330E366F000161EC0AF002C002
:10570000F1F801C0F0F8080101C0F2F8040E02241B
:10571000F36F1C0E0124016E000EF321036E015085
:10572000A20FE96E020E0320EA6EEFCF00F0ECCF7D
:1057300001F0ECCF02F0ECCF03F0EFC8EAFFEEC8C7
:10574000E9FF00C0EFFF01C0ECFF02C0ECFF03C0A7
:10575000ECFFDDC800F900010DEC22F003C0E5F814
:1057600002C0E4F801C0E3F800C0E2F8E5C8E9F8D7
:10577000E4C8E8F8E3C8E7F8E2C8E6F80801EC6B2B
:10578000EC51000131EC01F00801EC2B006E0050EF
:105790009EA8FED7AE6E140EEC5DF2E1410EE96EEE
:1057A000E5C845F9E4C844F9E3C843F9E2C842F959
:1057B0000001FFEC11F0280E9EA8FED7AE6E300E51
:1057C0009EA8FED7AE6E780E9EA8FED7AE6E020ED5
:1057D0000801ED6F300E9EA8FED7AE6EED2FFAD702
:1057E000E2C8EEF8370EEF6F0001DEEC07F0290E8D
:1057F0009EA8FED7AE6E2E0E9EA8FED7AE6E0801F6
:10580000E23D07D0E33D05D0E43D03D0E5510F086C
:1058100037E0E65306E1E75304E1E85302E1E953D8
:105820002FE0E5C82AF9E4C829F9E3C828F9E2C855
:1058300027F9000112EC1DF003C0E9F802C0E8F8F6
:1058400001C0E7F800C0E6F80801E63D07D0E73DF3
:1058500005D0E83D03D0E9510F0808E0E65307E121
:10586000E75305E1E85303E1E95301E109D0E9C851
:10587000E5F8E8C8E4F8E7C8E3F8E6C8E2F8C0D716
:10588000EC6BEC51000154EC01F00801EC2B006EC4
:1058900000509EA8FED7AE6E140EEC5DF2E1410EF4
:1058A000E96EE5C845F9E4C844F9E3C843F9E2C83C
:1058B00042F90001FFEC11F0280E9EA8FED7AE6E53
:1058C000300E9EA8FED7AE6E780E9EA8FED7AE6EA6
:1058D000020E0801ED6F300E9EA8FED7AE6EED2FC2
:1058E000FAD7E2C8EEF8370EEF6F0001DEEC07F0F2
:1058F000290E9EA8FED7AE6E2E0E9EA8FED7AE6EC7
:10590000E5C82CF9E4C82BF9E3C82AF9E2C829F95B
:105910000901306B2F6B2E6B7FC22DF9000191ECCA
:1059200011F00201595108010024DE6F02015A51A1
:1059300008010120DF6F02015B5108010220E06FC6
:1059400002015C5108010320E16F0901356BDDC8DC
:1059500034F9040E376F330E366F000161EC0AF034
:1059600002C0EDF801C0ECF8240E08010124016E1C
:10597000040E0220036E0150A20F016E020E0322DC
:1059800001C0EEF803C0EFF80901356BDDC834F94A
:10599000040E376F330E366F000161EC0AF002C05F
:1059A000F1F801C0F0F8270E08010124016E040E81
:1059B0000220036E0150A20FE96E020E0320EA6E70
:1059C000EFCFF2F8ECCFF3F8ECCFF4F8ECCFF5F83A
:1059D000ED52ED52ED52D890FA6BF531F96FF4318A
:1059E000F86FF331F76FEACFFCF8E9CFFBF8FAC8AC
:1059F00051F9F9C850F9F8C84FF9E8CF4EF9090143
:105A0000556B546B536B7FC252F90001BFEC11F020
:105A1000EFCF00F0ECCF01F0ECCF02F0ECCF03F0D1
:105A2000FCC8EAFFFBC8E9FFEFC8EAFFEEC8E9FFE0
:105A300000C0EFFF0901356BDDC834F9040E376F84
:105A4000330E366F000161EC0AF001C0ECF8240E51
:105A500008010124016E040E0220036E0150A20F02
:105A6000E96E020E0320EA6EEF50DE27000EDF2300
:105A7000E023E1230901356BDDC834F9040E376FEB
:105A8000330E366F000161EC0AF002C0EDF801C080
:105A9000ECF8A20E08010124016E020E0220036E32
:105AA00001C0EEF8EF6FE1C837F9E0C836F9DFC89A
:105AB00035F9DEC834F9E8CF39F901C038F9000109
:105AC00043EC17F00901356BDDC834F9040E376F6C
:105AD000330E366F000161EC0AF001C0ECF8200EC5
